{
  "contractName": "Simplebank",
  "abi": [
    {
      "inputs": [],
      "stateMutability": "nonpayable",
      "type": "constructor"
    },
    {
      "inputs": [],
      "name": "lastBid",
      "outputs": [
        {
          "internalType": "uint256",
          "name": "",
          "type": "uint256"
        }
      ],
      "stateMutability": "view",
      "type": "function",
      "constant": true
    },
    {
      "inputs": [],
      "name": "lastFunder",
      "outputs": [
        {
          "internalType": "address",
          "name": "",
          "type": "address"
        }
      ],
      "stateMutability": "view",
      "type": "function",
      "constant": true
    },
    {
      "inputs": [],
      "name": "lowestProductIDForSale",
      "outputs": [
        {
          "internalType": "uint256",
          "name": "",
          "type": "uint256"
        }
      ],
      "stateMutability": "view",
      "type": "function",
      "constant": true
    },
    {
      "inputs": [],
      "name": "lp",
      "outputs": [
        {
          "internalType": "uint256",
          "name": "",
          "type": "uint256"
        }
      ],
      "stateMutability": "view",
      "type": "function",
      "constant": true
    },
    {
      "inputs": [],
      "name": "minAmountForBid",
      "outputs": [
        {
          "internalType": "uint256",
          "name": "",
          "type": "uint256"
        }
      ],
      "stateMutability": "view",
      "type": "function",
      "constant": true
    },
    {
      "inputs": [],
      "name": "numberofFunders",
      "outputs": [
        {
          "internalType": "uint256",
          "name": "",
          "type": "uint256"
        }
      ],
      "stateMutability": "view",
      "type": "function",
      "constant": true
    },
    {
      "inputs": [],
      "name": "numberofFunds",
      "outputs": [
        {
          "internalType": "uint256",
          "name": "",
          "type": "uint256"
        }
      ],
      "stateMutability": "view",
      "type": "function",
      "constant": true
    },
    {
      "inputs": [],
      "name": "owner",
      "outputs": [
        {
          "internalType": "address",
          "name": "",
          "type": "address"
        }
      ],
      "stateMutability": "view",
      "type": "function",
      "constant": true
    },
    {
      "inputs": [],
      "name": "payForUploadProduct",
      "outputs": [
        {
          "internalType": "uint256",
          "name": "",
          "type": "uint256"
        }
      ],
      "stateMutability": "view",
      "type": "function",
      "constant": true
    },
    {
      "inputs": [],
      "name": "productOwner",
      "outputs": [
        {
          "internalType": "address",
          "name": "",
          "type": "address"
        }
      ],
      "stateMutability": "view",
      "type": "function",
      "constant": true
    },
    {
      "inputs": [
        {
          "internalType": "address",
          "name": "",
          "type": "address"
        }
      ],
      "name": "products",
      "outputs": [
        {
          "internalType": "uint256",
          "name": "id",
          "type": "uint256"
        },
        {
          "internalType": "string",
          "name": "name",
          "type": "string"
        },
        {
          "internalType": "uint256",
          "name": "startingPriceEthr",
          "type": "uint256"
        },
        {
          "internalType": "string",
          "name": "generalDescription",
          "type": "string"
        },
        {
          "internalType": "address",
          "name": "funder",
          "type": "address"
        },
        {
          "internalType": "string",
          "name": "isSold",
          "type": "string"
        }
      ],
      "stateMutability": "view",
      "type": "function",
      "constant": true
    },
    {
      "inputs": [
        {
          "internalType": "address",
          "name": "newOwner",
          "type": "address"
        }
      ],
      "name": "transferOwnership",
      "outputs": [],
      "stateMutability": "nonpayable",
      "type": "function"
    },
    {
      "inputs": [],
      "name": "addFundsPlain",
      "outputs": [],
      "stateMutability": "payable",
      "type": "function",
      "payable": true
    },
    {
      "inputs": [],
      "name": "addFunds",
      "outputs": [],
      "stateMutability": "payable",
      "type": "function",
      "payable": true
    },
    {
      "inputs": [],
      "name": "payForUpload",
      "outputs": [],
      "stateMutability": "payable",
      "type": "function",
      "payable": true
    },
    {
      "inputs": [],
      "name": "getAllFunders",
      "outputs": [
        {
          "internalType": "address[]",
          "name": "",
          "type": "address[]"
        }
      ],
      "stateMutability": "view",
      "type": "function",
      "constant": true
    },
    {
      "inputs": [
        {
          "internalType": "uint256",
          "name": "withdrawAmount",
          "type": "uint256"
        }
      ],
      "name": "withdraw",
      "outputs": [],
      "stateMutability": "nonpayable",
      "type": "function"
    },
    {
      "inputs": [],
      "name": "getLastFunder",
      "outputs": [
        {
          "internalType": "address",
          "name": "",
          "type": "address"
        }
      ],
      "stateMutability": "view",
      "type": "function",
      "constant": true
    },
    {
      "inputs": [],
      "name": "getProductOwner",
      "outputs": [
        {
          "internalType": "address",
          "name": "",
          "type": "address"
        }
      ],
      "stateMutability": "view",
      "type": "function",
      "constant": true
    },
    {
      "inputs": [],
      "name": "getMinAmount",
      "outputs": [
        {
          "internalType": "uint256",
          "name": "",
          "type": "uint256"
        }
      ],
      "stateMutability": "view",
      "type": "function",
      "constant": true
    },
    {
      "inputs": [],
      "name": "getNumberofFunds",
      "outputs": [
        {
          "internalType": "uint256",
          "name": "",
          "type": "uint256"
        }
      ],
      "stateMutability": "view",
      "type": "function",
      "constant": true
    },
    {
      "inputs": [
        {
          "internalType": "address payable",
          "name": "recipient",
          "type": "address"
        },
        {
          "internalType": "uint256",
          "name": "amount",
          "type": "uint256"
        }
      ],
      "name": "withdrawTo",
      "outputs": [],
      "stateMutability": "nonpayable",
      "type": "function"
    },
    {
      "inputs": [
        {
          "internalType": "string",
          "name": "_name",
          "type": "string"
        },
        {
          "internalType": "uint256",
          "name": "_startingPriceEthr",
          "type": "uint256"
        },
        {
          "internalType": "string",
          "name": "_generalDescription",
          "type": "string"
        },
        {
          "internalType": "address",
          "name": "_owner",
          "type": "address"
        }
      ],
      "name": "addNewProduct",
      "outputs": [],
      "stateMutability": "nonpayable",
      "type": "function"
    },
    {
      "inputs": [],
      "name": "getAllProducts",
      "outputs": [
        {
          "components": [
            {
              "internalType": "uint256",
              "name": "id",
              "type": "uint256"
            },
            {
              "internalType": "string",
              "name": "name",
              "type": "string"
            },
            {
              "internalType": "uint256",
              "name": "startingPriceEthr",
              "type": "uint256"
            },
            {
              "internalType": "string",
              "name": "generalDescription",
              "type": "string"
            },
            {
              "internalType": "address",
              "name": "funder",
              "type": "address"
            },
            {
              "internalType": "string",
              "name": "isSold",
              "type": "string"
            }
          ],
          "internalType": "struct Simplebank.Product[]",
          "name": "",
          "type": "tuple[]"
        }
      ],
      "stateMutability": "view",
      "type": "function",
      "constant": true
    },
    {
      "inputs": [],
      "name": "getBalance",
      "outputs": [
        {
          "internalType": "uint256",
          "name": "",
          "type": "uint256"
        }
      ],
      "stateMutability": "view",
      "type": "function",
      "constant": true
    },
    {
      "inputs": [],
      "name": "payContractOwner",
      "outputs": [],
      "stateMutability": "payable",
      "type": "function",
      "payable": true
    },
    {
      "inputs": [],
      "name": "getLowestProductIDForSale",
      "outputs": [
        {
          "internalType": "uint256",
          "name": "",
          "type": "uint256"
        }
      ],
      "stateMutability": "view",
      "type": "function",
      "constant": true
    }
  ],
  "bytecode": "0x60806040526000600f5534801561001557600080fd5b5033600760006101000a81548173ffffffffffffffffffffffffffffffffffffffff021916908373ffffffffffffffffffffffffffffffffffffffff1602179055507323b2721ccb602b1080ce57c6b724119dc9ccb278600860006101000a81548173ffffffffffffffffffffffffffffffffffffffff021916908373ffffffffffffffffffffffffffffffffffffffff160217905550670de0b6b3a7640000600581905550600060048190555061390b806100d26000396000f3fe60806040526004361061019c5760003560e01c80636fbbb55d116100ec578063b078b8f01161008a578063db1534b311610064578063db1534b31461052c578063e581442014610557578063ec60193014610561578063f2fde38b1461058c5761019c565b8063b078b8f0146104ab578063cfc7e2da146104d6578063d77a80a8146105015761019c565b8063821f6c2a116100c6578063821f6c2a146104205780638da5cb5b1461044b5780639209bb8814610476578063a26759cb146104a15761019c565b80636fbbb55d1461038857806377eaf884146103b3578063793a8e71146103de5761019c565b806330e88bf81161015957806352762a901161013357806352762a90146102de578063562d6c111461030957806357adae6d146103325780635e3d39571461035d5761019c565b806330e88bf81461027e578063313c06a01461028857806331970a07146102b35761019c565b806302ee3a52146101a15780630ba002e0146101cc57806312065fe0146101f7578063205c287814610222578063257e50111461024b5780632e1a7d4d14610255575b600080fd5b3480156101ad57600080fd5b506101b66105b5565b6040516101c39190612877565b60405180910390f35b3480156101d857600080fd5b506101e1610a04565b6040516101ee91906128a8565b60405180910390f35b34801561020357600080fd5b5061020c610a2e565b60405161021991906128d2565b60405180910390f35b34801561022e57600080fd5b506102496004803603810190610244919061296b565b610a36565b005b610253610b54565b005b34801561026157600080fd5b5061027c600480360381019061027791906129ab565b610da8565b005b610286610e94565b005b34801561029457600080fd5b5061029d611039565b6040516102aa91906128d2565b60405180910390f35b3480156102bf57600080fd5b506102c861103f565b6040516102d591906128d2565b60405180910390f35b3480156102ea57600080fd5b506102f3611045565b60405161030091906128d2565b60405180910390f35b34801561031557600080fd5b50610330600480360381019061032b9190612b39565b61104b565b005b34801561033e57600080fd5b506103476115c8565b60405161035491906128a8565b60405180910390f35b34801561036957600080fd5b506103726115f2565b60405161037f91906128d2565b60405180910390f35b34801561039457600080fd5b5061039d6115f8565b6040516103aa9190612c87565b60405180910390f35b3480156103bf57600080fd5b506103c86116f1565b6040516103d591906128d2565b60405180910390f35b3480156103ea57600080fd5b5061040560048036038101906104009190612ca9565b6116fb565b60405161041796959493929190612d20565b60405180910390f35b34801561042c57600080fd5b506104356118ef565b60405161044291906128d2565b60405180910390f35b34801561045757600080fd5b506104606118f5565b60405161046d91906128a8565b60405180910390f35b34801561048257600080fd5b5061048b61191b565b60405161049891906128a8565b60405180910390f35b6104a9611941565b005b3480156104b757600080fd5b506104c0612172565b6040516104cd91906128d2565b60405180910390f35b3480156104e257600080fd5b506104eb612178565b6040516104f891906128d2565b60405180910390f35b34801561050d57600080fd5b50610516612182565b60405161052391906128a8565b60405180910390f35b34801561053857600080fd5b506105416121a8565b60405161054e91906128d2565b60405180910390f35b61055f6123ee565b005b34801561056d57600080fd5b506105766124b1565b60405161058391906128d2565b60405180910390f35b34801561059857600080fd5b506105b360048036038101906105ae9190612ca9565b6124b7565b005b60606000805b600054811015610668576000600c600083815260200190815260200160002060009054906101000a900473ffffffffffffffffffffffffffffffffffffffff1690506000600d60008373ffffffffffffffffffffffffffffffffffffffff1673ffffffffffffffffffffffffffffffffffffffff16815260200190815260200160002054111561065457828061065090612dc5565b9350505b50808061066090612dc5565b9150506105bb565b5060008167ffffffffffffffff811115610685576106846129e2565b5b6040519080825280602002602001820160405280156106be57816020015b6106ab61258b565b8152602001906001900390816106a35790505b5090506000805b6000548110156109fa576000600c600083815260200190815260200160002060009054906101000a900473ffffffffffffffffffffffffffffffffffffffff1690506000600d60008373ffffffffffffffffffffffffffffffffffffffff1673ffffffffffffffffffffffffffffffffffffffff1681526020019081526020016000205411156109e657601060008273ffffffffffffffffffffffffffffffffffffffff1673ffffffffffffffffffffffffffffffffffffffff1681526020019081526020016000206040518060c0016040529081600082015481526020016001820180546107b390612e3c565b80601f01602080910402602001604051908101604052809291908181526020018280546107df90612e3c565b801561082c5780601f106108015761010080835404028352916020019161082c565b820191906000526020600020905b81548152906001019060200180831161080f57829003601f168201915b505050505081526020016002820154815260200160038201805461084f90612e3c565b80601f016020809104026020016040519081016040528092919081815260200182805461087b90612e3c565b80156108c85780601f1061089d576101008083540402835291602001916108c8565b820191906000526020600020905b8154815290600101906020018083116108ab57829003601f168201915b505050505081526020016004820160009054906101000a900473ffffffffffffffffffffffffffffffffffffffff1673ffffffffffffffffffffffffffffffffffffffff1673ffffffffffffffffffffffffffffffffffffffff16815260200160058201805461093790612e3c565b80601f016020809104026020016040519081016040528092919081815260200182805461096390612e3c565b80156109b05780601f10610985576101008083540402835291602001916109b0565b820191906000526020600020905b81548152906001019060200180831161099357829003601f168201915b5050505050815250508484815181106109cc576109cb612e6d565b5b602002602001018190525082806109e290612dc5565b9350505b5080806109f290612dc5565b9150506106c5565b5081935050505090565b6000600960009054906101000a900473ffffffffffffffffffffffffffffffffffffffff16905090565b600047905090565b600760009054906101000a900473ffffffffffffffffffffffffffffffffffffffff1673ffffffffffffffffffffffffffffffffffffffff163373ffffffffffffffffffffffffffffffffffffffff1614610ac6576040517f08c379a0000000000000000000000000000000000000000000000000000000008152600401610abd90612ee8565b60405180910390fd5b80471015610b09576040517f08c379a0000000000000000000000000000000000000000000000000000000008152600401610b0090612f7a565b60405180910390fd5b8173ffffffffffffffffffffffffffffffffffffffff166108fc829081150290604051600060405180830381858888f19350505050158015610b4f573d6000803e3d6000fd5b505050565b600033905060003490506005548114610ba2576040517f08c379a0000000000000000000000000000000000000000000000000000000008152600401610b9990612fe6565b60405180910390fd5b600a60008373ffffffffffffffffffffffffffffffffffffffff1673ffffffffffffffffffffffffffffffffffffffff16815260200190815260200160002060009054906101000a900460ff1615610c2f576040517f08c379a0000000000000000000000000000000000000000000000000000000008152600401610c2690613078565b60405180910390fd5b81600960006101000a81548173ffffffffffffffffffffffffffffffffffffffff021916908373ffffffffffffffffffffffffffffffffffffffff1602179055506000806000815480929190610c8490612dc5565b9190505590506001600a60008573ffffffffffffffffffffffffffffffffffffffff1673ffffffffffffffffffffffffffffffffffffffff16815260200190815260200160002060006101000a81548160ff02191690831515021790555082600c600083815260200190815260200160002060006101000a81548173ffffffffffffffffffffffffffffffffffffffff021916908373ffffffffffffffffffffffffffffffffffffffff1602179055506000600760009054906101000a900473ffffffffffffffffffffffffffffffffffffffff1690508073ffffffffffffffffffffffffffffffffffffffff166108fc349081150290604051600060405180830381858888f19350505050158015610da1573d6000803e3d6000fd5b5050505050565b670de0b6b3a7640000811080610e0b5750600760009054906101000a900473ffffffffffffffffffffffffffffffffffffffff1673ffffffffffffffffffffffffffffffffffffffff163373ffffffffffffffffffffffffffffffffffffffff16145b610e4a576040517f08c379a0000000000000000000000000000000000000000000000000000000008152600401610e41906130e4565b60405180910390fd5b3373ffffffffffffffffffffffffffffffffffffffff166108fc829081150290604051600060405180830381858888f19350505050158015610e90573d6000803e3d6000fd5b5050565b6000339050600254341015610ede576040517f08c379a0000000000000000000000000000000000000000000000000000000008152600401610ed590613150565b60405180910390fd5b80600960006101000a81548173ffffffffffffffffffffffffffffffffffffffff021916908373ffffffffffffffffffffffffffffffffffffffff160217905550600a60008273ffffffffffffffffffffffffffffffffffffffff1673ffffffffffffffffffffffffffffffffffffffff16815260200190815260200160002060009054906101000a900460ff16611036576000806000815480929190610f8490612dc5565b9190505590506001600a60008473ffffffffffffffffffffffffffffffffffffffff1673ffffffffffffffffffffffffffffffffffffffff16815260200190815260200160002060006101000a81548160ff02191690831515021790555081600c600083815260200190815260200160002060006101000a81548173ffffffffffffffffffffffffffffffffffffffff021916908373ffffffffffffffffffffffffffffffffffffffff160217905550505b50565b60045481565b60035481565b60025481565b601160008273ffffffffffffffffffffffffffffffffffffffff1673ffffffffffffffffffffffffffffffffffffffff16815260200190815260200160002060009054906101000a900460ff16156110d8576040517f08c379a00000000000000000000000000000000000000000000000000000000081526004016110cf906131e2565b60405180910390fd5b60006040518060c00160405280600f5481526020018681526020018581526020018481526020018373ffffffffffffffffffffffffffffffffffffffff1681526020016040518060400160405280600881526020017f6e6f7420536f6c640000000000000000000000000000000000000000000000008152508152509050600b60008373ffffffffffffffffffffffffffffffffffffffff1673ffffffffffffffffffffffffffffffffffffffff1681526020019081526020016000208190806001815401808255809150506001900390600052602060002090600602016000909190919091506000820151816000015560208201518160010190816111de91906133ae565b506040820151816002015560608201518160030190816111fe91906133ae565b5060808201518160040160006101000a81548173ffffffffffffffffffffffffffffffffffffffff021916908373ffffffffffffffffffffffffffffffffffffffff16021790555060a082015181600501908161125b91906133ae565b50505080601060008473ffffffffffffffffffffffffffffffffffffffff1673ffffffffffffffffffffffffffffffffffffffff1681526020019081526020016000206000820151816000015560208201518160010190816112bd91906133ae565b506040820151816002015560608201518160030190816112dd91906133ae565b5060808201518160040160006101000a81548173ffffffffffffffffffffffffffffffffffffffff021916908373ffffffffffffffffffffffffffffffffffffffff16021790555060a082015181600501908161133a91906133ae565b50905050600d60008373ffffffffffffffffffffffffffffffffffffffff1673ffffffffffffffffffffffffffffffffffffffff168152602001908152602001600020600081548092919061138e90612dc5565b919050555081600c6000600f54815260200190815260200160002060006101000a81548173ffffffffffffffffffffffffffffffffffffffff021916908373ffffffffffffffffffffffffffffffffffffffff160217905550600f60008154809291906113fa90612dc5565b91905055506001601160008473ffffffffffffffffffffffffffffffffffffffff1673ffffffffffffffffffffffffffffffffffffffff16815260200190815260200160002060006101000a81548160ff0219169083151502179055506001600f54036114ca5781600860006101000a81548173ffffffffffffffffffffffffffffffffffffffff021916908373ffffffffffffffffffffffffffffffffffffffff160217905550670de0b6b3a7640000846114b69190613480565b600281905550600f546003819055506115c1565b600b6000600860009054906101000a900473ffffffffffffffffffffffffffffffffffffffff1673ffffffffffffffffffffffffffffffffffffffff1673ffffffffffffffffffffffffffffffffffffffff16815260200190815260200160002060008154811061153e5761153d612e6d565b5b906000526020600020906006020160000154816000015110156115c05781600860006101000a81548173ffffffffffffffffffffffffffffffffffffffff021916908373ffffffffffffffffffffffffffffffffffffffff160217905550670de0b6b3a7640000846115b09190613480565b600281905550600f546003819055505b5b5050505050565b6000600860009054906101000a900473ffffffffffffffffffffffffffffffffffffffff16905090565b60065481565b60606000805467ffffffffffffffff811115611617576116166129e2565b5b6040519080825280602002602001820160405280156116455781602001602082028036833780820191505090505b50905060005b6000548110156116e957600c600082815260200190815260200160002060009054906101000a900473ffffffffffffffffffffffffffffffffffffffff1682828151811061169c5761169b612e6d565b5b602002602001019073ffffffffffffffffffffffffffffffffffffffff16908173ffffffffffffffffffffffffffffffffffffffff168152505080806116e190612dc5565b91505061164b565b508091505090565b6000600154905090565b600e60205280600052604060002060009150905080600001549080600101805461172490612e3c565b80601f016020809104026020016040519081016040528092919081815260200182805461175090612e3c565b801561179d5780601f106117725761010080835404028352916020019161179d565b820191906000526020600020905b81548152906001019060200180831161178057829003601f168201915b5050505050908060020154908060030180546117b890612e3c565b80601f01602080910402602001604051908101604052809291908181526020018280546117e490612e3c565b80156118315780601f1061180657610100808354040283529160200191611831565b820191906000526020600020905b81548152906001019060200180831161181457829003601f168201915b5050505050908060040160009054906101000a900473ffffffffffffffffffffffffffffffffffffffff169080600501805461186c90612e3c565b80601f016020809104026020016040519081016040528092919081815260200182805461189890612e3c565b80156118e55780601f106118ba576101008083540402835291602001916118e5565b820191906000526020600020905b8154815290600101906020018083116118c857829003601f168201915b5050505050905086565b60055481565b600760009054906101000a900473ffffffffffffffffffffffffffffffffffffffff1681565b600860009054906101000a900473ffffffffffffffffffffffffffffffffffffffff1681565b60003390506000349050600254811015611990576040517f08c379a000000000000000000000000000000000000000000000000000000000815260040161198790613534565b60405180910390fd5b6000600f54116119d5576040517f08c379a00000000000000000000000000000000000000000000000000000000081526004016119cc906135a0565b60405180910390fd5b80471115611a5857600081476119eb91906135c0565b9050600960009054906101000a900473ffffffffffffffffffffffffffffffffffffffff1673ffffffffffffffffffffffffffffffffffffffff166108fc829081150290604051600060405180830381858888f19350505050158015611a55573d6000803e3d6000fd5b50505b81600960006101000a81548173ffffffffffffffffffffffffffffffffffffffff021916908373ffffffffffffffffffffffffffffffffffffffff160217905550600a60008373ffffffffffffffffffffffffffffffffffffffff1673ffffffffffffffffffffffffffffffffffffffff16815260200190815260200160002060009054906101000a900460ff16611bb0576000806000815480929190611afe90612dc5565b9190505590506001600a60008573ffffffffffffffffffffffffffffffffffffffff1673ffffffffffffffffffffffffffffffffffffffff16815260200190815260200160002060006101000a81548160ff02191690831515021790555082600c600083815260200190815260200160002060006101000a81548173ffffffffffffffffffffffffffffffffffffffff021916908373ffffffffffffffffffffffffffffffffffffffff160217905550505b60016000815480929190611bc390612dc5565b91905055508060068190555060036001540361216e5760006064605f47611bea9190613480565b611bf49190613623565b9050600860009054906101000a900473ffffffffffffffffffffffffffffffffffffffff1673ffffffffffffffffffffffffffffffffffffffff166108fc829081150290604051600060405180830381858888f19350505050158015611c5e573d6000803e3d6000fd5b50600760009054906101000a900473ffffffffffffffffffffffffffffffffffffffff1673ffffffffffffffffffffffffffffffffffffffff166108fc479081150290604051600060405180830381858888f19350505050158015611cc7573d6000803e3d6000fd5b506000600181905550600e6000600b6000600860009054906101000a900473ffffffffffffffffffffffffffffffffffffffff1673ffffffffffffffffffffffffffffffffffffffff1673ffffffffffffffffffffffffffffffffffffffff16815260200190815260200160002060045481548110611d4957611d48612e6d565b5b906000526020600020906006020160040160009054906101000a900473ffffffffffffffffffffffffffffffffffffffff1673ffffffffffffffffffffffffffffffffffffffff1673ffffffffffffffffffffffffffffffffffffffff168152602001908152602001600020600080820160009055600182016000611dce91906125d7565b6002820160009055600382016000611de691906125d7565b6004820160006101000a81549073ffffffffffffffffffffffffffffffffffffffff0219169055600582016000611e1d91906125d7565b5050600060116000600760009054906101000a900473ffffffffffffffffffffffffffffffffffffffff1673ffffffffffffffffffffffffffffffffffffffff1673ffffffffffffffffffffffffffffffffffffffff16815260200190815260200160002060006101000a81548160ff02191690831515021790555060006001600454611eaa9190613654565b90505b600d6000600860009054906101000a900473ffffffffffffffffffffffffffffffffffffffff1673ffffffffffffffffffffffffffffffffffffffff1673ffffffffffffffffffffffffffffffffffffffff168152602001908152602001600020548110156120f457600b6000600860009054906101000a900473ffffffffffffffffffffffffffffffffffffffff1673ffffffffffffffffffffffffffffffffffffffff1673ffffffffffffffffffffffffffffffffffffffff1681526020019081526020016000208181548110611f8957611f88612e6d565b5b9060005260206000209060060201600b6000600860009054906101000a900473ffffffffffffffffffffffffffffffffffffffff1673ffffffffffffffffffffffffffffffffffffffff1673ffffffffffffffffffffffffffffffffffffffff16815260200190815260200160002060018361200591906135c0565b8154811061201657612015612e6d565b5b90600052602060002090600602016000820154816000015560018201816001019081612042919061369e565b506002820154816002015560038201816003019081612061919061369e565b506004820160009054906101000a900473ffffffffffffffffffffffffffffffffffffffff168160040160006101000a81548173ffffffffffffffffffffffffffffffffffffffff021916908373ffffffffffffffffffffffffffffffffffffffff160217905550600582018160050190816120dd919061369e565b5090505080806120ec90612dc5565b915050611ead565b50600d6000600860009054906101000a900473ffffffffffffffffffffffffffffffffffffffff1673ffffffffffffffffffffffffffffffffffffffff1673ffffffffffffffffffffffffffffffffffffffff168152602001908152602001600020600081548092919061216790613786565b9190505550505b5050565b60005481565b6000600254905090565b600960009054906101000a900473ffffffffffffffffffffffffffffffffffffffff1681565b6000807fffffffffffffffffffffffffffffffffffffffffffffffffffffffffffffffff905060005b600f548110156123b4576040518060400160405280600181526020017f300000000000000000000000000000000000000000000000000000000000000081525080519060200120600e6000600c600085815260200190815260200160002060009054906101000a900473ffffffffffffffffffffffffffffffffffffffff1673ffffffffffffffffffffffffffffffffffffffff1673ffffffffffffffffffffffffffffffffffffffff16815260200190815260200160002060050160405161229a9190613852565b6040518091039020148015612323575081600e6000600c600085815260200190815260200160002060009054906101000a900473ffffffffffffffffffffffffffffffffffffffff1673ffffffffffffffffffffffffffffffffffffffff1673ffffffffffffffffffffffffffffffffffffffff16815260200190815260200160002060000154105b156123a157600e6000600c600084815260200190815260200160002060009054906101000a900473ffffffffffffffffffffffffffffffffffffffff1673ffffffffffffffffffffffffffffffffffffffff1673ffffffffffffffffffffffffffffffffffffffff1681526020019081526020016000206000015491505b80806123ac90612dc5565b9150506121d1565b507fffffffffffffffffffffffffffffffffffffffffffffffffffffffffffffffff81036123e65760069150506123eb565b809150505b90565b670de0b6b3a76400003414612438576040517f08c379a000000000000000000000000000000000000000000000000000000000815260040161242f906138b5565b60405180910390fd5b6000600760009054906101000a900473ffffffffffffffffffffffffffffffffffffffff1690508073ffffffffffffffffffffffffffffffffffffffff166108fc670de0b6b3a76400009081150290604051600060405180830381858888f193505050501580156124ad573d6000803e3d6000fd5b5050565b60015481565b600760009054906101000a900473ffffffffffffffffffffffffffffffffffffffff1673ffffffffffffffffffffffffffffffffffffffff163373ffffffffffffffffffffffffffffffffffffffff1614612547576040517f08c379a000000000000000000000000000000000000000000000000000000000815260040161253e90612ee8565b60405180910390fd5b80600760006101000a81548173ffffffffffffffffffffffffffffffffffffffff021916908373ffffffffffffffffffffffffffffffffffffffff16021790555050565b6040518060c0016040528060008152602001606081526020016000815260200160608152602001600073ffffffffffffffffffffffffffffffffffffffff168152602001606081525090565b5080546125e390612e3c565b6000825580601f106125f55750612614565b601f0160209004906000526020600020908101906126139190612617565b5b50565b5b80821115612630576000816000905550600101612618565b5090565b600081519050919050565b600082825260208201905092915050565b6000819050602082019050919050565b6000819050919050565b61267381612660565b82525050565b600081519050919050565b600082825260208201905092915050565b60005b838110156126b3578082015181840152602081019050612698565b60008484015250505050565b6000601f19601f8301169050919050565b60006126db82612679565b6126e58185612684565b93506126f5818560208601612695565b6126fe816126bf565b840191505092915050565b600073ffffffffffffffffffffffffffffffffffffffff82169050919050565b600061273482612709565b9050919050565b61274481612729565b82525050565b600060c083016000830151612762600086018261266a565b506020830151848203602086015261277a82826126d0565b915050604083015161278f604086018261266a565b50606083015184820360608601526127a782826126d0565b91505060808301516127bc608086018261273b565b5060a083015184820360a08601526127d482826126d0565b9150508091505092915050565b60006127ed838361274a565b905092915050565b6000602082019050919050565b600061280d82612634565b612817818561263f565b93508360208202850161282985612650565b8060005b85811015612865578484038952815161284685826127e1565b9450612851836127f5565b925060208a0199505060018101905061282d565b50829750879550505050505092915050565b600060208201905081810360008301526128918184612802565b905092915050565b6128a281612729565b82525050565b60006020820190506128bd6000830184612899565b92915050565b6128cc81612660565b82525050565b60006020820190506128e760008301846128c3565b92915050565b6000604051905090565b600080fd5b600080fd5b600061290c82612709565b9050919050565b61291c81612901565b811461292757600080fd5b50565b60008135905061293981612913565b92915050565b61294881612660565b811461295357600080fd5b50565b6000813590506129658161293f565b92915050565b60008060408385031215612982576129816128f7565b5b60006129908582860161292a565b92505060206129a185828601612956565b9150509250929050565b6000602082840312156129c1576129c06128f7565b5b60006129cf84828501612956565b91505092915050565b600080fd5b600080fd5b7f4e487b7100000000000000000000000000000000000000000000000000000000600052604160045260246000fd5b612a1a826126bf565b810181811067ffffffffffffffff82111715612a3957612a386129e2565b5b80604052505050565b6000612a4c6128ed565b9050612a588282612a11565b919050565b600067ffffffffffffffff821115612a7857612a776129e2565b5b612a81826126bf565b9050602081019050919050565b82818337600083830152505050565b6000612ab0612aab84612a5d565b612a42565b905082815260208101848484011115612acc57612acb6129dd565b5b612ad7848285612a8e565b509392505050565b600082601f830112612af457612af36129d8565b5b8135612b04848260208601612a9d565b91505092915050565b612b1681612729565b8114612b2157600080fd5b50565b600081359050612b3381612b0d565b92915050565b60008060008060808587031215612b5357612b526128f7565b5b600085013567ffffffffffffffff811115612b7157612b706128fc565b5b612b7d87828801612adf565b9450506020612b8e87828801612956565b935050604085013567ffffffffffffffff811115612baf57612bae6128fc565b5b612bbb87828801612adf565b9250506060612bcc87828801612b24565b91505092959194509250565b600081519050919050565b600082825260208201905092915050565b6000819050602082019050919050565b6000612c10838361273b565b60208301905092915050565b6000602082019050919050565b6000612c3482612bd8565b612c3e8185612be3565b9350612c4983612bf4565b8060005b83811015612c7a578151612c618882612c04565b9750612c6c83612c1c565b925050600181019050612c4d565b5085935050505092915050565b60006020820190508181036000830152612ca18184612c29565b905092915050565b600060208284031215612cbf57612cbe6128f7565b5b6000612ccd84828501612b24565b91505092915050565b600082825260208201905092915050565b6000612cf282612679565b612cfc8185612cd6565b9350612d0c818560208601612695565b612d15816126bf565b840191505092915050565b600060c082019050612d3560008301896128c3565b8181036020830152612d478188612ce7565b9050612d5660408301876128c3565b8181036060830152612d688186612ce7565b9050612d776080830185612899565b81810360a0830152612d898184612ce7565b9050979650505050505050565b7f4e487b7100000000000000000000000000000000000000000000000000000000600052601160045260246000fd5b6000612dd082612660565b91507fffffffffffffffffffffffffffffffffffffffffffffffffffffffffffffffff8203612e0257612e01612d96565b5b600182019050919050565b7f4e487b7100000000000000000000000000000000000000000000000000000000600052602260045260246000fd5b60006002820490506001821680612e5457607f821691505b602082108103612e6757612e66612e0d565b5b50919050565b7f4e487b7100000000000000000000000000000000000000000000000000000000600052603260045260246000fd5b7f4f6e6c79206f776e65722063616e20646f207468697300000000000000000000600082015250565b6000612ed2601683612cd6565b9150612edd82612e9c565b602082019050919050565b60006020820190508181036000830152612f0181612ec5565b9050919050565b7f496e73756666696369656e742062616c616e636520696e2074686520636f6e7460008201527f7261637400000000000000000000000000000000000000000000000000000000602082015250565b6000612f64602483612cd6565b9150612f6f82612f08565b604082019050919050565b60006020820190508181036000830152612f9381612f57565b9050919050565b7f7061792069732031206574686572000000000000000000000000000000000000600082015250565b6000612fd0600e83612cd6565b9150612fdb82612f9a565b602082019050919050565b60006020820190508181036000830152612fff81612fc3565b9050919050565b7f596f75206861766520616c72656164792066756e6465642074686520636f6e7460008201527f7261637400000000000000000000000000000000000000000000000000000000602082015250565b6000613062602483612cd6565b915061306d82613006565b604082019050919050565b6000602082019050818103600083015261309181613055565b9050919050565b7f596f752063616e27742077697473000000000000000000000000000000000000600082015250565b60006130ce600e83612cd6565b91506130d982613098565b602082019050919050565b600060208201905081810360008301526130fd816130c1565b9050919050565b7f4d696e696d756d20706179206973203420657468657200000000000000000000600082015250565b600061313a601683612cd6565b915061314582613104565b602082019050919050565b600060208201905081810360008301526131698161312d565b9050919050565b7f46756e6465722063616e206f6e6c792061646420612070726f64756374206f6e60008201527f6365000000000000000000000000000000000000000000000000000000000000602082015250565b60006131cc602283612cd6565b91506131d782613170565b604082019050919050565b600060208201905081810360008301526131fb816131bf565b9050919050565b60008190508160005260206000209050919050565b60006020601f8301049050919050565b600082821b905092915050565b6000600883026132647fffffffffffffffffffffffffffffffffffffffffffffffffffffffffffffffff82613227565b61326e8683613227565b95508019841693508086168417925050509392505050565b6000819050919050565b60006132ab6132a66132a184612660565b613286565b612660565b9050919050565b6000819050919050565b6132c583613290565b6132d96132d1826132b2565b848454613234565b825550505050565b600090565b6132ee6132e1565b6132f98184846132bc565b505050565b5b8181101561331d576133126000826132e6565b6001810190506132ff565b5050565b601f8211156133625761333381613202565b61333c84613217565b8101602085101561334b578190505b61335f61335785613217565b8301826132fe565b50505b505050565b600082821c905092915050565b600061338560001984600802613367565b1980831691505092915050565b600061339e8383613374565b9150826002028217905092915050565b6133b782612679565b67ffffffffffffffff8111156133d0576133cf6129e2565b5b6133da8254612e3c565b6133e5828285613321565b600060209050601f8311600181146134185760008415613406578287015190505b6134108582613392565b865550613478565b601f19841661342686613202565b60005b8281101561344e57848901518255600182019150602085019450602081019050613429565b8683101561346b5784890151613467601f891682613374565b8355505b6001600288020188555050505b505050505050565b600061348b82612660565b915061349683612660565b92508282026134a481612660565b915082820484148315176134bb576134ba612d96565b5b5092915050565b7f4d696e696d756d20706179206e6565647320746f20626520686967686572207460008201527f68656e206d696e416d6f756e7400000000000000000000000000000000000000602082015250565b600061351e602d83612cd6565b9150613529826134c2565b604082019050919050565b6000602082019050818103600083015261354d81613511565b9050919050565b7f43616e6e6f74206164642066756e64732077697468206e6f2070726f64756374600082015250565b600061358a602083612cd6565b915061359582613554565b602082019050919050565b600060208201905081810360008301526135b98161357d565b9050919050565b60006135cb82612660565b91506135d683612660565b92508282039050818111156135ee576135ed612d96565b5b92915050565b7f4e487b7100000000000000000000000000000000000000000000000000000000600052601260045260246000fd5b600061362e82612660565b915061363983612660565b925082613649576136486135f4565b5b828204905092915050565b600061365f82612660565b915061366a83612660565b925082820190508082111561368257613681612d96565b5b92915050565b60008154905061369781612e3c565b9050919050565b8181036136ac575050613784565b6136b582613688565b67ffffffffffffffff8111156136ce576136cd6129e2565b5b6136d88254612e3c565b6136e3828285613321565b6000601f8311600181146137125760008415613700578287015490505b61370a8582613392565b86555061377d565b601f19841661372087613202565b965061372b86613202565b60005b828110156137535784890154825560018201915060018501945060208101905061372e565b86831015613770578489015461376c601f891682613374565b8355505b6001600288020188555050505b5050505050505b565b600061379182612660565b9150600082036137a4576137a3612d96565b5b600182039050919050565b600081905092915050565b60008190508160005260206000209050919050565b600081546137dc81612e3c565b6137e681866137af565b94506001821660008114613801576001811461381657613849565b60ff1983168652811515820286019350613849565b61381f856137ba565b60005b8381101561384157815481890152600182019150602081019050613822565b838801955050505b50505092915050565b600061385e82846137cf565b915081905092915050565b7f496e73756666696369656e742066756e64730000000000000000000000000000600082015250565b600061389f601283612cd6565b91506138aa82613869565b602082019050919050565b600060208201905081810360008301526138ce81613892565b905091905056fea26469706673582212201677910391a040cac30159d80b24e6482cbf41543188a10b2e255c90862eacd864736f6c63430008130033",
  "immutableReferences": {},
  "source": "// SPDX-License-Identifier: MIT\r\npragma solidity >=0.4.22 <0.9.0;\r\n\r\ncontract Simplebank {\r\n    uint public numberofFunders;\r\n    uint public numberofFunds;\r\n    uint public minAmountForBid;\r\n    uint public lowestProductIDForSale;\r\n    uint public lp;\r\n    uint public payForUploadProduct;\r\n    uint public lastBid;\r\n    address public owner;\r\n    address public productOwner;\r\n    address public lastFunder;\r\n    mapping(address=> bool) private funders;\r\n    mapping(address => Product[]) private ownerProducts; \r\n    mapping(uint => address) private lutFunders; \r\n    mapping(address => uint) private ownerProductCounter;\r\n    struct Product {\r\n    uint id;\r\n    string name;\r\n    uint startingPriceEthr;\r\n    string generalDescription;\r\n    address funder;\r\n    string isSold;\r\n    }\r\n    mapping (address => Product) public products;\r\n    uint private productCounter = 0;\r\n    mapping(address => Product) private latestProducts;\r\n\r\n    mapping(address => bool) private hasAddedProduct;\r\n\r\n    constructor(){\r\n        owner = msg.sender;\r\n        // minAmountForBid = 4000000000000000000;\r\n        productOwner = 0x23B2721CCB602b1080CE57c6b724119dc9ccB278;\r\n        payForUploadProduct = 1000000000000000000;\r\n        lp = 0;\r\n    }\r\n\r\n    modifier onlyOwner(){\r\n        require(msg.sender == owner, \"Only owner can do this\");\r\n        _;\r\n    }\r\n\r\n    \r\n    function transferOwnership(address newOwner) external onlyOwner{\r\n        owner = newOwner;\r\n    }\r\n\r\n    function addFundsPlain() external payable{\r\n        address funder = msg.sender;\r\n        require(msg.value >= minAmountForBid, \"Minimum pay is 4 ether\");\r\n        lastFunder = funder; // update last funder\r\n        if(!funders[funder]){\r\n            uint index = numberofFunders++;\r\n            funders[funder] = true;\r\n            lutFunders[index] = funder;\r\n            \r\n        }\r\n\r\n    }\r\n\r\n\r\n    // function addFunds() external payable {\r\n    //     address funder = msg.sender;\r\n    //     uint newFund = msg.value;\r\n    //     // uint balance = address(this).balance;\r\n    //     require(newFund >= minAmountForBid, \"Minimum pay is 4 ether\");\r\n    //     // require(newFund > address(this).balance, \"New fund should be more than the current balance in the contract\");\r\n    //     // if (balance >= newFund) {\r\n    //     // revert(\"New fund should be more than the current balance innnnnn the contract\");\r\n    //     // }\r\n    //     if (address(this).balance > newFund) {\r\n    //         uint remainingBalance = address(this).balance - newFund;\r\n    //         payable(lastFunder).transfer(remainingBalance);\r\n    //     }\r\n    //     lastFunder = funder; // update last funder\r\n    //     if (!funders[funder]) {\r\n    //         uint index = numberofFunders++;\r\n    //         funders[funder] = true;\r\n    //         lutFunders[index] = funder;\r\n    //     }\r\n    //     numberofFunds++;\r\n    //     lastBid = newFund;\r\n    //     if (numberofFunds == 3){\r\n            // // 95% to productOwner and 5% to owner\r\n            // uint productOwnerAmount = address(this).balance * 95 / 100;\r\n            // payable(productOwner).transfer(productOwnerAmount);\r\n            // payable(owner).transfer(address(this).balance);\r\n            // numberofFunds = 0;\r\n\r\n    //         }\r\n\r\n    //     }\r\nfunction addFunds() external payable {\r\n    address funder = msg.sender;\r\n    uint newFund = msg.value;\r\n    require(newFund >= minAmountForBid, \"Minimum pay needs to be higher then minAmount\");\r\n    require(productCounter > 0, \"Cannot add funds with no product\");\r\n    if (address(this).balance > newFund) {\r\n        uint remainingBalance = address(this).balance - newFund;\r\n        payable(lastFunder).transfer(remainingBalance);\r\n    }\r\n    lastFunder = funder; // update last funder\r\n    if (!funders[funder]) {\r\n        uint index = numberofFunders++;\r\n        funders[funder] = true;\r\n        lutFunders[index] = funder;\r\n    }\r\n    numberofFunds++;\r\n    lastBid = newFund;\r\n\r\n    if (numberofFunds == 3) {\r\n\r\n        \r\n        // 95% to productOwner and 5% to owner\r\n        uint productOwnerAmount = address(this).balance * 95 / 100;\r\n        payable(productOwner).transfer(productOwnerAmount);\r\n        payable(owner).transfer(address(this).balance);\r\n        numberofFunds = 0;\r\n\r\n        // Delete product with ID lp\r\n        delete products[ownerProducts[productOwner][lp].funder];\r\n        hasAddedProduct[owner] = false;\r\n        for (uint i = lp + 1; i < ownerProductCounter[productOwner]; i++) {\r\n            ownerProducts[productOwner][i - 1] = ownerProducts[productOwner][i];\r\n        }\r\n        ownerProductCounter[productOwner]--;\r\n        // // Set new product owner and minAmountForBid\r\n        // address newProductOwner = ownerProducts[productOwner][lp+1].funder;\r\n        // minAmountForBid = ownerProducts[newProductOwner][0].startingPriceEthr;\r\n        // productOwner = newProductOwner;\r\n        // lp = 1;\r\n\r\n    }\r\n}\r\n\r\n\r\n\r\n\r\n    // function payForUpload() external payable {\r\n    //     address funder = msg.sender;\r\n    //     uint newFund = msg.value;\r\n    //     require(newFund == payForUploadProduct, \"pay is 1 ether\");\r\n    //     lastFunder = funder; // update last funder\r\n    //     if (!funders[funder]) {\r\n    //         uint index = numberofFunders++;\r\n    //         funders[funder] = true;\r\n    //         lutFunders[index] = funder;\r\n    //     }\r\n        \r\n    //     address payable contractOwner = payable(owner);\r\n    //     contractOwner.transfer(msg.value);\r\n    //     }\r\n\r\n    function payForUpload() external payable {\r\n        address funder = msg.sender;\r\n        uint newFund = msg.value;\r\n        require(newFund == payForUploadProduct, \"pay is 1 ether\");\r\n        require(!funders[funder], \"You have already funded the contract\"); // check if the user has already funded the contract\r\n        lastFunder = funder; // update last funder\r\n        uint index = numberofFunders++;\r\n        funders[funder] = true;\r\n        lutFunders[index] = funder;\r\n\r\n        address payable contractOwner = payable(owner);\r\n        contractOwner.transfer(msg.value);\r\n    }\r\n\r\n\r\n\r\n        function getAllFunders() external view returns(address[] memory) {\r\n            address[] memory _funders = new address[](numberofFunders);\r\n            for(uint i=0; i<numberofFunders; i++){\r\n                _funders[i] = lutFunders[i];\r\n            }\r\n            return _funders;\r\n        }\r\n        function withdraw(uint withdrawAmount) external {\r\n            require(withdrawAmount < 1000000000000000000 || msg.sender == owner, \"You can't wits\");\r\n            payable (msg.sender).transfer(withdrawAmount);\r\n        }\r\n\r\n        function getLastFunder() external view returns (address) {\r\n            return lastFunder;\r\n        }\r\n        \r\n        function getProductOwner() external view returns (address) {\r\n            return productOwner;\r\n        }\r\n\r\n        function getMinAmount() external view returns (uint) {\r\n            return minAmountForBid;\r\n        }\r\n        // function getLowestProductIDForSale() external view returns (uint) {\r\n        //     return lowestProductIDForSale;\r\n        // }\r\n\r\n        function getNumberofFunds() external view returns (uint){\r\n            return numberofFunds;\r\n        }\r\n        \r\n        function withdrawTo(address payable recipient, uint amount) external onlyOwner {\r\n        require(address(this).balance >= amount, \"Insufficient balance in the contract\");\r\n        recipient.transfer(amount);\r\n        }\r\n\r\n\r\n    // function addNewProduct(string memory _name, uint _startingPriceEthr, string memory _generalDescription, address _owner) public {\r\n    // // require(products[msg.sender].id == 0, \"Funder cannot add a new product if they already have one\");\r\n    // require(!hasAddedProduct[_owner], \"Funder can only add a product once\");\r\n    // Product memory newProduct = Product(productCounter, _name, _startingPriceEthr, _generalDescription, _owner);\r\n    // ownerProducts[_owner].push(newProduct);\r\n    // latestProducts[_owner] = newProduct;\r\n    // ownerProductCounter[_owner]++;\r\n    // lutFunders[productCounter] = _owner;\r\n    // productCounter++;\r\n    // hasAddedProduct[_owner] = true;\r\n    // }\r\n\r\n    function addNewProduct(string memory _name, uint256 _startingPriceEthr, string memory _generalDescription, address _owner) public {\r\n    require(!hasAddedProduct[_owner], \"Funder can only add a product once\");\r\n    Product memory newProduct = Product(productCounter, _name, _startingPriceEthr, _generalDescription, _owner, \"not Sold\");\r\n    ownerProducts[_owner].push(newProduct);\r\n    latestProducts[_owner] = newProduct;\r\n    ownerProductCounter[_owner]++;\r\n    lutFunders[productCounter] = _owner;\r\n    productCounter++;\r\n    hasAddedProduct[_owner] = true;\r\n\r\n    // Update productOwner and minAmountForBid\r\n    if (productCounter == 1) {\r\n        // If this is the first product added, set productOwner and minAmountForBid to this product's details\r\n        productOwner = _owner;\r\n        minAmountForBid = _startingPriceEthr*10**18;\r\n        lowestProductIDForSale = productCounter;\r\n        } else {\r\n        // Check if this product's ID is lower than the previous lowest ID\r\n            if (newProduct.id < ownerProducts[productOwner][0].id) {\r\n            productOwner = _owner;\r\n            minAmountForBid = _startingPriceEthr*10**18;\r\n            lowestProductIDForSale = productCounter;\r\n                }\r\n            }\r\n    }\r\n\r\n\r\n\r\n    function getAllProducts() external view returns (Product[] memory) {\r\n        uint productCount = 0;\r\n        for (uint i = 0; i < numberofFunders; i++) {\r\n            address productOwner = lutFunders[i];\r\n            if (ownerProductCounter[productOwner] > 0) {\r\n                productCount++;\r\n            }\r\n        }\r\n        Product[] memory allProducts = new Product[](productCount);\r\n        uint productIndex = 0;\r\n        for (uint i = 0; i < numberofFunders; i++) {\r\n            address productOwner = lutFunders[i];\r\n            if (ownerProductCounter[productOwner] > 0) {\r\n                allProducts[productIndex] = latestProducts[productOwner];\r\n                productIndex++;\r\n            }\r\n        }\r\n        return allProducts;\r\n    }\r\n\r\n\r\n    \r\n    function getBalance() public view returns (uint256) {\r\n        return address(this).balance;\r\n    }\r\n\r\n\r\n    function payContractOwner() public payable {\r\n    require(msg.value == 1 ether, \"Insufficient funds\");\r\n    address payable contractOwner = payable(owner);\r\n    contractOwner.transfer(1 ether);\r\n    }\r\n\r\n    function getLowestProductIDForSale() external view returns (uint) {\r\n    uint minID = type(uint).max; // set initial value to max uint value\r\n    for (uint i = 0; i < productCounter; i++) {\r\n        if (keccak256(bytes(products[lutFunders[i]].isSold)) == keccak256(bytes(\"0\")) && products[lutFunders[i]].id < minID) {\r\n            minID = products[lutFunders[i]].id;\r\n        }\r\n    }\r\n    if (minID == type(uint).max) { // if no products are for sale, return 0\r\n        return 6;\r\n    }\r\n    \r\n    return minID;\r\n    }\r\n    \r\n}\r\n\r\n\r\n\r\n\r\n\r\n//const instance = await Simplebank.deployed()\r\n// const funds = instance.funds()\r\n// instance.addFunds({value:\"4000000000000000000\", from: accounts[0]})\r\n// instance.addFunds({value:\"500000000000000000\", from: accounts[1]})\r\n// instance.addFunds({value:\"5000000000000000000\", from: accounts[1]})\r\n// instance.getAllFunders()\r\n// instance.withdraw(\"1000000000000000000\")\r\n// instance.transferOwnership(\"0x469bC46515Ffed50e765b87DA3aEab4CAAf4F809\")\r\n\r\n\r\n// const recipient = \"0x687591815BF3EeacF01FdE0aE993314259D607d9\"; // replace with recipient address\r\n// const amount = web3.utils.toWei(\"12\", \"ether\"); // replace with amount to withdraw in ether\r\n// await instance.withdrawTo(recipient, amount, { from: accounts[0] }); // replace with sender account\r\n\r\n\r\n\r\n// if (numberofFunds == 3) {\r\n//     // delete product with id 0\r\n//     delete products[ownerProducts[productOwner][0].funder];\r\n//     for (uint i = 1; i < ownerProductCounter[productOwner]; i++) {\r\n//         ownerProducts[productOwner][i - 1] = ownerProducts[productOwner][i];\r\n//     }\r\n//     ownerProductCounter[productOwner]--;\r\n    \r\n//     // 95% to productOwner and 5% to owner\r\n//     uint productOwnerAmount = address(this).balance * 95 / 100;\r\n//     payable(productOwner).transfer(productOwnerAmount);\r\n//     payable(owner).transfer(address(this).balance);\r\n//     numberofFunds = 0;\r\n// }\r\n",
  "sourcePath": "C:\\Users\\Elinoa Resnick\\Desktop\\Tech\\web3testproject\\contracts\\Simplebank.sol",
  "compiler": {
    "name": "solc",
    "version": "0.8.19+commit.7dd6d404.Emscripten.clang"
  },
  "schemaVersion": "3.4.13",
  "updatedAt": "2023-04-21T11:46:42.720Z",
  "networkType": "ethereum",
  "devdoc": {
    "kind": "dev",
    "methods": {},
    "version": 1
  },
  "userdoc": {
    "kind": "user",
    "methods": {},
    "version": 1
  }
}