{
  "contractName": "Simplebank",
  "abi": [
    {
      "inputs": [],
      "stateMutability": "nonpayable",
      "type": "constructor"
    },
    {
      "inputs": [],
      "name": "lastBid",
      "outputs": [
        {
          "internalType": "uint256",
          "name": "",
          "type": "uint256"
        }
      ],
      "stateMutability": "view",
      "type": "function",
      "constant": true
    },
    {
      "inputs": [],
      "name": "lastFunder",
      "outputs": [
        {
          "internalType": "address",
          "name": "",
          "type": "address"
        }
      ],
      "stateMutability": "view",
      "type": "function",
      "constant": true
    },
    {
      "inputs": [],
      "name": "minAmountForBid",
      "outputs": [
        {
          "internalType": "uint256",
          "name": "",
          "type": "uint256"
        }
      ],
      "stateMutability": "view",
      "type": "function",
      "constant": true
    },
    {
      "inputs": [],
      "name": "numberofFunders",
      "outputs": [
        {
          "internalType": "uint256",
          "name": "",
          "type": "uint256"
        }
      ],
      "stateMutability": "view",
      "type": "function",
      "constant": true
    },
    {
      "inputs": [],
      "name": "numberofFunds",
      "outputs": [
        {
          "internalType": "uint256",
          "name": "",
          "type": "uint256"
        }
      ],
      "stateMutability": "view",
      "type": "function",
      "constant": true
    },
    {
      "inputs": [],
      "name": "owner",
      "outputs": [
        {
          "internalType": "address",
          "name": "",
          "type": "address"
        }
      ],
      "stateMutability": "view",
      "type": "function",
      "constant": true
    },
    {
      "inputs": [],
      "name": "payForUploadProduct",
      "outputs": [
        {
          "internalType": "uint256",
          "name": "",
          "type": "uint256"
        }
      ],
      "stateMutability": "view",
      "type": "function",
      "constant": true
    },
    {
      "inputs": [],
      "name": "productOwner",
      "outputs": [
        {
          "internalType": "address",
          "name": "",
          "type": "address"
        }
      ],
      "stateMutability": "view",
      "type": "function",
      "constant": true
    },
    {
      "inputs": [
        {
          "internalType": "address",
          "name": "",
          "type": "address"
        }
      ],
      "name": "products",
      "outputs": [
        {
          "internalType": "uint256",
          "name": "id",
          "type": "uint256"
        },
        {
          "internalType": "string",
          "name": "name",
          "type": "string"
        },
        {
          "internalType": "uint256",
          "name": "startingPriceWei",
          "type": "uint256"
        },
        {
          "internalType": "string",
          "name": "generalDescription",
          "type": "string"
        },
        {
          "internalType": "address",
          "name": "funder",
          "type": "address"
        }
      ],
      "stateMutability": "view",
      "type": "function",
      "constant": true
    },
    {
      "inputs": [
        {
          "internalType": "address",
          "name": "newOwner",
          "type": "address"
        }
      ],
      "name": "transferOwnership",
      "outputs": [],
      "stateMutability": "nonpayable",
      "type": "function"
    },
    {
      "inputs": [],
      "name": "addFundsPlain",
      "outputs": [],
      "stateMutability": "payable",
      "type": "function",
      "payable": true
    },
    {
      "inputs": [],
      "name": "addFunds",
      "outputs": [],
      "stateMutability": "payable",
      "type": "function",
      "payable": true
    },
    {
      "inputs": [],
      "name": "payForUpload",
      "outputs": [],
      "stateMutability": "payable",
      "type": "function",
      "payable": true
    },
    {
      "inputs": [],
      "name": "getAllFunders",
      "outputs": [
        {
          "internalType": "address[]",
          "name": "",
          "type": "address[]"
        }
      ],
      "stateMutability": "view",
      "type": "function",
      "constant": true
    },
    {
      "inputs": [
        {
          "internalType": "uint256",
          "name": "withdrawAmount",
          "type": "uint256"
        }
      ],
      "name": "withdraw",
      "outputs": [],
      "stateMutability": "nonpayable",
      "type": "function"
    },
    {
      "inputs": [],
      "name": "getLastFunder",
      "outputs": [
        {
          "internalType": "address",
          "name": "",
          "type": "address"
        }
      ],
      "stateMutability": "view",
      "type": "function",
      "constant": true
    },
    {
      "inputs": [],
      "name": "getMinAmount",
      "outputs": [
        {
          "internalType": "uint256",
          "name": "",
          "type": "uint256"
        }
      ],
      "stateMutability": "view",
      "type": "function",
      "constant": true
    },
    {
      "inputs": [],
      "name": "getNumberofFunds",
      "outputs": [
        {
          "internalType": "uint256",
          "name": "",
          "type": "uint256"
        }
      ],
      "stateMutability": "view",
      "type": "function",
      "constant": true
    },
    {
      "inputs": [
        {
          "internalType": "address payable",
          "name": "recipient",
          "type": "address"
        },
        {
          "internalType": "uint256",
          "name": "amount",
          "type": "uint256"
        }
      ],
      "name": "withdrawTo",
      "outputs": [],
      "stateMutability": "nonpayable",
      "type": "function"
    },
    {
      "inputs": [
        {
          "internalType": "string",
          "name": "_name",
          "type": "string"
        },
        {
          "internalType": "uint256",
          "name": "_startingPriceWei",
          "type": "uint256"
        },
        {
          "internalType": "string",
          "name": "_generalDescription",
          "type": "string"
        },
        {
          "internalType": "address",
          "name": "_owner",
          "type": "address"
        }
      ],
      "name": "addNewProduct",
      "outputs": [],
      "stateMutability": "nonpayable",
      "type": "function"
    },
    {
      "inputs": [],
      "name": "getAllProducts",
      "outputs": [
        {
          "components": [
            {
              "internalType": "uint256",
              "name": "id",
              "type": "uint256"
            },
            {
              "internalType": "string",
              "name": "name",
              "type": "string"
            },
            {
              "internalType": "uint256",
              "name": "startingPriceWei",
              "type": "uint256"
            },
            {
              "internalType": "string",
              "name": "generalDescription",
              "type": "string"
            },
            {
              "internalType": "address",
              "name": "funder",
              "type": "address"
            }
          ],
          "internalType": "struct Simplebank.Product[]",
          "name": "",
          "type": "tuple[]"
        }
      ],
      "stateMutability": "view",
      "type": "function",
      "constant": true
    },
    {
      "inputs": [],
      "name": "getBalance",
      "outputs": [
        {
          "internalType": "uint256",
          "name": "",
          "type": "uint256"
        }
      ],
      "stateMutability": "view",
      "type": "function",
      "constant": true
    },
    {
      "inputs": [],
      "name": "payContractOwner",
      "outputs": [],
      "stateMutability": "payable",
      "type": "function",
      "payable": true
    }
  ],
  "bytecode": "0x60806040526000600d5534801561001557600080fd5b5033600560006101000a81548173ffffffffffffffffffffffffffffffffffffffff021916908373ffffffffffffffffffffffffffffffffffffffff160217905550673782dace9d9000006002819055507323b2721ccb602b1080ce57c6b724119dc9ccb278600660006101000a81548173ffffffffffffffffffffffffffffffffffffffff021916908373ffffffffffffffffffffffffffffffffffffffff160217905550670de0b6b3a76400006003819055506127ca806100d96000396000f3fe6080604052600436106101405760003560e01c806377eaf884116100b6578063b078b8f01161006f578063b078b8f0146103cd578063cfc7e2da146103f8578063d77a80a814610423578063e58144201461044e578063ec60193014610458578063f2fde38b1461048357610140565b806377eaf884146102d6578063793a8e7114610301578063821f6c2a146103425780638da5cb5b1461036d5780639209bb8814610398578063a26759cb146103c357610140565b80632e1a7d4d116101085780632e1a7d4d146101f957806330e88bf81461022257806352762a901461022c578063562d6c11146102575780635e3d3957146102805780636fbbb55d146102ab57610140565b806302ee3a52146101455780630ba002e01461017057806312065fe01461019b578063205c2878146101c6578063257e5011146101ef575b600080fd5b34801561015157600080fd5b5061015a6104ac565b6040516101679190611b82565b60405180910390f35b34801561017c57600080fd5b50610185610869565b6040516101929190611bb3565b60405180910390f35b3480156101a757600080fd5b506101b0610893565b6040516101bd9190611bdd565b60405180910390f35b3480156101d257600080fd5b506101ed60048036038101906101e89190611c76565b61089b565b005b6101f76109b9565b005b34801561020557600080fd5b50610220600480360381019061021b9190611cb6565b610bd2565b005b61022a610cbe565b005b34801561023857600080fd5b50610241610e63565b60405161024e9190611bdd565b60405180910390f35b34801561026357600080fd5b5061027e60048036038101906102799190611e44565b610e69565b005b34801561028c57600080fd5b50610295611130565b6040516102a29190611bdd565b60405180910390f35b3480156102b757600080fd5b506102c0611136565b6040516102cd9190611f92565b60405180910390f35b3480156102e257600080fd5b506102eb61122f565b6040516102f89190611bdd565b60405180910390f35b34801561030d57600080fd5b5061032860048036038101906103239190611fb4565b611239565b60405161033995949392919061202b565b60405180910390f35b34801561034e57600080fd5b5061035761139f565b6040516103649190611bdd565b60405180910390f35b34801561037957600080fd5b506103826113a5565b60405161038f9190611bb3565b60405180910390f35b3480156103a457600080fd5b506103ad6113cb565b6040516103ba9190611bb3565b60405180910390f35b6103cb6113f1565b005b3480156103d957600080fd5b506103e2611741565b6040516103ef9190611bdd565b60405180910390f35b34801561040457600080fd5b5061040d611747565b60405161041a9190611bdd565b60405180910390f35b34801561042f57600080fd5b50610438611751565b6040516104459190611bb3565b60405180910390f35b610456611777565b005b34801561046457600080fd5b5061046d61183a565b60405161047a9190611bdd565b60405180910390f35b34801561048f57600080fd5b506104aa60048036038101906104a59190611fb4565b611840565b005b60606000805b60005481101561055f576000600a600083815260200190815260200160002060009054906101000a900473ffffffffffffffffffffffffffffffffffffffff1690506000600b60008373ffffffffffffffffffffffffffffffffffffffff1673ffffffffffffffffffffffffffffffffffffffff16815260200190815260200160002054111561054b578280610547906120bb565b9350505b508080610557906120bb565b9150506104b2565b5060008167ffffffffffffffff81111561057c5761057b611ced565b5b6040519080825280602002602001820160405280156105b557816020015b6105a2611914565b81526020019060019003908161059a5790505b5090506000805b60005481101561085f576000600a600083815260200190815260200160002060009054906101000a900473ffffffffffffffffffffffffffffffffffffffff1690506000600b60008373ffffffffffffffffffffffffffffffffffffffff1673ffffffffffffffffffffffffffffffffffffffff16815260200190815260200160002054111561084b57600e60008273ffffffffffffffffffffffffffffffffffffffff1673ffffffffffffffffffffffffffffffffffffffff1681526020019081526020016000206040518060a0016040529081600082015481526020016001820180546106aa90612132565b80601f01602080910402602001604051908101604052809291908181526020018280546106d690612132565b80156107235780601f106106f857610100808354040283529160200191610723565b820191906000526020600020905b81548152906001019060200180831161070657829003601f168201915b505050505081526020016002820154815260200160038201805461074690612132565b80601f016020809104026020016040519081016040528092919081815260200182805461077290612132565b80156107bf5780601f10610794576101008083540402835291602001916107bf565b820191906000526020600020905b8154815290600101906020018083116107a257829003601f168201915b505050505081526020016004820160009054906101000a900473ffffffffffffffffffffffffffffffffffffffff1673ffffffffffffffffffffffffffffffffffffffff1673ffffffffffffffffffffffffffffffffffffffff168152505084848151811061083157610830612163565b5b60200260200101819052508280610847906120bb565b9350505b508080610857906120bb565b9150506105bc565b5081935050505090565b6000600760009054906101000a900473ffffffffffffffffffffffffffffffffffffffff16905090565b600047905090565b600560009054906101000a900473ffffffffffffffffffffffffffffffffffffffff1673ffffffffffffffffffffffffffffffffffffffff163373ffffffffffffffffffffffffffffffffffffffff161461092b576040517f08c379a0000000000000000000000000000000000000000000000000000000008152600401610922906121de565b60405180910390fd5b8047101561096e576040517f08c379a000000000000000000000000000000000000000000000000000000000815260040161096590612270565b60405180910390fd5b8173ffffffffffffffffffffffffffffffffffffffff166108fc829081150290604051600060405180830381858888f193505050501580156109b4573d6000803e3d6000fd5b505050565b600033905060003490506003548114610a07576040517f08c379a00000000000000000000000000000000000000000000000000000000081526004016109fe906122dc565b60405180910390fd5b81600760006101000a81548173ffffffffffffffffffffffffffffffffffffffff021916908373ffffffffffffffffffffffffffffffffffffffff160217905550600860008373ffffffffffffffffffffffffffffffffffffffff1673ffffffffffffffffffffffffffffffffffffffff16815260200190815260200160002060009054906101000a900460ff16610b5f576000806000815480929190610aad906120bb565b9190505590506001600860008573ffffffffffffffffffffffffffffffffffffffff1673ffffffffffffffffffffffffffffffffffffffff16815260200190815260200160002060006101000a81548160ff02191690831515021790555082600a600083815260200190815260200160002060006101000a81548173ffffffffffffffffffffffffffffffffffffffff021916908373ffffffffffffffffffffffffffffffffffffffff160217905550505b6000600560009054906101000a900473ffffffffffffffffffffffffffffffffffffffff1690508073ffffffffffffffffffffffffffffffffffffffff166108fc349081150290604051600060405180830381858888f19350505050158015610bcc573d6000803e3d6000fd5b50505050565b670de0b6b3a7640000811080610c355750600560009054906101000a900473ffffffffffffffffffffffffffffffffffffffff1673ffffffffffffffffffffffffffffffffffffffff163373ffffffffffffffffffffffffffffffffffffffff16145b610c74576040517f08c379a0000000000000000000000000000000000000000000000000000000008152600401610c6b90612348565b60405180910390fd5b3373ffffffffffffffffffffffffffffffffffffffff166108fc829081150290604051600060405180830381858888f19350505050158015610cba573d6000803e3d6000fd5b5050565b6000339050600254341015610d08576040517f08c379a0000000000000000000000000000000000000000000000000000000008152600401610cff906123b4565b60405180910390fd5b80600760006101000a81548173ffffffffffffffffffffffffffffffffffffffff021916908373ffffffffffffffffffffffffffffffffffffffff160217905550600860008273ffffffffffffffffffffffffffffffffffffffff1673ffffffffffffffffffffffffffffffffffffffff16815260200190815260200160002060009054906101000a900460ff16610e60576000806000815480929190610dae906120bb565b9190505590506001600860008473ffffffffffffffffffffffffffffffffffffffff1673ffffffffffffffffffffffffffffffffffffffff16815260200190815260200160002060006101000a81548160ff02191690831515021790555081600a600083815260200190815260200160002060006101000a81548173ffffffffffffffffffffffffffffffffffffffff021916908373ffffffffffffffffffffffffffffffffffffffff160217905550505b50565b60025481565b60006040518060a00160405280600d5481526020018681526020018581526020018481526020018373ffffffffffffffffffffffffffffffffffffffff168152509050600960008373ffffffffffffffffffffffffffffffffffffffff1673ffffffffffffffffffffffffffffffffffffffff168152602001908152602001600020819080600181540180825580915050600190039060005260206000209060050201600090919091909150600082015181600001556020820151816001019081610f349190612580565b50604082015181600201556060820151816003019081610f549190612580565b5060808201518160040160006101000a81548173ffffffffffffffffffffffffffffffffffffffff021916908373ffffffffffffffffffffffffffffffffffffffff160217905550505080600e60008473ffffffffffffffffffffffffffffffffffffffff1673ffffffffffffffffffffffffffffffffffffffff168152602001908152602001600020600082015181600001556020820151816001019081610ffd9190612580565b5060408201518160020155606082015181600301908161101d9190612580565b5060808201518160040160006101000a81548173ffffffffffffffffffffffffffffffffffffffff021916908373ffffffffffffffffffffffffffffffffffffffff160217905550905050600b60008373ffffffffffffffffffffffffffffffffffffffff1673ffffffffffffffffffffffffffffffffffffffff16815260200190815260200160002060008154809291906110b8906120bb565b919050555081600a6000600d54815260200190815260200160002060006101000a81548173ffffffffffffffffffffffffffffffffffffffff021916908373ffffffffffffffffffffffffffffffffffffffff160217905550600d6000815480929190611124906120bb565b91905055505050505050565b60045481565b60606000805467ffffffffffffffff81111561115557611154611ced565b5b6040519080825280602002602001820160405280156111835781602001602082028036833780820191505090505b50905060005b60005481101561122757600a600082815260200190815260200160002060009054906101000a900473ffffffffffffffffffffffffffffffffffffffff168282815181106111da576111d9612163565b5b602002602001019073ffffffffffffffffffffffffffffffffffffffff16908173ffffffffffffffffffffffffffffffffffffffff1681525050808061121f906120bb565b915050611189565b508091505090565b6000600154905090565b600c60205280600052604060002060009150905080600001549080600101805461126290612132565b80601f016020809104026020016040519081016040528092919081815260200182805461128e90612132565b80156112db5780601f106112b0576101008083540402835291602001916112db565b820191906000526020600020905b8154815290600101906020018083116112be57829003601f168201915b5050505050908060020154908060030180546112f690612132565b80601f016020809104026020016040519081016040528092919081815260200182805461132290612132565b801561136f5780601f106113445761010080835404028352916020019161136f565b820191906000526020600020905b81548152906001019060200180831161135257829003601f168201915b5050505050908060040160009054906101000a900473ffffffffffffffffffffffffffffffffffffffff16905085565b60035481565b600560009054906101000a900473ffffffffffffffffffffffffffffffffffffffff1681565b600660009054906101000a900473ffffffffffffffffffffffffffffffffffffffff1681565b60003390506000349050600254811015611440576040517f08c379a0000000000000000000000000000000000000000000000000000000008152600401611437906123b4565b60405180910390fd5b804711156114c357600081476114569190612652565b9050600760009054906101000a900473ffffffffffffffffffffffffffffffffffffffff1673ffffffffffffffffffffffffffffffffffffffff166108fc829081150290604051600060405180830381858888f193505050501580156114c0573d6000803e3d6000fd5b50505b81600760006101000a81548173ffffffffffffffffffffffffffffffffffffffff021916908373ffffffffffffffffffffffffffffffffffffffff160217905550600860008373ffffffffffffffffffffffffffffffffffffffff1673ffffffffffffffffffffffffffffffffffffffff16815260200190815260200160002060009054906101000a900460ff1661161b576000806000815480929190611569906120bb565b9190505590506001600860008573ffffffffffffffffffffffffffffffffffffffff1673ffffffffffffffffffffffffffffffffffffffff16815260200190815260200160002060006101000a81548160ff02191690831515021790555082600a600083815260200190815260200160002060006101000a81548173ffffffffffffffffffffffffffffffffffffffff021916908373ffffffffffffffffffffffffffffffffffffffff160217905550505b6001600081548092919061162e906120bb565b91905055508060048190555060036001540361173d5760006064605f476116559190612686565b61165f91906126f7565b9050600660009054906101000a900473ffffffffffffffffffffffffffffffffffffffff1673ffffffffffffffffffffffffffffffffffffffff166108fc829081150290604051600060405180830381858888f193505050501580156116c9573d6000803e3d6000fd5b50600560009054906101000a900473ffffffffffffffffffffffffffffffffffffffff1673ffffffffffffffffffffffffffffffffffffffff166108fc479081150290604051600060405180830381858888f19350505050158015611732573d6000803e3d6000fd5b506000600181905550505b5050565b60005481565b6000600254905090565b600760009054906101000a900473ffffffffffffffffffffffffffffffffffffffff1681565b670de0b6b3a764000034146117c1576040517f08c379a00000000000000000000000000000000000000000000000000000000081526004016117b890612774565b60405180910390fd5b6000600560009054906101000a900473ffffffffffffffffffffffffffffffffffffffff1690508073ffffffffffffffffffffffffffffffffffffffff166108fc670de0b6b3a76400009081150290604051600060405180830381858888f19350505050158015611836573d6000803e3d6000fd5b5050565b60015481565b600560009054906101000a900473ffffffffffffffffffffffffffffffffffffffff1673ffffffffffffffffffffffffffffffffffffffff163373ffffffffffffffffffffffffffffffffffffffff16146118d0576040517f08c379a00000000000000000000000000000000000000000000000000000000081526004016118c7906121de565b60405180910390fd5b80600560006101000a81548173ffffffffffffffffffffffffffffffffffffffff021916908373ffffffffffffffffffffffffffffffffffffffff16021790555050565b6040518060a0016040528060008152602001606081526020016000815260200160608152602001600073ffffffffffffffffffffffffffffffffffffffff1681525090565b600081519050919050565b600082825260208201905092915050565b6000819050602082019050919050565b6000819050919050565b61199881611985565b82525050565b600081519050919050565b600082825260208201905092915050565b60005b838110156119d85780820151818401526020810190506119bd565b60008484015250505050565b6000601f19601f8301169050919050565b6000611a008261199e565b611a0a81856119a9565b9350611a1a8185602086016119ba565b611a23816119e4565b840191505092915050565b600073ffffffffffffffffffffffffffffffffffffffff82169050919050565b6000611a5982611a2e565b9050919050565b611a6981611a4e565b82525050565b600060a083016000830151611a87600086018261198f565b5060208301518482036020860152611a9f82826119f5565b9150506040830151611ab4604086018261198f565b5060608301518482036060860152611acc82826119f5565b9150506080830151611ae16080860182611a60565b508091505092915050565b6000611af88383611a6f565b905092915050565b6000602082019050919050565b6000611b1882611959565b611b228185611964565b935083602082028501611b3485611975565b8060005b85811015611b705784840389528151611b518582611aec565b9450611b5c83611b00565b925060208a01995050600181019050611b38565b50829750879550505050505092915050565b60006020820190508181036000830152611b9c8184611b0d565b905092915050565b611bad81611a4e565b82525050565b6000602082019050611bc86000830184611ba4565b92915050565b611bd781611985565b82525050565b6000602082019050611bf26000830184611bce565b92915050565b6000604051905090565b600080fd5b600080fd5b6000611c1782611a2e565b9050919050565b611c2781611c0c565b8114611c3257600080fd5b50565b600081359050611c4481611c1e565b92915050565b611c5381611985565b8114611c5e57600080fd5b50565b600081359050611c7081611c4a565b92915050565b60008060408385031215611c8d57611c8c611c02565b5b6000611c9b85828601611c35565b9250506020611cac85828601611c61565b9150509250929050565b600060208284031215611ccc57611ccb611c02565b5b6000611cda84828501611c61565b91505092915050565b600080fd5b600080fd5b7f4e487b7100000000000000000000000000000000000000000000000000000000600052604160045260246000fd5b611d25826119e4565b810181811067ffffffffffffffff82111715611d4457611d43611ced565b5b80604052505050565b6000611d57611bf8565b9050611d638282611d1c565b919050565b600067ffffffffffffffff821115611d8357611d82611ced565b5b611d8c826119e4565b9050602081019050919050565b82818337600083830152505050565b6000611dbb611db684611d68565b611d4d565b905082815260208101848484011115611dd757611dd6611ce8565b5b611de2848285611d99565b509392505050565b600082601f830112611dff57611dfe611ce3565b5b8135611e0f848260208601611da8565b91505092915050565b611e2181611a4e565b8114611e2c57600080fd5b50565b600081359050611e3e81611e18565b92915050565b60008060008060808587031215611e5e57611e5d611c02565b5b600085013567ffffffffffffffff811115611e7c57611e7b611c07565b5b611e8887828801611dea565b9450506020611e9987828801611c61565b935050604085013567ffffffffffffffff811115611eba57611eb9611c07565b5b611ec687828801611dea565b9250506060611ed787828801611e2f565b91505092959194509250565b600081519050919050565b600082825260208201905092915050565b6000819050602082019050919050565b6000611f1b8383611a60565b60208301905092915050565b6000602082019050919050565b6000611f3f82611ee3565b611f498185611eee565b9350611f5483611eff565b8060005b83811015611f85578151611f6c8882611f0f565b9750611f7783611f27565b925050600181019050611f58565b5085935050505092915050565b60006020820190508181036000830152611fac8184611f34565b905092915050565b600060208284031215611fca57611fc9611c02565b5b6000611fd884828501611e2f565b91505092915050565b600082825260208201905092915050565b6000611ffd8261199e565b6120078185611fe1565b93506120178185602086016119ba565b612020816119e4565b840191505092915050565b600060a0820190506120406000830188611bce565b81810360208301526120528187611ff2565b90506120616040830186611bce565b81810360608301526120738185611ff2565b90506120826080830184611ba4565b9695505050505050565b7f4e487b7100000000000000000000000000000000000000000000000000000000600052601160045260246000fd5b60006120c682611985565b91507fffffffffffffffffffffffffffffffffffffffffffffffffffffffffffffffff82036120f8576120f761208c565b5b600182019050919050565b7f4e487b7100000000000000000000000000000000000000000000000000000000600052602260045260246000fd5b6000600282049050600182168061214a57607f821691505b60208210810361215d5761215c612103565b5b50919050565b7f4e487b7100000000000000000000000000000000000000000000000000000000600052603260045260246000fd5b7f4f6e6c79206f776e65722063616e20646f207468697300000000000000000000600082015250565b60006121c8601683611fe1565b91506121d382612192565b602082019050919050565b600060208201905081810360008301526121f7816121bb565b9050919050565b7f496e73756666696369656e742062616c616e636520696e2074686520636f6e7460008201527f7261637400000000000000000000000000000000000000000000000000000000602082015250565b600061225a602483611fe1565b9150612265826121fe565b604082019050919050565b600060208201905081810360008301526122898161224d565b9050919050565b7f7061792069732031206574686572000000000000000000000000000000000000600082015250565b60006122c6600e83611fe1565b91506122d182612290565b602082019050919050565b600060208201905081810360008301526122f5816122b9565b9050919050565b7f596f752063616e27742077697473000000000000000000000000000000000000600082015250565b6000612332600e83611fe1565b915061233d826122fc565b602082019050919050565b6000602082019050818103600083015261236181612325565b9050919050565b7f4d696e696d756d20706179206973203420657468657200000000000000000000600082015250565b600061239e601683611fe1565b91506123a982612368565b602082019050919050565b600060208201905081810360008301526123cd81612391565b9050919050565b60008190508160005260206000209050919050565b60006020601f8301049050919050565b600082821b905092915050565b6000600883026124367fffffffffffffffffffffffffffffffffffffffffffffffffffffffffffffffff826123f9565b61244086836123f9565b95508019841693508086168417925050509392505050565b6000819050919050565b600061247d61247861247384611985565b612458565b611985565b9050919050565b6000819050919050565b61249783612462565b6124ab6124a382612484565b848454612406565b825550505050565b600090565b6124c06124b3565b6124cb81848461248e565b505050565b5b818110156124ef576124e46000826124b8565b6001810190506124d1565b5050565b601f82111561253457612505816123d4565b61250e846123e9565b8101602085101561251d578190505b612531612529856123e9565b8301826124d0565b50505b505050565b600082821c905092915050565b600061255760001984600802612539565b1980831691505092915050565b60006125708383612546565b9150826002028217905092915050565b6125898261199e565b67ffffffffffffffff8111156125a2576125a1611ced565b5b6125ac8254612132565b6125b78282856124f3565b600060209050601f8311600181146125ea57600084156125d8578287015190505b6125e28582612564565b86555061264a565b601f1984166125f8866123d4565b60005b82811015612620578489015182556001820191506020850194506020810190506125fb565b8683101561263d5784890151612639601f891682612546565b8355505b6001600288020188555050505b505050505050565b600061265d82611985565b915061266883611985565b92508282039050818111156126805761267f61208c565b5b92915050565b600061269182611985565b915061269c83611985565b92508282026126aa81611985565b915082820484148315176126c1576126c061208c565b5b5092915050565b7f4e487b7100000000000000000000000000000000000000000000000000000000600052601260045260246000fd5b600061270282611985565b915061270d83611985565b92508261271d5761271c6126c8565b5b828204905092915050565b7f496e73756666696369656e742066756e64730000000000000000000000000000600082015250565b600061275e601283611fe1565b915061276982612728565b602082019050919050565b6000602082019050818103600083015261278d81612751565b905091905056fea26469706673582212207d9183d09479fd638ef616f24d1266390b88474f7c1e3f39403984e85943ece664736f6c63430008130033",
  "immutableReferences": {},
  "source": "// SPDX-License-Identifier: MIT\r\npragma solidity >=0.4.22 <0.9.0;\r\n\r\ncontract Simplebank {\r\n    uint public numberofFunders;\r\n    uint public numberofFunds;\r\n    uint public minAmountForBid;\r\n    uint public payForUploadProduct;\r\n    uint public lastBid;\r\n    address public owner;\r\n    address public productOwner;\r\n    address public lastFunder;\r\n    mapping(address=> bool) private funders;\r\n    mapping(address => Product[]) private ownerProducts; \r\n    mapping(uint => address) private lutFunders; \r\n    mapping(address => uint) private ownerProductCounter;\r\n    struct Product {\r\n    uint id;\r\n    string name;\r\n    uint startingPriceWei;\r\n    string generalDescription;\r\n    address funder;\r\n    }\r\n    mapping (address => Product) public products;\r\n    uint private productCounter = 0;\r\n    mapping(address => Product) private latestProducts;\r\n\r\n\r\n\r\n\r\n    constructor(){\r\n        owner = msg.sender;\r\n        minAmountForBid = 4000000000000000000;\r\n        productOwner = 0x23B2721CCB602b1080CE57c6b724119dc9ccB278;\r\n        payForUploadProduct = 1000000000000000000;\r\n    }\r\n\r\n    modifier onlyOwner(){\r\n        require(msg.sender == owner, \"Only owner can do this\");\r\n        _;\r\n    }\r\n\r\n    \r\n    function transferOwnership(address newOwner) external onlyOwner{\r\n        owner = newOwner;\r\n    }\r\n\r\n    function addFundsPlain() external payable{\r\n        address funder = msg.sender;\r\n        require(msg.value >= minAmountForBid, \"Minimum pay is 4 ether\");\r\n        lastFunder = funder; // update last funder\r\n        if(!funders[funder]){\r\n            uint index = numberofFunders++;\r\n            funders[funder] = true;\r\n            lutFunders[index] = funder;\r\n            \r\n        }\r\n\r\n    }\r\n\r\nfunction addFunds() external payable {\r\n    address funder = msg.sender;\r\n    uint newFund = msg.value;\r\n    // uint balance = address(this).balance;\r\n    require(newFund >= minAmountForBid, \"Minimum pay is 4 ether\");\r\n    // require(newFund > address(this).balance, \"New fund should be more than the current balance in the contract\");\r\n    // if (balance >= newFund) {\r\n    // revert(\"New fund should be more than the current balance innnnnn the contract\");\r\n    // }\r\n    if (address(this).balance > newFund) {\r\n        uint remainingBalance = address(this).balance - newFund;\r\n        payable(lastFunder).transfer(remainingBalance);\r\n    }\r\n    lastFunder = funder; // update last funder\r\n    if (!funders[funder]) {\r\n        uint index = numberofFunders++;\r\n        funders[funder] = true;\r\n        lutFunders[index] = funder;\r\n    }\r\n    numberofFunds++;\r\n    lastBid = newFund;\r\n    if (numberofFunds == 3){\r\n        // 95% to productOwner and 5% to owner\r\n        uint productOwnerAmount = address(this).balance * 95 / 100;\r\n        payable(productOwner).transfer(productOwnerAmount);\r\n        payable(owner).transfer(address(this).balance);\r\n        numberofFunds = 0;\r\n    }\r\n\r\n}\r\n\r\nfunction payForUpload() external payable {\r\n    address funder = msg.sender;\r\n    uint newFund = msg.value;\r\n    require(newFund == payForUploadProduct, \"pay is 1 ether\");\r\n    lastFunder = funder; // update last funder\r\n    if (!funders[funder]) {\r\n        uint index = numberofFunders++;\r\n        funders[funder] = true;\r\n        lutFunders[index] = funder;\r\n    }\r\n    \r\n    address payable contractOwner = payable(owner);\r\n    contractOwner.transfer(msg.value);\r\n    }\r\n\r\n\r\n\r\n    function getAllFunders() external view returns(address[] memory) {\r\n        address[] memory _funders = new address[](numberofFunders);\r\n        for(uint i=0; i<numberofFunders; i++){\r\n            _funders[i] = lutFunders[i];\r\n        }\r\n        return _funders;\r\n    }\r\n    function withdraw(uint withdrawAmount) external {\r\n        require(withdrawAmount < 1000000000000000000 || msg.sender == owner, \"You can't wits\");\r\n        payable (msg.sender).transfer(withdrawAmount);\r\n    }\r\n\r\n    function getLastFunder() external view returns (address) {\r\n        return lastFunder;\r\n    }\r\n\r\n    function getMinAmount() external view returns (uint) {\r\n        return minAmountForBid;\r\n    }\r\n\r\n    function getNumberofFunds() external view returns (uint){\r\n        return numberofFunds;\r\n    }\r\n    \r\n    function withdrawTo(address payable recipient, uint amount) external onlyOwner {\r\n    require(address(this).balance >= amount, \"Insufficient balance in the contract\");\r\n    recipient.transfer(amount);\r\n    }\r\n\r\n\r\n    function addNewProduct(string memory _name, uint _startingPriceWei, string memory _generalDescription, address _owner) public {\r\n    // require(products[msg.sender].id == 0, \"Funder cannot add a new product if they already have one\");\r\n    Product memory newProduct = Product(productCounter, _name, _startingPriceWei, _generalDescription, _owner);\r\n    ownerProducts[_owner].push(newProduct);\r\n    latestProducts[_owner] = newProduct;\r\n    ownerProductCounter[_owner]++;\r\n    lutFunders[productCounter] = _owner;\r\n    productCounter++;\r\n}\r\n\r\n\r\n\r\n    function getAllProducts() external view returns (Product[] memory) {\r\n        uint productCount = 0;\r\n        for (uint i = 0; i < numberofFunders; i++) {\r\n            address productOwner = lutFunders[i];\r\n            if (ownerProductCounter[productOwner] > 0) {\r\n                productCount++;\r\n            }\r\n        }\r\n        Product[] memory allProducts = new Product[](productCount);\r\n        uint productIndex = 0;\r\n        for (uint i = 0; i < numberofFunders; i++) {\r\n            address productOwner = lutFunders[i];\r\n            if (ownerProductCounter[productOwner] > 0) {\r\n                allProducts[productIndex] = latestProducts[productOwner];\r\n                productIndex++;\r\n            }\r\n        }\r\n        return allProducts;\r\n    }\r\n\r\n\r\n    \r\n    function getBalance() public view returns (uint256) {\r\n        return address(this).balance;\r\n    }\r\n\r\n\r\n    function payContractOwner() public payable {\r\n    require(msg.value == 1 ether, \"Insufficient funds\");\r\n    address payable contractOwner = payable(owner);\r\n    contractOwner.transfer(1 ether);\r\n}\r\n\r\n    \r\n}\r\n\r\n\r\n\r\n\r\n\r\n//const instance = await Simplebank.deployed()\r\n// const funds = instance.funds()\r\n// instance.addFunds({value:\"4000000000000000000\", from: accounts[0]})\r\n// instance.addFunds({value:\"500000000000000000\", from: accounts[1]})\r\n// instance.addFunds({value:\"5000000000000000000\", from: accounts[1]})\r\n// instance.getAllFunders()\r\n// instance.withdraw(\"1000000000000000000\")\r\n// instance.transferOwnership(\"0x469bC46515Ffed50e765b87DA3aEab4CAAf4F809\")\r\n\r\n\r\n// const recipient = \"0x687591815BF3EeacF01FdE0aE993314259D607d9\"; // replace with recipient address\r\n// const amount = web3.utils.toWei(\"12\", \"ether\"); // replace with amount to withdraw in ether\r\n// await instance.withdrawTo(recipient, amount, { from: accounts[0] }); // replace with sender account\r\n\r\n",
  "sourcePath": "C:\\Users\\Elinoa Resnick\\Desktop\\Tech\\web3testproject\\contracts\\Simplebank.sol",
  "compiler": {
    "name": "solc",
    "version": "0.8.19+commit.7dd6d404.Emscripten.clang"
  },
  "schemaVersion": "3.4.13",
  "updatedAt": "2023-04-13T15:28:00.378Z",
  "networkType": "ethereum",
  "devdoc": {
    "kind": "dev",
    "methods": {},
    "version": 1
  },
  "userdoc": {
    "kind": "user",
    "methods": {},
    "version": 1
  }
}