{
  "contractName": "Simplebank",
  "abi": [
    {
      "inputs": [],
      "stateMutability": "nonpayable",
      "type": "constructor"
    },
    {
      "inputs": [],
      "name": "numberofFunders",
      "outputs": [
        {
          "internalType": "uint256",
          "name": "",
          "type": "uint256"
        }
      ],
      "stateMutability": "view",
      "type": "function",
      "constant": true
    },
    {
      "inputs": [],
      "name": "owner",
      "outputs": [
        {
          "internalType": "address",
          "name": "",
          "type": "address"
        }
      ],
      "stateMutability": "view",
      "type": "function",
      "constant": true
    },
    {
      "inputs": [
        {
          "internalType": "address",
          "name": "newOwner",
          "type": "address"
        }
      ],
      "name": "transferOwnership",
      "outputs": [],
      "stateMutability": "nonpayable",
      "type": "function"
    },
    {
      "inputs": [],
      "name": "addFunds",
      "outputs": [],
      "stateMutability": "payable",
      "type": "function",
      "payable": true
    },
    {
      "inputs": [],
      "name": "getAllFunders",
      "outputs": [
        {
          "internalType": "address[]",
          "name": "",
          "type": "address[]"
        }
      ],
      "stateMutability": "view",
      "type": "function",
      "constant": true
    },
    {
      "inputs": [
        {
          "internalType": "uint256",
          "name": "withdrawAmount",
          "type": "uint256"
        }
      ],
      "name": "withdraw",
      "outputs": [],
      "stateMutability": "nonpayable",
      "type": "function"
    }
  ],
  "bytecode": "0x608060405234801561001057600080fd5b5033600160006101000a81548173ffffffffffffffffffffffffffffffffffffffff021916908373ffffffffffffffffffffffffffffffffffffffff160217905550610956806100616000396000f3fe6080604052600436106100555760003560e01c80632e1a7d4d1461005a5780636fbbb55d146100835780638da5cb5b146100ae578063a26759cb146100d9578063b078b8f0146100e3578063f2fde38b1461010e575b600080fd5b34801561006657600080fd5b50610081600480360381019061007c9190610576565b610137565b005b34801561008f57600080fd5b50610098610223565b6040516100a59190610693565b60405180910390f35b3480156100ba57600080fd5b506100c361031c565b6040516100d091906106c4565b60405180910390f35b6100e1610342565b005b3480156100ef57600080fd5b506100f8610461565b60405161010591906106ee565b60405180910390f35b34801561011a57600080fd5b5061013560048036038101906101309190610735565b610467565b005b670de0b6b3a764000081108061019a5750600160009054906101000a900473ffffffffffffffffffffffffffffffffffffffff1673ffffffffffffffffffffffffffffffffffffffff163373ffffffffffffffffffffffffffffffffffffffff16145b6101d9576040517f08c379a00000000000000000000000000000000000000000000000000000000081526004016101d0906107bf565b60405180910390fd5b3373ffffffffffffffffffffffffffffffffffffffff166108fc829081150290604051600060405180830381858888f1935050505015801561021f573d6000803e3d6000fd5b5050565b60606000805467ffffffffffffffff811115610242576102416107df565b5b6040519080825280602002602001820160405280156102705781602001602082028036833780820191505090505b50905060005b600054811015610314576003600082815260200190815260200160002060009054906101000a900473ffffffffffffffffffffffffffffffffffffffff168282815181106102c7576102c661080e565b5b602002602001019073ffffffffffffffffffffffffffffffffffffffff16908173ffffffffffffffffffffffffffffffffffffffff1681525050808061030c9061086c565b915050610276565b508091505090565b600160009054906101000a900473ffffffffffffffffffffffffffffffffffffffff1681565b6000339050600260008273ffffffffffffffffffffffffffffffffffffffff1673ffffffffffffffffffffffffffffffffffffffff16815260200190815260200160002060009054906101000a900460ff1661045e5760008060008154809291906103ac9061086c565b9190505590506001600260008473ffffffffffffffffffffffffffffffffffffffff1673ffffffffffffffffffffffffffffffffffffffff16815260200190815260200160002060006101000a81548160ff021916908315150217905550816003600083815260200190815260200160002060006101000a81548173ffffffffffffffffffffffffffffffffffffffff021916908373ffffffffffffffffffffffffffffffffffffffff160217905550505b50565b60005481565b600160009054906101000a900473ffffffffffffffffffffffffffffffffffffffff1673ffffffffffffffffffffffffffffffffffffffff163373ffffffffffffffffffffffffffffffffffffffff16146104f7576040517f08c379a00000000000000000000000000000000000000000000000000000000081526004016104ee90610900565b60405180910390fd5b80600160006101000a81548173ffffffffffffffffffffffffffffffffffffffff021916908373ffffffffffffffffffffffffffffffffffffffff16021790555050565b600080fd5b6000819050919050565b61055381610540565b811461055e57600080fd5b50565b6000813590506105708161054a565b92915050565b60006020828403121561058c5761058b61053b565b5b600061059a84828501610561565b91505092915050565b600081519050919050565b600082825260208201905092915050565b6000819050602082019050919050565b600073ffffffffffffffffffffffffffffffffffffffff82169050919050565b60006105fa826105cf565b9050919050565b61060a816105ef565b82525050565b600061061c8383610601565b60208301905092915050565b6000602082019050919050565b6000610640826105a3565b61064a81856105ae565b9350610655836105bf565b8060005b8381101561068657815161066d8882610610565b975061067883610628565b925050600181019050610659565b5085935050505092915050565b600060208201905081810360008301526106ad8184610635565b905092915050565b6106be816105ef565b82525050565b60006020820190506106d960008301846106b5565b92915050565b6106e881610540565b82525050565b600060208201905061070360008301846106df565b92915050565b610712816105ef565b811461071d57600080fd5b50565b60008135905061072f81610709565b92915050565b60006020828403121561074b5761074a61053b565b5b600061075984828501610720565b91505092915050565b600082825260208201905092915050565b7f596f752063616e27742077697473000000000000000000000000000000000000600082015250565b60006107a9600e83610762565b91506107b482610773565b602082019050919050565b600060208201905081810360008301526107d88161079c565b9050919050565b7f4e487b7100000000000000000000000000000000000000000000000000000000600052604160045260246000fd5b7f4e487b7100000000000000000000000000000000000000000000000000000000600052603260045260246000fd5b7f4e487b7100000000000000000000000000000000000000000000000000000000600052601160045260246000fd5b600061087782610540565b91507fffffffffffffffffffffffffffffffffffffffffffffffffffffffffffffffff82036108a9576108a861083d565b5b600182019050919050565b7f4f6e6c79206f776e65722063616e20646f207468697300000000000000000000600082015250565b60006108ea601683610762565b91506108f5826108b4565b602082019050919050565b60006020820190508181036000830152610919816108dd565b905091905056fea2646970667358221220d69f5f9f66fada42bcff5c391a1cad6de8584d8f32c51193ccdafbc35f7f1e1c64736f6c63430008130033",
  "immutableReferences": {},
  "source": "// SPDX-License-Identifier: MIT\r\npragma solidity >=0.4.22 <0.9.0;\r\n\r\ncontract Simplebank {\r\n    uint public numberofFunders;\r\n    address public owner;\r\n    mapping(address=> bool) private funders;\r\n    mapping(uint => address) private lutFunders;\r\n\r\n    constructor(){\r\n        owner = msg.sender;\r\n    }\r\n\r\n    modifier onlyOwner(){\r\n        require(msg.sender == owner, \"Only owner can do this\");\r\n        _;\r\n    }\r\n\r\n    \r\n    function transferOwnership(address newOwner) external onlyOwner{\r\n        owner = newOwner;\r\n    }\r\n\r\n    function addFunds() external payable{\r\n        address funder = msg.sender;\r\n        if(!funders[funder]){\r\n            uint index = numberofFunders++;\r\n            funders[funder] = true;\r\n            lutFunders[index] = funder;\r\n        }\r\n\r\n    }\r\n    function getAllFunders() external view returns(address[] memory) {\r\n        address[] memory _funders = new address[](numberofFunders);\r\n        for(uint i=0; i<numberofFunders; i++){\r\n            _funders[i] = lutFunders[i];\r\n        }\r\n        return _funders;\r\n    }\r\n    function withdraw(uint withdrawAmount) external {\r\n        require(withdrawAmount < 1000000000000000000 || msg.sender == owner, \"You can't wits\");\r\n        payable (msg.sender).transfer(withdrawAmount);\r\n    }\r\n\r\n}\r\n//const instance = await Simplebank.deployed()\r\n//const funds = instance.funds()\r\n//instance.addFunds({value:\"500000000000000000\", from: accounts[0]})\r\n//instance.addFunds({value:\"500000000000000000\", from: accounts[1]})\r\n// instance.getAllFunders()\r\n// instance.withdraw(\"1000000000000000000\")\r\n// instance.transferOwnership(\"0x469bC46515Ffed50e765b87DA3aEab4CAAf4F809\")",
  "sourcePath": "C:\\Users\\Elinoa Resnick\\Desktop\\Tech\\web3testproject\\contracts\\Simplebank.sol",
  "compiler": {
    "name": "solc",
    "version": "0.8.19+commit.7dd6d404.Emscripten.clang"
  },
  "schemaVersion": "3.4.13",
  "updatedAt": "2023-03-21T05:59:29.457Z",
  "networkType": "ethereum",
  "devdoc": {
    "kind": "dev",
    "methods": {},
    "version": 1
  },
  "userdoc": {
    "kind": "user",
    "methods": {},
    "version": 1
  }
}