{
  "contractName": "Simplebank",
  "abi": [
    {
      "inputs": [],
      "stateMutability": "nonpayable",
      "type": "constructor"
    },
    {
      "inputs": [],
      "name": "lastBid",
      "outputs": [
        {
          "internalType": "uint256",
          "name": "",
          "type": "uint256"
        }
      ],
      "stateMutability": "view",
      "type": "function",
      "constant": true
    },
    {
      "inputs": [],
      "name": "lastFunder",
      "outputs": [
        {
          "internalType": "address",
          "name": "",
          "type": "address"
        }
      ],
      "stateMutability": "view",
      "type": "function",
      "constant": true
    },
    {
      "inputs": [],
      "name": "minAmountForBid",
      "outputs": [
        {
          "internalType": "uint256",
          "name": "",
          "type": "uint256"
        }
      ],
      "stateMutability": "view",
      "type": "function",
      "constant": true
    },
    {
      "inputs": [],
      "name": "numberofFunders",
      "outputs": [
        {
          "internalType": "uint256",
          "name": "",
          "type": "uint256"
        }
      ],
      "stateMutability": "view",
      "type": "function",
      "constant": true
    },
    {
      "inputs": [],
      "name": "numberofFunds",
      "outputs": [
        {
          "internalType": "uint256",
          "name": "",
          "type": "uint256"
        }
      ],
      "stateMutability": "view",
      "type": "function",
      "constant": true
    },
    {
      "inputs": [],
      "name": "owner",
      "outputs": [
        {
          "internalType": "address",
          "name": "",
          "type": "address"
        }
      ],
      "stateMutability": "view",
      "type": "function",
      "constant": true
    },
    {
      "inputs": [],
      "name": "productOwner",
      "outputs": [
        {
          "internalType": "address",
          "name": "",
          "type": "address"
        }
      ],
      "stateMutability": "view",
      "type": "function",
      "constant": true
    },
    {
      "inputs": [
        {
          "internalType": "address",
          "name": "",
          "type": "address"
        }
      ],
      "name": "products",
      "outputs": [
        {
          "internalType": "string",
          "name": "name",
          "type": "string"
        },
        {
          "internalType": "uint256",
          "name": "startingPriceWei",
          "type": "uint256"
        },
        {
          "internalType": "string",
          "name": "generalDescription",
          "type": "string"
        }
      ],
      "stateMutability": "view",
      "type": "function",
      "constant": true
    },
    {
      "inputs": [
        {
          "internalType": "address",
          "name": "newOwner",
          "type": "address"
        }
      ],
      "name": "transferOwnership",
      "outputs": [],
      "stateMutability": "nonpayable",
      "type": "function"
    },
    {
      "inputs": [],
      "name": "addFundsPlain",
      "outputs": [],
      "stateMutability": "payable",
      "type": "function",
      "payable": true
    },
    {
      "inputs": [],
      "name": "addFunds",
      "outputs": [],
      "stateMutability": "payable",
      "type": "function",
      "payable": true
    },
    {
      "inputs": [],
      "name": "getAllFunders",
      "outputs": [
        {
          "internalType": "address[]",
          "name": "",
          "type": "address[]"
        }
      ],
      "stateMutability": "view",
      "type": "function",
      "constant": true
    },
    {
      "inputs": [
        {
          "internalType": "uint256",
          "name": "withdrawAmount",
          "type": "uint256"
        }
      ],
      "name": "withdraw",
      "outputs": [],
      "stateMutability": "nonpayable",
      "type": "function"
    },
    {
      "inputs": [],
      "name": "getLastFunder",
      "outputs": [
        {
          "internalType": "address",
          "name": "",
          "type": "address"
        }
      ],
      "stateMutability": "view",
      "type": "function",
      "constant": true
    },
    {
      "inputs": [],
      "name": "getMinAmount",
      "outputs": [
        {
          "internalType": "uint256",
          "name": "",
          "type": "uint256"
        }
      ],
      "stateMutability": "view",
      "type": "function",
      "constant": true
    },
    {
      "inputs": [],
      "name": "getNumberofFunds",
      "outputs": [
        {
          "internalType": "uint256",
          "name": "",
          "type": "uint256"
        }
      ],
      "stateMutability": "view",
      "type": "function",
      "constant": true
    },
    {
      "inputs": [
        {
          "internalType": "address payable",
          "name": "recipient",
          "type": "address"
        },
        {
          "internalType": "uint256",
          "name": "amount",
          "type": "uint256"
        }
      ],
      "name": "withdrawTo",
      "outputs": [],
      "stateMutability": "nonpayable",
      "type": "function"
    },
    {
      "inputs": [
        {
          "internalType": "string",
          "name": "_name",
          "type": "string"
        },
        {
          "internalType": "uint256",
          "name": "_startingPriceWei",
          "type": "uint256"
        },
        {
          "internalType": "string",
          "name": "_generalDescription",
          "type": "string"
        },
        {
          "internalType": "address",
          "name": "_owner",
          "type": "address"
        }
      ],
      "name": "addNewProduct",
      "outputs": [],
      "stateMutability": "nonpayable",
      "type": "function"
    },
    {
      "inputs": [],
      "name": "getAllProducts",
      "outputs": [
        {
          "components": [
            {
              "internalType": "string",
              "name": "name",
              "type": "string"
            },
            {
              "internalType": "uint256",
              "name": "startingPriceWei",
              "type": "uint256"
            },
            {
              "internalType": "string",
              "name": "generalDescription",
              "type": "string"
            }
          ],
          "internalType": "struct Simplebank.Product[]",
          "name": "",
          "type": "tuple[]"
        }
      ],
      "stateMutability": "view",
      "type": "function",
      "constant": true
    },
    {
      "inputs": [],
      "name": "getBalance",
      "outputs": [
        {
          "internalType": "uint256",
          "name": "",
          "type": "uint256"
        }
      ],
      "stateMutability": "view",
      "type": "function",
      "constant": true
    }
  ],
  "bytecode": "0x608060405234801561001057600080fd5b5033600460006101000a81548173ffffffffffffffffffffffffffffffffffffffff021916908373ffffffffffffffffffffffffffffffffffffffff160217905550673782dace9d9000006002819055507323b2721ccb602b1080ce57c6b724119dc9ccb278600560006101000a81548173ffffffffffffffffffffffffffffffffffffffff021916908373ffffffffffffffffffffffffffffffffffffffff1602179055506120b0806100c56000396000f3fe60806040526004361061011f5760003560e01c806377eaf884116100a0578063b078b8f011610064578063b078b8f014610375578063cfc7e2da146103a0578063d77a80a8146103cb578063ec601930146103f6578063f2fde38b146104215761011f565b806377eaf884146102ab578063793a8e71146102d65780638da5cb5b146103155780639209bb8814610340578063a26759cb1461036b5761011f565b806330e88bf8116100e757806330e88bf8146101f757806352762a9014610201578063562d6c111461022c5780635e3d3957146102555780636fbbb55d146102805761011f565b806302ee3a52146101245780630ba002e01461014f57806312065fe01461017a578063205c2878146101a55780632e1a7d4d146101ce575b600080fd5b34801561013057600080fd5b5061013961044a565b604051610146919061151b565b60405180910390f35b34801561015b57600080fd5b506101646107c3565b604051610171919061157e565b60405180910390f35b34801561018657600080fd5b5061018f6107ed565b60405161019c91906115a8565b60405180910390f35b3480156101b157600080fd5b506101cc60048036038101906101c79190611641565b6107f5565b005b3480156101da57600080fd5b506101f560048036038101906101f09190611681565b610913565b005b6101ff6109ff565b005b34801561020d57600080fd5b50610216610ba4565b60405161022391906115a8565b60405180910390f35b34801561023857600080fd5b50610253600480360381019061024e919061180f565b610baa565b005b34801561026157600080fd5b5061026a610c49565b60405161027791906115a8565b60405180910390f35b34801561028c57600080fd5b50610295610c4f565b6040516102a2919061196c565b60405180910390f35b3480156102b757600080fd5b506102c0610d48565b6040516102cd91906115a8565b60405180910390f35b3480156102e257600080fd5b506102fd60048036038101906102f8919061198e565b610d52565b60405161030c93929190611a05565b60405180910390f35b34801561032157600080fd5b5061032a610e8c565b604051610337919061157e565b60405180910390f35b34801561034c57600080fd5b50610355610eb2565b604051610362919061157e565b60405180910390f35b610373610ed8565b005b34801561038157600080fd5b5061038a611228565b60405161039791906115a8565b60405180910390f35b3480156103ac57600080fd5b506103b561122e565b6040516103c291906115a8565b60405180910390f35b3480156103d757600080fd5b506103e0611238565b6040516103ed919061157e565b60405180910390f35b34801561040257600080fd5b5061040b61125e565b60405161041891906115a8565b60405180910390f35b34801561042d57600080fd5b506104486004803603810190610443919061198e565b611264565b005b60606000805b60005481101561050b5760006008600083815260200190815260200160002060009054906101000a900473ffffffffffffffffffffffffffffffffffffffff1690506000600960008373ffffffffffffffffffffffffffffffffffffffff1673ffffffffffffffffffffffffffffffffffffffff16815260200190815260200160002060000180546104e190611a79565b9050146104f75782806104f390611ad9565b9350505b50808061050390611ad9565b915050610450565b5060008167ffffffffffffffff811115610528576105276116b8565b5b60405190808252806020026020018201604052801561056157816020015b61054e611338565b8152602001906001900390816105465790505b5090506000805b6000548110156107b95760006008600083815260200190815260200160002060009054906101000a900473ffffffffffffffffffffffffffffffffffffffff1690506000600960008373ffffffffffffffffffffffffffffffffffffffff1673ffffffffffffffffffffffffffffffffffffffff16815260200190815260200160002060000180546105f990611a79565b9050146107a557600960008273ffffffffffffffffffffffffffffffffffffffff1673ffffffffffffffffffffffffffffffffffffffff16815260200190815260200160002060405180606001604052908160008201805461065a90611a79565b80601f016020809104026020016040519081016040528092919081815260200182805461068690611a79565b80156106d35780601f106106a8576101008083540402835291602001916106d3565b820191906000526020600020905b8154815290600101906020018083116106b657829003601f168201915b50505050508152602001600182015481526020016002820180546106f690611a79565b80601f016020809104026020016040519081016040528092919081815260200182805461072290611a79565b801561076f5780601f106107445761010080835404028352916020019161076f565b820191906000526020600020905b81548152906001019060200180831161075257829003601f168201915b50505050508152505084848151811061078b5761078a611b21565b5b602002602001018190525082806107a190611ad9565b9350505b5080806107b190611ad9565b915050610568565b5081935050505090565b6000600660009054906101000a900473ffffffffffffffffffffffffffffffffffffffff16905090565b600047905090565b600460009054906101000a900473ffffffffffffffffffffffffffffffffffffffff1673ffffffffffffffffffffffffffffffffffffffff163373ffffffffffffffffffffffffffffffffffffffff1614610885576040517f08c379a000000000000000000000000000000000000000000000000000000000815260040161087c90611b9c565b60405180910390fd5b804710156108c8576040517f08c379a00000000000000000000000000000000000000000000000000000000081526004016108bf90611c2e565b60405180910390fd5b8173ffffffffffffffffffffffffffffffffffffffff166108fc829081150290604051600060405180830381858888f1935050505015801561090e573d6000803e3d6000fd5b505050565b670de0b6b3a76400008110806109765750600460009054906101000a900473ffffffffffffffffffffffffffffffffffffffff1673ffffffffffffffffffffffffffffffffffffffff163373ffffffffffffffffffffffffffffffffffffffff16145b6109b5576040517f08c379a00000000000000000000000000000000000000000000000000000000081526004016109ac90611c9a565b60405180910390fd5b3373ffffffffffffffffffffffffffffffffffffffff166108fc829081150290604051600060405180830381858888f193505050501580156109fb573d6000803e3d6000fd5b5050565b6000339050600254341015610a49576040517f08c379a0000000000000000000000000000000000000000000000000000000008152600401610a4090611d06565b60405180910390fd5b80600660006101000a81548173ffffffffffffffffffffffffffffffffffffffff021916908373ffffffffffffffffffffffffffffffffffffffff160217905550600760008273ffffffffffffffffffffffffffffffffffffffff1673ffffffffffffffffffffffffffffffffffffffff16815260200190815260200160002060009054906101000a900460ff16610ba1576000806000815480929190610aef90611ad9565b9190505590506001600760008473ffffffffffffffffffffffffffffffffffffffff1673ffffffffffffffffffffffffffffffffffffffff16815260200190815260200160002060006101000a81548160ff021916908315150217905550816008600083815260200190815260200160002060006101000a81548173ffffffffffffffffffffffffffffffffffffffff021916908373ffffffffffffffffffffffffffffffffffffffff160217905550505b50565b60025481565b6000604051806060016040528086815260200185815260200184815250905080600960008473ffffffffffffffffffffffffffffffffffffffff1673ffffffffffffffffffffffffffffffffffffffff1681526020019081526020016000206000820151816000019081610c1e9190611ed2565b50602082015181600101556040820151816002019081610c3e9190611ed2565b509050505050505050565b60035481565b60606000805467ffffffffffffffff811115610c6e57610c6d6116b8565b5b604051908082528060200260200182016040528015610c9c5781602001602082028036833780820191505090505b50905060005b600054811015610d40576008600082815260200190815260200160002060009054906101000a900473ffffffffffffffffffffffffffffffffffffffff16828281518110610cf357610cf2611b21565b5b602002602001019073ffffffffffffffffffffffffffffffffffffffff16908173ffffffffffffffffffffffffffffffffffffffff16815250508080610d3890611ad9565b915050610ca2565b508091505090565b6000600154905090565b6009602052806000526040600020600091509050806000018054610d7590611a79565b80601f0160208091040260200160405190810160405280929190818152602001828054610da190611a79565b8015610dee5780601f10610dc357610100808354040283529160200191610dee565b820191906000526020600020905b815481529060010190602001808311610dd157829003601f168201915b505050505090806001015490806002018054610e0990611a79565b80601f0160208091040260200160405190810160405280929190818152602001828054610e3590611a79565b8015610e825780601f10610e5757610100808354040283529160200191610e82565b820191906000526020600020905b815481529060010190602001808311610e6557829003601f168201915b5050505050905083565b600460009054906101000a900473ffffffffffffffffffffffffffffffffffffffff1681565b600560009054906101000a900473ffffffffffffffffffffffffffffffffffffffff1681565b60003390506000349050600254811015610f27576040517f08c379a0000000000000000000000000000000000000000000000000000000008152600401610f1e90611d06565b60405180910390fd5b80471115610faa5760008147610f3d9190611fa4565b9050600660009054906101000a900473ffffffffffffffffffffffffffffffffffffffff1673ffffffffffffffffffffffffffffffffffffffff166108fc829081150290604051600060405180830381858888f19350505050158015610fa7573d6000803e3d6000fd5b50505b81600660006101000a81548173ffffffffffffffffffffffffffffffffffffffff021916908373ffffffffffffffffffffffffffffffffffffffff160217905550600760008373ffffffffffffffffffffffffffffffffffffffff1673ffffffffffffffffffffffffffffffffffffffff16815260200190815260200160002060009054906101000a900460ff1661110257600080600081548092919061105090611ad9565b9190505590506001600760008573ffffffffffffffffffffffffffffffffffffffff1673ffffffffffffffffffffffffffffffffffffffff16815260200190815260200160002060006101000a81548160ff021916908315150217905550826008600083815260200190815260200160002060006101000a81548173ffffffffffffffffffffffffffffffffffffffff021916908373ffffffffffffffffffffffffffffffffffffffff160217905550505b6001600081548092919061111590611ad9565b9190505550806003819055506003600154036112245760006064605f4761113c9190611fd8565b6111469190612049565b9050600560009054906101000a900473ffffffffffffffffffffffffffffffffffffffff1673ffffffffffffffffffffffffffffffffffffffff166108fc829081150290604051600060405180830381858888f193505050501580156111b0573d6000803e3d6000fd5b50600460009054906101000a900473ffffffffffffffffffffffffffffffffffffffff1673ffffffffffffffffffffffffffffffffffffffff166108fc479081150290604051600060405180830381858888f19350505050158015611219573d6000803e3d6000fd5b506000600181905550505b5050565b60005481565b6000600254905090565b600660009054906101000a900473ffffffffffffffffffffffffffffffffffffffff1681565b60015481565b600460009054906101000a900473ffffffffffffffffffffffffffffffffffffffff1673ffffffffffffffffffffffffffffffffffffffff163373ffffffffffffffffffffffffffffffffffffffff16146112f4576040517f08c379a00000000000000000000000000000000000000000000000000000000081526004016112eb90611b9c565b60405180910390fd5b80600460006101000a81548173ffffffffffffffffffffffffffffffffffffffff021916908373ffffffffffffffffffffffffffffffffffffffff16021790555050565b60405180606001604052806060815260200160008152602001606081525090565b600081519050919050565b600082825260208201905092915050565b6000819050602082019050919050565b600081519050919050565b600082825260208201905092915050565b60005b838110156113bf5780820151818401526020810190506113a4565b60008484015250505050565b6000601f19601f8301169050919050565b60006113e782611385565b6113f18185611390565b93506114018185602086016113a1565b61140a816113cb565b840191505092915050565b6000819050919050565b61142881611415565b82525050565b6000606083016000830151848203600086015261144b82826113dc565b9150506020830151611460602086018261141f565b506040830151848203604086015261147882826113dc565b9150508091505092915050565b6000611491838361142e565b905092915050565b6000602082019050919050565b60006114b182611359565b6114bb8185611364565b9350836020820285016114cd85611375565b8060005b8581101561150957848403895281516114ea8582611485565b94506114f583611499565b925060208a019950506001810190506114d1565b50829750879550505050505092915050565b6000602082019050818103600083015261153581846114a6565b905092915050565b600073ffffffffffffffffffffffffffffffffffffffff82169050919050565b60006115688261153d565b9050919050565b6115788161155d565b82525050565b6000602082019050611593600083018461156f565b92915050565b6115a281611415565b82525050565b60006020820190506115bd6000830184611599565b92915050565b6000604051905090565b600080fd5b600080fd5b60006115e28261153d565b9050919050565b6115f2816115d7565b81146115fd57600080fd5b50565b60008135905061160f816115e9565b92915050565b61161e81611415565b811461162957600080fd5b50565b60008135905061163b81611615565b92915050565b60008060408385031215611658576116576115cd565b5b600061166685828601611600565b92505060206116778582860161162c565b9150509250929050565b600060208284031215611697576116966115cd565b5b60006116a58482850161162c565b91505092915050565b600080fd5b600080fd5b7f4e487b7100000000000000000000000000000000000000000000000000000000600052604160045260246000fd5b6116f0826113cb565b810181811067ffffffffffffffff8211171561170f5761170e6116b8565b5b80604052505050565b60006117226115c3565b905061172e82826116e7565b919050565b600067ffffffffffffffff82111561174e5761174d6116b8565b5b611757826113cb565b9050602081019050919050565b82818337600083830152505050565b600061178661178184611733565b611718565b9050828152602081018484840111156117a2576117a16116b3565b5b6117ad848285611764565b509392505050565b600082601f8301126117ca576117c96116ae565b5b81356117da848260208601611773565b91505092915050565b6117ec8161155d565b81146117f757600080fd5b50565b600081359050611809816117e3565b92915050565b60008060008060808587031215611829576118286115cd565b5b600085013567ffffffffffffffff811115611847576118466115d2565b5b611853878288016117b5565b94505060206118648782880161162c565b935050604085013567ffffffffffffffff811115611885576118846115d2565b5b611891878288016117b5565b92505060606118a2878288016117fa565b91505092959194509250565b600081519050919050565b600082825260208201905092915050565b6000819050602082019050919050565b6118e38161155d565b82525050565b60006118f583836118da565b60208301905092915050565b6000602082019050919050565b6000611919826118ae565b61192381856118b9565b935061192e836118ca565b8060005b8381101561195f57815161194688826118e9565b975061195183611901565b925050600181019050611932565b5085935050505092915050565b60006020820190508181036000830152611986818461190e565b905092915050565b6000602082840312156119a4576119a36115cd565b5b60006119b2848285016117fa565b91505092915050565b600082825260208201905092915050565b60006119d782611385565b6119e181856119bb565b93506119f18185602086016113a1565b6119fa816113cb565b840191505092915050565b60006060820190508181036000830152611a1f81866119cc565b9050611a2e6020830185611599565b8181036040830152611a4081846119cc565b9050949350505050565b7f4e487b7100000000000000000000000000000000000000000000000000000000600052602260045260246000fd5b60006002820490506001821680611a9157607f821691505b602082108103611aa457611aa3611a4a565b5b50919050565b7f4e487b7100000000000000000000000000000000000000000000000000000000600052601160045260246000fd5b6000611ae482611415565b91507fffffffffffffffffffffffffffffffffffffffffffffffffffffffffffffffff8203611b1657611b15611aaa565b5b600182019050919050565b7f4e487b7100000000000000000000000000000000000000000000000000000000600052603260045260246000fd5b7f4f6e6c79206f776e65722063616e20646f207468697300000000000000000000600082015250565b6000611b866016836119bb565b9150611b9182611b50565b602082019050919050565b60006020820190508181036000830152611bb581611b79565b9050919050565b7f496e73756666696369656e742062616c616e636520696e2074686520636f6e7460008201527f7261637400000000000000000000000000000000000000000000000000000000602082015250565b6000611c186024836119bb565b9150611c2382611bbc565b604082019050919050565b60006020820190508181036000830152611c4781611c0b565b9050919050565b7f596f752063616e27742077697473000000000000000000000000000000000000600082015250565b6000611c84600e836119bb565b9150611c8f82611c4e565b602082019050919050565b60006020820190508181036000830152611cb381611c77565b9050919050565b7f4d696e696d756d20706179206973203420657468657200000000000000000000600082015250565b6000611cf06016836119bb565b9150611cfb82611cba565b602082019050919050565b60006020820190508181036000830152611d1f81611ce3565b9050919050565b60008190508160005260206000209050919050565b60006020601f8301049050919050565b600082821b905092915050565b600060088302611d887fffffffffffffffffffffffffffffffffffffffffffffffffffffffffffffffff82611d4b565b611d928683611d4b565b95508019841693508086168417925050509392505050565b6000819050919050565b6000611dcf611dca611dc584611415565b611daa565b611415565b9050919050565b6000819050919050565b611de983611db4565b611dfd611df582611dd6565b848454611d58565b825550505050565b600090565b611e12611e05565b611e1d818484611de0565b505050565b5b81811015611e4157611e36600082611e0a565b600181019050611e23565b5050565b601f821115611e8657611e5781611d26565b611e6084611d3b565b81016020851015611e6f578190505b611e83611e7b85611d3b565b830182611e22565b50505b505050565b600082821c905092915050565b6000611ea960001984600802611e8b565b1980831691505092915050565b6000611ec28383611e98565b9150826002028217905092915050565b611edb82611385565b67ffffffffffffffff811115611ef457611ef36116b8565b5b611efe8254611a79565b611f09828285611e45565b600060209050601f831160018114611f3c5760008415611f2a578287015190505b611f348582611eb6565b865550611f9c565b601f198416611f4a86611d26565b60005b82811015611f7257848901518255600182019150602085019450602081019050611f4d565b86831015611f8f5784890151611f8b601f891682611e98565b8355505b6001600288020188555050505b505050505050565b6000611faf82611415565b9150611fba83611415565b9250828203905081811115611fd257611fd1611aaa565b5b92915050565b6000611fe382611415565b9150611fee83611415565b9250828202611ffc81611415565b9150828204841483151761201357612012611aaa565b5b5092915050565b7f4e487b7100000000000000000000000000000000000000000000000000000000600052601260045260246000fd5b600061205482611415565b915061205f83611415565b92508261206f5761206e61201a565b5b82820490509291505056fea2646970667358221220ae1d569e6621318896e0d7f741b3943d9f6dd65ece934545dc3888d2d15242e764736f6c63430008130033",
  "immutableReferences": {},
  "source": "// SPDX-License-Identifier: MIT\r\npragma solidity >=0.4.22 <0.9.0;\r\n\r\ncontract Simplebank {\r\n    uint public numberofFunders;\r\n    uint public numberofFunds;\r\n    uint public minAmountForBid;\r\n    uint public lastBid;\r\n    address public owner;\r\n    address public productOwner;\r\n    address public lastFunder;\r\n    mapping(address=> bool) private funders;\r\n    mapping(uint => address) private lutFunders;\r\n    struct Product {\r\n    string name;\r\n    uint startingPriceWei;\r\n    string generalDescription;\r\n    }\r\n    mapping (address => Product) public products;\r\n\r\n\r\n\r\n    constructor(){\r\n        owner = msg.sender;\r\n        minAmountForBid = 4000000000000000000;\r\n        productOwner = 0x23B2721CCB602b1080CE57c6b724119dc9ccB278;\r\n    }\r\n\r\n    modifier onlyOwner(){\r\n        require(msg.sender == owner, \"Only owner can do this\");\r\n        _;\r\n    }\r\n\r\n    \r\n    function transferOwnership(address newOwner) external onlyOwner{\r\n        owner = newOwner;\r\n    }\r\n\r\n    function addFundsPlain() external payable{\r\n        address funder = msg.sender;\r\n        require(msg.value >= minAmountForBid, \"Minimum pay is 4 ether\");\r\n        lastFunder = funder; // update last funder\r\n        if(!funders[funder]){\r\n            uint index = numberofFunders++;\r\n            funders[funder] = true;\r\n            lutFunders[index] = funder;\r\n            \r\n        }\r\n\r\n    }\r\n\r\nfunction addFunds() external payable {\r\n    address funder = msg.sender;\r\n    uint newFund = msg.value;\r\n    // uint balance = address(this).balance;\r\n    require(newFund >= minAmountForBid, \"Minimum pay is 4 ether\");\r\n    // require(newFund > address(this).balance, \"New fund should be more than the current balance in the contract\");\r\n    // if (balance >= newFund) {\r\n    // revert(\"New fund should be more than the current balance innnnnn the contract\");\r\n    // }\r\n    if (address(this).balance > newFund) {\r\n        uint remainingBalance = address(this).balance - newFund;\r\n        payable(lastFunder).transfer(remainingBalance);\r\n    }\r\n    lastFunder = funder; // update last funder\r\n    if (!funders[funder]) {\r\n        uint index = numberofFunders++;\r\n        funders[funder] = true;\r\n        lutFunders[index] = funder;\r\n    }\r\n    numberofFunds++;\r\n    lastBid = newFund;\r\n    if (numberofFunds == 3){\r\n        // 95% to productOwner and 5% to owner\r\n        uint productOwnerAmount = address(this).balance * 95 / 100;\r\n        payable(productOwner).transfer(productOwnerAmount);\r\n        payable(owner).transfer(address(this).balance);\r\n        numberofFunds = 0;\r\n    }\r\n\r\n}\r\n\r\n\r\n\r\n  \r\n\r\n    function getAllFunders() external view returns(address[] memory) {\r\n        address[] memory _funders = new address[](numberofFunders);\r\n        for(uint i=0; i<numberofFunders; i++){\r\n            _funders[i] = lutFunders[i];\r\n        }\r\n        return _funders;\r\n    }\r\n    function withdraw(uint withdrawAmount) external {\r\n        require(withdrawAmount < 1000000000000000000 || msg.sender == owner, \"You can't wits\");\r\n        payable (msg.sender).transfer(withdrawAmount);\r\n    }\r\n\r\n    function getLastFunder() external view returns (address) {\r\n        return lastFunder;\r\n    }\r\n\r\n    function getMinAmount() external view returns (uint) {\r\n        return minAmountForBid;\r\n    }\r\n\r\n    function getNumberofFunds() external view returns (uint){\r\n        return numberofFunds;\r\n    }\r\n    \r\n    function withdrawTo(address payable recipient, uint amount) external onlyOwner {\r\n    require(address(this).balance >= amount, \"Insufficient balance in the contract\");\r\n    recipient.transfer(amount);\r\n    }\r\n\r\n    function addNewProduct(string memory _name, uint _startingPriceWei, string memory _generalDescription, address _owner) public {\r\n    Product memory newProduct = Product(_name, _startingPriceWei, _generalDescription);\r\n    products[_owner] = newProduct;\r\n    }\r\n\r\n\r\n    function getAllProducts() external view returns (Product[] memory) {\r\n        uint productCount = 0;\r\n        for (uint i = 0; i < numberofFunders; i++) {\r\n            address productOwnerr = lutFunders[i];\r\n            if (bytes(products[productOwnerr].name).length != 0) {\r\n                productCount++;\r\n            }\r\n        }\r\n        Product[] memory allProducts = new Product[](productCount);\r\n        uint productIndex = 0;\r\n        for (uint i = 0; i < numberofFunders; i++) {\r\n        address productOwner = lutFunders[i];\r\n        if (bytes(products[productOwner].name).length != 0) {\r\n        allProducts[productIndex] = products[productOwner];\r\n        productIndex++;\r\n    }\r\n    }\r\n\r\n        return allProducts;\r\n        }\r\n\r\n        function getBalance() public view returns (uint256) {\r\n        return address(this).balance;\r\n    }\r\n\r\n\r\n    \r\n}\r\n\r\n\r\n\r\n\r\n\r\n//const instance = await Simplebank.deployed()\r\n// const funds = instance.funds()\r\n// instance.addFunds({value:\"4000000000000000000\", from: accounts[0]})\r\n// instance.addFunds({value:\"500000000000000000\", from: accounts[1]})\r\n// instance.addFunds({value:\"5000000000000000000\", from: accounts[1]})\r\n// instance.getAllFunders()\r\n// instance.withdraw(\"1000000000000000000\")\r\n// instance.transferOwnership(\"0x469bC46515Ffed50e765b87DA3aEab4CAAf4F809\")\r\n\r\n\r\n// const recipient = \"0x687591815BF3EeacF01FdE0aE993314259D607d9\"; // replace with recipient address\r\n// const amount = web3.utils.toWei(\"12\", \"ether\"); // replace with amount to withdraw in ether\r\n// await instance.withdrawTo(recipient, amount, { from: accounts[0] }); // replace with sender account\r\n\r\n",
  "sourcePath": "C:\\Users\\Elinoa Resnick\\Desktop\\Tech\\web3testproject\\contracts\\Simplebank.sol",
  "compiler": {
    "name": "solc",
    "version": "0.8.19+commit.7dd6d404.Emscripten.clang"
  },
  "schemaVersion": "3.4.13",
  "updatedAt": "2023-04-02T16:44:36.367Z",
  "networkType": "ethereum",
  "devdoc": {
    "kind": "dev",
    "methods": {},
    "version": 1
  },
  "userdoc": {
    "kind": "user",
    "methods": {},
    "version": 1
  }
}