{
  "contractName": "Simplebank",
  "abi": [
    {
      "inputs": [],
      "stateMutability": "nonpayable",
      "type": "constructor"
    },
    {
      "inputs": [],
      "name": "lastBid",
      "outputs": [
        {
          "internalType": "uint256",
          "name": "",
          "type": "uint256"
        }
      ],
      "stateMutability": "view",
      "type": "function",
      "constant": true
    },
    {
      "inputs": [],
      "name": "lastFunder",
      "outputs": [
        {
          "internalType": "address",
          "name": "",
          "type": "address"
        }
      ],
      "stateMutability": "view",
      "type": "function",
      "constant": true
    },
    {
      "inputs": [],
      "name": "minAmountForBid",
      "outputs": [
        {
          "internalType": "uint256",
          "name": "",
          "type": "uint256"
        }
      ],
      "stateMutability": "view",
      "type": "function",
      "constant": true
    },
    {
      "inputs": [],
      "name": "numberofFunders",
      "outputs": [
        {
          "internalType": "uint256",
          "name": "",
          "type": "uint256"
        }
      ],
      "stateMutability": "view",
      "type": "function",
      "constant": true
    },
    {
      "inputs": [],
      "name": "numberofFunds",
      "outputs": [
        {
          "internalType": "uint256",
          "name": "",
          "type": "uint256"
        }
      ],
      "stateMutability": "view",
      "type": "function",
      "constant": true
    },
    {
      "inputs": [],
      "name": "owner",
      "outputs": [
        {
          "internalType": "address",
          "name": "",
          "type": "address"
        }
      ],
      "stateMutability": "view",
      "type": "function",
      "constant": true
    },
    {
      "inputs": [],
      "name": "payForUploadProduct",
      "outputs": [
        {
          "internalType": "uint256",
          "name": "",
          "type": "uint256"
        }
      ],
      "stateMutability": "view",
      "type": "function",
      "constant": true
    },
    {
      "inputs": [],
      "name": "productOwner",
      "outputs": [
        {
          "internalType": "address",
          "name": "",
          "type": "address"
        }
      ],
      "stateMutability": "view",
      "type": "function",
      "constant": true
    },
    {
      "inputs": [
        {
          "internalType": "address",
          "name": "",
          "type": "address"
        }
      ],
      "name": "products",
      "outputs": [
        {
          "internalType": "uint256",
          "name": "id",
          "type": "uint256"
        },
        {
          "internalType": "string",
          "name": "name",
          "type": "string"
        },
        {
          "internalType": "uint256",
          "name": "startingPriceWei",
          "type": "uint256"
        },
        {
          "internalType": "string",
          "name": "generalDescription",
          "type": "string"
        },
        {
          "internalType": "address",
          "name": "funder",
          "type": "address"
        }
      ],
      "stateMutability": "view",
      "type": "function",
      "constant": true
    },
    {
      "inputs": [
        {
          "internalType": "address",
          "name": "newOwner",
          "type": "address"
        }
      ],
      "name": "transferOwnership",
      "outputs": [],
      "stateMutability": "nonpayable",
      "type": "function"
    },
    {
      "inputs": [],
      "name": "addFundsPlain",
      "outputs": [],
      "stateMutability": "payable",
      "type": "function",
      "payable": true
    },
    {
      "inputs": [],
      "name": "addFunds",
      "outputs": [],
      "stateMutability": "payable",
      "type": "function",
      "payable": true
    },
    {
      "inputs": [],
      "name": "payForUpload",
      "outputs": [],
      "stateMutability": "payable",
      "type": "function",
      "payable": true
    },
    {
      "inputs": [],
      "name": "getAllFunders",
      "outputs": [
        {
          "internalType": "address[]",
          "name": "",
          "type": "address[]"
        }
      ],
      "stateMutability": "view",
      "type": "function",
      "constant": true
    },
    {
      "inputs": [
        {
          "internalType": "uint256",
          "name": "withdrawAmount",
          "type": "uint256"
        }
      ],
      "name": "withdraw",
      "outputs": [],
      "stateMutability": "nonpayable",
      "type": "function"
    },
    {
      "inputs": [],
      "name": "getLastFunder",
      "outputs": [
        {
          "internalType": "address",
          "name": "",
          "type": "address"
        }
      ],
      "stateMutability": "view",
      "type": "function",
      "constant": true
    },
    {
      "inputs": [],
      "name": "getProductOwner",
      "outputs": [
        {
          "internalType": "address",
          "name": "",
          "type": "address"
        }
      ],
      "stateMutability": "view",
      "type": "function",
      "constant": true
    },
    {
      "inputs": [],
      "name": "getMinAmount",
      "outputs": [
        {
          "internalType": "uint256",
          "name": "",
          "type": "uint256"
        }
      ],
      "stateMutability": "view",
      "type": "function",
      "constant": true
    },
    {
      "inputs": [],
      "name": "getNumberofFunds",
      "outputs": [
        {
          "internalType": "uint256",
          "name": "",
          "type": "uint256"
        }
      ],
      "stateMutability": "view",
      "type": "function",
      "constant": true
    },
    {
      "inputs": [
        {
          "internalType": "address payable",
          "name": "recipient",
          "type": "address"
        },
        {
          "internalType": "uint256",
          "name": "amount",
          "type": "uint256"
        }
      ],
      "name": "withdrawTo",
      "outputs": [],
      "stateMutability": "nonpayable",
      "type": "function"
    },
    {
      "inputs": [
        {
          "internalType": "string",
          "name": "_name",
          "type": "string"
        },
        {
          "internalType": "uint256",
          "name": "_startingPriceWei",
          "type": "uint256"
        },
        {
          "internalType": "string",
          "name": "_generalDescription",
          "type": "string"
        },
        {
          "internalType": "address",
          "name": "_owner",
          "type": "address"
        }
      ],
      "name": "addNewProduct",
      "outputs": [],
      "stateMutability": "nonpayable",
      "type": "function"
    },
    {
      "inputs": [],
      "name": "getAllProducts",
      "outputs": [
        {
          "components": [
            {
              "internalType": "uint256",
              "name": "id",
              "type": "uint256"
            },
            {
              "internalType": "string",
              "name": "name",
              "type": "string"
            },
            {
              "internalType": "uint256",
              "name": "startingPriceWei",
              "type": "uint256"
            },
            {
              "internalType": "string",
              "name": "generalDescription",
              "type": "string"
            },
            {
              "internalType": "address",
              "name": "funder",
              "type": "address"
            }
          ],
          "internalType": "struct Simplebank.Product[]",
          "name": "",
          "type": "tuple[]"
        }
      ],
      "stateMutability": "view",
      "type": "function",
      "constant": true
    },
    {
      "inputs": [],
      "name": "getBalance",
      "outputs": [
        {
          "internalType": "uint256",
          "name": "",
          "type": "uint256"
        }
      ],
      "stateMutability": "view",
      "type": "function",
      "constant": true
    },
    {
      "inputs": [],
      "name": "payContractOwner",
      "outputs": [],
      "stateMutability": "payable",
      "type": "function",
      "payable": true
    }
  ],
  "bytecode": "0x60806040526000600d5534801561001557600080fd5b5033600560006101000a81548173ffffffffffffffffffffffffffffffffffffffff021916908373ffffffffffffffffffffffffffffffffffffffff160217905550673782dace9d9000006002819055507323b2721ccb602b1080ce57c6b724119dc9ccb278600660006101000a81548173ffffffffffffffffffffffffffffffffffffffff021916908373ffffffffffffffffffffffffffffffffffffffff160217905550670de0b6b3a76400006003819055506129a1806100d96000396000f3fe60806040526004361061014b5760003560e01c806377eaf884116100b6578063b078b8f01161006f578063b078b8f014610403578063cfc7e2da1461042e578063d77a80a814610459578063e581442014610484578063ec6019301461048e578063f2fde38b146104b95761014b565b806377eaf8841461030c578063793a8e7114610337578063821f6c2a146103785780638da5cb5b146103a35780639209bb88146103ce578063a26759cb146103f95761014b565b806330e88bf81161010857806330e88bf81461022d57806352762a9014610237578063562d6c111461026257806357adae6d1461028b5780635e3d3957146102b65780636fbbb55d146102e15761014b565b806302ee3a52146101505780630ba002e01461017b57806312065fe0146101a6578063205c2878146101d1578063257e5011146101fa5780632e1a7d4d14610204575b600080fd5b34801561015c57600080fd5b506101656104e2565b6040516101729190611cc7565b60405180910390f35b34801561018757600080fd5b5061019061089f565b60405161019d9190611cf8565b60405180910390f35b3480156101b257600080fd5b506101bb6108c9565b6040516101c89190611d22565b60405180910390f35b3480156101dd57600080fd5b506101f860048036038101906101f39190611dbb565b6108d1565b005b6102026109ef565b005b34801561021057600080fd5b5061022b60048036038101906102269190611dfb565b610c08565b005b610235610cf4565b005b34801561024357600080fd5b5061024c610e99565b6040516102599190611d22565b60405180910390f35b34801561026e57600080fd5b5061028960048036038101906102849190611f89565b610e9f565b005b34801561029757600080fd5b506102a061124b565b6040516102ad9190611cf8565b60405180910390f35b3480156102c257600080fd5b506102cb611275565b6040516102d89190611d22565b60405180910390f35b3480156102ed57600080fd5b506102f661127b565b60405161030391906120d7565b60405180910390f35b34801561031857600080fd5b50610321611374565b60405161032e9190611d22565b60405180910390f35b34801561034357600080fd5b5061035e600480360381019061035991906120f9565b61137e565b60405161036f959493929190612170565b60405180910390f35b34801561038457600080fd5b5061038d6114e4565b60405161039a9190611d22565b60405180910390f35b3480156103af57600080fd5b506103b86114ea565b6040516103c59190611cf8565b60405180910390f35b3480156103da57600080fd5b506103e3611510565b6040516103f09190611cf8565b60405180910390f35b610401611536565b005b34801561040f57600080fd5b50610418611886565b6040516104259190611d22565b60405180910390f35b34801561043a57600080fd5b5061044361188c565b6040516104509190611d22565b60405180910390f35b34801561046557600080fd5b5061046e611896565b60405161047b9190611cf8565b60405180910390f35b61048c6118bc565b005b34801561049a57600080fd5b506104a361197f565b6040516104b09190611d22565b60405180910390f35b3480156104c557600080fd5b506104e060048036038101906104db91906120f9565b611985565b005b60606000805b600054811015610595576000600a600083815260200190815260200160002060009054906101000a900473ffffffffffffffffffffffffffffffffffffffff1690506000600b60008373ffffffffffffffffffffffffffffffffffffffff1673ffffffffffffffffffffffffffffffffffffffff16815260200190815260200160002054111561058157828061057d90612200565b9350505b50808061058d90612200565b9150506104e8565b5060008167ffffffffffffffff8111156105b2576105b1611e32565b5b6040519080825280602002602001820160405280156105eb57816020015b6105d8611a59565b8152602001906001900390816105d05790505b5090506000805b600054811015610895576000600a600083815260200190815260200160002060009054906101000a900473ffffffffffffffffffffffffffffffffffffffff1690506000600b60008373ffffffffffffffffffffffffffffffffffffffff1673ffffffffffffffffffffffffffffffffffffffff16815260200190815260200160002054111561088157600e60008273ffffffffffffffffffffffffffffffffffffffff1673ffffffffffffffffffffffffffffffffffffffff1681526020019081526020016000206040518060a0016040529081600082015481526020016001820180546106e090612277565b80601f016020809104026020016040519081016040528092919081815260200182805461070c90612277565b80156107595780601f1061072e57610100808354040283529160200191610759565b820191906000526020600020905b81548152906001019060200180831161073c57829003601f168201915b505050505081526020016002820154815260200160038201805461077c90612277565b80601f01602080910402602001604051908101604052809291908181526020018280546107a890612277565b80156107f55780601f106107ca576101008083540402835291602001916107f5565b820191906000526020600020905b8154815290600101906020018083116107d857829003601f168201915b505050505081526020016004820160009054906101000a900473ffffffffffffffffffffffffffffffffffffffff1673ffffffffffffffffffffffffffffffffffffffff1673ffffffffffffffffffffffffffffffffffffffff1681525050848481518110610867576108666122a8565b5b6020026020010181905250828061087d90612200565b9350505b50808061088d90612200565b9150506105f2565b5081935050505090565b6000600760009054906101000a900473ffffffffffffffffffffffffffffffffffffffff16905090565b600047905090565b600560009054906101000a900473ffffffffffffffffffffffffffffffffffffffff1673ffffffffffffffffffffffffffffffffffffffff163373ffffffffffffffffffffffffffffffffffffffff1614610961576040517f08c379a000000000000000000000000000000000000000000000000000000000815260040161095890612323565b60405180910390fd5b804710156109a4576040517f08c379a000000000000000000000000000000000000000000000000000000000815260040161099b906123b5565b60405180910390fd5b8173ffffffffffffffffffffffffffffffffffffffff166108fc829081150290604051600060405180830381858888f193505050501580156109ea573d6000803e3d6000fd5b505050565b600033905060003490506003548114610a3d576040517f08c379a0000000000000000000000000000000000000000000000000000000008152600401610a3490612421565b60405180910390fd5b81600760006101000a81548173ffffffffffffffffffffffffffffffffffffffff021916908373ffffffffffffffffffffffffffffffffffffffff160217905550600860008373ffffffffffffffffffffffffffffffffffffffff1673ffffffffffffffffffffffffffffffffffffffff16815260200190815260200160002060009054906101000a900460ff16610b95576000806000815480929190610ae390612200565b9190505590506001600860008573ffffffffffffffffffffffffffffffffffffffff1673ffffffffffffffffffffffffffffffffffffffff16815260200190815260200160002060006101000a81548160ff02191690831515021790555082600a600083815260200190815260200160002060006101000a81548173ffffffffffffffffffffffffffffffffffffffff021916908373ffffffffffffffffffffffffffffffffffffffff160217905550505b6000600560009054906101000a900473ffffffffffffffffffffffffffffffffffffffff1690508073ffffffffffffffffffffffffffffffffffffffff166108fc349081150290604051600060405180830381858888f19350505050158015610c02573d6000803e3d6000fd5b50505050565b670de0b6b3a7640000811080610c6b5750600560009054906101000a900473ffffffffffffffffffffffffffffffffffffffff1673ffffffffffffffffffffffffffffffffffffffff163373ffffffffffffffffffffffffffffffffffffffff16145b610caa576040517f08c379a0000000000000000000000000000000000000000000000000000000008152600401610ca19061248d565b60405180910390fd5b3373ffffffffffffffffffffffffffffffffffffffff166108fc829081150290604051600060405180830381858888f19350505050158015610cf0573d6000803e3d6000fd5b5050565b6000339050600254341015610d3e576040517f08c379a0000000000000000000000000000000000000000000000000000000008152600401610d35906124f9565b60405180910390fd5b80600760006101000a81548173ffffffffffffffffffffffffffffffffffffffff021916908373ffffffffffffffffffffffffffffffffffffffff160217905550600860008273ffffffffffffffffffffffffffffffffffffffff1673ffffffffffffffffffffffffffffffffffffffff16815260200190815260200160002060009054906101000a900460ff16610e96576000806000815480929190610de490612200565b9190505590506001600860008473ffffffffffffffffffffffffffffffffffffffff1673ffffffffffffffffffffffffffffffffffffffff16815260200190815260200160002060006101000a81548160ff02191690831515021790555081600a600083815260200190815260200160002060006101000a81548173ffffffffffffffffffffffffffffffffffffffff021916908373ffffffffffffffffffffffffffffffffffffffff160217905550505b50565b60025481565b600f60008273ffffffffffffffffffffffffffffffffffffffff1673ffffffffffffffffffffffffffffffffffffffff16815260200190815260200160002060009054906101000a900460ff1615610f2c576040517f08c379a0000000000000000000000000000000000000000000000000000000008152600401610f239061258b565b60405180910390fd5b60006040518060a00160405280600d5481526020018681526020018581526020018481526020018373ffffffffffffffffffffffffffffffffffffffff168152509050600960008373ffffffffffffffffffffffffffffffffffffffff1673ffffffffffffffffffffffffffffffffffffffff168152602001908152602001600020819080600181540180825580915050600190039060005260206000209060050201600090919091909150600082015181600001556020820151816001019081610ff79190612757565b506040820151816002015560608201518160030190816110179190612757565b5060808201518160040160006101000a81548173ffffffffffffffffffffffffffffffffffffffff021916908373ffffffffffffffffffffffffffffffffffffffff160217905550505080600e60008473ffffffffffffffffffffffffffffffffffffffff1673ffffffffffffffffffffffffffffffffffffffff1681526020019081526020016000206000820151816000015560208201518160010190816110c09190612757565b506040820151816002015560608201518160030190816110e09190612757565b5060808201518160040160006101000a81548173ffffffffffffffffffffffffffffffffffffffff021916908373ffffffffffffffffffffffffffffffffffffffff160217905550905050600b60008373ffffffffffffffffffffffffffffffffffffffff1673ffffffffffffffffffffffffffffffffffffffff168152602001908152602001600020600081548092919061117b90612200565b919050555081600a6000600d54815260200190815260200160002060006101000a81548173ffffffffffffffffffffffffffffffffffffffff021916908373ffffffffffffffffffffffffffffffffffffffff160217905550600d60008154809291906111e790612200565b91905055506001600f60008473ffffffffffffffffffffffffffffffffffffffff1673ffffffffffffffffffffffffffffffffffffffff16815260200190815260200160002060006101000a81548160ff0219169083151502179055505050505050565b6000600660009054906101000a900473ffffffffffffffffffffffffffffffffffffffff16905090565b60045481565b60606000805467ffffffffffffffff81111561129a57611299611e32565b5b6040519080825280602002602001820160405280156112c85781602001602082028036833780820191505090505b50905060005b60005481101561136c57600a600082815260200190815260200160002060009054906101000a900473ffffffffffffffffffffffffffffffffffffffff1682828151811061131f5761131e6122a8565b5b602002602001019073ffffffffffffffffffffffffffffffffffffffff16908173ffffffffffffffffffffffffffffffffffffffff1681525050808061136490612200565b9150506112ce565b508091505090565b6000600154905090565b600c6020528060005260406000206000915090508060000154908060010180546113a790612277565b80601f01602080910402602001604051908101604052809291908181526020018280546113d390612277565b80156114205780601f106113f557610100808354040283529160200191611420565b820191906000526020600020905b81548152906001019060200180831161140357829003601f168201915b50505050509080600201549080600301805461143b90612277565b80601f016020809104026020016040519081016040528092919081815260200182805461146790612277565b80156114b45780601f10611489576101008083540402835291602001916114b4565b820191906000526020600020905b81548152906001019060200180831161149757829003601f168201915b5050505050908060040160009054906101000a900473ffffffffffffffffffffffffffffffffffffffff16905085565b60035481565b600560009054906101000a900473ffffffffffffffffffffffffffffffffffffffff1681565b600660009054906101000a900473ffffffffffffffffffffffffffffffffffffffff1681565b60003390506000349050600254811015611585576040517f08c379a000000000000000000000000000000000000000000000000000000000815260040161157c906124f9565b60405180910390fd5b80471115611608576000814761159b9190612829565b9050600760009054906101000a900473ffffffffffffffffffffffffffffffffffffffff1673ffffffffffffffffffffffffffffffffffffffff166108fc829081150290604051600060405180830381858888f19350505050158015611605573d6000803e3d6000fd5b50505b81600760006101000a81548173ffffffffffffffffffffffffffffffffffffffff021916908373ffffffffffffffffffffffffffffffffffffffff160217905550600860008373ffffffffffffffffffffffffffffffffffffffff1673ffffffffffffffffffffffffffffffffffffffff16815260200190815260200160002060009054906101000a900460ff166117605760008060008154809291906116ae90612200565b9190505590506001600860008573ffffffffffffffffffffffffffffffffffffffff1673ffffffffffffffffffffffffffffffffffffffff16815260200190815260200160002060006101000a81548160ff02191690831515021790555082600a600083815260200190815260200160002060006101000a81548173ffffffffffffffffffffffffffffffffffffffff021916908373ffffffffffffffffffffffffffffffffffffffff160217905550505b6001600081548092919061177390612200565b9190505550806004819055506003600154036118825760006064605f4761179a919061285d565b6117a491906128ce565b9050600660009054906101000a900473ffffffffffffffffffffffffffffffffffffffff1673ffffffffffffffffffffffffffffffffffffffff166108fc829081150290604051600060405180830381858888f1935050505015801561180e573d6000803e3d6000fd5b50600560009054906101000a900473ffffffffffffffffffffffffffffffffffffffff1673ffffffffffffffffffffffffffffffffffffffff166108fc479081150290604051600060405180830381858888f19350505050158015611877573d6000803e3d6000fd5b506000600181905550505b5050565b60005481565b6000600254905090565b600760009054906101000a900473ffffffffffffffffffffffffffffffffffffffff1681565b670de0b6b3a76400003414611906576040517f08c379a00000000000000000000000000000000000000000000000000000000081526004016118fd9061294b565b60405180910390fd5b6000600560009054906101000a900473ffffffffffffffffffffffffffffffffffffffff1690508073ffffffffffffffffffffffffffffffffffffffff166108fc670de0b6b3a76400009081150290604051600060405180830381858888f1935050505015801561197b573d6000803e3d6000fd5b5050565b60015481565b600560009054906101000a900473ffffffffffffffffffffffffffffffffffffffff1673ffffffffffffffffffffffffffffffffffffffff163373ffffffffffffffffffffffffffffffffffffffff1614611a15576040517f08c379a0000000000000000000000000000000000000000000000000000000008152600401611a0c90612323565b60405180910390fd5b80600560006101000a81548173ffffffffffffffffffffffffffffffffffffffff021916908373ffffffffffffffffffffffffffffffffffffffff16021790555050565b6040518060a0016040528060008152602001606081526020016000815260200160608152602001600073ffffffffffffffffffffffffffffffffffffffff1681525090565b600081519050919050565b600082825260208201905092915050565b6000819050602082019050919050565b6000819050919050565b611add81611aca565b82525050565b600081519050919050565b600082825260208201905092915050565b60005b83811015611b1d578082015181840152602081019050611b02565b60008484015250505050565b6000601f19601f8301169050919050565b6000611b4582611ae3565b611b4f8185611aee565b9350611b5f818560208601611aff565b611b6881611b29565b840191505092915050565b600073ffffffffffffffffffffffffffffffffffffffff82169050919050565b6000611b9e82611b73565b9050919050565b611bae81611b93565b82525050565b600060a083016000830151611bcc6000860182611ad4565b5060208301518482036020860152611be48282611b3a565b9150506040830151611bf96040860182611ad4565b5060608301518482036060860152611c118282611b3a565b9150506080830151611c266080860182611ba5565b508091505092915050565b6000611c3d8383611bb4565b905092915050565b6000602082019050919050565b6000611c5d82611a9e565b611c678185611aa9565b935083602082028501611c7985611aba565b8060005b85811015611cb55784840389528151611c968582611c31565b9450611ca183611c45565b925060208a01995050600181019050611c7d565b50829750879550505050505092915050565b60006020820190508181036000830152611ce18184611c52565b905092915050565b611cf281611b93565b82525050565b6000602082019050611d0d6000830184611ce9565b92915050565b611d1c81611aca565b82525050565b6000602082019050611d376000830184611d13565b92915050565b6000604051905090565b600080fd5b600080fd5b6000611d5c82611b73565b9050919050565b611d6c81611d51565b8114611d7757600080fd5b50565b600081359050611d8981611d63565b92915050565b611d9881611aca565b8114611da357600080fd5b50565b600081359050611db581611d8f565b92915050565b60008060408385031215611dd257611dd1611d47565b5b6000611de085828601611d7a565b9250506020611df185828601611da6565b9150509250929050565b600060208284031215611e1157611e10611d47565b5b6000611e1f84828501611da6565b91505092915050565b600080fd5b600080fd5b7f4e487b7100000000000000000000000000000000000000000000000000000000600052604160045260246000fd5b611e6a82611b29565b810181811067ffffffffffffffff82111715611e8957611e88611e32565b5b80604052505050565b6000611e9c611d3d565b9050611ea88282611e61565b919050565b600067ffffffffffffffff821115611ec857611ec7611e32565b5b611ed182611b29565b9050602081019050919050565b82818337600083830152505050565b6000611f00611efb84611ead565b611e92565b905082815260208101848484011115611f1c57611f1b611e2d565b5b611f27848285611ede565b509392505050565b600082601f830112611f4457611f43611e28565b5b8135611f54848260208601611eed565b91505092915050565b611f6681611b93565b8114611f7157600080fd5b50565b600081359050611f8381611f5d565b92915050565b60008060008060808587031215611fa357611fa2611d47565b5b600085013567ffffffffffffffff811115611fc157611fc0611d4c565b5b611fcd87828801611f2f565b9450506020611fde87828801611da6565b935050604085013567ffffffffffffffff811115611fff57611ffe611d4c565b5b61200b87828801611f2f565b925050606061201c87828801611f74565b91505092959194509250565b600081519050919050565b600082825260208201905092915050565b6000819050602082019050919050565b60006120608383611ba5565b60208301905092915050565b6000602082019050919050565b600061208482612028565b61208e8185612033565b935061209983612044565b8060005b838110156120ca5781516120b18882612054565b97506120bc8361206c565b92505060018101905061209d565b5085935050505092915050565b600060208201905081810360008301526120f18184612079565b905092915050565b60006020828403121561210f5761210e611d47565b5b600061211d84828501611f74565b91505092915050565b600082825260208201905092915050565b600061214282611ae3565b61214c8185612126565b935061215c818560208601611aff565b61216581611b29565b840191505092915050565b600060a0820190506121856000830188611d13565b81810360208301526121978187612137565b90506121a66040830186611d13565b81810360608301526121b88185612137565b90506121c76080830184611ce9565b9695505050505050565b7f4e487b7100000000000000000000000000000000000000000000000000000000600052601160045260246000fd5b600061220b82611aca565b91507fffffffffffffffffffffffffffffffffffffffffffffffffffffffffffffffff820361223d5761223c6121d1565b5b600182019050919050565b7f4e487b7100000000000000000000000000000000000000000000000000000000600052602260045260246000fd5b6000600282049050600182168061228f57607f821691505b6020821081036122a2576122a1612248565b5b50919050565b7f4e487b7100000000000000000000000000000000000000000000000000000000600052603260045260246000fd5b7f4f6e6c79206f776e65722063616e20646f207468697300000000000000000000600082015250565b600061230d601683612126565b9150612318826122d7565b602082019050919050565b6000602082019050818103600083015261233c81612300565b9050919050565b7f496e73756666696369656e742062616c616e636520696e2074686520636f6e7460008201527f7261637400000000000000000000000000000000000000000000000000000000602082015250565b600061239f602483612126565b91506123aa82612343565b604082019050919050565b600060208201905081810360008301526123ce81612392565b9050919050565b7f7061792069732031206574686572000000000000000000000000000000000000600082015250565b600061240b600e83612126565b9150612416826123d5565b602082019050919050565b6000602082019050818103600083015261243a816123fe565b9050919050565b7f596f752063616e27742077697473000000000000000000000000000000000000600082015250565b6000612477600e83612126565b915061248282612441565b602082019050919050565b600060208201905081810360008301526124a68161246a565b9050919050565b7f4d696e696d756d20706179206973203420657468657200000000000000000000600082015250565b60006124e3601683612126565b91506124ee826124ad565b602082019050919050565b60006020820190508181036000830152612512816124d6565b9050919050565b7f46756e6465722063616e206f6e6c792061646420612070726f64756374206f6e60008201527f6365000000000000000000000000000000000000000000000000000000000000602082015250565b6000612575602283612126565b915061258082612519565b604082019050919050565b600060208201905081810360008301526125a481612568565b9050919050565b60008190508160005260206000209050919050565b60006020601f8301049050919050565b600082821b905092915050565b60006008830261260d7fffffffffffffffffffffffffffffffffffffffffffffffffffffffffffffffff826125d0565b61261786836125d0565b95508019841693508086168417925050509392505050565b6000819050919050565b600061265461264f61264a84611aca565b61262f565b611aca565b9050919050565b6000819050919050565b61266e83612639565b61268261267a8261265b565b8484546125dd565b825550505050565b600090565b61269761268a565b6126a2818484612665565b505050565b5b818110156126c6576126bb60008261268f565b6001810190506126a8565b5050565b601f82111561270b576126dc816125ab565b6126e5846125c0565b810160208510156126f4578190505b612708612700856125c0565b8301826126a7565b50505b505050565b600082821c905092915050565b600061272e60001984600802612710565b1980831691505092915050565b6000612747838361271d565b9150826002028217905092915050565b61276082611ae3565b67ffffffffffffffff81111561277957612778611e32565b5b6127838254612277565b61278e8282856126ca565b600060209050601f8311600181146127c157600084156127af578287015190505b6127b9858261273b565b865550612821565b601f1984166127cf866125ab565b60005b828110156127f7578489015182556001820191506020850194506020810190506127d2565b868310156128145784890151612810601f89168261271d565b8355505b6001600288020188555050505b505050505050565b600061283482611aca565b915061283f83611aca565b9250828203905081811115612857576128566121d1565b5b92915050565b600061286882611aca565b915061287383611aca565b925082820261288181611aca565b91508282048414831517612898576128976121d1565b5b5092915050565b7f4e487b7100000000000000000000000000000000000000000000000000000000600052601260045260246000fd5b60006128d982611aca565b91506128e483611aca565b9250826128f4576128f361289f565b5b828204905092915050565b7f496e73756666696369656e742066756e64730000000000000000000000000000600082015250565b6000612935601283612126565b9150612940826128ff565b602082019050919050565b6000602082019050818103600083015261296481612928565b905091905056fea264697066735822122074d239ec368b3e9cc8b9f9fab67c0cc5190b658ecfa5798b22bd9be971dfe85564736f6c63430008130033",
  "immutableReferences": {},
  "source": "// SPDX-License-Identifier: MIT\r\npragma solidity >=0.4.22 <0.9.0;\r\n\r\ncontract Simplebank {\r\n    uint public numberofFunders;\r\n    uint public numberofFunds;\r\n    uint public minAmountForBid;\r\n    uint public payForUploadProduct;\r\n    uint public lastBid;\r\n    address public owner;\r\n    address public productOwner;\r\n    address public lastFunder;\r\n    mapping(address=> bool) private funders;\r\n    mapping(address => Product[]) private ownerProducts; \r\n    mapping(uint => address) private lutFunders; \r\n    mapping(address => uint) private ownerProductCounter;\r\n    struct Product {\r\n    uint id;\r\n    string name;\r\n    uint startingPriceWei;\r\n    string generalDescription;\r\n    address funder;\r\n    }\r\n    mapping (address => Product) public products;\r\n    uint private productCounter = 0;\r\n    mapping(address => Product) private latestProducts;\r\n\r\n    mapping(address => bool) private hasAddedProduct;\r\n\r\n\r\n\r\n\r\n    constructor(){\r\n        owner = msg.sender;\r\n        minAmountForBid = 4000000000000000000;\r\n        productOwner = 0x23B2721CCB602b1080CE57c6b724119dc9ccB278;\r\n        payForUploadProduct = 1000000000000000000;\r\n    }\r\n\r\n    modifier onlyOwner(){\r\n        require(msg.sender == owner, \"Only owner can do this\");\r\n        _;\r\n    }\r\n\r\n    \r\n    function transferOwnership(address newOwner) external onlyOwner{\r\n        owner = newOwner;\r\n    }\r\n\r\n    function addFundsPlain() external payable{\r\n        address funder = msg.sender;\r\n        require(msg.value >= minAmountForBid, \"Minimum pay is 4 ether\");\r\n        lastFunder = funder; // update last funder\r\n        if(!funders[funder]){\r\n            uint index = numberofFunders++;\r\n            funders[funder] = true;\r\n            lutFunders[index] = funder;\r\n            \r\n        }\r\n\r\n    }\r\n\r\nfunction addFunds() external payable {\r\n    address funder = msg.sender;\r\n    uint newFund = msg.value;\r\n    // uint balance = address(this).balance;\r\n    require(newFund >= minAmountForBid, \"Minimum pay is 4 ether\");\r\n    // require(newFund > address(this).balance, \"New fund should be more than the current balance in the contract\");\r\n    // if (balance >= newFund) {\r\n    // revert(\"New fund should be more than the current balance innnnnn the contract\");\r\n    // }\r\n    if (address(this).balance > newFund) {\r\n        uint remainingBalance = address(this).balance - newFund;\r\n        payable(lastFunder).transfer(remainingBalance);\r\n    }\r\n    lastFunder = funder; // update last funder\r\n    if (!funders[funder]) {\r\n        uint index = numberofFunders++;\r\n        funders[funder] = true;\r\n        lutFunders[index] = funder;\r\n    }\r\n    numberofFunds++;\r\n    lastBid = newFund;\r\n    if (numberofFunds == 3){\r\n        // 95% to productOwner and 5% to owner\r\n        uint productOwnerAmount = address(this).balance * 95 / 100;\r\n        payable(productOwner).transfer(productOwnerAmount);\r\n        payable(owner).transfer(address(this).balance);\r\n        numberofFunds = 0;\r\n    }\r\n\r\n}\r\n\r\nfunction payForUpload() external payable {\r\n    address funder = msg.sender;\r\n    uint newFund = msg.value;\r\n    require(newFund == payForUploadProduct, \"pay is 1 ether\");\r\n    lastFunder = funder; // update last funder\r\n    if (!funders[funder]) {\r\n        uint index = numberofFunders++;\r\n        funders[funder] = true;\r\n        lutFunders[index] = funder;\r\n    }\r\n    \r\n    address payable contractOwner = payable(owner);\r\n    contractOwner.transfer(msg.value);\r\n    }\r\n\r\n\r\n\r\n    function getAllFunders() external view returns(address[] memory) {\r\n        address[] memory _funders = new address[](numberofFunders);\r\n        for(uint i=0; i<numberofFunders; i++){\r\n            _funders[i] = lutFunders[i];\r\n        }\r\n        return _funders;\r\n    }\r\n    function withdraw(uint withdrawAmount) external {\r\n        require(withdrawAmount < 1000000000000000000 || msg.sender == owner, \"You can't wits\");\r\n        payable (msg.sender).transfer(withdrawAmount);\r\n    }\r\n\r\n    function getLastFunder() external view returns (address) {\r\n        return lastFunder;\r\n    }\r\n    \r\n    function getProductOwner() external view returns (address) {\r\n        return productOwner;\r\n    }\r\n\r\n    function getMinAmount() external view returns (uint) {\r\n        return minAmountForBid;\r\n    }\r\n\r\n    function getNumberofFunds() external view returns (uint){\r\n        return numberofFunds;\r\n    }\r\n    \r\n    function withdrawTo(address payable recipient, uint amount) external onlyOwner {\r\n    require(address(this).balance >= amount, \"Insufficient balance in the contract\");\r\n    recipient.transfer(amount);\r\n    }\r\n\r\n\r\n    function addNewProduct(string memory _name, uint _startingPriceWei, string memory _generalDescription, address _owner) public {\r\n    // require(products[msg.sender].id == 0, \"Funder cannot add a new product if they already have one\");\r\n    require(!hasAddedProduct[_owner], \"Funder can only add a product once\");\r\n    Product memory newProduct = Product(productCounter, _name, _startingPriceWei, _generalDescription, _owner);\r\n    ownerProducts[_owner].push(newProduct);\r\n    latestProducts[_owner] = newProduct;\r\n    ownerProductCounter[_owner]++;\r\n    lutFunders[productCounter] = _owner;\r\n    productCounter++;\r\n    hasAddedProduct[_owner] = true;\r\n    }\r\n\r\n    // function addNewProduct(string memory _name, uint _startingPriceWei, string memory _generalDescription, address _owner) public {\r\n    // require(!hasAddedProduct[_owner], \"Funder can only add a product once\");\r\n\r\n    // // Find the product with the lowest ID\r\n    // uint lowestProductId = ownerProducts[_owner][0].id;\r\n    // for (uint i = 1; i < ownerProductCounter[_owner]; i++) {\r\n    //     if (ownerProducts[_owner][i].id < lowestProductId) {\r\n    //         lowestProductId = ownerProducts[_owner][i].id;\r\n    //     }\r\n    // }\r\n\r\n    // Product memory newProduct = Product(productCounter, _name, _startingPriceWei, _generalDescription, _owner);\r\n    // ownerProducts[_owner].push(newProduct);\r\n    // latestProducts[_owner] = newProduct;\r\n    // ownerProductCounter[_owner]++;\r\n\r\n    // // Set the productOwner to be the funder of the product with the lowest ID\r\n    // if (lowestProductId == productCounter) {\r\n    //     productOwner = _owner;\r\n    // }\r\n\r\n    // productCounter++;\r\n    // hasAddedProduct[_owner] = true;\r\n    // }\r\n\r\n\r\n\r\n\r\n    function getAllProducts() external view returns (Product[] memory) {\r\n        uint productCount = 0;\r\n        for (uint i = 0; i < numberofFunders; i++) {\r\n            address productOwner = lutFunders[i];\r\n            if (ownerProductCounter[productOwner] > 0) {\r\n                productCount++;\r\n            }\r\n        }\r\n        Product[] memory allProducts = new Product[](productCount);\r\n        uint productIndex = 0;\r\n        for (uint i = 0; i < numberofFunders; i++) {\r\n            address productOwner = lutFunders[i];\r\n            if (ownerProductCounter[productOwner] > 0) {\r\n                allProducts[productIndex] = latestProducts[productOwner];\r\n                productIndex++;\r\n            }\r\n        }\r\n        return allProducts;\r\n    }\r\n\r\n\r\n    \r\n    function getBalance() public view returns (uint256) {\r\n        return address(this).balance;\r\n    }\r\n\r\n\r\n    function payContractOwner() public payable {\r\n    require(msg.value == 1 ether, \"Insufficient funds\");\r\n    address payable contractOwner = payable(owner);\r\n    contractOwner.transfer(1 ether);\r\n}\r\n\r\n    \r\n}\r\n\r\n\r\n\r\n\r\n\r\n//const instance = await Simplebank.deployed()\r\n// const funds = instance.funds()\r\n// instance.addFunds({value:\"4000000000000000000\", from: accounts[0]})\r\n// instance.addFunds({value:\"500000000000000000\", from: accounts[1]})\r\n// instance.addFunds({value:\"5000000000000000000\", from: accounts[1]})\r\n// instance.getAllFunders()\r\n// instance.withdraw(\"1000000000000000000\")\r\n// instance.transferOwnership(\"0x469bC46515Ffed50e765b87DA3aEab4CAAf4F809\")\r\n\r\n\r\n// const recipient = \"0x687591815BF3EeacF01FdE0aE993314259D607d9\"; // replace with recipient address\r\n// const amount = web3.utils.toWei(\"12\", \"ether\"); // replace with amount to withdraw in ether\r\n// await instance.withdrawTo(recipient, amount, { from: accounts[0] }); // replace with sender account\r\n\r\n",
  "sourcePath": "C:\\Users\\Elinoa Resnick\\Desktop\\Tech\\web3testproject\\contracts\\Simplebank.sol",
  "compiler": {
    "name": "solc",
    "version": "0.8.19+commit.7dd6d404.Emscripten.clang"
  },
  "schemaVersion": "3.4.13",
  "updatedAt": "2023-04-13T16:03:41.492Z",
  "networkType": "ethereum",
  "devdoc": {
    "kind": "dev",
    "methods": {},
    "version": 1
  },
  "userdoc": {
    "kind": "user",
    "methods": {},
    "version": 1
  }
}