{
  "contractName": "Simplebank",
  "abi": [
    {
      "inputs": [],
      "stateMutability": "nonpayable",
      "type": "constructor"
    },
    {
      "inputs": [],
      "name": "lastBid",
      "outputs": [
        {
          "internalType": "uint256",
          "name": "",
          "type": "uint256"
        }
      ],
      "stateMutability": "view",
      "type": "function",
      "constant": true
    },
    {
      "inputs": [],
      "name": "lastFunder",
      "outputs": [
        {
          "internalType": "address",
          "name": "",
          "type": "address"
        }
      ],
      "stateMutability": "view",
      "type": "function",
      "constant": true
    },
    {
      "inputs": [],
      "name": "lowestProductIDForSale",
      "outputs": [
        {
          "internalType": "uint256",
          "name": "",
          "type": "uint256"
        }
      ],
      "stateMutability": "view",
      "type": "function",
      "constant": true
    },
    {
      "inputs": [],
      "name": "lp",
      "outputs": [
        {
          "internalType": "uint256",
          "name": "",
          "type": "uint256"
        }
      ],
      "stateMutability": "view",
      "type": "function",
      "constant": true
    },
    {
      "inputs": [],
      "name": "minAmountForBid",
      "outputs": [
        {
          "internalType": "uint256",
          "name": "",
          "type": "uint256"
        }
      ],
      "stateMutability": "view",
      "type": "function",
      "constant": true
    },
    {
      "inputs": [],
      "name": "numberofFunders",
      "outputs": [
        {
          "internalType": "uint256",
          "name": "",
          "type": "uint256"
        }
      ],
      "stateMutability": "view",
      "type": "function",
      "constant": true
    },
    {
      "inputs": [],
      "name": "numberofFunds",
      "outputs": [
        {
          "internalType": "uint256",
          "name": "",
          "type": "uint256"
        }
      ],
      "stateMutability": "view",
      "type": "function",
      "constant": true
    },
    {
      "inputs": [],
      "name": "owner",
      "outputs": [
        {
          "internalType": "address",
          "name": "",
          "type": "address"
        }
      ],
      "stateMutability": "view",
      "type": "function",
      "constant": true
    },
    {
      "inputs": [],
      "name": "payForUploadProduct",
      "outputs": [
        {
          "internalType": "uint256",
          "name": "",
          "type": "uint256"
        }
      ],
      "stateMutability": "view",
      "type": "function",
      "constant": true
    },
    {
      "inputs": [],
      "name": "productOwner",
      "outputs": [
        {
          "internalType": "address",
          "name": "",
          "type": "address"
        }
      ],
      "stateMutability": "view",
      "type": "function",
      "constant": true
    },
    {
      "inputs": [
        {
          "internalType": "address",
          "name": "",
          "type": "address"
        }
      ],
      "name": "products",
      "outputs": [
        {
          "internalType": "uint256",
          "name": "id",
          "type": "uint256"
        },
        {
          "internalType": "string",
          "name": "name",
          "type": "string"
        },
        {
          "internalType": "uint256",
          "name": "startingPriceEthr",
          "type": "uint256"
        },
        {
          "internalType": "string",
          "name": "generalDescription",
          "type": "string"
        },
        {
          "internalType": "address",
          "name": "funder",
          "type": "address"
        },
        {
          "internalType": "string",
          "name": "isSold",
          "type": "string"
        }
      ],
      "stateMutability": "view",
      "type": "function",
      "constant": true
    },
    {
      "inputs": [
        {
          "internalType": "address",
          "name": "newOwner",
          "type": "address"
        }
      ],
      "name": "transferOwnership",
      "outputs": [],
      "stateMutability": "nonpayable",
      "type": "function"
    },
    {
      "inputs": [],
      "name": "addFundsPlain",
      "outputs": [],
      "stateMutability": "payable",
      "type": "function",
      "payable": true
    },
    {
      "inputs": [],
      "name": "addFunds",
      "outputs": [],
      "stateMutability": "payable",
      "type": "function",
      "payable": true
    },
    {
      "inputs": [],
      "name": "payForUpload",
      "outputs": [],
      "stateMutability": "payable",
      "type": "function",
      "payable": true
    },
    {
      "inputs": [],
      "name": "getAllFunders",
      "outputs": [
        {
          "internalType": "address[]",
          "name": "",
          "type": "address[]"
        }
      ],
      "stateMutability": "view",
      "type": "function",
      "constant": true
    },
    {
      "inputs": [],
      "name": "getLastFunder",
      "outputs": [
        {
          "internalType": "address",
          "name": "",
          "type": "address"
        }
      ],
      "stateMutability": "view",
      "type": "function",
      "constant": true
    },
    {
      "inputs": [],
      "name": "getProductOwner",
      "outputs": [
        {
          "internalType": "address",
          "name": "",
          "type": "address"
        }
      ],
      "stateMutability": "view",
      "type": "function",
      "constant": true
    },
    {
      "inputs": [],
      "name": "getMinAmount",
      "outputs": [
        {
          "internalType": "uint256",
          "name": "",
          "type": "uint256"
        }
      ],
      "stateMutability": "view",
      "type": "function",
      "constant": true
    },
    {
      "inputs": [],
      "name": "getNumberofFunds",
      "outputs": [
        {
          "internalType": "uint256",
          "name": "",
          "type": "uint256"
        }
      ],
      "stateMutability": "view",
      "type": "function",
      "constant": true
    },
    {
      "inputs": [
        {
          "internalType": "address payable",
          "name": "recipient",
          "type": "address"
        },
        {
          "internalType": "uint256",
          "name": "amount",
          "type": "uint256"
        }
      ],
      "name": "withdrawTo",
      "outputs": [],
      "stateMutability": "nonpayable",
      "type": "function"
    },
    {
      "inputs": [
        {
          "internalType": "string",
          "name": "_name",
          "type": "string"
        },
        {
          "internalType": "uint256",
          "name": "_startingPriceEthr",
          "type": "uint256"
        },
        {
          "internalType": "string",
          "name": "_generalDescription",
          "type": "string"
        },
        {
          "internalType": "address",
          "name": "_owner",
          "type": "address"
        }
      ],
      "name": "addNewProduct",
      "outputs": [],
      "stateMutability": "nonpayable",
      "type": "function"
    },
    {
      "inputs": [],
      "name": "getAllProducts",
      "outputs": [
        {
          "components": [
            {
              "internalType": "uint256",
              "name": "id",
              "type": "uint256"
            },
            {
              "internalType": "string",
              "name": "name",
              "type": "string"
            },
            {
              "internalType": "uint256",
              "name": "startingPriceEthr",
              "type": "uint256"
            },
            {
              "internalType": "string",
              "name": "generalDescription",
              "type": "string"
            },
            {
              "internalType": "address",
              "name": "funder",
              "type": "address"
            },
            {
              "internalType": "string",
              "name": "isSold",
              "type": "string"
            }
          ],
          "internalType": "struct Simplebank.Product[]",
          "name": "",
          "type": "tuple[]"
        }
      ],
      "stateMutability": "view",
      "type": "function",
      "constant": true
    },
    {
      "inputs": [],
      "name": "getBalance",
      "outputs": [
        {
          "internalType": "uint256",
          "name": "",
          "type": "uint256"
        }
      ],
      "stateMutability": "view",
      "type": "function",
      "constant": true
    },
    {
      "inputs": [],
      "name": "payContractOwner",
      "outputs": [],
      "stateMutability": "payable",
      "type": "function",
      "payable": true
    },
    {
      "inputs": [],
      "name": "getLowestProductIDForSale",
      "outputs": [
        {
          "internalType": "uint256",
          "name": "",
          "type": "uint256"
        }
      ],
      "stateMutability": "view",
      "type": "function",
      "constant": true
    }
  ],
  "bytecode": "0x60806040526000600f5534801561001557600080fd5b5033600760006101000a81548173ffffffffffffffffffffffffffffffffffffffff021916908373ffffffffffffffffffffffffffffffffffffffff1602179055507323b2721ccb602b1080ce57c6b724119dc9ccb278600860006101000a81548173ffffffffffffffffffffffffffffffffffffffff021916908373ffffffffffffffffffffffffffffffffffffffff160217905550670de0b6b3a7640000600581905550600060048190555061374f806100d26000396000f3fe6080604052600436106101815760003560e01c806377eaf884116100d1578063b078b8f01161008a578063db1534b311610064578063db1534b3146104e8578063e581442014610513578063ec6019301461051d578063f2fde38b1461054857610181565b8063b078b8f014610467578063cfc7e2da14610492578063d77a80a8146104bd57610181565b806377eaf8841461036f578063793a8e711461039a578063821f6c2a146103dc5780638da5cb5b146104075780639209bb8814610432578063a26759cb1461045d57610181565b8063313c06a01161013e578063562d6c1111610118578063562d6c11146102c557806357adae6d146102ee5780635e3d3957146103195780636fbbb55d1461034457610181565b8063313c06a01461024457806331970a071461026f57806352762a901461029a57610181565b806302ee3a52146101865780630ba002e0146101b157806312065fe0146101dc578063205c287814610207578063257e50111461023057806330e88bf81461023a575b600080fd5b34801561019257600080fd5b5061019b610571565b6040516101a89190612754565b60405180910390f35b3480156101bd57600080fd5b506101c66109c0565b6040516101d39190612785565b60405180910390f35b3480156101e857600080fd5b506101f16109ea565b6040516101fe91906127af565b60405180910390f35b34801561021357600080fd5b5061022e60048036038101906102299190612848565b6109f2565b005b610238610b10565b005b610242610d64565b005b34801561025057600080fd5b50610259610f09565b60405161026691906127af565b60405180910390f35b34801561027b57600080fd5b50610284610f0f565b60405161029191906127af565b60405180910390f35b3480156102a657600080fd5b506102af610f15565b6040516102bc91906127af565b60405180910390f35b3480156102d157600080fd5b506102ec60048036038101906102e791906129e9565b610f1b565b005b3480156102fa57600080fd5b506103036114a5565b6040516103109190612785565b60405180910390f35b34801561032557600080fd5b5061032e6114cf565b60405161033b91906127af565b60405180910390f35b34801561035057600080fd5b506103596114d5565b6040516103669190612b37565b60405180910390f35b34801561037b57600080fd5b506103846115ce565b60405161039191906127af565b60405180910390f35b3480156103a657600080fd5b506103c160048036038101906103bc9190612b59565b6115d8565b6040516103d396959493929190612bd0565b60405180910390f35b3480156103e857600080fd5b506103f16117cc565b6040516103fe91906127af565b60405180910390f35b34801561041357600080fd5b5061041c6117d2565b6040516104299190612785565b60405180910390f35b34801561043e57600080fd5b506104476117f8565b6040516104549190612785565b60405180910390f35b61046561181e565b005b34801561047357600080fd5b5061047c61204f565b60405161048991906127af565b60405180910390f35b34801561049e57600080fd5b506104a7612055565b6040516104b491906127af565b60405180910390f35b3480156104c957600080fd5b506104d261205f565b6040516104df9190612785565b60405180910390f35b3480156104f457600080fd5b506104fd612085565b60405161050a91906127af565b60405180910390f35b61051b6122cb565b005b34801561052957600080fd5b5061053261238e565b60405161053f91906127af565b60405180910390f35b34801561055457600080fd5b5061056f600480360381019061056a9190612b59565b612394565b005b60606000805b600054811015610624576000600c600083815260200190815260200160002060009054906101000a900473ffffffffffffffffffffffffffffffffffffffff1690506000600d60008373ffffffffffffffffffffffffffffffffffffffff1673ffffffffffffffffffffffffffffffffffffffff16815260200190815260200160002054111561061057828061060c90612c75565b9350505b50808061061c90612c75565b915050610577565b5060008167ffffffffffffffff81111561064157610640612892565b5b60405190808252806020026020018201604052801561067a57816020015b610667612468565b81526020019060019003908161065f5790505b5090506000805b6000548110156109b6576000600c600083815260200190815260200160002060009054906101000a900473ffffffffffffffffffffffffffffffffffffffff1690506000600d60008373ffffffffffffffffffffffffffffffffffffffff1673ffffffffffffffffffffffffffffffffffffffff1681526020019081526020016000205411156109a257601060008273ffffffffffffffffffffffffffffffffffffffff1673ffffffffffffffffffffffffffffffffffffffff1681526020019081526020016000206040518060c00160405290816000820154815260200160018201805461076f90612cec565b80601f016020809104026020016040519081016040528092919081815260200182805461079b90612cec565b80156107e85780601f106107bd576101008083540402835291602001916107e8565b820191906000526020600020905b8154815290600101906020018083116107cb57829003601f168201915b505050505081526020016002820154815260200160038201805461080b90612cec565b80601f016020809104026020016040519081016040528092919081815260200182805461083790612cec565b80156108845780601f1061085957610100808354040283529160200191610884565b820191906000526020600020905b81548152906001019060200180831161086757829003601f168201915b505050505081526020016004820160009054906101000a900473ffffffffffffffffffffffffffffffffffffffff1673ffffffffffffffffffffffffffffffffffffffff1673ffffffffffffffffffffffffffffffffffffffff1681526020016005820180546108f390612cec565b80601f016020809104026020016040519081016040528092919081815260200182805461091f90612cec565b801561096c5780601f106109415761010080835404028352916020019161096c565b820191906000526020600020905b81548152906001019060200180831161094f57829003601f168201915b50505050508152505084848151811061098857610987612d1d565b5b6020026020010181905250828061099e90612c75565b9350505b5080806109ae90612c75565b915050610681565b5081935050505090565b6000600960009054906101000a900473ffffffffffffffffffffffffffffffffffffffff16905090565b600047905090565b600760009054906101000a900473ffffffffffffffffffffffffffffffffffffffff1673ffffffffffffffffffffffffffffffffffffffff163373ffffffffffffffffffffffffffffffffffffffff1614610a82576040517f08c379a0000000000000000000000000000000000000000000000000000000008152600401610a7990612d98565b60405180910390fd5b80471015610ac5576040517f08c379a0000000000000000000000000000000000000000000000000000000008152600401610abc90612e2a565b60405180910390fd5b8173ffffffffffffffffffffffffffffffffffffffff166108fc829081150290604051600060405180830381858888f19350505050158015610b0b573d6000803e3d6000fd5b505050565b600033905060003490506005548114610b5e576040517f08c379a0000000000000000000000000000000000000000000000000000000008152600401610b5590612e96565b60405180910390fd5b600a60008373ffffffffffffffffffffffffffffffffffffffff1673ffffffffffffffffffffffffffffffffffffffff16815260200190815260200160002060009054906101000a900460ff1615610beb576040517f08c379a0000000000000000000000000000000000000000000000000000000008152600401610be290612f28565b60405180910390fd5b81600960006101000a81548173ffffffffffffffffffffffffffffffffffffffff021916908373ffffffffffffffffffffffffffffffffffffffff1602179055506000806000815480929190610c4090612c75565b9190505590506001600a60008573ffffffffffffffffffffffffffffffffffffffff1673ffffffffffffffffffffffffffffffffffffffff16815260200190815260200160002060006101000a81548160ff02191690831515021790555082600c600083815260200190815260200160002060006101000a81548173ffffffffffffffffffffffffffffffffffffffff021916908373ffffffffffffffffffffffffffffffffffffffff1602179055506000600760009054906101000a900473ffffffffffffffffffffffffffffffffffffffff1690508073ffffffffffffffffffffffffffffffffffffffff166108fc349081150290604051600060405180830381858888f19350505050158015610d5d573d6000803e3d6000fd5b5050505050565b6000339050600254341015610dae576040517f08c379a0000000000000000000000000000000000000000000000000000000008152600401610da590612f94565b60405180910390fd5b80600960006101000a81548173ffffffffffffffffffffffffffffffffffffffff021916908373ffffffffffffffffffffffffffffffffffffffff160217905550600a60008273ffffffffffffffffffffffffffffffffffffffff1673ffffffffffffffffffffffffffffffffffffffff16815260200190815260200160002060009054906101000a900460ff16610f06576000806000815480929190610e5490612c75565b9190505590506001600a60008473ffffffffffffffffffffffffffffffffffffffff1673ffffffffffffffffffffffffffffffffffffffff16815260200190815260200160002060006101000a81548160ff02191690831515021790555081600c600083815260200190815260200160002060006101000a81548173ffffffffffffffffffffffffffffffffffffffff021916908373ffffffffffffffffffffffffffffffffffffffff160217905550505b50565b60045481565b60035481565b60025481565b601160008273ffffffffffffffffffffffffffffffffffffffff1673ffffffffffffffffffffffffffffffffffffffff16815260200190815260200160002060009054906101000a900460ff1615610fa8576040517f08c379a0000000000000000000000000000000000000000000000000000000008152600401610f9f90613026565b60405180910390fd5b60008311610fb557600080fd5b60006040518060c00160405280600f5481526020018681526020018581526020018481526020018373ffffffffffffffffffffffffffffffffffffffff1681526020016040518060400160405280600881526020017f6e6f7420536f6c640000000000000000000000000000000000000000000000008152508152509050600b60008373ffffffffffffffffffffffffffffffffffffffff1673ffffffffffffffffffffffffffffffffffffffff1681526020019081526020016000208190806001815401808255809150506001900390600052602060002090600602016000909190919091506000820151816000015560208201518160010190816110bb91906131f2565b506040820151816002015560608201518160030190816110db91906131f2565b5060808201518160040160006101000a81548173ffffffffffffffffffffffffffffffffffffffff021916908373ffffffffffffffffffffffffffffffffffffffff16021790555060a082015181600501908161113891906131f2565b50505080601060008473ffffffffffffffffffffffffffffffffffffffff1673ffffffffffffffffffffffffffffffffffffffff16815260200190815260200160002060008201518160000155602082015181600101908161119a91906131f2565b506040820151816002015560608201518160030190816111ba91906131f2565b5060808201518160040160006101000a81548173ffffffffffffffffffffffffffffffffffffffff021916908373ffffffffffffffffffffffffffffffffffffffff16021790555060a082015181600501908161121791906131f2565b50905050600d60008373ffffffffffffffffffffffffffffffffffffffff1673ffffffffffffffffffffffffffffffffffffffff168152602001908152602001600020600081548092919061126b90612c75565b919050555081600c6000600f54815260200190815260200160002060006101000a81548173ffffffffffffffffffffffffffffffffffffffff021916908373ffffffffffffffffffffffffffffffffffffffff160217905550600f60008154809291906112d790612c75565b91905055506001601160008473ffffffffffffffffffffffffffffffffffffffff1673ffffffffffffffffffffffffffffffffffffffff16815260200190815260200160002060006101000a81548160ff0219169083151502179055506001600f54036113a75781600860006101000a81548173ffffffffffffffffffffffffffffffffffffffff021916908373ffffffffffffffffffffffffffffffffffffffff160217905550670de0b6b3a76400008461139391906132c4565b600281905550600f5460038190555061149e565b600b6000600860009054906101000a900473ffffffffffffffffffffffffffffffffffffffff1673ffffffffffffffffffffffffffffffffffffffff1673ffffffffffffffffffffffffffffffffffffffff16815260200190815260200160002060008154811061141b5761141a612d1d565b5b9060005260206000209060060201600001548160000151101561149d5781600860006101000a81548173ffffffffffffffffffffffffffffffffffffffff021916908373ffffffffffffffffffffffffffffffffffffffff160217905550670de0b6b3a76400008461148d91906132c4565b600281905550600f546003819055505b5b5050505050565b6000600860009054906101000a900473ffffffffffffffffffffffffffffffffffffffff16905090565b60065481565b60606000805467ffffffffffffffff8111156114f4576114f3612892565b5b6040519080825280602002602001820160405280156115225781602001602082028036833780820191505090505b50905060005b6000548110156115c657600c600082815260200190815260200160002060009054906101000a900473ffffffffffffffffffffffffffffffffffffffff1682828151811061157957611578612d1d565b5b602002602001019073ffffffffffffffffffffffffffffffffffffffff16908173ffffffffffffffffffffffffffffffffffffffff168152505080806115be90612c75565b915050611528565b508091505090565b6000600154905090565b600e60205280600052604060002060009150905080600001549080600101805461160190612cec565b80601f016020809104026020016040519081016040528092919081815260200182805461162d90612cec565b801561167a5780601f1061164f5761010080835404028352916020019161167a565b820191906000526020600020905b81548152906001019060200180831161165d57829003601f168201915b50505050509080600201549080600301805461169590612cec565b80601f01602080910402602001604051908101604052809291908181526020018280546116c190612cec565b801561170e5780601f106116e35761010080835404028352916020019161170e565b820191906000526020600020905b8154815290600101906020018083116116f157829003601f168201915b5050505050908060040160009054906101000a900473ffffffffffffffffffffffffffffffffffffffff169080600501805461174990612cec565b80601f016020809104026020016040519081016040528092919081815260200182805461177590612cec565b80156117c25780601f10611797576101008083540402835291602001916117c2565b820191906000526020600020905b8154815290600101906020018083116117a557829003601f168201915b5050505050905086565b60055481565b600760009054906101000a900473ffffffffffffffffffffffffffffffffffffffff1681565b600860009054906101000a900473ffffffffffffffffffffffffffffffffffffffff1681565b6000339050600034905060025481101561186d576040517f08c379a000000000000000000000000000000000000000000000000000000000815260040161186490613378565b60405180910390fd5b6000600f54116118b2576040517f08c379a00000000000000000000000000000000000000000000000000000000081526004016118a9906133e4565b60405180910390fd5b8047111561193557600081476118c89190613404565b9050600960009054906101000a900473ffffffffffffffffffffffffffffffffffffffff1673ffffffffffffffffffffffffffffffffffffffff166108fc829081150290604051600060405180830381858888f19350505050158015611932573d6000803e3d6000fd5b50505b81600960006101000a81548173ffffffffffffffffffffffffffffffffffffffff021916908373ffffffffffffffffffffffffffffffffffffffff160217905550600a60008373ffffffffffffffffffffffffffffffffffffffff1673ffffffffffffffffffffffffffffffffffffffff16815260200190815260200160002060009054906101000a900460ff16611a8d5760008060008154809291906119db90612c75565b9190505590506001600a60008573ffffffffffffffffffffffffffffffffffffffff1673ffffffffffffffffffffffffffffffffffffffff16815260200190815260200160002060006101000a81548160ff02191690831515021790555082600c600083815260200190815260200160002060006101000a81548173ffffffffffffffffffffffffffffffffffffffff021916908373ffffffffffffffffffffffffffffffffffffffff160217905550505b60016000815480929190611aa090612c75565b91905055508060068190555060036001540361204b5760006064605f47611ac791906132c4565b611ad19190613467565b9050600860009054906101000a900473ffffffffffffffffffffffffffffffffffffffff1673ffffffffffffffffffffffffffffffffffffffff166108fc829081150290604051600060405180830381858888f19350505050158015611b3b573d6000803e3d6000fd5b50600760009054906101000a900473ffffffffffffffffffffffffffffffffffffffff1673ffffffffffffffffffffffffffffffffffffffff166108fc479081150290604051600060405180830381858888f19350505050158015611ba4573d6000803e3d6000fd5b506000600181905550600e6000600b6000600860009054906101000a900473ffffffffffffffffffffffffffffffffffffffff1673ffffffffffffffffffffffffffffffffffffffff1673ffffffffffffffffffffffffffffffffffffffff16815260200190815260200160002060045481548110611c2657611c25612d1d565b5b906000526020600020906006020160040160009054906101000a900473ffffffffffffffffffffffffffffffffffffffff1673ffffffffffffffffffffffffffffffffffffffff1673ffffffffffffffffffffffffffffffffffffffff168152602001908152602001600020600080820160009055600182016000611cab91906124b4565b6002820160009055600382016000611cc391906124b4565b6004820160006101000a81549073ffffffffffffffffffffffffffffffffffffffff0219169055600582016000611cfa91906124b4565b5050600060116000600760009054906101000a900473ffffffffffffffffffffffffffffffffffffffff1673ffffffffffffffffffffffffffffffffffffffff1673ffffffffffffffffffffffffffffffffffffffff16815260200190815260200160002060006101000a81548160ff02191690831515021790555060006001600454611d879190613498565b90505b600d6000600860009054906101000a900473ffffffffffffffffffffffffffffffffffffffff1673ffffffffffffffffffffffffffffffffffffffff1673ffffffffffffffffffffffffffffffffffffffff16815260200190815260200160002054811015611fd157600b6000600860009054906101000a900473ffffffffffffffffffffffffffffffffffffffff1673ffffffffffffffffffffffffffffffffffffffff1673ffffffffffffffffffffffffffffffffffffffff1681526020019081526020016000208181548110611e6657611e65612d1d565b5b9060005260206000209060060201600b6000600860009054906101000a900473ffffffffffffffffffffffffffffffffffffffff1673ffffffffffffffffffffffffffffffffffffffff1673ffffffffffffffffffffffffffffffffffffffff168152602001908152602001600020600183611ee29190613404565b81548110611ef357611ef2612d1d565b5b90600052602060002090600602016000820154816000015560018201816001019081611f1f91906134e2565b506002820154816002015560038201816003019081611f3e91906134e2565b506004820160009054906101000a900473ffffffffffffffffffffffffffffffffffffffff168160040160006101000a81548173ffffffffffffffffffffffffffffffffffffffff021916908373ffffffffffffffffffffffffffffffffffffffff16021790555060058201816005019081611fba91906134e2565b509050508080611fc990612c75565b915050611d8a565b50600d6000600860009054906101000a900473ffffffffffffffffffffffffffffffffffffffff1673ffffffffffffffffffffffffffffffffffffffff1673ffffffffffffffffffffffffffffffffffffffff1681526020019081526020016000206000815480929190612044906135ca565b9190505550505b5050565b60005481565b6000600254905090565b600960009054906101000a900473ffffffffffffffffffffffffffffffffffffffff1681565b6000807fffffffffffffffffffffffffffffffffffffffffffffffffffffffffffffffff905060005b600f54811015612291576040518060400160405280600181526020017f300000000000000000000000000000000000000000000000000000000000000081525080519060200120600e6000600c600085815260200190815260200160002060009054906101000a900473ffffffffffffffffffffffffffffffffffffffff1673ffffffffffffffffffffffffffffffffffffffff1673ffffffffffffffffffffffffffffffffffffffff1681526020019081526020016000206005016040516121779190613696565b6040518091039020148015612200575081600e6000600c600085815260200190815260200160002060009054906101000a900473ffffffffffffffffffffffffffffffffffffffff1673ffffffffffffffffffffffffffffffffffffffff1673ffffffffffffffffffffffffffffffffffffffff16815260200190815260200160002060000154105b1561227e57600e6000600c600084815260200190815260200160002060009054906101000a900473ffffffffffffffffffffffffffffffffffffffff1673ffffffffffffffffffffffffffffffffffffffff1673ffffffffffffffffffffffffffffffffffffffff1681526020019081526020016000206000015491505b808061228990612c75565b9150506120ae565b507fffffffffffffffffffffffffffffffffffffffffffffffffffffffffffffffff81036122c35760069150506122c8565b809150505b90565b670de0b6b3a76400003414612315576040517f08c379a000000000000000000000000000000000000000000000000000000000815260040161230c906136f9565b60405180910390fd5b6000600760009054906101000a900473ffffffffffffffffffffffffffffffffffffffff1690508073ffffffffffffffffffffffffffffffffffffffff166108fc670de0b6b3a76400009081150290604051600060405180830381858888f1935050505015801561238a573d6000803e3d6000fd5b5050565b60015481565b600760009054906101000a900473ffffffffffffffffffffffffffffffffffffffff1673ffffffffffffffffffffffffffffffffffffffff163373ffffffffffffffffffffffffffffffffffffffff1614612424576040517f08c379a000000000000000000000000000000000000000000000000000000000815260040161241b90612d98565b60405180910390fd5b80600760006101000a81548173ffffffffffffffffffffffffffffffffffffffff021916908373ffffffffffffffffffffffffffffffffffffffff16021790555050565b6040518060c0016040528060008152602001606081526020016000815260200160608152602001600073ffffffffffffffffffffffffffffffffffffffff168152602001606081525090565b5080546124c090612cec565b6000825580601f106124d257506124f1565b601f0160209004906000526020600020908101906124f091906124f4565b5b50565b5b8082111561250d5760008160009055506001016124f5565b5090565b600081519050919050565b600082825260208201905092915050565b6000819050602082019050919050565b6000819050919050565b6125508161253d565b82525050565b600081519050919050565b600082825260208201905092915050565b60005b83811015612590578082015181840152602081019050612575565b60008484015250505050565b6000601f19601f8301169050919050565b60006125b882612556565b6125c28185612561565b93506125d2818560208601612572565b6125db8161259c565b840191505092915050565b600073ffffffffffffffffffffffffffffffffffffffff82169050919050565b6000612611826125e6565b9050919050565b61262181612606565b82525050565b600060c08301600083015161263f6000860182612547565b506020830151848203602086015261265782826125ad565b915050604083015161266c6040860182612547565b506060830151848203606086015261268482826125ad565b91505060808301516126996080860182612618565b5060a083015184820360a08601526126b182826125ad565b9150508091505092915050565b60006126ca8383612627565b905092915050565b6000602082019050919050565b60006126ea82612511565b6126f4818561251c565b9350836020820285016127068561252d565b8060005b85811015612742578484038952815161272385826126be565b945061272e836126d2565b925060208a0199505060018101905061270a565b50829750879550505050505092915050565b6000602082019050818103600083015261276e81846126df565b905092915050565b61277f81612606565b82525050565b600060208201905061279a6000830184612776565b92915050565b6127a98161253d565b82525050565b60006020820190506127c460008301846127a0565b92915050565b6000604051905090565b600080fd5b600080fd5b60006127e9826125e6565b9050919050565b6127f9816127de565b811461280457600080fd5b50565b600081359050612816816127f0565b92915050565b6128258161253d565b811461283057600080fd5b50565b6000813590506128428161281c565b92915050565b6000806040838503121561285f5761285e6127d4565b5b600061286d85828601612807565b925050602061287e85828601612833565b9150509250929050565b600080fd5b600080fd5b7f4e487b7100000000000000000000000000000000000000000000000000000000600052604160045260246000fd5b6128ca8261259c565b810181811067ffffffffffffffff821117156128e9576128e8612892565b5b80604052505050565b60006128fc6127ca565b905061290882826128c1565b919050565b600067ffffffffffffffff82111561292857612927612892565b5b6129318261259c565b9050602081019050919050565b82818337600083830152505050565b600061296061295b8461290d565b6128f2565b90508281526020810184848401111561297c5761297b61288d565b5b61298784828561293e565b509392505050565b600082601f8301126129a4576129a3612888565b5b81356129b484826020860161294d565b91505092915050565b6129c681612606565b81146129d157600080fd5b50565b6000813590506129e3816129bd565b92915050565b60008060008060808587031215612a0357612a026127d4565b5b600085013567ffffffffffffffff811115612a2157612a206127d9565b5b612a2d8782880161298f565b9450506020612a3e87828801612833565b935050604085013567ffffffffffffffff811115612a5f57612a5e6127d9565b5b612a6b8782880161298f565b9250506060612a7c878288016129d4565b91505092959194509250565b600081519050919050565b600082825260208201905092915050565b6000819050602082019050919050565b6000612ac08383612618565b60208301905092915050565b6000602082019050919050565b6000612ae482612a88565b612aee8185612a93565b9350612af983612aa4565b8060005b83811015612b2a578151612b118882612ab4565b9750612b1c83612acc565b925050600181019050612afd565b5085935050505092915050565b60006020820190508181036000830152612b518184612ad9565b905092915050565b600060208284031215612b6f57612b6e6127d4565b5b6000612b7d848285016129d4565b91505092915050565b600082825260208201905092915050565b6000612ba282612556565b612bac8185612b86565b9350612bbc818560208601612572565b612bc58161259c565b840191505092915050565b600060c082019050612be560008301896127a0565b8181036020830152612bf78188612b97565b9050612c0660408301876127a0565b8181036060830152612c188186612b97565b9050612c276080830185612776565b81810360a0830152612c398184612b97565b9050979650505050505050565b7f4e487b7100000000000000000000000000000000000000000000000000000000600052601160045260246000fd5b6000612c808261253d565b91507fffffffffffffffffffffffffffffffffffffffffffffffffffffffffffffffff8203612cb257612cb1612c46565b5b600182019050919050565b7f4e487b7100000000000000000000000000000000000000000000000000000000600052602260045260246000fd5b60006002820490506001821680612d0457607f821691505b602082108103612d1757612d16612cbd565b5b50919050565b7f4e487b7100000000000000000000000000000000000000000000000000000000600052603260045260246000fd5b7f4f6e6c79206f776e65722063616e20646f207468697300000000000000000000600082015250565b6000612d82601683612b86565b9150612d8d82612d4c565b602082019050919050565b60006020820190508181036000830152612db181612d75565b9050919050565b7f496e73756666696369656e742062616c616e636520696e2074686520636f6e7460008201527f7261637400000000000000000000000000000000000000000000000000000000602082015250565b6000612e14602483612b86565b9150612e1f82612db8565b604082019050919050565b60006020820190508181036000830152612e4381612e07565b9050919050565b7f7061792069732031206574686572000000000000000000000000000000000000600082015250565b6000612e80600e83612b86565b9150612e8b82612e4a565b602082019050919050565b60006020820190508181036000830152612eaf81612e73565b9050919050565b7f596f75206861766520616c72656164792066756e6465642074686520636f6e7460008201527f7261637400000000000000000000000000000000000000000000000000000000602082015250565b6000612f12602483612b86565b9150612f1d82612eb6565b604082019050919050565b60006020820190508181036000830152612f4181612f05565b9050919050565b7f4d696e696d756d20706179206973203420657468657200000000000000000000600082015250565b6000612f7e601683612b86565b9150612f8982612f48565b602082019050919050565b60006020820190508181036000830152612fad81612f71565b9050919050565b7f46756e6465722063616e206f6e6c792061646420612070726f64756374206f6e60008201527f6365000000000000000000000000000000000000000000000000000000000000602082015250565b6000613010602283612b86565b915061301b82612fb4565b604082019050919050565b6000602082019050818103600083015261303f81613003565b9050919050565b60008190508160005260206000209050919050565b60006020601f8301049050919050565b600082821b905092915050565b6000600883026130a87fffffffffffffffffffffffffffffffffffffffffffffffffffffffffffffffff8261306b565b6130b2868361306b565b95508019841693508086168417925050509392505050565b6000819050919050565b60006130ef6130ea6130e58461253d565b6130ca565b61253d565b9050919050565b6000819050919050565b613109836130d4565b61311d613115826130f6565b848454613078565b825550505050565b600090565b613132613125565b61313d818484613100565b505050565b5b818110156131615761315660008261312a565b600181019050613143565b5050565b601f8211156131a65761317781613046565b6131808461305b565b8101602085101561318f578190505b6131a361319b8561305b565b830182613142565b50505b505050565b600082821c905092915050565b60006131c9600019846008026131ab565b1980831691505092915050565b60006131e283836131b8565b9150826002028217905092915050565b6131fb82612556565b67ffffffffffffffff81111561321457613213612892565b5b61321e8254612cec565b613229828285613165565b600060209050601f83116001811461325c576000841561324a578287015190505b61325485826131d6565b8655506132bc565b601f19841661326a86613046565b60005b828110156132925784890151825560018201915060208501945060208101905061326d565b868310156132af57848901516132ab601f8916826131b8565b8355505b6001600288020188555050505b505050505050565b60006132cf8261253d565b91506132da8361253d565b92508282026132e88161253d565b915082820484148315176132ff576132fe612c46565b5b5092915050565b7f4d696e696d756d20706179206e6565647320746f20626520686967686572207460008201527f68656e206d696e416d6f756e7400000000000000000000000000000000000000602082015250565b6000613362602d83612b86565b915061336d82613306565b604082019050919050565b6000602082019050818103600083015261339181613355565b9050919050565b7f43616e6e6f74206164642066756e64732077697468206e6f2070726f64756374600082015250565b60006133ce602083612b86565b91506133d982613398565b602082019050919050565b600060208201905081810360008301526133fd816133c1565b9050919050565b600061340f8261253d565b915061341a8361253d565b925082820390508181111561343257613431612c46565b5b92915050565b7f4e487b7100000000000000000000000000000000000000000000000000000000600052601260045260246000fd5b60006134728261253d565b915061347d8361253d565b92508261348d5761348c613438565b5b828204905092915050565b60006134a38261253d565b91506134ae8361253d565b92508282019050808211156134c6576134c5612c46565b5b92915050565b6000815490506134db81612cec565b9050919050565b8181036134f05750506135c8565b6134f9826134cc565b67ffffffffffffffff81111561351257613511612892565b5b61351c8254612cec565b613527828285613165565b6000601f8311600181146135565760008415613544578287015490505b61354e85826131d6565b8655506135c1565b601f19841661356487613046565b965061356f86613046565b60005b8281101561359757848901548255600182019150600185019450602081019050613572565b868310156135b457848901546135b0601f8916826131b8565b8355505b6001600288020188555050505b5050505050505b565b60006135d58261253d565b9150600082036135e8576135e7612c46565b5b600182039050919050565b600081905092915050565b60008190508160005260206000209050919050565b6000815461362081612cec565b61362a81866135f3565b94506001821660008114613645576001811461365a5761368d565b60ff198316865281151582028601935061368d565b613663856135fe565b60005b8381101561368557815481890152600182019150602081019050613666565b838801955050505b50505092915050565b60006136a28284613613565b915081905092915050565b7f496e73756666696369656e742066756e64730000000000000000000000000000600082015250565b60006136e3601283612b86565b91506136ee826136ad565b602082019050919050565b60006020820190508181036000830152613712816136d6565b905091905056fea2646970667358221220dc960c9a51fe74f3fe97f0f9299ce0fd14df83ca86b7d8d9f63ca09afa85591b64736f6c63430008130033",
  "immutableReferences": {},
  "source": "// SPDX-License-Identifier: MIT\r\npragma solidity >=0.4.22 <0.9.0;\r\n\r\ncontract Simplebank {\r\n    uint public numberofFunders;\r\n    uint public numberofFunds;\r\n    uint public minAmountForBid;\r\n    uint public lowestProductIDForSale;\r\n    uint public lp;\r\n    uint public payForUploadProduct;\r\n    uint public lastBid;\r\n    address public owner;\r\n    address public productOwner;\r\n    address public lastFunder;\r\n    mapping(address=> bool) private funders;\r\n    mapping(address => Product[]) private ownerProducts; \r\n    mapping(uint => address) private lutFunders; \r\n    mapping(address => uint) private ownerProductCounter;\r\n    struct Product {\r\n    uint id;\r\n    string name;\r\n    uint startingPriceEthr;\r\n    string generalDescription;\r\n    address funder;\r\n    string isSold;\r\n    }\r\n    mapping (address => Product) public products;\r\n    uint private productCounter = 0;\r\n    mapping(address => Product) private latestProducts;\r\n\r\n    mapping(address => bool) private hasAddedProduct;\r\n\r\n    constructor(){\r\n        owner = msg.sender;\r\n        // minAmountForBid = 4000000000000000000;\r\n        productOwner = 0x23B2721CCB602b1080CE57c6b724119dc9ccB278;\r\n        payForUploadProduct = 1000000000000000000;\r\n        lp = 0;\r\n    }\r\n\r\n    modifier onlyOwner(){\r\n        require(msg.sender == owner, \"Only owner can do this\");\r\n        _;\r\n    }\r\n\r\n    \r\n    function transferOwnership(address newOwner) external onlyOwner{\r\n        owner = newOwner;\r\n    }\r\n\r\n    function addFundsPlain() external payable{\r\n        address funder = msg.sender;\r\n        require(msg.value >= minAmountForBid, \"Minimum pay is 4 ether\");\r\n        lastFunder = funder; // update last funder\r\n        if(!funders[funder]){\r\n            uint index = numberofFunders++;\r\n            funders[funder] = true;\r\n            lutFunders[index] = funder;\r\n            \r\n        }\r\n\r\n    }\r\n\r\n\r\n    function addFunds() external payable {\r\n        address funder = msg.sender;\r\n        uint newFund = msg.value;\r\n        require(newFund >= minAmountForBid, \"Minimum pay needs to be higher then minAmount\");\r\n        require(productCounter > 0, \"Cannot add funds with no product\");\r\n        if (address(this).balance > newFund) {\r\n            uint remainingBalance = address(this).balance - newFund;\r\n            payable(lastFunder).transfer(remainingBalance);\r\n        }\r\n        lastFunder = funder; // update last funder\r\n        if (!funders[funder]) {\r\n            uint index = numberofFunders++;\r\n            funders[funder] = true;\r\n            lutFunders[index] = funder;\r\n        }\r\n        numberofFunds++;\r\n        lastBid = newFund;\r\n\r\n        if (numberofFunds == 3) {\r\n\r\n            \r\n            // 95% to productOwner and 5% to owner\r\n            uint productOwnerAmount = address(this).balance * 95 / 100;\r\n            payable(productOwner).transfer(productOwnerAmount);\r\n            payable(owner).transfer(address(this).balance);\r\n            numberofFunds = 0;\r\n\r\n            // Delete product with ID lp\r\n            delete products[ownerProducts[productOwner][lp].funder];\r\n            hasAddedProduct[owner] = false;\r\n            for (uint i = lp + 1; i < ownerProductCounter[productOwner]; i++) {\r\n                ownerProducts[productOwner][i - 1] = ownerProducts[productOwner][i];\r\n            }\r\n            ownerProductCounter[productOwner]--;\r\n\r\n        }\r\n    }\r\n\r\n\r\n\r\n    function payForUpload() external payable {\r\n        address funder = msg.sender;\r\n        uint newFund = msg.value;\r\n        require(newFund == payForUploadProduct, \"pay is 1 ether\");\r\n        require(!funders[funder], \"You have already funded the contract\"); // check if the user has already funded the contract\r\n        lastFunder = funder; // update last funder\r\n        uint index = numberofFunders++;\r\n        funders[funder] = true;\r\n        lutFunders[index] = funder;\r\n\r\n        address payable contractOwner = payable(owner);\r\n        contractOwner.transfer(msg.value);\r\n    }\r\n\r\n\r\n\r\n    function getAllFunders() external view returns(address[] memory) {\r\n        address[] memory _funders = new address[](numberofFunders);\r\n        for(uint i=0; i<numberofFunders; i++){\r\n            _funders[i] = lutFunders[i];\r\n        }\r\n        return _funders;\r\n    }\r\n    // function withdraw(uint withdrawAmount) external {\r\n    //     require(withdrawAmount < 1000000000000000000 || msg.sender == owner, \"You can't wits\");\r\n    //     payable (msg.sender).transfer(withdrawAmount);\r\n    // }\r\n\r\n    function getLastFunder() external view returns (address) {\r\n        return lastFunder;\r\n    }\r\n    \r\n    function getProductOwner() external view returns (address) {\r\n        return productOwner;\r\n    }\r\n\r\n    function getMinAmount() external view returns (uint) {\r\n        return minAmountForBid;\r\n    }\r\n    // function getLowestProductIDForSale() external view returns (uint) {\r\n    //     return lowestProductIDForSale;\r\n    // }\r\n\r\n    function getNumberofFunds() external view returns (uint){\r\n        return numberofFunds;\r\n    }\r\n    \r\n    function withdrawTo(address payable recipient, uint amount) external onlyOwner {\r\n    require(address(this).balance >= amount, \"Insufficient balance in the contract\");\r\n    recipient.transfer(amount);\r\n    }\r\n\r\n    function addNewProduct(string memory _name, uint256 _startingPriceEthr, string memory _generalDescription, address _owner) public {\r\n    require(!hasAddedProduct[_owner], \"Funder can only add a product once\");\r\n    require(_startingPriceEthr > 0);\r\n    Product memory newProduct = Product(productCounter, _name, _startingPriceEthr, _generalDescription, _owner, \"not Sold\");\r\n    ownerProducts[_owner].push(newProduct);\r\n    latestProducts[_owner] = newProduct;\r\n    ownerProductCounter[_owner]++;\r\n    lutFunders[productCounter] = _owner;\r\n    productCounter++;\r\n    hasAddedProduct[_owner] = true;\r\n\r\n    // Update productOwner and minAmountForBid\r\n    if (productCounter == 1) {\r\n        // If this is the first product added, set productOwner and minAmountForBid to this product's details\r\n        productOwner = _owner;\r\n        minAmountForBid = _startingPriceEthr*10**18;\r\n        lowestProductIDForSale = productCounter;\r\n        } else {\r\n        // Check if this product's ID is lower than the previous lowest ID\r\n            if (newProduct.id < ownerProducts[productOwner][0].id) {\r\n            productOwner = _owner;\r\n            minAmountForBid = _startingPriceEthr*10**18;\r\n            lowestProductIDForSale = productCounter;\r\n                }\r\n            }\r\n    }\r\n\r\n\r\n\r\n    function getAllProducts() external view returns (Product[] memory) {\r\n        uint productCount = 0;\r\n        for (uint i = 0; i < numberofFunders; i++) {\r\n            address productOwner = lutFunders[i];\r\n            if (ownerProductCounter[productOwner] > 0) {\r\n                productCount++;\r\n            }\r\n        }\r\n        Product[] memory allProducts = new Product[](productCount);\r\n        uint productIndex = 0;\r\n        for (uint i = 0; i < numberofFunders; i++) {\r\n            address productOwner = lutFunders[i];\r\n            if (ownerProductCounter[productOwner] > 0) {\r\n                allProducts[productIndex] = latestProducts[productOwner];\r\n                productIndex++;\r\n            }\r\n        }\r\n        return allProducts;\r\n    }\r\n\r\n\r\n    \r\n    function getBalance() public view returns (uint256) {\r\n        return address(this).balance;\r\n    }\r\n\r\n\r\n    function payContractOwner() public payable {\r\n    require(msg.value == 1 ether, \"Insufficient funds\");\r\n    address payable contractOwner = payable(owner);\r\n    contractOwner.transfer(1 ether);\r\n    }\r\n\r\n    function getLowestProductIDForSale() external view returns (uint) {\r\n    uint minID = type(uint).max; // set initial value to max uint value\r\n    for (uint i = 0; i < productCounter; i++) {\r\n        if (keccak256(bytes(products[lutFunders[i]].isSold)) == keccak256(bytes(\"0\")) && products[lutFunders[i]].id < minID) {\r\n            minID = products[lutFunders[i]].id;\r\n        }\r\n    }\r\n    if (minID == type(uint).max) { // if no products are for sale, return 0\r\n        return 6;\r\n    }\r\n    \r\n    return minID;\r\n    }\r\n    \r\n}\r\n\r\n",
  "sourcePath": "C:\\Users\\Elinoa Resnick\\Desktop\\Tech\\web3testproject\\contracts\\Simplebank.sol",
  "compiler": {
    "name": "solc",
    "version": "0.8.19+commit.7dd6d404.Emscripten.clang"
  },
  "schemaVersion": "3.4.13",
  "updatedAt": "2023-04-23T14:55:28.370Z",
  "networkType": "ethereum",
  "devdoc": {
    "kind": "dev",
    "methods": {},
    "version": 1
  },
  "userdoc": {
    "kind": "user",
    "methods": {},
    "version": 1
  }
}