{
  "contractName": "Simplebank",
  "abi": [
    {
      "inputs": [],
      "stateMutability": "nonpayable",
      "type": "constructor"
    },
    {
      "inputs": [],
      "name": "lastFunder",
      "outputs": [
        {
          "internalType": "address",
          "name": "",
          "type": "address"
        }
      ],
      "stateMutability": "view",
      "type": "function",
      "constant": true
    },
    {
      "inputs": [],
      "name": "numberofFunders",
      "outputs": [
        {
          "internalType": "uint256",
          "name": "",
          "type": "uint256"
        }
      ],
      "stateMutability": "view",
      "type": "function",
      "constant": true
    },
    {
      "inputs": [],
      "name": "owner",
      "outputs": [
        {
          "internalType": "address",
          "name": "",
          "type": "address"
        }
      ],
      "stateMutability": "view",
      "type": "function",
      "constant": true
    },
    {
      "inputs": [
        {
          "internalType": "address",
          "name": "newOwner",
          "type": "address"
        }
      ],
      "name": "transferOwnership",
      "outputs": [],
      "stateMutability": "nonpayable",
      "type": "function"
    },
    {
      "inputs": [],
      "name": "addFunds",
      "outputs": [],
      "stateMutability": "payable",
      "type": "function",
      "payable": true
    },
    {
      "inputs": [],
      "name": "getAllFunders",
      "outputs": [
        {
          "internalType": "address[]",
          "name": "",
          "type": "address[]"
        }
      ],
      "stateMutability": "view",
      "type": "function",
      "constant": true
    },
    {
      "inputs": [
        {
          "internalType": "uint256",
          "name": "withdrawAmount",
          "type": "uint256"
        }
      ],
      "name": "withdraw",
      "outputs": [],
      "stateMutability": "nonpayable",
      "type": "function"
    },
    {
      "inputs": [],
      "name": "getLastFunder",
      "outputs": [
        {
          "internalType": "address",
          "name": "",
          "type": "address"
        }
      ],
      "stateMutability": "view",
      "type": "function",
      "constant": true
    }
  ],
  "bytecode": "0x608060405234801561001057600080fd5b5033600160006101000a81548173ffffffffffffffffffffffffffffffffffffffff021916908373ffffffffffffffffffffffffffffffffffffffff160217905550610a63806100616000396000f3fe60806040526004361061007b5760003560e01c8063a26759cb1161004e578063a26759cb1461012a578063b078b8f014610134578063d77a80a81461015f578063f2fde38b1461018a5761007b565b80630ba002e0146100805780632e1a7d4d146100ab5780636fbbb55d146100d45780638da5cb5b146100ff575b600080fd5b34801561008c57600080fd5b506100956101b3565b6040516100a29190610689565b60405180910390f35b3480156100b757600080fd5b506100d260048036038101906100cd91906106df565b6101dd565b005b3480156100e057600080fd5b506100e96102c9565b6040516100f691906107ca565b60405180910390f35b34801561010b57600080fd5b506101146103c2565b6040516101219190610689565b60405180910390f35b6101326103e8565b005b34801561014057600080fd5b50610149610548565b60405161015691906107fb565b60405180910390f35b34801561016b57600080fd5b5061017461054e565b6040516101819190610689565b60405180910390f35b34801561019657600080fd5b506101b160048036038101906101ac9190610842565b610574565b005b6000600260009054906101000a900473ffffffffffffffffffffffffffffffffffffffff16905090565b670de0b6b3a76400008110806102405750600160009054906101000a900473ffffffffffffffffffffffffffffffffffffffff1673ffffffffffffffffffffffffffffffffffffffff163373ffffffffffffffffffffffffffffffffffffffff16145b61027f576040517f08c379a0000000000000000000000000000000000000000000000000000000008152600401610276906108cc565b60405180910390fd5b3373ffffffffffffffffffffffffffffffffffffffff166108fc829081150290604051600060405180830381858888f193505050501580156102c5573d6000803e3d6000fd5b5050565b60606000805467ffffffffffffffff8111156102e8576102e76108ec565b5b6040519080825280602002602001820160405280156103165781602001602082028036833780820191505090505b50905060005b6000548110156103ba576004600082815260200190815260200160002060009054906101000a900473ffffffffffffffffffffffffffffffffffffffff1682828151811061036d5761036c61091b565b5b602002602001019073ffffffffffffffffffffffffffffffffffffffff16908173ffffffffffffffffffffffffffffffffffffffff168152505080806103b290610979565b91505061031c565b508091505090565b600160009054906101000a900473ffffffffffffffffffffffffffffffffffffffff1681565b600033905080600260006101000a81548173ffffffffffffffffffffffffffffffffffffffff021916908373ffffffffffffffffffffffffffffffffffffffff160217905550600360008273ffffffffffffffffffffffffffffffffffffffff1673ffffffffffffffffffffffffffffffffffffffff16815260200190815260200160002060009054906101000a900460ff1661054557600080600081548092919061049390610979565b9190505590506001600360008473ffffffffffffffffffffffffffffffffffffffff1673ffffffffffffffffffffffffffffffffffffffff16815260200190815260200160002060006101000a81548160ff021916908315150217905550816004600083815260200190815260200160002060006101000a81548173ffffffffffffffffffffffffffffffffffffffff021916908373ffffffffffffffffffffffffffffffffffffffff160217905550505b50565b60005481565b600260009054906101000a900473ffffffffffffffffffffffffffffffffffffffff1681565b600160009054906101000a900473ffffffffffffffffffffffffffffffffffffffff1673ffffffffffffffffffffffffffffffffffffffff163373ffffffffffffffffffffffffffffffffffffffff1614610604576040517f08c379a00000000000000000000000000000000000000000000000000000000081526004016105fb90610a0d565b60405180910390fd5b80600160006101000a81548173ffffffffffffffffffffffffffffffffffffffff021916908373ffffffffffffffffffffffffffffffffffffffff16021790555050565b600073ffffffffffffffffffffffffffffffffffffffff82169050919050565b600061067382610648565b9050919050565b61068381610668565b82525050565b600060208201905061069e600083018461067a565b92915050565b600080fd5b6000819050919050565b6106bc816106a9565b81146106c757600080fd5b50565b6000813590506106d9816106b3565b92915050565b6000602082840312156106f5576106f46106a4565b5b6000610703848285016106ca565b91505092915050565b600081519050919050565b600082825260208201905092915050565b6000819050602082019050919050565b61074181610668565b82525050565b60006107538383610738565b60208301905092915050565b6000602082019050919050565b60006107778261070c565b6107818185610717565b935061078c83610728565b8060005b838110156107bd5781516107a48882610747565b97506107af8361075f565b925050600181019050610790565b5085935050505092915050565b600060208201905081810360008301526107e4818461076c565b905092915050565b6107f5816106a9565b82525050565b600060208201905061081060008301846107ec565b92915050565b61081f81610668565b811461082a57600080fd5b50565b60008135905061083c81610816565b92915050565b600060208284031215610858576108576106a4565b5b60006108668482850161082d565b91505092915050565b600082825260208201905092915050565b7f596f752063616e27742077697473000000000000000000000000000000000000600082015250565b60006108b6600e8361086f565b91506108c182610880565b602082019050919050565b600060208201905081810360008301526108e5816108a9565b9050919050565b7f4e487b7100000000000000000000000000000000000000000000000000000000600052604160045260246000fd5b7f4e487b7100000000000000000000000000000000000000000000000000000000600052603260045260246000fd5b7f4e487b7100000000000000000000000000000000000000000000000000000000600052601160045260246000fd5b6000610984826106a9565b91507fffffffffffffffffffffffffffffffffffffffffffffffffffffffffffffffff82036109b6576109b561094a565b5b600182019050919050565b7f4f6e6c79206f776e65722063616e20646f207468697300000000000000000000600082015250565b60006109f760168361086f565b9150610a02826109c1565b602082019050919050565b60006020820190508181036000830152610a26816109ea565b905091905056fea26469706673582212204c5433202307c0190c68c07cc76fad9f4f88c4a8c41f7f285cd4dfa19cd9c50c64736f6c63430008130033",
  "immutableReferences": {},
  "source": "// SPDX-License-Identifier: MIT\r\npragma solidity >=0.4.22 <0.9.0;\r\n\r\ncontract Simplebank {\r\n    uint public numberofFunders;\r\n    address public owner;\r\n    address public lastFunder;\r\n    mapping(address=> bool) private funders;\r\n    mapping(uint => address) private lutFunders;\r\n\r\n    constructor(){\r\n        owner = msg.sender;\r\n    }\r\n\r\n    modifier onlyOwner(){\r\n        require(msg.sender == owner, \"Only owner can do this\");\r\n        _;\r\n    }\r\n\r\n    \r\n    function transferOwnership(address newOwner) external onlyOwner{\r\n        owner = newOwner;\r\n    }\r\n\r\n    function addFunds() external payable{\r\n        address funder = msg.sender;\r\n        lastFunder = funder; // update last funder\r\n        if(!funders[funder]){\r\n            uint index = numberofFunders++;\r\n            funders[funder] = true;\r\n            lutFunders[index] = funder;\r\n            \r\n        }\r\n\r\n    }\r\n    function getAllFunders() external view returns(address[] memory) {\r\n        address[] memory _funders = new address[](numberofFunders);\r\n        for(uint i=0; i<numberofFunders; i++){\r\n            _funders[i] = lutFunders[i];\r\n        }\r\n        return _funders;\r\n    }\r\n    function withdraw(uint withdrawAmount) external {\r\n        require(withdrawAmount < 1000000000000000000 || msg.sender == owner, \"You can't wits\");\r\n        payable (msg.sender).transfer(withdrawAmount);\r\n    }\r\n\r\n    function getLastFunder() external view returns (address) {\r\n        return lastFunder;\r\n    }\r\n\r\n\r\n    \r\n}\r\n\r\n\r\n//const instance = await Simplebank.deployed()\r\n//const funds = instance.funds()\r\n//instance.addFunds({value:\"500000000000000000\", from: accounts[0]})\r\n//instance.addFunds({value:\"500000000000000000\", from: accounts[1]})\r\n// instance.getAllFunders()\r\n// instance.withdraw(\"1000000000000000000\")\r\n// instance.transferOwnership(\"0x469bC46515Ffed50e765b87DA3aEab4CAAf4F809\")",
  "sourcePath": "C:\\Users\\Elinoa Resnick\\Desktop\\Tech\\web3testproject\\contracts\\Simplebank.sol",
  "compiler": {
    "name": "solc",
    "version": "0.8.19+commit.7dd6d404.Emscripten.clang"
  },
  "schemaVersion": "3.4.13",
  "updatedAt": "2023-03-21T16:18:20.099Z",
  "networkType": "ethereum",
  "devdoc": {
    "kind": "dev",
    "methods": {},
    "version": 1
  },
  "userdoc": {
    "kind": "user",
    "methods": {},
    "version": 1
  }
}