{
  "contractName": "Simplebank",
  "abi": [
    {
      "inputs": [],
      "stateMutability": "nonpayable",
      "type": "constructor"
    },
    {
      "inputs": [],
      "name": "lastBid",
      "outputs": [
        {
          "internalType": "uint256",
          "name": "",
          "type": "uint256"
        }
      ],
      "stateMutability": "view",
      "type": "function",
      "constant": true
    },
    {
      "inputs": [],
      "name": "lastFunder",
      "outputs": [
        {
          "internalType": "address",
          "name": "",
          "type": "address"
        }
      ],
      "stateMutability": "view",
      "type": "function",
      "constant": true
    },
    {
      "inputs": [],
      "name": "minAmountForBid",
      "outputs": [
        {
          "internalType": "uint256",
          "name": "",
          "type": "uint256"
        }
      ],
      "stateMutability": "view",
      "type": "function",
      "constant": true
    },
    {
      "inputs": [],
      "name": "numberofFunders",
      "outputs": [
        {
          "internalType": "uint256",
          "name": "",
          "type": "uint256"
        }
      ],
      "stateMutability": "view",
      "type": "function",
      "constant": true
    },
    {
      "inputs": [],
      "name": "numberofFunds",
      "outputs": [
        {
          "internalType": "uint256",
          "name": "",
          "type": "uint256"
        }
      ],
      "stateMutability": "view",
      "type": "function",
      "constant": true
    },
    {
      "inputs": [],
      "name": "owner",
      "outputs": [
        {
          "internalType": "address",
          "name": "",
          "type": "address"
        }
      ],
      "stateMutability": "view",
      "type": "function",
      "constant": true
    },
    {
      "inputs": [],
      "name": "payForUploadProduct",
      "outputs": [
        {
          "internalType": "uint256",
          "name": "",
          "type": "uint256"
        }
      ],
      "stateMutability": "view",
      "type": "function",
      "constant": true
    },
    {
      "inputs": [],
      "name": "productOwner",
      "outputs": [
        {
          "internalType": "address",
          "name": "",
          "type": "address"
        }
      ],
      "stateMutability": "view",
      "type": "function",
      "constant": true
    },
    {
      "inputs": [
        {
          "internalType": "address",
          "name": "",
          "type": "address"
        }
      ],
      "name": "products",
      "outputs": [
        {
          "internalType": "uint256",
          "name": "id",
          "type": "uint256"
        },
        {
          "internalType": "string",
          "name": "name",
          "type": "string"
        },
        {
          "internalType": "uint256",
          "name": "startingPriceWei",
          "type": "uint256"
        },
        {
          "internalType": "string",
          "name": "generalDescription",
          "type": "string"
        }
      ],
      "stateMutability": "view",
      "type": "function",
      "constant": true
    },
    {
      "inputs": [
        {
          "internalType": "address",
          "name": "newOwner",
          "type": "address"
        }
      ],
      "name": "transferOwnership",
      "outputs": [],
      "stateMutability": "nonpayable",
      "type": "function"
    },
    {
      "inputs": [],
      "name": "addFundsPlain",
      "outputs": [],
      "stateMutability": "payable",
      "type": "function",
      "payable": true
    },
    {
      "inputs": [],
      "name": "addFunds",
      "outputs": [],
      "stateMutability": "payable",
      "type": "function",
      "payable": true
    },
    {
      "inputs": [],
      "name": "payForUpload",
      "outputs": [],
      "stateMutability": "payable",
      "type": "function",
      "payable": true
    },
    {
      "inputs": [],
      "name": "getAllFunders",
      "outputs": [
        {
          "internalType": "address[]",
          "name": "",
          "type": "address[]"
        }
      ],
      "stateMutability": "view",
      "type": "function",
      "constant": true
    },
    {
      "inputs": [
        {
          "internalType": "uint256",
          "name": "withdrawAmount",
          "type": "uint256"
        }
      ],
      "name": "withdraw",
      "outputs": [],
      "stateMutability": "nonpayable",
      "type": "function"
    },
    {
      "inputs": [],
      "name": "getLastFunder",
      "outputs": [
        {
          "internalType": "address",
          "name": "",
          "type": "address"
        }
      ],
      "stateMutability": "view",
      "type": "function",
      "constant": true
    },
    {
      "inputs": [],
      "name": "getMinAmount",
      "outputs": [
        {
          "internalType": "uint256",
          "name": "",
          "type": "uint256"
        }
      ],
      "stateMutability": "view",
      "type": "function",
      "constant": true
    },
    {
      "inputs": [],
      "name": "getNumberofFunds",
      "outputs": [
        {
          "internalType": "uint256",
          "name": "",
          "type": "uint256"
        }
      ],
      "stateMutability": "view",
      "type": "function",
      "constant": true
    },
    {
      "inputs": [
        {
          "internalType": "address payable",
          "name": "recipient",
          "type": "address"
        },
        {
          "internalType": "uint256",
          "name": "amount",
          "type": "uint256"
        }
      ],
      "name": "withdrawTo",
      "outputs": [],
      "stateMutability": "nonpayable",
      "type": "function"
    },
    {
      "inputs": [
        {
          "internalType": "string",
          "name": "_name",
          "type": "string"
        },
        {
          "internalType": "uint256",
          "name": "_startingPriceWei",
          "type": "uint256"
        },
        {
          "internalType": "string",
          "name": "_generalDescription",
          "type": "string"
        },
        {
          "internalType": "address",
          "name": "_owner",
          "type": "address"
        }
      ],
      "name": "addNewProduct",
      "outputs": [],
      "stateMutability": "nonpayable",
      "type": "function"
    },
    {
      "inputs": [],
      "name": "getAllProducts",
      "outputs": [
        {
          "components": [
            {
              "internalType": "uint256",
              "name": "id",
              "type": "uint256"
            },
            {
              "internalType": "string",
              "name": "name",
              "type": "string"
            },
            {
              "internalType": "uint256",
              "name": "startingPriceWei",
              "type": "uint256"
            },
            {
              "internalType": "string",
              "name": "generalDescription",
              "type": "string"
            }
          ],
          "internalType": "struct Simplebank.Product[]",
          "name": "",
          "type": "tuple[]"
        }
      ],
      "stateMutability": "view",
      "type": "function",
      "constant": true
    },
    {
      "inputs": [],
      "name": "getBalance",
      "outputs": [
        {
          "internalType": "uint256",
          "name": "",
          "type": "uint256"
        }
      ],
      "stateMutability": "view",
      "type": "function",
      "constant": true
    },
    {
      "inputs": [],
      "name": "payContractOwner",
      "outputs": [],
      "stateMutability": "payable",
      "type": "function",
      "payable": true
    }
  ],
  "bytecode": "0x60806040526000600d5534801561001557600080fd5b5033600560006101000a81548173ffffffffffffffffffffffffffffffffffffffff021916908373ffffffffffffffffffffffffffffffffffffffff160217905550673782dace9d9000006002819055507323b2721ccb602b1080ce57c6b724119dc9ccb278600660006101000a81548173ffffffffffffffffffffffffffffffffffffffff021916908373ffffffffffffffffffffffffffffffffffffffff160217905550670de0b6b3a7640000600381905550612665806100d96000396000f3fe6080604052600436106101405760003560e01c806377eaf884116100b6578063b078b8f01161006f578063b078b8f0146103cc578063cfc7e2da146103f7578063d77a80a814610422578063e58144201461044d578063ec60193014610457578063f2fde38b1461048257610140565b806377eaf884146102d6578063793a8e7114610301578063821f6c2a146103415780638da5cb5b1461036c5780639209bb8814610397578063a26759cb146103c257610140565b80632e1a7d4d116101085780632e1a7d4d146101f957806330e88bf81461022257806352762a901461022c578063562d6c11146102575780635e3d3957146102805780636fbbb55d146102ab57610140565b806302ee3a52146101455780630ba002e01461017057806312065fe01461019b578063205c2878146101c6578063257e5011146101ef575b600080fd5b34801561015157600080fd5b5061015a6104ab565b60405161016791906119ea565b60405180910390f35b34801561017c57600080fd5b50610185610812565b6040516101929190611a4d565b60405180910390f35b3480156101a757600080fd5b506101b061083c565b6040516101bd9190611a77565b60405180910390f35b3480156101d257600080fd5b506101ed60048036038101906101e89190611b10565b610844565b005b6101f7610962565b005b34801561020557600080fd5b50610220600480360381019061021b9190611b50565b610b7b565b005b61022a610c67565b005b34801561023857600080fd5b50610241610e0c565b60405161024e9190611a77565b60405180910390f35b34801561026357600080fd5b5061027e60048036038101906102799190611cde565b610e12565b005b34801561028c57600080fd5b5061029561102f565b6040516102a29190611a77565b60405180910390f35b3480156102b757600080fd5b506102c0611035565b6040516102cd9190611e3b565b60405180910390f35b3480156102e257600080fd5b506102eb61112e565b6040516102f89190611a77565b60405180910390f35b34801561030d57600080fd5b5061032860048036038101906103239190611e5d565b611138565b6040516103389493929190611ed4565b60405180910390f35b34801561034d57600080fd5b50610356611278565b6040516103639190611a77565b60405180910390f35b34801561037857600080fd5b5061038161127e565b60405161038e9190611a4d565b60405180910390f35b3480156103a357600080fd5b506103ac6112a4565b6040516103b99190611a4d565b60405180910390f35b6103ca6112ca565b005b3480156103d857600080fd5b506103e161161a565b6040516103ee9190611a77565b60405180910390f35b34801561040357600080fd5b5061040c611620565b6040516104199190611a77565b60405180910390f35b34801561042e57600080fd5b5061043761162a565b6040516104449190611a4d565b60405180910390f35b610455611650565b005b34801561046357600080fd5b5061046c611713565b6040516104799190611a77565b60405180910390f35b34801561048e57600080fd5b506104a960048036038101906104a49190611e5d565b611719565b005b60606000805b60005481101561055e576000600a600083815260200190815260200160002060009054906101000a900473ffffffffffffffffffffffffffffffffffffffff1690506000600b60008373ffffffffffffffffffffffffffffffffffffffff1673ffffffffffffffffffffffffffffffffffffffff16815260200190815260200160002054111561054a57828061054690611f56565b9350505b50808061055690611f56565b9150506104b1565b5060008167ffffffffffffffff81111561057b5761057a611b87565b5b6040519080825280602002602001820160405280156105b457816020015b6105a16117ed565b8152602001906001900390816105995790505b5090506000805b600054811015610808576000600a600083815260200190815260200160002060009054906101000a900473ffffffffffffffffffffffffffffffffffffffff1690506000600b60008373ffffffffffffffffffffffffffffffffffffffff1673ffffffffffffffffffffffffffffffffffffffff1681526020019081526020016000205411156107f457600e60008273ffffffffffffffffffffffffffffffffffffffff1673ffffffffffffffffffffffffffffffffffffffff168152602001908152602001600020604051806080016040529081600082015481526020016001820180546106a990611fcd565b80601f01602080910402602001604051908101604052809291908181526020018280546106d590611fcd565b80156107225780601f106106f757610100808354040283529160200191610722565b820191906000526020600020905b81548152906001019060200180831161070557829003601f168201915b505050505081526020016002820154815260200160038201805461074590611fcd565b80601f016020809104026020016040519081016040528092919081815260200182805461077190611fcd565b80156107be5780601f10610793576101008083540402835291602001916107be565b820191906000526020600020905b8154815290600101906020018083116107a157829003601f168201915b5050505050815250508484815181106107da576107d9611ffe565b5b602002602001018190525082806107f090611f56565b9350505b50808061080090611f56565b9150506105bb565b5081935050505090565b6000600760009054906101000a900473ffffffffffffffffffffffffffffffffffffffff16905090565b600047905090565b600560009054906101000a900473ffffffffffffffffffffffffffffffffffffffff1673ffffffffffffffffffffffffffffffffffffffff163373ffffffffffffffffffffffffffffffffffffffff16146108d4576040517f08c379a00000000000000000000000000000000000000000000000000000000081526004016108cb90612079565b60405180910390fd5b80471015610917576040517f08c379a000000000000000000000000000000000000000000000000000000000815260040161090e9061210b565b60405180910390fd5b8173ffffffffffffffffffffffffffffffffffffffff166108fc829081150290604051600060405180830381858888f1935050505015801561095d573d6000803e3d6000fd5b505050565b6000339050600034905060035481146109b0576040517f08c379a00000000000000000000000000000000000000000000000000000000081526004016109a790612177565b60405180910390fd5b81600760006101000a81548173ffffffffffffffffffffffffffffffffffffffff021916908373ffffffffffffffffffffffffffffffffffffffff160217905550600860008373ffffffffffffffffffffffffffffffffffffffff1673ffffffffffffffffffffffffffffffffffffffff16815260200190815260200160002060009054906101000a900460ff16610b08576000806000815480929190610a5690611f56565b9190505590506001600860008573ffffffffffffffffffffffffffffffffffffffff1673ffffffffffffffffffffffffffffffffffffffff16815260200190815260200160002060006101000a81548160ff02191690831515021790555082600a600083815260200190815260200160002060006101000a81548173ffffffffffffffffffffffffffffffffffffffff021916908373ffffffffffffffffffffffffffffffffffffffff160217905550505b6000600560009054906101000a900473ffffffffffffffffffffffffffffffffffffffff1690508073ffffffffffffffffffffffffffffffffffffffff166108fc349081150290604051600060405180830381858888f19350505050158015610b75573d6000803e3d6000fd5b50505050565b670de0b6b3a7640000811080610bde5750600560009054906101000a900473ffffffffffffffffffffffffffffffffffffffff1673ffffffffffffffffffffffffffffffffffffffff163373ffffffffffffffffffffffffffffffffffffffff16145b610c1d576040517f08c379a0000000000000000000000000000000000000000000000000000000008152600401610c14906121e3565b60405180910390fd5b3373ffffffffffffffffffffffffffffffffffffffff166108fc829081150290604051600060405180830381858888f19350505050158015610c63573d6000803e3d6000fd5b5050565b6000339050600254341015610cb1576040517f08c379a0000000000000000000000000000000000000000000000000000000008152600401610ca89061224f565b60405180910390fd5b80600760006101000a81548173ffffffffffffffffffffffffffffffffffffffff021916908373ffffffffffffffffffffffffffffffffffffffff160217905550600860008273ffffffffffffffffffffffffffffffffffffffff1673ffffffffffffffffffffffffffffffffffffffff16815260200190815260200160002060009054906101000a900460ff16610e09576000806000815480929190610d5790611f56565b9190505590506001600860008473ffffffffffffffffffffffffffffffffffffffff1673ffffffffffffffffffffffffffffffffffffffff16815260200190815260200160002060006101000a81548160ff02191690831515021790555081600a600083815260200190815260200160002060006101000a81548173ffffffffffffffffffffffffffffffffffffffff021916908373ffffffffffffffffffffffffffffffffffffffff160217905550505b50565b60025481565b60006040518060800160405280600d548152602001868152602001858152602001848152509050600960008373ffffffffffffffffffffffffffffffffffffffff1673ffffffffffffffffffffffffffffffffffffffff168152602001908152602001600020819080600181540180825580915050600190039060005260206000209060040201600090919091909150600082015181600001556020820151816001019081610ec1919061241b565b50604082015181600201556060820151816003019081610ee1919061241b565b50505080600e60008473ffffffffffffffffffffffffffffffffffffffff1673ffffffffffffffffffffffffffffffffffffffff168152602001908152602001600020600082015181600001556020820151816001019081610f43919061241b565b50604082015181600201556060820151816003019081610f63919061241b565b50905050600b60008373ffffffffffffffffffffffffffffffffffffffff1673ffffffffffffffffffffffffffffffffffffffff1681526020019081526020016000206000815480929190610fb790611f56565b919050555081600a6000600d54815260200190815260200160002060006101000a81548173ffffffffffffffffffffffffffffffffffffffff021916908373ffffffffffffffffffffffffffffffffffffffff160217905550600d600081548092919061102390611f56565b91905055505050505050565b60045481565b60606000805467ffffffffffffffff81111561105457611053611b87565b5b6040519080825280602002602001820160405280156110825781602001602082028036833780820191505090505b50905060005b60005481101561112657600a600082815260200190815260200160002060009054906101000a900473ffffffffffffffffffffffffffffffffffffffff168282815181106110d9576110d8611ffe565b5b602002602001019073ffffffffffffffffffffffffffffffffffffffff16908173ffffffffffffffffffffffffffffffffffffffff1681525050808061111e90611f56565b915050611088565b508091505090565b6000600154905090565b600c60205280600052604060002060009150905080600001549080600101805461116190611fcd565b80601f016020809104026020016040519081016040528092919081815260200182805461118d90611fcd565b80156111da5780601f106111af576101008083540402835291602001916111da565b820191906000526020600020905b8154815290600101906020018083116111bd57829003601f168201915b5050505050908060020154908060030180546111f590611fcd565b80601f016020809104026020016040519081016040528092919081815260200182805461122190611fcd565b801561126e5780601f106112435761010080835404028352916020019161126e565b820191906000526020600020905b81548152906001019060200180831161125157829003601f168201915b5050505050905084565b60035481565b600560009054906101000a900473ffffffffffffffffffffffffffffffffffffffff1681565b600660009054906101000a900473ffffffffffffffffffffffffffffffffffffffff1681565b60003390506000349050600254811015611319576040517f08c379a00000000000000000000000000000000000000000000000000000000081526004016113109061224f565b60405180910390fd5b8047111561139c576000814761132f91906124ed565b9050600760009054906101000a900473ffffffffffffffffffffffffffffffffffffffff1673ffffffffffffffffffffffffffffffffffffffff166108fc829081150290604051600060405180830381858888f19350505050158015611399573d6000803e3d6000fd5b50505b81600760006101000a81548173ffffffffffffffffffffffffffffffffffffffff021916908373ffffffffffffffffffffffffffffffffffffffff160217905550600860008373ffffffffffffffffffffffffffffffffffffffff1673ffffffffffffffffffffffffffffffffffffffff16815260200190815260200160002060009054906101000a900460ff166114f457600080600081548092919061144290611f56565b9190505590506001600860008573ffffffffffffffffffffffffffffffffffffffff1673ffffffffffffffffffffffffffffffffffffffff16815260200190815260200160002060006101000a81548160ff02191690831515021790555082600a600083815260200190815260200160002060006101000a81548173ffffffffffffffffffffffffffffffffffffffff021916908373ffffffffffffffffffffffffffffffffffffffff160217905550505b6001600081548092919061150790611f56565b9190505550806004819055506003600154036116165760006064605f4761152e9190612521565b6115389190612592565b9050600660009054906101000a900473ffffffffffffffffffffffffffffffffffffffff1673ffffffffffffffffffffffffffffffffffffffff166108fc829081150290604051600060405180830381858888f193505050501580156115a2573d6000803e3d6000fd5b50600560009054906101000a900473ffffffffffffffffffffffffffffffffffffffff1673ffffffffffffffffffffffffffffffffffffffff166108fc479081150290604051600060405180830381858888f1935050505015801561160b573d6000803e3d6000fd5b506000600181905550505b5050565b60005481565b6000600254905090565b600760009054906101000a900473ffffffffffffffffffffffffffffffffffffffff1681565b670de0b6b3a7640000341461169a576040517f08c379a00000000000000000000000000000000000000000000000000000000081526004016116919061260f565b60405180910390fd5b6000600560009054906101000a900473ffffffffffffffffffffffffffffffffffffffff1690508073ffffffffffffffffffffffffffffffffffffffff166108fc670de0b6b3a76400009081150290604051600060405180830381858888f1935050505015801561170f573d6000803e3d6000fd5b5050565b60015481565b600560009054906101000a900473ffffffffffffffffffffffffffffffffffffffff1673ffffffffffffffffffffffffffffffffffffffff163373ffffffffffffffffffffffffffffffffffffffff16146117a9576040517f08c379a00000000000000000000000000000000000000000000000000000000081526004016117a090612079565b60405180910390fd5b80600560006101000a81548173ffffffffffffffffffffffffffffffffffffffff021916908373ffffffffffffffffffffffffffffffffffffffff16021790555050565b6040518060800160405280600081526020016060815260200160008152602001606081525090565b600081519050919050565b600082825260208201905092915050565b6000819050602082019050919050565b6000819050919050565b61185481611841565b82525050565b600081519050919050565b600082825260208201905092915050565b60005b83811015611894578082015181840152602081019050611879565b60008484015250505050565b6000601f19601f8301169050919050565b60006118bc8261185a565b6118c68185611865565b93506118d6818560208601611876565b6118df816118a0565b840191505092915050565b6000608083016000830151611902600086018261184b565b506020830151848203602086015261191a82826118b1565b915050604083015161192f604086018261184b565b506060830151848203606086015261194782826118b1565b9150508091505092915050565b600061196083836118ea565b905092915050565b6000602082019050919050565b600061198082611815565b61198a8185611820565b93508360208202850161199c85611831565b8060005b858110156119d857848403895281516119b98582611954565b94506119c483611968565b925060208a019950506001810190506119a0565b50829750879550505050505092915050565b60006020820190508181036000830152611a048184611975565b905092915050565b600073ffffffffffffffffffffffffffffffffffffffff82169050919050565b6000611a3782611a0c565b9050919050565b611a4781611a2c565b82525050565b6000602082019050611a626000830184611a3e565b92915050565b611a7181611841565b82525050565b6000602082019050611a8c6000830184611a68565b92915050565b6000604051905090565b600080fd5b600080fd5b6000611ab182611a0c565b9050919050565b611ac181611aa6565b8114611acc57600080fd5b50565b600081359050611ade81611ab8565b92915050565b611aed81611841565b8114611af857600080fd5b50565b600081359050611b0a81611ae4565b92915050565b60008060408385031215611b2757611b26611a9c565b5b6000611b3585828601611acf565b9250506020611b4685828601611afb565b9150509250929050565b600060208284031215611b6657611b65611a9c565b5b6000611b7484828501611afb565b91505092915050565b600080fd5b600080fd5b7f4e487b7100000000000000000000000000000000000000000000000000000000600052604160045260246000fd5b611bbf826118a0565b810181811067ffffffffffffffff82111715611bde57611bdd611b87565b5b80604052505050565b6000611bf1611a92565b9050611bfd8282611bb6565b919050565b600067ffffffffffffffff821115611c1d57611c1c611b87565b5b611c26826118a0565b9050602081019050919050565b82818337600083830152505050565b6000611c55611c5084611c02565b611be7565b905082815260208101848484011115611c7157611c70611b82565b5b611c7c848285611c33565b509392505050565b600082601f830112611c9957611c98611b7d565b5b8135611ca9848260208601611c42565b91505092915050565b611cbb81611a2c565b8114611cc657600080fd5b50565b600081359050611cd881611cb2565b92915050565b60008060008060808587031215611cf857611cf7611a9c565b5b600085013567ffffffffffffffff811115611d1657611d15611aa1565b5b611d2287828801611c84565b9450506020611d3387828801611afb565b935050604085013567ffffffffffffffff811115611d5457611d53611aa1565b5b611d6087828801611c84565b9250506060611d7187828801611cc9565b91505092959194509250565b600081519050919050565b600082825260208201905092915050565b6000819050602082019050919050565b611db281611a2c565b82525050565b6000611dc48383611da9565b60208301905092915050565b6000602082019050919050565b6000611de882611d7d565b611df28185611d88565b9350611dfd83611d99565b8060005b83811015611e2e578151611e158882611db8565b9750611e2083611dd0565b925050600181019050611e01565b5085935050505092915050565b60006020820190508181036000830152611e558184611ddd565b905092915050565b600060208284031215611e7357611e72611a9c565b5b6000611e8184828501611cc9565b91505092915050565b600082825260208201905092915050565b6000611ea68261185a565b611eb08185611e8a565b9350611ec0818560208601611876565b611ec9816118a0565b840191505092915050565b6000608082019050611ee96000830187611a68565b8181036020830152611efb8186611e9b565b9050611f0a6040830185611a68565b8181036060830152611f1c8184611e9b565b905095945050505050565b7f4e487b7100000000000000000000000000000000000000000000000000000000600052601160045260246000fd5b6000611f6182611841565b91507fffffffffffffffffffffffffffffffffffffffffffffffffffffffffffffffff8203611f9357611f92611f27565b5b600182019050919050565b7f4e487b7100000000000000000000000000000000000000000000000000000000600052602260045260246000fd5b60006002820490506001821680611fe557607f821691505b602082108103611ff857611ff7611f9e565b5b50919050565b7f4e487b7100000000000000000000000000000000000000000000000000000000600052603260045260246000fd5b7f4f6e6c79206f776e65722063616e20646f207468697300000000000000000000600082015250565b6000612063601683611e8a565b915061206e8261202d565b602082019050919050565b6000602082019050818103600083015261209281612056565b9050919050565b7f496e73756666696369656e742062616c616e636520696e2074686520636f6e7460008201527f7261637400000000000000000000000000000000000000000000000000000000602082015250565b60006120f5602483611e8a565b915061210082612099565b604082019050919050565b60006020820190508181036000830152612124816120e8565b9050919050565b7f7061792069732031206574686572000000000000000000000000000000000000600082015250565b6000612161600e83611e8a565b915061216c8261212b565b602082019050919050565b6000602082019050818103600083015261219081612154565b9050919050565b7f596f752063616e27742077697473000000000000000000000000000000000000600082015250565b60006121cd600e83611e8a565b91506121d882612197565b602082019050919050565b600060208201905081810360008301526121fc816121c0565b9050919050565b7f4d696e696d756d20706179206973203420657468657200000000000000000000600082015250565b6000612239601683611e8a565b915061224482612203565b602082019050919050565b600060208201905081810360008301526122688161222c565b9050919050565b60008190508160005260206000209050919050565b60006020601f8301049050919050565b600082821b905092915050565b6000600883026122d17fffffffffffffffffffffffffffffffffffffffffffffffffffffffffffffffff82612294565b6122db8683612294565b95508019841693508086168417925050509392505050565b6000819050919050565b600061231861231361230e84611841565b6122f3565b611841565b9050919050565b6000819050919050565b612332836122fd565b61234661233e8261231f565b8484546122a1565b825550505050565b600090565b61235b61234e565b612366818484612329565b505050565b5b8181101561238a5761237f600082612353565b60018101905061236c565b5050565b601f8211156123cf576123a08161226f565b6123a984612284565b810160208510156123b8578190505b6123cc6123c485612284565b83018261236b565b50505b505050565b600082821c905092915050565b60006123f2600019846008026123d4565b1980831691505092915050565b600061240b83836123e1565b9150826002028217905092915050565b6124248261185a565b67ffffffffffffffff81111561243d5761243c611b87565b5b6124478254611fcd565b61245282828561238e565b600060209050601f8311600181146124855760008415612473578287015190505b61247d85826123ff565b8655506124e5565b601f1984166124938661226f565b60005b828110156124bb57848901518255600182019150602085019450602081019050612496565b868310156124d857848901516124d4601f8916826123e1565b8355505b6001600288020188555050505b505050505050565b60006124f882611841565b915061250383611841565b925082820390508181111561251b5761251a611f27565b5b92915050565b600061252c82611841565b915061253783611841565b925082820261254581611841565b9150828204841483151761255c5761255b611f27565b5b5092915050565b7f4e487b7100000000000000000000000000000000000000000000000000000000600052601260045260246000fd5b600061259d82611841565b91506125a883611841565b9250826125b8576125b7612563565b5b828204905092915050565b7f496e73756666696369656e742066756e64730000000000000000000000000000600082015250565b60006125f9601283611e8a565b9150612604826125c3565b602082019050919050565b60006020820190508181036000830152612628816125ec565b905091905056fea264697066735822122083596d28c8df742b06953edf10dbc057f8206236004eaa0b2b03b7021b384f2164736f6c63430008130033",
  "immutableReferences": {},
  "source": "// SPDX-License-Identifier: MIT\r\npragma solidity >=0.4.22 <0.9.0;\r\n\r\ncontract Simplebank {\r\n    uint public numberofFunders;\r\n    uint public numberofFunds;\r\n    uint public minAmountForBid;\r\n    uint public payForUploadProduct;\r\n    uint public lastBid;\r\n    address public owner;\r\n    address public productOwner;\r\n    address public lastFunder;\r\n    mapping(address=> bool) private funders;\r\n    mapping(address => Product[]) private ownerProducts; \r\n    mapping(uint => address) private lutFunders; \r\n    mapping(address => uint) private ownerProductCounter;\r\n    struct Product {\r\n    uint id;\r\n    string name;\r\n    uint startingPriceWei;\r\n    string generalDescription;\r\n    }\r\n    mapping (address => Product) public products;\r\n    uint private productCounter = 0;\r\n    mapping(address => Product) private latestProducts;\r\n\r\n\r\n\r\n\r\n    constructor(){\r\n        owner = msg.sender;\r\n        minAmountForBid = 4000000000000000000;\r\n        productOwner = 0x23B2721CCB602b1080CE57c6b724119dc9ccB278;\r\n        payForUploadProduct = 1000000000000000000;\r\n    }\r\n\r\n    modifier onlyOwner(){\r\n        require(msg.sender == owner, \"Only owner can do this\");\r\n        _;\r\n    }\r\n\r\n    \r\n    function transferOwnership(address newOwner) external onlyOwner{\r\n        owner = newOwner;\r\n    }\r\n\r\n    function addFundsPlain() external payable{\r\n        address funder = msg.sender;\r\n        require(msg.value >= minAmountForBid, \"Minimum pay is 4 ether\");\r\n        lastFunder = funder; // update last funder\r\n        if(!funders[funder]){\r\n            uint index = numberofFunders++;\r\n            funders[funder] = true;\r\n            lutFunders[index] = funder;\r\n            \r\n        }\r\n\r\n    }\r\n\r\nfunction addFunds() external payable {\r\n    address funder = msg.sender;\r\n    uint newFund = msg.value;\r\n    // uint balance = address(this).balance;\r\n    require(newFund >= minAmountForBid, \"Minimum pay is 4 ether\");\r\n    // require(newFund > address(this).balance, \"New fund should be more than the current balance in the contract\");\r\n    // if (balance >= newFund) {\r\n    // revert(\"New fund should be more than the current balance innnnnn the contract\");\r\n    // }\r\n    if (address(this).balance > newFund) {\r\n        uint remainingBalance = address(this).balance - newFund;\r\n        payable(lastFunder).transfer(remainingBalance);\r\n    }\r\n    lastFunder = funder; // update last funder\r\n    if (!funders[funder]) {\r\n        uint index = numberofFunders++;\r\n        funders[funder] = true;\r\n        lutFunders[index] = funder;\r\n    }\r\n    numberofFunds++;\r\n    lastBid = newFund;\r\n    if (numberofFunds == 3){\r\n        // 95% to productOwner and 5% to owner\r\n        uint productOwnerAmount = address(this).balance * 95 / 100;\r\n        payable(productOwner).transfer(productOwnerAmount);\r\n        payable(owner).transfer(address(this).balance);\r\n        numberofFunds = 0;\r\n    }\r\n\r\n}\r\n\r\nfunction payForUpload() external payable {\r\n    address funder = msg.sender;\r\n    uint newFund = msg.value;\r\n    require(newFund == payForUploadProduct, \"pay is 1 ether\");\r\n    lastFunder = funder; // update last funder\r\n    if (!funders[funder]) {\r\n        uint index = numberofFunders++;\r\n        funders[funder] = true;\r\n        lutFunders[index] = funder;\r\n    }\r\n    \r\n    address payable contractOwner = payable(owner);\r\n    contractOwner.transfer(msg.value);\r\n    }\r\n\r\n\r\n\r\n    function getAllFunders() external view returns(address[] memory) {\r\n        address[] memory _funders = new address[](numberofFunders);\r\n        for(uint i=0; i<numberofFunders; i++){\r\n            _funders[i] = lutFunders[i];\r\n        }\r\n        return _funders;\r\n    }\r\n    function withdraw(uint withdrawAmount) external {\r\n        require(withdrawAmount < 1000000000000000000 || msg.sender == owner, \"You can't wits\");\r\n        payable (msg.sender).transfer(withdrawAmount);\r\n    }\r\n\r\n    function getLastFunder() external view returns (address) {\r\n        return lastFunder;\r\n    }\r\n\r\n    function getMinAmount() external view returns (uint) {\r\n        return minAmountForBid;\r\n    }\r\n\r\n    function getNumberofFunds() external view returns (uint){\r\n        return numberofFunds;\r\n    }\r\n    \r\n    function withdrawTo(address payable recipient, uint amount) external onlyOwner {\r\n    require(address(this).balance >= amount, \"Insufficient balance in the contract\");\r\n    recipient.transfer(amount);\r\n    }\r\n\r\n\r\n    function addNewProduct(string memory _name, uint _startingPriceWei, string memory _generalDescription, address _owner) public {\r\n    // require(products[msg.sender].id == 0, \"Funder cannot add a new product if they already have one\");\r\n    Product memory newProduct = Product(productCounter, _name, _startingPriceWei, _generalDescription);\r\n    ownerProducts[_owner].push(newProduct);\r\n    latestProducts[_owner] = newProduct;\r\n    ownerProductCounter[_owner]++;\r\n    lutFunders[productCounter] = _owner;\r\n    productCounter++;\r\n}\r\n\r\n\r\n    function getAllProducts() external view returns (Product[] memory) {\r\n        uint productCount = 0;\r\n        for (uint i = 0; i < numberofFunders; i++) {\r\n            address productOwner = lutFunders[i];\r\n            if (ownerProductCounter[productOwner] > 0) {\r\n                productCount++;\r\n            }\r\n        }\r\n        Product[] memory allProducts = new Product[](productCount);\r\n        uint productIndex = 0;\r\n        for (uint i = 0; i < numberofFunders; i++) {\r\n            address productOwner = lutFunders[i];\r\n            if (ownerProductCounter[productOwner] > 0) {\r\n                allProducts[productIndex] = latestProducts[productOwner];\r\n                productIndex++;\r\n            }\r\n        }\r\n        return allProducts;\r\n    }\r\n\r\n\r\n    \r\n    function getBalance() public view returns (uint256) {\r\n        return address(this).balance;\r\n    }\r\n\r\n\r\n    function payContractOwner() public payable {\r\n    require(msg.value == 1 ether, \"Insufficient funds\");\r\n    address payable contractOwner = payable(owner);\r\n    contractOwner.transfer(1 ether);\r\n}\r\n\r\n    \r\n}\r\n\r\n\r\n\r\n\r\n\r\n//const instance = await Simplebank.deployed()\r\n// const funds = instance.funds()\r\n// instance.addFunds({value:\"4000000000000000000\", from: accounts[0]})\r\n// instance.addFunds({value:\"500000000000000000\", from: accounts[1]})\r\n// instance.addFunds({value:\"5000000000000000000\", from: accounts[1]})\r\n// instance.getAllFunders()\r\n// instance.withdraw(\"1000000000000000000\")\r\n// instance.transferOwnership(\"0x469bC46515Ffed50e765b87DA3aEab4CAAf4F809\")\r\n\r\n\r\n// const recipient = \"0x687591815BF3EeacF01FdE0aE993314259D607d9\"; // replace with recipient address\r\n// const amount = web3.utils.toWei(\"12\", \"ether\"); // replace with amount to withdraw in ether\r\n// await instance.withdrawTo(recipient, amount, { from: accounts[0] }); // replace with sender account\r\n\r\n",
  "sourcePath": "C:\\Users\\Elinoa Resnick\\Desktop\\Tech\\web3testproject\\contracts\\Simplebank.sol",
  "compiler": {
    "name": "solc",
    "version": "0.8.19+commit.7dd6d404.Emscripten.clang"
  },
  "schemaVersion": "3.4.13",
  "updatedAt": "2023-04-13T14:59:14.803Z",
  "networkType": "ethereum",
  "devdoc": {
    "kind": "dev",
    "methods": {},
    "version": 1
  },
  "userdoc": {
    "kind": "user",
    "methods": {},
    "version": 1
  }
}