{
  "contractName": "Simplebank",
  "abi": [
    {
      "inputs": [],
      "stateMutability": "nonpayable",
      "type": "constructor"
    },
    {
      "inputs": [],
      "name": "lastBid",
      "outputs": [
        {
          "internalType": "uint256",
          "name": "",
          "type": "uint256"
        }
      ],
      "stateMutability": "view",
      "type": "function",
      "constant": true
    },
    {
      "inputs": [],
      "name": "lastFunder",
      "outputs": [
        {
          "internalType": "address",
          "name": "",
          "type": "address"
        }
      ],
      "stateMutability": "view",
      "type": "function",
      "constant": true
    },
    {
      "inputs": [],
      "name": "lowestProductIDForSale",
      "outputs": [
        {
          "internalType": "uint256",
          "name": "",
          "type": "uint256"
        }
      ],
      "stateMutability": "view",
      "type": "function",
      "constant": true
    },
    {
      "inputs": [],
      "name": "lp",
      "outputs": [
        {
          "internalType": "uint256",
          "name": "",
          "type": "uint256"
        }
      ],
      "stateMutability": "view",
      "type": "function",
      "constant": true
    },
    {
      "inputs": [],
      "name": "minAmountForBid",
      "outputs": [
        {
          "internalType": "uint256",
          "name": "",
          "type": "uint256"
        }
      ],
      "stateMutability": "view",
      "type": "function",
      "constant": true
    },
    {
      "inputs": [],
      "name": "numberofFunders",
      "outputs": [
        {
          "internalType": "uint256",
          "name": "",
          "type": "uint256"
        }
      ],
      "stateMutability": "view",
      "type": "function",
      "constant": true
    },
    {
      "inputs": [],
      "name": "numberofFunds",
      "outputs": [
        {
          "internalType": "uint256",
          "name": "",
          "type": "uint256"
        }
      ],
      "stateMutability": "view",
      "type": "function",
      "constant": true
    },
    {
      "inputs": [],
      "name": "owner",
      "outputs": [
        {
          "internalType": "address",
          "name": "",
          "type": "address"
        }
      ],
      "stateMutability": "view",
      "type": "function",
      "constant": true
    },
    {
      "inputs": [],
      "name": "payForUploadProduct",
      "outputs": [
        {
          "internalType": "uint256",
          "name": "",
          "type": "uint256"
        }
      ],
      "stateMutability": "view",
      "type": "function",
      "constant": true
    },
    {
      "inputs": [],
      "name": "productOwner",
      "outputs": [
        {
          "internalType": "address",
          "name": "",
          "type": "address"
        }
      ],
      "stateMutability": "view",
      "type": "function",
      "constant": true
    },
    {
      "inputs": [
        {
          "internalType": "address",
          "name": "",
          "type": "address"
        }
      ],
      "name": "products",
      "outputs": [
        {
          "internalType": "uint256",
          "name": "id",
          "type": "uint256"
        },
        {
          "internalType": "string",
          "name": "name",
          "type": "string"
        },
        {
          "internalType": "uint256",
          "name": "startingPriceEthr",
          "type": "uint256"
        },
        {
          "internalType": "string",
          "name": "generalDescription",
          "type": "string"
        },
        {
          "internalType": "address",
          "name": "funder",
          "type": "address"
        },
        {
          "internalType": "string",
          "name": "isSold",
          "type": "string"
        }
      ],
      "stateMutability": "view",
      "type": "function",
      "constant": true
    },
    {
      "inputs": [
        {
          "internalType": "address",
          "name": "newOwner",
          "type": "address"
        }
      ],
      "name": "transferOwnership",
      "outputs": [],
      "stateMutability": "nonpayable",
      "type": "function"
    },
    {
      "inputs": [],
      "name": "addFundsPlain",
      "outputs": [],
      "stateMutability": "payable",
      "type": "function",
      "payable": true
    },
    {
      "inputs": [],
      "name": "addFunds",
      "outputs": [],
      "stateMutability": "payable",
      "type": "function",
      "payable": true
    },
    {
      "inputs": [],
      "name": "payForUpload",
      "outputs": [],
      "stateMutability": "payable",
      "type": "function",
      "payable": true
    },
    {
      "inputs": [],
      "name": "getAllFunders",
      "outputs": [
        {
          "internalType": "address[]",
          "name": "",
          "type": "address[]"
        }
      ],
      "stateMutability": "view",
      "type": "function",
      "constant": true
    },
    {
      "inputs": [
        {
          "internalType": "uint256",
          "name": "withdrawAmount",
          "type": "uint256"
        }
      ],
      "name": "withdraw",
      "outputs": [],
      "stateMutability": "nonpayable",
      "type": "function"
    },
    {
      "inputs": [],
      "name": "getLastFunder",
      "outputs": [
        {
          "internalType": "address",
          "name": "",
          "type": "address"
        }
      ],
      "stateMutability": "view",
      "type": "function",
      "constant": true
    },
    {
      "inputs": [],
      "name": "getProductOwner",
      "outputs": [
        {
          "internalType": "address",
          "name": "",
          "type": "address"
        }
      ],
      "stateMutability": "view",
      "type": "function",
      "constant": true
    },
    {
      "inputs": [],
      "name": "getMinAmount",
      "outputs": [
        {
          "internalType": "uint256",
          "name": "",
          "type": "uint256"
        }
      ],
      "stateMutability": "view",
      "type": "function",
      "constant": true
    },
    {
      "inputs": [],
      "name": "getNumberofFunds",
      "outputs": [
        {
          "internalType": "uint256",
          "name": "",
          "type": "uint256"
        }
      ],
      "stateMutability": "view",
      "type": "function",
      "constant": true
    },
    {
      "inputs": [
        {
          "internalType": "address payable",
          "name": "recipient",
          "type": "address"
        },
        {
          "internalType": "uint256",
          "name": "amount",
          "type": "uint256"
        }
      ],
      "name": "withdrawTo",
      "outputs": [],
      "stateMutability": "nonpayable",
      "type": "function"
    },
    {
      "inputs": [
        {
          "internalType": "string",
          "name": "_name",
          "type": "string"
        },
        {
          "internalType": "uint256",
          "name": "_startingPriceEthr",
          "type": "uint256"
        },
        {
          "internalType": "string",
          "name": "_generalDescription",
          "type": "string"
        },
        {
          "internalType": "address",
          "name": "_owner",
          "type": "address"
        }
      ],
      "name": "addNewProduct",
      "outputs": [],
      "stateMutability": "nonpayable",
      "type": "function"
    },
    {
      "inputs": [],
      "name": "getAllProducts",
      "outputs": [
        {
          "components": [
            {
              "internalType": "uint256",
              "name": "id",
              "type": "uint256"
            },
            {
              "internalType": "string",
              "name": "name",
              "type": "string"
            },
            {
              "internalType": "uint256",
              "name": "startingPriceEthr",
              "type": "uint256"
            },
            {
              "internalType": "string",
              "name": "generalDescription",
              "type": "string"
            },
            {
              "internalType": "address",
              "name": "funder",
              "type": "address"
            },
            {
              "internalType": "string",
              "name": "isSold",
              "type": "string"
            }
          ],
          "internalType": "struct Simplebank.Product[]",
          "name": "",
          "type": "tuple[]"
        }
      ],
      "stateMutability": "view",
      "type": "function",
      "constant": true
    },
    {
      "inputs": [],
      "name": "getBalance",
      "outputs": [
        {
          "internalType": "uint256",
          "name": "",
          "type": "uint256"
        }
      ],
      "stateMutability": "view",
      "type": "function",
      "constant": true
    },
    {
      "inputs": [],
      "name": "payContractOwner",
      "outputs": [],
      "stateMutability": "payable",
      "type": "function",
      "payable": true
    },
    {
      "inputs": [],
      "name": "getLowestProductIDForSale",
      "outputs": [
        {
          "internalType": "uint256",
          "name": "",
          "type": "uint256"
        }
      ],
      "stateMutability": "view",
      "type": "function",
      "constant": true
    }
  ],
  "bytecode": "0x60806040526000600f5534801561001557600080fd5b5033600760006101000a81548173ffffffffffffffffffffffffffffffffffffffff021916908373ffffffffffffffffffffffffffffffffffffffff160217905550673782dace9d9000006002819055507323b2721ccb602b1080ce57c6b724119dc9ccb278600860006101000a81548173ffffffffffffffffffffffffffffffffffffffff021916908373ffffffffffffffffffffffffffffffffffffffff160217905550670de0b6b3a7640000600581905550600060048190555061374e806100e16000396000f3fe60806040526004361061019c5760003560e01c80636fbbb55d116100ec578063b078b8f01161008a578063db1534b311610064578063db1534b31461052c578063e581442014610557578063ec60193014610561578063f2fde38b1461058c5761019c565b8063b078b8f0146104ab578063cfc7e2da146104d6578063d77a80a8146105015761019c565b8063821f6c2a116100c6578063821f6c2a146104205780638da5cb5b1461044b5780639209bb8814610476578063a26759cb146104a15761019c565b80636fbbb55d1461038857806377eaf884146103b3578063793a8e71146103de5761019c565b806330e88bf81161015957806352762a901161013357806352762a90146102de578063562d6c111461030957806357adae6d146103325780635e3d39571461035d5761019c565b806330e88bf81461027e578063313c06a01461028857806331970a07146102b35761019c565b806302ee3a52146101a15780630ba002e0146101cc57806312065fe0146101f7578063205c287814610222578063257e50111461024b5780632e1a7d4d14610255575b600080fd5b3480156101ad57600080fd5b506101b66105b5565b6040516101c391906127b8565b60405180910390f35b3480156101d857600080fd5b506101e1610a04565b6040516101ee91906127e9565b60405180910390f35b34801561020357600080fd5b5061020c610a2e565b6040516102199190612813565b60405180910390f35b34801561022e57600080fd5b50610249600480360381019061024491906128ac565b610a36565b005b610253610b54565b005b34801561026157600080fd5b5061027c600480360381019061027791906128ec565b610da8565b005b610286610e94565b005b34801561029457600080fd5b5061029d611039565b6040516102aa9190612813565b60405180910390f35b3480156102bf57600080fd5b506102c861103f565b6040516102d59190612813565b60405180910390f35b3480156102ea57600080fd5b506102f3611045565b6040516103009190612813565b60405180910390f35b34801561031557600080fd5b50610330600480360381019061032b9190612a7a565b61104b565b005b34801561033e57600080fd5b506103476115c8565b60405161035491906127e9565b60405180910390f35b34801561036957600080fd5b506103726115f2565b60405161037f9190612813565b60405180910390f35b34801561039457600080fd5b5061039d6115f8565b6040516103aa9190612bc8565b60405180910390f35b3480156103bf57600080fd5b506103c86116f1565b6040516103d59190612813565b60405180910390f35b3480156103ea57600080fd5b5061040560048036038101906104009190612bea565b6116fb565b60405161041796959493929190612c61565b60405180910390f35b34801561042c57600080fd5b506104356118ef565b6040516104429190612813565b60405180910390f35b34801561045757600080fd5b506104606118f5565b60405161046d91906127e9565b60405180910390f35b34801561048257600080fd5b5061048b61191b565b60405161049891906127e9565b60405180910390f35b6104a9611941565b005b3480156104b757600080fd5b506104c06120b3565b6040516104cd9190612813565b60405180910390f35b3480156104e257600080fd5b506104eb6120b9565b6040516104f89190612813565b60405180910390f35b34801561050d57600080fd5b506105166120c3565b60405161052391906127e9565b60405180910390f35b34801561053857600080fd5b506105416120e9565b60405161054e9190612813565b60405180910390f35b61055f61232f565b005b34801561056d57600080fd5b506105766123f2565b6040516105839190612813565b60405180910390f35b34801561059857600080fd5b506105b360048036038101906105ae9190612bea565b6123f8565b005b60606000805b600054811015610668576000600c600083815260200190815260200160002060009054906101000a900473ffffffffffffffffffffffffffffffffffffffff1690506000600d60008373ffffffffffffffffffffffffffffffffffffffff1673ffffffffffffffffffffffffffffffffffffffff16815260200190815260200160002054111561065457828061065090612d06565b9350505b50808061066090612d06565b9150506105bb565b5060008167ffffffffffffffff81111561068557610684612923565b5b6040519080825280602002602001820160405280156106be57816020015b6106ab6124cc565b8152602001906001900390816106a35790505b5090506000805b6000548110156109fa576000600c600083815260200190815260200160002060009054906101000a900473ffffffffffffffffffffffffffffffffffffffff1690506000600d60008373ffffffffffffffffffffffffffffffffffffffff1673ffffffffffffffffffffffffffffffffffffffff1681526020019081526020016000205411156109e657601060008273ffffffffffffffffffffffffffffffffffffffff1673ffffffffffffffffffffffffffffffffffffffff1681526020019081526020016000206040518060c0016040529081600082015481526020016001820180546107b390612d7d565b80601f01602080910402602001604051908101604052809291908181526020018280546107df90612d7d565b801561082c5780601f106108015761010080835404028352916020019161082c565b820191906000526020600020905b81548152906001019060200180831161080f57829003601f168201915b505050505081526020016002820154815260200160038201805461084f90612d7d565b80601f016020809104026020016040519081016040528092919081815260200182805461087b90612d7d565b80156108c85780601f1061089d576101008083540402835291602001916108c8565b820191906000526020600020905b8154815290600101906020018083116108ab57829003601f168201915b505050505081526020016004820160009054906101000a900473ffffffffffffffffffffffffffffffffffffffff1673ffffffffffffffffffffffffffffffffffffffff1673ffffffffffffffffffffffffffffffffffffffff16815260200160058201805461093790612d7d565b80601f016020809104026020016040519081016040528092919081815260200182805461096390612d7d565b80156109b05780601f10610985576101008083540402835291602001916109b0565b820191906000526020600020905b81548152906001019060200180831161099357829003601f168201915b5050505050815250508484815181106109cc576109cb612dae565b5b602002602001018190525082806109e290612d06565b9350505b5080806109f290612d06565b9150506106c5565b5081935050505090565b6000600960009054906101000a900473ffffffffffffffffffffffffffffffffffffffff16905090565b600047905090565b600760009054906101000a900473ffffffffffffffffffffffffffffffffffffffff1673ffffffffffffffffffffffffffffffffffffffff163373ffffffffffffffffffffffffffffffffffffffff1614610ac6576040517f08c379a0000000000000000000000000000000000000000000000000000000008152600401610abd90612e29565b60405180910390fd5b80471015610b09576040517f08c379a0000000000000000000000000000000000000000000000000000000008152600401610b0090612ebb565b60405180910390fd5b8173ffffffffffffffffffffffffffffffffffffffff166108fc829081150290604051600060405180830381858888f19350505050158015610b4f573d6000803e3d6000fd5b505050565b600033905060003490506005548114610ba2576040517f08c379a0000000000000000000000000000000000000000000000000000000008152600401610b9990612f27565b60405180910390fd5b600a60008373ffffffffffffffffffffffffffffffffffffffff1673ffffffffffffffffffffffffffffffffffffffff16815260200190815260200160002060009054906101000a900460ff1615610c2f576040517f08c379a0000000000000000000000000000000000000000000000000000000008152600401610c2690612fb9565b60405180910390fd5b81600960006101000a81548173ffffffffffffffffffffffffffffffffffffffff021916908373ffffffffffffffffffffffffffffffffffffffff1602179055506000806000815480929190610c8490612d06565b9190505590506001600a60008573ffffffffffffffffffffffffffffffffffffffff1673ffffffffffffffffffffffffffffffffffffffff16815260200190815260200160002060006101000a81548160ff02191690831515021790555082600c600083815260200190815260200160002060006101000a81548173ffffffffffffffffffffffffffffffffffffffff021916908373ffffffffffffffffffffffffffffffffffffffff1602179055506000600760009054906101000a900473ffffffffffffffffffffffffffffffffffffffff1690508073ffffffffffffffffffffffffffffffffffffffff166108fc349081150290604051600060405180830381858888f19350505050158015610da1573d6000803e3d6000fd5b5050505050565b670de0b6b3a7640000811080610e0b5750600760009054906101000a900473ffffffffffffffffffffffffffffffffffffffff1673ffffffffffffffffffffffffffffffffffffffff163373ffffffffffffffffffffffffffffffffffffffff16145b610e4a576040517f08c379a0000000000000000000000000000000000000000000000000000000008152600401610e4190613025565b60405180910390fd5b3373ffffffffffffffffffffffffffffffffffffffff166108fc829081150290604051600060405180830381858888f19350505050158015610e90573d6000803e3d6000fd5b5050565b6000339050600254341015610ede576040517f08c379a0000000000000000000000000000000000000000000000000000000008152600401610ed590613091565b60405180910390fd5b80600960006101000a81548173ffffffffffffffffffffffffffffffffffffffff021916908373ffffffffffffffffffffffffffffffffffffffff160217905550600a60008273ffffffffffffffffffffffffffffffffffffffff1673ffffffffffffffffffffffffffffffffffffffff16815260200190815260200160002060009054906101000a900460ff16611036576000806000815480929190610f8490612d06565b9190505590506001600a60008473ffffffffffffffffffffffffffffffffffffffff1673ffffffffffffffffffffffffffffffffffffffff16815260200190815260200160002060006101000a81548160ff02191690831515021790555081600c600083815260200190815260200160002060006101000a81548173ffffffffffffffffffffffffffffffffffffffff021916908373ffffffffffffffffffffffffffffffffffffffff160217905550505b50565b60045481565b60035481565b60025481565b601160008273ffffffffffffffffffffffffffffffffffffffff1673ffffffffffffffffffffffffffffffffffffffff16815260200190815260200160002060009054906101000a900460ff16156110d8576040517f08c379a00000000000000000000000000000000000000000000000000000000081526004016110cf90613123565b60405180910390fd5b60006040518060c00160405280600f5481526020018681526020018581526020018481526020018373ffffffffffffffffffffffffffffffffffffffff1681526020016040518060400160405280600881526020017f6e6f7420536f6c640000000000000000000000000000000000000000000000008152508152509050600b60008373ffffffffffffffffffffffffffffffffffffffff1673ffffffffffffffffffffffffffffffffffffffff1681526020019081526020016000208190806001815401808255809150506001900390600052602060002090600602016000909190919091506000820151816000015560208201518160010190816111de91906132ef565b506040820151816002015560608201518160030190816111fe91906132ef565b5060808201518160040160006101000a81548173ffffffffffffffffffffffffffffffffffffffff021916908373ffffffffffffffffffffffffffffffffffffffff16021790555060a082015181600501908161125b91906132ef565b50505080601060008473ffffffffffffffffffffffffffffffffffffffff1673ffffffffffffffffffffffffffffffffffffffff1681526020019081526020016000206000820151816000015560208201518160010190816112bd91906132ef565b506040820151816002015560608201518160030190816112dd91906132ef565b5060808201518160040160006101000a81548173ffffffffffffffffffffffffffffffffffffffff021916908373ffffffffffffffffffffffffffffffffffffffff16021790555060a082015181600501908161133a91906132ef565b50905050600d60008373ffffffffffffffffffffffffffffffffffffffff1673ffffffffffffffffffffffffffffffffffffffff168152602001908152602001600020600081548092919061138e90612d06565b919050555081600c6000600f54815260200190815260200160002060006101000a81548173ffffffffffffffffffffffffffffffffffffffff021916908373ffffffffffffffffffffffffffffffffffffffff160217905550600f60008154809291906113fa90612d06565b91905055506001601160008473ffffffffffffffffffffffffffffffffffffffff1673ffffffffffffffffffffffffffffffffffffffff16815260200190815260200160002060006101000a81548160ff0219169083151502179055506001600f54036114ca5781600860006101000a81548173ffffffffffffffffffffffffffffffffffffffff021916908373ffffffffffffffffffffffffffffffffffffffff160217905550670de0b6b3a7640000846114b691906133c1565b600281905550600f546003819055506115c1565b600b6000600860009054906101000a900473ffffffffffffffffffffffffffffffffffffffff1673ffffffffffffffffffffffffffffffffffffffff1673ffffffffffffffffffffffffffffffffffffffff16815260200190815260200160002060008154811061153e5761153d612dae565b5b906000526020600020906006020160000154816000015110156115c05781600860006101000a81548173ffffffffffffffffffffffffffffffffffffffff021916908373ffffffffffffffffffffffffffffffffffffffff160217905550670de0b6b3a7640000846115b091906133c1565b600281905550600f546003819055505b5b5050505050565b6000600860009054906101000a900473ffffffffffffffffffffffffffffffffffffffff16905090565b60065481565b60606000805467ffffffffffffffff81111561161757611616612923565b5b6040519080825280602002602001820160405280156116455781602001602082028036833780820191505090505b50905060005b6000548110156116e957600c600082815260200190815260200160002060009054906101000a900473ffffffffffffffffffffffffffffffffffffffff1682828151811061169c5761169b612dae565b5b602002602001019073ffffffffffffffffffffffffffffffffffffffff16908173ffffffffffffffffffffffffffffffffffffffff168152505080806116e190612d06565b91505061164b565b508091505090565b6000600154905090565b600e60205280600052604060002060009150905080600001549080600101805461172490612d7d565b80601f016020809104026020016040519081016040528092919081815260200182805461175090612d7d565b801561179d5780601f106117725761010080835404028352916020019161179d565b820191906000526020600020905b81548152906001019060200180831161178057829003601f168201915b5050505050908060020154908060030180546117b890612d7d565b80601f01602080910402602001604051908101604052809291908181526020018280546117e490612d7d565b80156118315780601f1061180657610100808354040283529160200191611831565b820191906000526020600020905b81548152906001019060200180831161181457829003601f168201915b5050505050908060040160009054906101000a900473ffffffffffffffffffffffffffffffffffffffff169080600501805461186c90612d7d565b80601f016020809104026020016040519081016040528092919081815260200182805461189890612d7d565b80156118e55780601f106118ba576101008083540402835291602001916118e5565b820191906000526020600020905b8154815290600101906020018083116118c857829003601f168201915b5050505050905086565b60055481565b600760009054906101000a900473ffffffffffffffffffffffffffffffffffffffff1681565b600860009054906101000a900473ffffffffffffffffffffffffffffffffffffffff1681565b60003390506000349050600254811015611990576040517f08c379a000000000000000000000000000000000000000000000000000000000815260040161198790613091565b60405180910390fd5b80471115611a1357600081476119a69190613403565b9050600960009054906101000a900473ffffffffffffffffffffffffffffffffffffffff1673ffffffffffffffffffffffffffffffffffffffff166108fc829081150290604051600060405180830381858888f19350505050158015611a10573d6000803e3d6000fd5b50505b81600960006101000a81548173ffffffffffffffffffffffffffffffffffffffff021916908373ffffffffffffffffffffffffffffffffffffffff160217905550600a60008373ffffffffffffffffffffffffffffffffffffffff1673ffffffffffffffffffffffffffffffffffffffff16815260200190815260200160002060009054906101000a900460ff16611b6b576000806000815480929190611ab990612d06565b9190505590506001600a60008573ffffffffffffffffffffffffffffffffffffffff1673ffffffffffffffffffffffffffffffffffffffff16815260200190815260200160002060006101000a81548160ff02191690831515021790555082600c600083815260200190815260200160002060006101000a81548173ffffffffffffffffffffffffffffffffffffffff021916908373ffffffffffffffffffffffffffffffffffffffff160217905550505b60016000815480929190611b7e90612d06565b9190505550806006819055506003600154036120af5760006064605f47611ba591906133c1565b611baf9190613466565b9050600860009054906101000a900473ffffffffffffffffffffffffffffffffffffffff1673ffffffffffffffffffffffffffffffffffffffff166108fc829081150290604051600060405180830381858888f19350505050158015611c19573d6000803e3d6000fd5b50600760009054906101000a900473ffffffffffffffffffffffffffffffffffffffff1673ffffffffffffffffffffffffffffffffffffffff166108fc479081150290604051600060405180830381858888f19350505050158015611c82573d6000803e3d6000fd5b506000600181905550600e6000600b6000600860009054906101000a900473ffffffffffffffffffffffffffffffffffffffff1673ffffffffffffffffffffffffffffffffffffffff1673ffffffffffffffffffffffffffffffffffffffff16815260200190815260200160002060045481548110611d0457611d03612dae565b5b906000526020600020906006020160040160009054906101000a900473ffffffffffffffffffffffffffffffffffffffff1673ffffffffffffffffffffffffffffffffffffffff1673ffffffffffffffffffffffffffffffffffffffff168152602001908152602001600020600080820160009055600182016000611d899190612518565b6002820160009055600382016000611da19190612518565b6004820160006101000a81549073ffffffffffffffffffffffffffffffffffffffff0219169055600582016000611dd89190612518565b505060006001600454611deb9190613497565b90505b600d6000600860009054906101000a900473ffffffffffffffffffffffffffffffffffffffff1673ffffffffffffffffffffffffffffffffffffffff1673ffffffffffffffffffffffffffffffffffffffff1681526020019081526020016000205481101561203557600b6000600860009054906101000a900473ffffffffffffffffffffffffffffffffffffffff1673ffffffffffffffffffffffffffffffffffffffff1673ffffffffffffffffffffffffffffffffffffffff1681526020019081526020016000208181548110611eca57611ec9612dae565b5b9060005260206000209060060201600b6000600860009054906101000a900473ffffffffffffffffffffffffffffffffffffffff1673ffffffffffffffffffffffffffffffffffffffff1673ffffffffffffffffffffffffffffffffffffffff168152602001908152602001600020600183611f469190613403565b81548110611f5757611f56612dae565b5b90600052602060002090600602016000820154816000015560018201816001019081611f8391906134e1565b506002820154816002015560038201816003019081611fa291906134e1565b506004820160009054906101000a900473ffffffffffffffffffffffffffffffffffffffff168160040160006101000a81548173ffffffffffffffffffffffffffffffffffffffff021916908373ffffffffffffffffffffffffffffffffffffffff1602179055506005820181600501908161201e91906134e1565b50905050808061202d90612d06565b915050611dee565b50600d6000600860009054906101000a900473ffffffffffffffffffffffffffffffffffffffff1673ffffffffffffffffffffffffffffffffffffffff1673ffffffffffffffffffffffffffffffffffffffff16815260200190815260200160002060008154809291906120a8906135c9565b9190505550505b5050565b60005481565b6000600254905090565b600960009054906101000a900473ffffffffffffffffffffffffffffffffffffffff1681565b6000807fffffffffffffffffffffffffffffffffffffffffffffffffffffffffffffffff905060005b600f548110156122f5576040518060400160405280600181526020017f300000000000000000000000000000000000000000000000000000000000000081525080519060200120600e6000600c600085815260200190815260200160002060009054906101000a900473ffffffffffffffffffffffffffffffffffffffff1673ffffffffffffffffffffffffffffffffffffffff1673ffffffffffffffffffffffffffffffffffffffff1681526020019081526020016000206005016040516121db9190613695565b6040518091039020148015612264575081600e6000600c600085815260200190815260200160002060009054906101000a900473ffffffffffffffffffffffffffffffffffffffff1673ffffffffffffffffffffffffffffffffffffffff1673ffffffffffffffffffffffffffffffffffffffff16815260200190815260200160002060000154105b156122e257600e6000600c600084815260200190815260200160002060009054906101000a900473ffffffffffffffffffffffffffffffffffffffff1673ffffffffffffffffffffffffffffffffffffffff1673ffffffffffffffffffffffffffffffffffffffff1681526020019081526020016000206000015491505b80806122ed90612d06565b915050612112565b507fffffffffffffffffffffffffffffffffffffffffffffffffffffffffffffffff810361232757600691505061232c565b809150505b90565b670de0b6b3a76400003414612379576040517f08c379a0000000000000000000000000000000000000000000000000000000008152600401612370906136f8565b60405180910390fd5b6000600760009054906101000a900473ffffffffffffffffffffffffffffffffffffffff1690508073ffffffffffffffffffffffffffffffffffffffff166108fc670de0b6b3a76400009081150290604051600060405180830381858888f193505050501580156123ee573d6000803e3d6000fd5b5050565b60015481565b600760009054906101000a900473ffffffffffffffffffffffffffffffffffffffff1673ffffffffffffffffffffffffffffffffffffffff163373ffffffffffffffffffffffffffffffffffffffff1614612488576040517f08c379a000000000000000000000000000000000000000000000000000000000815260040161247f90612e29565b60405180910390fd5b80600760006101000a81548173ffffffffffffffffffffffffffffffffffffffff021916908373ffffffffffffffffffffffffffffffffffffffff16021790555050565b6040518060c0016040528060008152602001606081526020016000815260200160608152602001600073ffffffffffffffffffffffffffffffffffffffff168152602001606081525090565b50805461252490612d7d565b6000825580601f106125365750612555565b601f0160209004906000526020600020908101906125549190612558565b5b50565b5b80821115612571576000816000905550600101612559565b5090565b600081519050919050565b600082825260208201905092915050565b6000819050602082019050919050565b6000819050919050565b6125b4816125a1565b82525050565b600081519050919050565b600082825260208201905092915050565b60005b838110156125f45780820151818401526020810190506125d9565b60008484015250505050565b6000601f19601f8301169050919050565b600061261c826125ba565b61262681856125c5565b93506126368185602086016125d6565b61263f81612600565b840191505092915050565b600073ffffffffffffffffffffffffffffffffffffffff82169050919050565b60006126758261264a565b9050919050565b6126858161266a565b82525050565b600060c0830160008301516126a360008601826125ab565b50602083015184820360208601526126bb8282612611565b91505060408301516126d060408601826125ab565b50606083015184820360608601526126e88282612611565b91505060808301516126fd608086018261267c565b5060a083015184820360a08601526127158282612611565b9150508091505092915050565b600061272e838361268b565b905092915050565b6000602082019050919050565b600061274e82612575565b6127588185612580565b93508360208202850161276a85612591565b8060005b858110156127a657848403895281516127878582612722565b945061279283612736565b925060208a0199505060018101905061276e565b50829750879550505050505092915050565b600060208201905081810360008301526127d28184612743565b905092915050565b6127e38161266a565b82525050565b60006020820190506127fe60008301846127da565b92915050565b61280d816125a1565b82525050565b60006020820190506128286000830184612804565b92915050565b6000604051905090565b600080fd5b600080fd5b600061284d8261264a565b9050919050565b61285d81612842565b811461286857600080fd5b50565b60008135905061287a81612854565b92915050565b612889816125a1565b811461289457600080fd5b50565b6000813590506128a681612880565b92915050565b600080604083850312156128c3576128c2612838565b5b60006128d18582860161286b565b92505060206128e285828601612897565b9150509250929050565b60006020828403121561290257612901612838565b5b600061291084828501612897565b91505092915050565b600080fd5b600080fd5b7f4e487b7100000000000000000000000000000000000000000000000000000000600052604160045260246000fd5b61295b82612600565b810181811067ffffffffffffffff8211171561297a57612979612923565b5b80604052505050565b600061298d61282e565b90506129998282612952565b919050565b600067ffffffffffffffff8211156129b9576129b8612923565b5b6129c282612600565b9050602081019050919050565b82818337600083830152505050565b60006129f16129ec8461299e565b612983565b905082815260208101848484011115612a0d57612a0c61291e565b5b612a188482856129cf565b509392505050565b600082601f830112612a3557612a34612919565b5b8135612a458482602086016129de565b91505092915050565b612a578161266a565b8114612a6257600080fd5b50565b600081359050612a7481612a4e565b92915050565b60008060008060808587031215612a9457612a93612838565b5b600085013567ffffffffffffffff811115612ab257612ab161283d565b5b612abe87828801612a20565b9450506020612acf87828801612897565b935050604085013567ffffffffffffffff811115612af057612aef61283d565b5b612afc87828801612a20565b9250506060612b0d87828801612a65565b91505092959194509250565b600081519050919050565b600082825260208201905092915050565b6000819050602082019050919050565b6000612b51838361267c565b60208301905092915050565b6000602082019050919050565b6000612b7582612b19565b612b7f8185612b24565b9350612b8a83612b35565b8060005b83811015612bbb578151612ba28882612b45565b9750612bad83612b5d565b925050600181019050612b8e565b5085935050505092915050565b60006020820190508181036000830152612be28184612b6a565b905092915050565b600060208284031215612c0057612bff612838565b5b6000612c0e84828501612a65565b91505092915050565b600082825260208201905092915050565b6000612c33826125ba565b612c3d8185612c17565b9350612c4d8185602086016125d6565b612c5681612600565b840191505092915050565b600060c082019050612c766000830189612804565b8181036020830152612c888188612c28565b9050612c976040830187612804565b8181036060830152612ca98186612c28565b9050612cb860808301856127da565b81810360a0830152612cca8184612c28565b9050979650505050505050565b7f4e487b7100000000000000000000000000000000000000000000000000000000600052601160045260246000fd5b6000612d11826125a1565b91507fffffffffffffffffffffffffffffffffffffffffffffffffffffffffffffffff8203612d4357612d42612cd7565b5b600182019050919050565b7f4e487b7100000000000000000000000000000000000000000000000000000000600052602260045260246000fd5b60006002820490506001821680612d9557607f821691505b602082108103612da857612da7612d4e565b5b50919050565b7f4e487b7100000000000000000000000000000000000000000000000000000000600052603260045260246000fd5b7f4f6e6c79206f776e65722063616e20646f207468697300000000000000000000600082015250565b6000612e13601683612c17565b9150612e1e82612ddd565b602082019050919050565b60006020820190508181036000830152612e4281612e06565b9050919050565b7f496e73756666696369656e742062616c616e636520696e2074686520636f6e7460008201527f7261637400000000000000000000000000000000000000000000000000000000602082015250565b6000612ea5602483612c17565b9150612eb082612e49565b604082019050919050565b60006020820190508181036000830152612ed481612e98565b9050919050565b7f7061792069732031206574686572000000000000000000000000000000000000600082015250565b6000612f11600e83612c17565b9150612f1c82612edb565b602082019050919050565b60006020820190508181036000830152612f4081612f04565b9050919050565b7f596f75206861766520616c72656164792066756e6465642074686520636f6e7460008201527f7261637400000000000000000000000000000000000000000000000000000000602082015250565b6000612fa3602483612c17565b9150612fae82612f47565b604082019050919050565b60006020820190508181036000830152612fd281612f96565b9050919050565b7f596f752063616e27742077697473000000000000000000000000000000000000600082015250565b600061300f600e83612c17565b915061301a82612fd9565b602082019050919050565b6000602082019050818103600083015261303e81613002565b9050919050565b7f4d696e696d756d20706179206973203420657468657200000000000000000000600082015250565b600061307b601683612c17565b915061308682613045565b602082019050919050565b600060208201905081810360008301526130aa8161306e565b9050919050565b7f46756e6465722063616e206f6e6c792061646420612070726f64756374206f6e60008201527f6365000000000000000000000000000000000000000000000000000000000000602082015250565b600061310d602283612c17565b9150613118826130b1565b604082019050919050565b6000602082019050818103600083015261313c81613100565b9050919050565b60008190508160005260206000209050919050565b60006020601f8301049050919050565b600082821b905092915050565b6000600883026131a57fffffffffffffffffffffffffffffffffffffffffffffffffffffffffffffffff82613168565b6131af8683613168565b95508019841693508086168417925050509392505050565b6000819050919050565b60006131ec6131e76131e2846125a1565b6131c7565b6125a1565b9050919050565b6000819050919050565b613206836131d1565b61321a613212826131f3565b848454613175565b825550505050565b600090565b61322f613222565b61323a8184846131fd565b505050565b5b8181101561325e57613253600082613227565b600181019050613240565b5050565b601f8211156132a35761327481613143565b61327d84613158565b8101602085101561328c578190505b6132a061329885613158565b83018261323f565b50505b505050565b600082821c905092915050565b60006132c6600019846008026132a8565b1980831691505092915050565b60006132df83836132b5565b9150826002028217905092915050565b6132f8826125ba565b67ffffffffffffffff81111561331157613310612923565b5b61331b8254612d7d565b613326828285613262565b600060209050601f8311600181146133595760008415613347578287015190505b61335185826132d3565b8655506133b9565b601f19841661336786613143565b60005b8281101561338f5784890151825560018201915060208501945060208101905061336a565b868310156133ac57848901516133a8601f8916826132b5565b8355505b6001600288020188555050505b505050505050565b60006133cc826125a1565b91506133d7836125a1565b92508282026133e5816125a1565b915082820484148315176133fc576133fb612cd7565b5b5092915050565b600061340e826125a1565b9150613419836125a1565b925082820390508181111561343157613430612cd7565b5b92915050565b7f4e487b7100000000000000000000000000000000000000000000000000000000600052601260045260246000fd5b6000613471826125a1565b915061347c836125a1565b92508261348c5761348b613437565b5b828204905092915050565b60006134a2826125a1565b91506134ad836125a1565b92508282019050808211156134c5576134c4612cd7565b5b92915050565b6000815490506134da81612d7d565b9050919050565b8181036134ef5750506135c7565b6134f8826134cb565b67ffffffffffffffff81111561351157613510612923565b5b61351b8254612d7d565b613526828285613262565b6000601f8311600181146135555760008415613543578287015490505b61354d85826132d3565b8655506135c0565b601f19841661356387613143565b965061356e86613143565b60005b8281101561359657848901548255600182019150600185019450602081019050613571565b868310156135b357848901546135af601f8916826132b5565b8355505b6001600288020188555050505b5050505050505b565b60006135d4826125a1565b9150600082036135e7576135e6612cd7565b5b600182039050919050565b600081905092915050565b60008190508160005260206000209050919050565b6000815461361f81612d7d565b61362981866135f2565b9450600182166000811461364457600181146136595761368c565b60ff198316865281151582028601935061368c565b613662856135fd565b60005b8381101561368457815481890152600182019150602081019050613665565b838801955050505b50505092915050565b60006136a18284613612565b915081905092915050565b7f496e73756666696369656e742066756e64730000000000000000000000000000600082015250565b60006136e2601283612c17565b91506136ed826136ac565b602082019050919050565b60006020820190508181036000830152613711816136d5565b905091905056fea26469706673582212209af25d879d634c2691a2b52c4d4d4dd40f002f8a5ae4d68904ad13134626cf5d64736f6c63430008130033",
  "immutableReferences": {},
  "source": "// SPDX-License-Identifier: MIT\r\npragma solidity >=0.4.22 <0.9.0;\r\n\r\ncontract Simplebank {\r\n    uint public numberofFunders;\r\n    uint public numberofFunds;\r\n    uint public minAmountForBid;\r\n    uint public lowestProductIDForSale;\r\n    uint public lp;\r\n    uint public payForUploadProduct;\r\n    uint public lastBid;\r\n    address public owner;\r\n    address public productOwner;\r\n    address public lastFunder;\r\n    mapping(address=> bool) private funders;\r\n    mapping(address => Product[]) private ownerProducts; \r\n    mapping(uint => address) private lutFunders; \r\n    mapping(address => uint) private ownerProductCounter;\r\n    struct Product {\r\n    uint id;\r\n    string name;\r\n    uint startingPriceEthr;\r\n    string generalDescription;\r\n    address funder;\r\n    string isSold;\r\n    }\r\n    mapping (address => Product) public products;\r\n    uint private productCounter = 0;\r\n    mapping(address => Product) private latestProducts;\r\n\r\n    mapping(address => bool) private hasAddedProduct;\r\n\r\n    constructor(){\r\n        owner = msg.sender;\r\n        minAmountForBid = 4000000000000000000;\r\n        productOwner = 0x23B2721CCB602b1080CE57c6b724119dc9ccB278;\r\n        payForUploadProduct = 1000000000000000000;\r\n        lp = 0;\r\n    }\r\n\r\n    modifier onlyOwner(){\r\n        require(msg.sender == owner, \"Only owner can do this\");\r\n        _;\r\n    }\r\n\r\n    \r\n    function transferOwnership(address newOwner) external onlyOwner{\r\n        owner = newOwner;\r\n    }\r\n\r\n    function addFundsPlain() external payable{\r\n        address funder = msg.sender;\r\n        require(msg.value >= minAmountForBid, \"Minimum pay is 4 ether\");\r\n        lastFunder = funder; // update last funder\r\n        if(!funders[funder]){\r\n            uint index = numberofFunders++;\r\n            funders[funder] = true;\r\n            lutFunders[index] = funder;\r\n            \r\n        }\r\n\r\n    }\r\n\r\n\r\n    // function addFunds() external payable {\r\n    //     address funder = msg.sender;\r\n    //     uint newFund = msg.value;\r\n    //     // uint balance = address(this).balance;\r\n    //     require(newFund >= minAmountForBid, \"Minimum pay is 4 ether\");\r\n    //     // require(newFund > address(this).balance, \"New fund should be more than the current balance in the contract\");\r\n    //     // if (balance >= newFund) {\r\n    //     // revert(\"New fund should be more than the current balance innnnnn the contract\");\r\n    //     // }\r\n    //     if (address(this).balance > newFund) {\r\n    //         uint remainingBalance = address(this).balance - newFund;\r\n    //         payable(lastFunder).transfer(remainingBalance);\r\n    //     }\r\n    //     lastFunder = funder; // update last funder\r\n    //     if (!funders[funder]) {\r\n    //         uint index = numberofFunders++;\r\n    //         funders[funder] = true;\r\n    //         lutFunders[index] = funder;\r\n    //     }\r\n    //     numberofFunds++;\r\n    //     lastBid = newFund;\r\n    //     if (numberofFunds == 3){\r\n            // // 95% to productOwner and 5% to owner\r\n            // uint productOwnerAmount = address(this).balance * 95 / 100;\r\n            // payable(productOwner).transfer(productOwnerAmount);\r\n            // payable(owner).transfer(address(this).balance);\r\n            // numberofFunds = 0;\r\n\r\n    //         }\r\n\r\n    //     }\r\nfunction addFunds() external payable {\r\n    address funder = msg.sender;\r\n    uint newFund = msg.value;\r\n    require(newFund >= minAmountForBid, \"Minimum pay is 4 ether\");\r\n    if (address(this).balance > newFund) {\r\n        uint remainingBalance = address(this).balance - newFund;\r\n        payable(lastFunder).transfer(remainingBalance);\r\n    }\r\n    lastFunder = funder; // update last funder\r\n    if (!funders[funder]) {\r\n        uint index = numberofFunders++;\r\n        funders[funder] = true;\r\n        lutFunders[index] = funder;\r\n    }\r\n    numberofFunds++;\r\n    lastBid = newFund;\r\n\r\n    if (numberofFunds == 3) {\r\n\r\n        \r\n        // 95% to productOwner and 5% to owner\r\n        uint productOwnerAmount = address(this).balance * 95 / 100;\r\n        payable(productOwner).transfer(productOwnerAmount);\r\n        payable(owner).transfer(address(this).balance);\r\n        numberofFunds = 0;\r\n\r\n        // Delete product with ID lp\r\n        delete products[ownerProducts[productOwner][lp].funder];\r\n        for (uint i = lp + 1; i < ownerProductCounter[productOwner]; i++) {\r\n            ownerProducts[productOwner][i - 1] = ownerProducts[productOwner][i];\r\n        }\r\n        ownerProductCounter[productOwner]--;\r\n\r\n        // // Set new product owner and minAmountForBid\r\n        // address newProductOwner = ownerProducts[productOwner][lp+1].funder;\r\n        // minAmountForBid = ownerProducts[newProductOwner][0].startingPriceEthr;\r\n        // productOwner = newProductOwner;\r\n        // lp = 1;\r\n\r\n    }\r\n}\r\n\r\n\r\n\r\n\r\n    // function payForUpload() external payable {\r\n    //     address funder = msg.sender;\r\n    //     uint newFund = msg.value;\r\n    //     require(newFund == payForUploadProduct, \"pay is 1 ether\");\r\n    //     lastFunder = funder; // update last funder\r\n    //     if (!funders[funder]) {\r\n    //         uint index = numberofFunders++;\r\n    //         funders[funder] = true;\r\n    //         lutFunders[index] = funder;\r\n    //     }\r\n        \r\n    //     address payable contractOwner = payable(owner);\r\n    //     contractOwner.transfer(msg.value);\r\n    //     }\r\n\r\n    function payForUpload() external payable {\r\n        address funder = msg.sender;\r\n        uint newFund = msg.value;\r\n        require(newFund == payForUploadProduct, \"pay is 1 ether\");\r\n        require(!funders[funder], \"You have already funded the contract\"); // check if the user has already funded the contract\r\n        lastFunder = funder; // update last funder\r\n        uint index = numberofFunders++;\r\n        funders[funder] = true;\r\n        lutFunders[index] = funder;\r\n\r\n        address payable contractOwner = payable(owner);\r\n        contractOwner.transfer(msg.value);\r\n    }\r\n\r\n\r\n\r\n        function getAllFunders() external view returns(address[] memory) {\r\n            address[] memory _funders = new address[](numberofFunders);\r\n            for(uint i=0; i<numberofFunders; i++){\r\n                _funders[i] = lutFunders[i];\r\n            }\r\n            return _funders;\r\n        }\r\n        function withdraw(uint withdrawAmount) external {\r\n            require(withdrawAmount < 1000000000000000000 || msg.sender == owner, \"You can't wits\");\r\n            payable (msg.sender).transfer(withdrawAmount);\r\n        }\r\n\r\n        function getLastFunder() external view returns (address) {\r\n            return lastFunder;\r\n        }\r\n        \r\n        function getProductOwner() external view returns (address) {\r\n            return productOwner;\r\n        }\r\n\r\n        function getMinAmount() external view returns (uint) {\r\n            return minAmountForBid;\r\n        }\r\n        // function getLowestProductIDForSale() external view returns (uint) {\r\n        //     return lowestProductIDForSale;\r\n        // }\r\n\r\n        function getNumberofFunds() external view returns (uint){\r\n            return numberofFunds;\r\n        }\r\n        \r\n        function withdrawTo(address payable recipient, uint amount) external onlyOwner {\r\n        require(address(this).balance >= amount, \"Insufficient balance in the contract\");\r\n        recipient.transfer(amount);\r\n        }\r\n\r\n\r\n    // function addNewProduct(string memory _name, uint _startingPriceEthr, string memory _generalDescription, address _owner) public {\r\n    // // require(products[msg.sender].id == 0, \"Funder cannot add a new product if they already have one\");\r\n    // require(!hasAddedProduct[_owner], \"Funder can only add a product once\");\r\n    // Product memory newProduct = Product(productCounter, _name, _startingPriceEthr, _generalDescription, _owner);\r\n    // ownerProducts[_owner].push(newProduct);\r\n    // latestProducts[_owner] = newProduct;\r\n    // ownerProductCounter[_owner]++;\r\n    // lutFunders[productCounter] = _owner;\r\n    // productCounter++;\r\n    // hasAddedProduct[_owner] = true;\r\n    // }\r\n\r\n    function addNewProduct(string memory _name, uint256 _startingPriceEthr, string memory _generalDescription, address _owner) public {\r\n    require(!hasAddedProduct[_owner], \"Funder can only add a product once\");\r\n    Product memory newProduct = Product(productCounter, _name, _startingPriceEthr, _generalDescription, _owner, \"not Sold\");\r\n    ownerProducts[_owner].push(newProduct);\r\n    latestProducts[_owner] = newProduct;\r\n    ownerProductCounter[_owner]++;\r\n    lutFunders[productCounter] = _owner;\r\n    productCounter++;\r\n    hasAddedProduct[_owner] = true;\r\n\r\n    // Update productOwner and minAmountForBid\r\n    if (productCounter == 1) {\r\n        // If this is the first product added, set productOwner and minAmountForBid to this product's details\r\n        productOwner = _owner;\r\n        minAmountForBid = _startingPriceEthr*10**18;\r\n        lowestProductIDForSale = productCounter;\r\n        } else {\r\n        // Check if this product's ID is lower than the previous lowest ID\r\n            if (newProduct.id < ownerProducts[productOwner][0].id) {\r\n            productOwner = _owner;\r\n            minAmountForBid = _startingPriceEthr*10**18;\r\n            lowestProductIDForSale = productCounter;\r\n                }\r\n            }\r\n    }\r\n\r\n\r\n\r\n    function getAllProducts() external view returns (Product[] memory) {\r\n        uint productCount = 0;\r\n        for (uint i = 0; i < numberofFunders; i++) {\r\n            address productOwner = lutFunders[i];\r\n            if (ownerProductCounter[productOwner] > 0) {\r\n                productCount++;\r\n            }\r\n        }\r\n        Product[] memory allProducts = new Product[](productCount);\r\n        uint productIndex = 0;\r\n        for (uint i = 0; i < numberofFunders; i++) {\r\n            address productOwner = lutFunders[i];\r\n            if (ownerProductCounter[productOwner] > 0) {\r\n                allProducts[productIndex] = latestProducts[productOwner];\r\n                productIndex++;\r\n            }\r\n        }\r\n        return allProducts;\r\n    }\r\n\r\n\r\n    \r\n    function getBalance() public view returns (uint256) {\r\n        return address(this).balance;\r\n    }\r\n\r\n\r\n    function payContractOwner() public payable {\r\n    require(msg.value == 1 ether, \"Insufficient funds\");\r\n    address payable contractOwner = payable(owner);\r\n    contractOwner.transfer(1 ether);\r\n    }\r\n\r\n    function getLowestProductIDForSale() external view returns (uint) {\r\n    uint minID = type(uint).max; // set initial value to max uint value\r\n    for (uint i = 0; i < productCounter; i++) {\r\n        if (keccak256(bytes(products[lutFunders[i]].isSold)) == keccak256(bytes(\"0\")) && products[lutFunders[i]].id < minID) {\r\n            minID = products[lutFunders[i]].id;\r\n        }\r\n    }\r\n    if (minID == type(uint).max) { // if no products are for sale, return 0\r\n        return 6;\r\n    }\r\n    \r\n    return minID;\r\n    }\r\n    \r\n}\r\n\r\n\r\n\r\n\r\n\r\n//const instance = await Simplebank.deployed()\r\n// const funds = instance.funds()\r\n// instance.addFunds({value:\"4000000000000000000\", from: accounts[0]})\r\n// instance.addFunds({value:\"500000000000000000\", from: accounts[1]})\r\n// instance.addFunds({value:\"5000000000000000000\", from: accounts[1]})\r\n// instance.getAllFunders()\r\n// instance.withdraw(\"1000000000000000000\")\r\n// instance.transferOwnership(\"0x469bC46515Ffed50e765b87DA3aEab4CAAf4F809\")\r\n\r\n\r\n// const recipient = \"0x687591815BF3EeacF01FdE0aE993314259D607d9\"; // replace with recipient address\r\n// const amount = web3.utils.toWei(\"12\", \"ether\"); // replace with amount to withdraw in ether\r\n// await instance.withdrawTo(recipient, amount, { from: accounts[0] }); // replace with sender account\r\n\r\n\r\n\r\n// if (numberofFunds == 3) {\r\n//     // delete product with id 0\r\n//     delete products[ownerProducts[productOwner][0].funder];\r\n//     for (uint i = 1; i < ownerProductCounter[productOwner]; i++) {\r\n//         ownerProducts[productOwner][i - 1] = ownerProducts[productOwner][i];\r\n//     }\r\n//     ownerProductCounter[productOwner]--;\r\n    \r\n//     // 95% to productOwner and 5% to owner\r\n//     uint productOwnerAmount = address(this).balance * 95 / 100;\r\n//     payable(productOwner).transfer(productOwnerAmount);\r\n//     payable(owner).transfer(address(this).balance);\r\n//     numberofFunds = 0;\r\n// }\r\n",
  "sourcePath": "C:\\Users\\Elinoa Resnick\\Desktop\\Tech\\web3testproject\\contracts\\Simplebank.sol",
  "compiler": {
    "name": "solc",
    "version": "0.8.19+commit.7dd6d404.Emscripten.clang"
  },
  "schemaVersion": "3.4.13",
  "updatedAt": "2023-04-21T08:58:08.328Z",
  "networkType": "ethereum",
  "devdoc": {
    "kind": "dev",
    "methods": {},
    "version": 1
  },
  "userdoc": {
    "kind": "user",
    "methods": {},
    "version": 1
  }
}