{
  "contractName": "Simplebank",
  "abi": [
    {
      "inputs": [],
      "stateMutability": "nonpayable",
      "type": "constructor"
    },
    {
      "inputs": [],
      "name": "lastBid",
      "outputs": [
        {
          "internalType": "uint256",
          "name": "",
          "type": "uint256"
        }
      ],
      "stateMutability": "view",
      "type": "function",
      "constant": true
    },
    {
      "inputs": [],
      "name": "lastFunder",
      "outputs": [
        {
          "internalType": "address",
          "name": "",
          "type": "address"
        }
      ],
      "stateMutability": "view",
      "type": "function",
      "constant": true
    },
    {
      "inputs": [],
      "name": "minAmountForBid",
      "outputs": [
        {
          "internalType": "uint256",
          "name": "",
          "type": "uint256"
        }
      ],
      "stateMutability": "view",
      "type": "function",
      "constant": true
    },
    {
      "inputs": [],
      "name": "numberofFunders",
      "outputs": [
        {
          "internalType": "uint256",
          "name": "",
          "type": "uint256"
        }
      ],
      "stateMutability": "view",
      "type": "function",
      "constant": true
    },
    {
      "inputs": [],
      "name": "numberofFunds",
      "outputs": [
        {
          "internalType": "uint256",
          "name": "",
          "type": "uint256"
        }
      ],
      "stateMutability": "view",
      "type": "function",
      "constant": true
    },
    {
      "inputs": [],
      "name": "owner",
      "outputs": [
        {
          "internalType": "address",
          "name": "",
          "type": "address"
        }
      ],
      "stateMutability": "view",
      "type": "function",
      "constant": true
    },
    {
      "inputs": [],
      "name": "productOwner",
      "outputs": [
        {
          "internalType": "address",
          "name": "",
          "type": "address"
        }
      ],
      "stateMutability": "view",
      "type": "function",
      "constant": true
    },
    {
      "inputs": [
        {
          "internalType": "address",
          "name": "",
          "type": "address"
        }
      ],
      "name": "products",
      "outputs": [
        {
          "internalType": "string",
          "name": "name",
          "type": "string"
        },
        {
          "internalType": "uint256",
          "name": "startingPriceWei",
          "type": "uint256"
        },
        {
          "internalType": "string",
          "name": "generalDescription",
          "type": "string"
        }
      ],
      "stateMutability": "view",
      "type": "function",
      "constant": true
    },
    {
      "inputs": [
        {
          "internalType": "address",
          "name": "newOwner",
          "type": "address"
        }
      ],
      "name": "transferOwnership",
      "outputs": [],
      "stateMutability": "nonpayable",
      "type": "function"
    },
    {
      "inputs": [],
      "name": "addFundsPlain",
      "outputs": [],
      "stateMutability": "payable",
      "type": "function",
      "payable": true
    },
    {
      "inputs": [],
      "name": "addFunds",
      "outputs": [],
      "stateMutability": "payable",
      "type": "function",
      "payable": true
    },
    {
      "inputs": [],
      "name": "getAllFunders",
      "outputs": [
        {
          "internalType": "address[]",
          "name": "",
          "type": "address[]"
        }
      ],
      "stateMutability": "view",
      "type": "function",
      "constant": true
    },
    {
      "inputs": [
        {
          "internalType": "uint256",
          "name": "withdrawAmount",
          "type": "uint256"
        }
      ],
      "name": "withdraw",
      "outputs": [],
      "stateMutability": "nonpayable",
      "type": "function"
    },
    {
      "inputs": [],
      "name": "getLastFunder",
      "outputs": [
        {
          "internalType": "address",
          "name": "",
          "type": "address"
        }
      ],
      "stateMutability": "view",
      "type": "function",
      "constant": true
    },
    {
      "inputs": [],
      "name": "getMinAmount",
      "outputs": [
        {
          "internalType": "uint256",
          "name": "",
          "type": "uint256"
        }
      ],
      "stateMutability": "view",
      "type": "function",
      "constant": true
    },
    {
      "inputs": [],
      "name": "getNumberofFunds",
      "outputs": [
        {
          "internalType": "uint256",
          "name": "",
          "type": "uint256"
        }
      ],
      "stateMutability": "view",
      "type": "function",
      "constant": true
    },
    {
      "inputs": [
        {
          "internalType": "address payable",
          "name": "recipient",
          "type": "address"
        },
        {
          "internalType": "uint256",
          "name": "amount",
          "type": "uint256"
        }
      ],
      "name": "withdrawTo",
      "outputs": [],
      "stateMutability": "nonpayable",
      "type": "function"
    },
    {
      "inputs": [
        {
          "internalType": "string",
          "name": "_name",
          "type": "string"
        },
        {
          "internalType": "uint256",
          "name": "_startingPriceWei",
          "type": "uint256"
        },
        {
          "internalType": "string",
          "name": "_generalDescription",
          "type": "string"
        }
      ],
      "name": "addNewProduct",
      "outputs": [],
      "stateMutability": "nonpayable",
      "type": "function"
    },
    {
      "inputs": [],
      "name": "getAllProducts",
      "outputs": [
        {
          "components": [
            {
              "internalType": "string",
              "name": "name",
              "type": "string"
            },
            {
              "internalType": "uint256",
              "name": "startingPriceWei",
              "type": "uint256"
            },
            {
              "internalType": "string",
              "name": "generalDescription",
              "type": "string"
            }
          ],
          "internalType": "struct Simplebank.Product[]",
          "name": "",
          "type": "tuple[]"
        }
      ],
      "stateMutability": "view",
      "type": "function",
      "constant": true
    },
    {
      "inputs": [],
      "name": "getBalance",
      "outputs": [
        {
          "internalType": "uint256",
          "name": "",
          "type": "uint256"
        }
      ],
      "stateMutability": "view",
      "type": "function",
      "constant": true
    }
  ],
  "bytecode": "0x608060405234801561001057600080fd5b5033600460006101000a81548173ffffffffffffffffffffffffffffffffffffffff021916908373ffffffffffffffffffffffffffffffffffffffff160217905550673782dace9d9000006002819055507323b2721ccb602b1080ce57c6b724119dc9ccb278600560006101000a81548173ffffffffffffffffffffffffffffffffffffffff021916908373ffffffffffffffffffffffffffffffffffffffff16021790555061209b806100c56000396000f3fe60806040526004361061011f5760003560e01c806377eaf884116100a0578063b078b8f011610064578063b078b8f014610375578063cfc7e2da146103a0578063d77a80a8146103cb578063ec601930146103f6578063f2fde38b146104215761011f565b806377eaf884146102ab578063793a8e71146102d65780638da5cb5b146103155780639209bb8814610340578063a26759cb1461036b5761011f565b80632e1a7d4d116100e75780632e1a7d4d146101f757806330e88bf81461022057806352762a901461022a5780635e3d3957146102555780636fbbb55d146102805761011f565b806302ee3a52146101245780630ba002e01461014f57806312065fe01461017a5780631e4e0cc8146101a5578063205c2878146101ce575b600080fd5b34801561013057600080fd5b5061013961044a565b604051610146919061151a565b60405180910390f35b34801561015b57600080fd5b506101646107c3565b604051610171919061157d565b60405180910390f35b34801561018657600080fd5b5061018f6107ed565b60405161019c91906115a7565b60405180910390f35b3480156101b157600080fd5b506101cc60048036038101906101c79190611737565b6107f5565b005b3480156101da57600080fd5b506101f560048036038101906101f09190611800565b610893565b005b34801561020357600080fd5b5061021e60048036038101906102199190611840565b6109b1565b005b610228610a9d565b005b34801561023657600080fd5b5061023f610c42565b60405161024c91906115a7565b60405180910390f35b34801561026157600080fd5b5061026a610c48565b60405161027791906115a7565b60405180910390f35b34801561028c57600080fd5b50610295610c4e565b6040516102a2919061192b565b60405180910390f35b3480156102b757600080fd5b506102c0610d47565b6040516102cd91906115a7565b60405180910390f35b3480156102e257600080fd5b506102fd60048036038101906102f89190611979565b610d51565b60405161030c939291906119f0565b60405180910390f35b34801561032157600080fd5b5061032a610e8b565b604051610337919061157d565b60405180910390f35b34801561034c57600080fd5b50610355610eb1565b604051610362919061157d565b60405180910390f35b610373610ed7565b005b34801561038157600080fd5b5061038a611227565b60405161039791906115a7565b60405180910390f35b3480156103ac57600080fd5b506103b561122d565b6040516103c291906115a7565b60405180910390f35b3480156103d757600080fd5b506103e0611237565b6040516103ed919061157d565b60405180910390f35b34801561040257600080fd5b5061040b61125d565b60405161041891906115a7565b60405180910390f35b34801561042d57600080fd5b5061044860048036038101906104439190611979565b611263565b005b60606000805b60005481101561050b5760006008600083815260200190815260200160002060009054906101000a900473ffffffffffffffffffffffffffffffffffffffff1690506000600960008373ffffffffffffffffffffffffffffffffffffffff1673ffffffffffffffffffffffffffffffffffffffff16815260200190815260200160002060000180546104e190611a64565b9050146104f75782806104f390611ac4565b9350505b50808061050390611ac4565b915050610450565b5060008167ffffffffffffffff811115610528576105276115e0565b5b60405190808252806020026020018201604052801561056157816020015b61054e611337565b8152602001906001900390816105465790505b5090506000805b6000548110156107b95760006008600083815260200190815260200160002060009054906101000a900473ffffffffffffffffffffffffffffffffffffffff1690506000600960008373ffffffffffffffffffffffffffffffffffffffff1673ffffffffffffffffffffffffffffffffffffffff16815260200190815260200160002060000180546105f990611a64565b9050146107a557600960008273ffffffffffffffffffffffffffffffffffffffff1673ffffffffffffffffffffffffffffffffffffffff16815260200190815260200160002060405180606001604052908160008201805461065a90611a64565b80601f016020809104026020016040519081016040528092919081815260200182805461068690611a64565b80156106d35780601f106106a8576101008083540402835291602001916106d3565b820191906000526020600020905b8154815290600101906020018083116106b657829003601f168201915b50505050508152602001600182015481526020016002820180546106f690611a64565b80601f016020809104026020016040519081016040528092919081815260200182805461072290611a64565b801561076f5780601f106107445761010080835404028352916020019161076f565b820191906000526020600020905b81548152906001019060200180831161075257829003601f168201915b50505050508152505084848151811061078b5761078a611b0c565b5b602002602001018190525082806107a190611ac4565b9350505b5080806107b190611ac4565b915050610568565b5081935050505090565b6000600660009054906101000a900473ffffffffffffffffffffffffffffffffffffffff16905090565b600047905090565b6000604051806060016040528085815260200184815260200183815250905080600960003373ffffffffffffffffffffffffffffffffffffffff1673ffffffffffffffffffffffffffffffffffffffff16815260200190815260200160002060008201518160000190816108699190611ce7565b506020820151816001015560408201518160020190816108899190611ce7565b5090505050505050565b600460009054906101000a900473ffffffffffffffffffffffffffffffffffffffff1673ffffffffffffffffffffffffffffffffffffffff163373ffffffffffffffffffffffffffffffffffffffff1614610923576040517f08c379a000000000000000000000000000000000000000000000000000000000815260040161091a90611e05565b60405180910390fd5b80471015610966576040517f08c379a000000000000000000000000000000000000000000000000000000000815260040161095d90611e97565b60405180910390fd5b8173ffffffffffffffffffffffffffffffffffffffff166108fc829081150290604051600060405180830381858888f193505050501580156109ac573d6000803e3d6000fd5b505050565b670de0b6b3a7640000811080610a145750600460009054906101000a900473ffffffffffffffffffffffffffffffffffffffff1673ffffffffffffffffffffffffffffffffffffffff163373ffffffffffffffffffffffffffffffffffffffff16145b610a53576040517f08c379a0000000000000000000000000000000000000000000000000000000008152600401610a4a90611f03565b60405180910390fd5b3373ffffffffffffffffffffffffffffffffffffffff166108fc829081150290604051600060405180830381858888f19350505050158015610a99573d6000803e3d6000fd5b5050565b6000339050600254341015610ae7576040517f08c379a0000000000000000000000000000000000000000000000000000000008152600401610ade90611f6f565b60405180910390fd5b80600660006101000a81548173ffffffffffffffffffffffffffffffffffffffff021916908373ffffffffffffffffffffffffffffffffffffffff160217905550600760008273ffffffffffffffffffffffffffffffffffffffff1673ffffffffffffffffffffffffffffffffffffffff16815260200190815260200160002060009054906101000a900460ff16610c3f576000806000815480929190610b8d90611ac4565b9190505590506001600760008473ffffffffffffffffffffffffffffffffffffffff1673ffffffffffffffffffffffffffffffffffffffff16815260200190815260200160002060006101000a81548160ff021916908315150217905550816008600083815260200190815260200160002060006101000a81548173ffffffffffffffffffffffffffffffffffffffff021916908373ffffffffffffffffffffffffffffffffffffffff160217905550505b50565b60025481565b60035481565b60606000805467ffffffffffffffff811115610c6d57610c6c6115e0565b5b604051908082528060200260200182016040528015610c9b5781602001602082028036833780820191505090505b50905060005b600054811015610d3f576008600082815260200190815260200160002060009054906101000a900473ffffffffffffffffffffffffffffffffffffffff16828281518110610cf257610cf1611b0c565b5b602002602001019073ffffffffffffffffffffffffffffffffffffffff16908173ffffffffffffffffffffffffffffffffffffffff16815250508080610d3790611ac4565b915050610ca1565b508091505090565b6000600154905090565b6009602052806000526040600020600091509050806000018054610d7490611a64565b80601f0160208091040260200160405190810160405280929190818152602001828054610da090611a64565b8015610ded5780601f10610dc257610100808354040283529160200191610ded565b820191906000526020600020905b815481529060010190602001808311610dd057829003601f168201915b505050505090806001015490806002018054610e0890611a64565b80601f0160208091040260200160405190810160405280929190818152602001828054610e3490611a64565b8015610e815780601f10610e5657610100808354040283529160200191610e81565b820191906000526020600020905b815481529060010190602001808311610e6457829003601f168201915b5050505050905083565b600460009054906101000a900473ffffffffffffffffffffffffffffffffffffffff1681565b600560009054906101000a900473ffffffffffffffffffffffffffffffffffffffff1681565b60003390506000349050600254811015610f26576040517f08c379a0000000000000000000000000000000000000000000000000000000008152600401610f1d90611f6f565b60405180910390fd5b80471115610fa95760008147610f3c9190611f8f565b9050600660009054906101000a900473ffffffffffffffffffffffffffffffffffffffff1673ffffffffffffffffffffffffffffffffffffffff166108fc829081150290604051600060405180830381858888f19350505050158015610fa6573d6000803e3d6000fd5b50505b81600660006101000a81548173ffffffffffffffffffffffffffffffffffffffff021916908373ffffffffffffffffffffffffffffffffffffffff160217905550600760008373ffffffffffffffffffffffffffffffffffffffff1673ffffffffffffffffffffffffffffffffffffffff16815260200190815260200160002060009054906101000a900460ff1661110157600080600081548092919061104f90611ac4565b9190505590506001600760008573ffffffffffffffffffffffffffffffffffffffff1673ffffffffffffffffffffffffffffffffffffffff16815260200190815260200160002060006101000a81548160ff021916908315150217905550826008600083815260200190815260200160002060006101000a81548173ffffffffffffffffffffffffffffffffffffffff021916908373ffffffffffffffffffffffffffffffffffffffff160217905550505b6001600081548092919061111490611ac4565b9190505550806003819055506003600154036112235760006064605f4761113b9190611fc3565b6111459190612034565b9050600560009054906101000a900473ffffffffffffffffffffffffffffffffffffffff1673ffffffffffffffffffffffffffffffffffffffff166108fc829081150290604051600060405180830381858888f193505050501580156111af573d6000803e3d6000fd5b50600460009054906101000a900473ffffffffffffffffffffffffffffffffffffffff1673ffffffffffffffffffffffffffffffffffffffff166108fc479081150290604051600060405180830381858888f19350505050158015611218573d6000803e3d6000fd5b506000600181905550505b5050565b60005481565b6000600254905090565b600660009054906101000a900473ffffffffffffffffffffffffffffffffffffffff1681565b60015481565b600460009054906101000a900473ffffffffffffffffffffffffffffffffffffffff1673ffffffffffffffffffffffffffffffffffffffff163373ffffffffffffffffffffffffffffffffffffffff16146112f3576040517f08c379a00000000000000000000000000000000000000000000000000000000081526004016112ea90611e05565b60405180910390fd5b80600460006101000a81548173ffffffffffffffffffffffffffffffffffffffff021916908373ffffffffffffffffffffffffffffffffffffffff16021790555050565b60405180606001604052806060815260200160008152602001606081525090565b600081519050919050565b600082825260208201905092915050565b6000819050602082019050919050565b600081519050919050565b600082825260208201905092915050565b60005b838110156113be5780820151818401526020810190506113a3565b60008484015250505050565b6000601f19601f8301169050919050565b60006113e682611384565b6113f0818561138f565b93506114008185602086016113a0565b611409816113ca565b840191505092915050565b6000819050919050565b61142781611414565b82525050565b6000606083016000830151848203600086015261144a82826113db565b915050602083015161145f602086018261141e565b506040830151848203604086015261147782826113db565b9150508091505092915050565b6000611490838361142d565b905092915050565b6000602082019050919050565b60006114b082611358565b6114ba8185611363565b9350836020820285016114cc85611374565b8060005b8581101561150857848403895281516114e98582611484565b94506114f483611498565b925060208a019950506001810190506114d0565b50829750879550505050505092915050565b6000602082019050818103600083015261153481846114a5565b905092915050565b600073ffffffffffffffffffffffffffffffffffffffff82169050919050565b60006115678261153c565b9050919050565b6115778161155c565b82525050565b6000602082019050611592600083018461156e565b92915050565b6115a181611414565b82525050565b60006020820190506115bc6000830184611598565b92915050565b6000604051905090565b600080fd5b600080fd5b600080fd5b600080fd5b7f4e487b7100000000000000000000000000000000000000000000000000000000600052604160045260246000fd5b611618826113ca565b810181811067ffffffffffffffff82111715611637576116366115e0565b5b80604052505050565b600061164a6115c2565b9050611656828261160f565b919050565b600067ffffffffffffffff821115611676576116756115e0565b5b61167f826113ca565b9050602081019050919050565b82818337600083830152505050565b60006116ae6116a98461165b565b611640565b9050828152602081018484840111156116ca576116c96115db565b5b6116d584828561168c565b509392505050565b600082601f8301126116f2576116f16115d6565b5b813561170284826020860161169b565b91505092915050565b61171481611414565b811461171f57600080fd5b50565b6000813590506117318161170b565b92915050565b6000806000606084860312156117505761174f6115cc565b5b600084013567ffffffffffffffff81111561176e5761176d6115d1565b5b61177a868287016116dd565b935050602061178b86828701611722565b925050604084013567ffffffffffffffff8111156117ac576117ab6115d1565b5b6117b8868287016116dd565b9150509250925092565b60006117cd8261153c565b9050919050565b6117dd816117c2565b81146117e857600080fd5b50565b6000813590506117fa816117d4565b92915050565b60008060408385031215611817576118166115cc565b5b6000611825858286016117eb565b925050602061183685828601611722565b9150509250929050565b600060208284031215611856576118556115cc565b5b600061186484828501611722565b91505092915050565b600081519050919050565b600082825260208201905092915050565b6000819050602082019050919050565b6118a28161155c565b82525050565b60006118b48383611899565b60208301905092915050565b6000602082019050919050565b60006118d88261186d565b6118e28185611878565b93506118ed83611889565b8060005b8381101561191e57815161190588826118a8565b9750611910836118c0565b9250506001810190506118f1565b5085935050505092915050565b6000602082019050818103600083015261194581846118cd565b905092915050565b6119568161155c565b811461196157600080fd5b50565b6000813590506119738161194d565b92915050565b60006020828403121561198f5761198e6115cc565b5b600061199d84828501611964565b91505092915050565b600082825260208201905092915050565b60006119c282611384565b6119cc81856119a6565b93506119dc8185602086016113a0565b6119e5816113ca565b840191505092915050565b60006060820190508181036000830152611a0a81866119b7565b9050611a196020830185611598565b8181036040830152611a2b81846119b7565b9050949350505050565b7f4e487b7100000000000000000000000000000000000000000000000000000000600052602260045260246000fd5b60006002820490506001821680611a7c57607f821691505b602082108103611a8f57611a8e611a35565b5b50919050565b7f4e487b7100000000000000000000000000000000000000000000000000000000600052601160045260246000fd5b6000611acf82611414565b91507fffffffffffffffffffffffffffffffffffffffffffffffffffffffffffffffff8203611b0157611b00611a95565b5b600182019050919050565b7f4e487b7100000000000000000000000000000000000000000000000000000000600052603260045260246000fd5b60008190508160005260206000209050919050565b60006020601f8301049050919050565b600082821b905092915050565b600060088302611b9d7fffffffffffffffffffffffffffffffffffffffffffffffffffffffffffffffff82611b60565b611ba78683611b60565b95508019841693508086168417925050509392505050565b6000819050919050565b6000611be4611bdf611bda84611414565b611bbf565b611414565b9050919050565b6000819050919050565b611bfe83611bc9565b611c12611c0a82611beb565b848454611b6d565b825550505050565b600090565b611c27611c1a565b611c32818484611bf5565b505050565b5b81811015611c5657611c4b600082611c1f565b600181019050611c38565b5050565b601f821115611c9b57611c6c81611b3b565b611c7584611b50565b81016020851015611c84578190505b611c98611c9085611b50565b830182611c37565b50505b505050565b600082821c905092915050565b6000611cbe60001984600802611ca0565b1980831691505092915050565b6000611cd78383611cad565b9150826002028217905092915050565b611cf082611384565b67ffffffffffffffff811115611d0957611d086115e0565b5b611d138254611a64565b611d1e828285611c5a565b600060209050601f831160018114611d515760008415611d3f578287015190505b611d498582611ccb565b865550611db1565b601f198416611d5f86611b3b565b60005b82811015611d8757848901518255600182019150602085019450602081019050611d62565b86831015611da45784890151611da0601f891682611cad565b8355505b6001600288020188555050505b505050505050565b7f4f6e6c79206f776e65722063616e20646f207468697300000000000000000000600082015250565b6000611def6016836119a6565b9150611dfa82611db9565b602082019050919050565b60006020820190508181036000830152611e1e81611de2565b9050919050565b7f496e73756666696369656e742062616c616e636520696e2074686520636f6e7460008201527f7261637400000000000000000000000000000000000000000000000000000000602082015250565b6000611e816024836119a6565b9150611e8c82611e25565b604082019050919050565b60006020820190508181036000830152611eb081611e74565b9050919050565b7f596f752063616e27742077697473000000000000000000000000000000000000600082015250565b6000611eed600e836119a6565b9150611ef882611eb7565b602082019050919050565b60006020820190508181036000830152611f1c81611ee0565b9050919050565b7f4d696e696d756d20706179206973203420657468657200000000000000000000600082015250565b6000611f596016836119a6565b9150611f6482611f23565b602082019050919050565b60006020820190508181036000830152611f8881611f4c565b9050919050565b6000611f9a82611414565b9150611fa583611414565b9250828203905081811115611fbd57611fbc611a95565b5b92915050565b6000611fce82611414565b9150611fd983611414565b9250828202611fe781611414565b91508282048414831517611ffe57611ffd611a95565b5b5092915050565b7f4e487b7100000000000000000000000000000000000000000000000000000000600052601260045260246000fd5b600061203f82611414565b915061204a83611414565b92508261205a57612059612005565b5b82820490509291505056fea26469706673582212208414f669b5c5cb1ae897904721eb7f7634370cdb7cfe5c6c54e9399327c18ecb64736f6c63430008130033",
  "immutableReferences": {},
  "source": "// SPDX-License-Identifier: MIT\r\npragma solidity >=0.4.22 <0.9.0;\r\n\r\ncontract Simplebank {\r\n    uint public numberofFunders;\r\n    uint public numberofFunds;\r\n    uint public minAmountForBid;\r\n    uint public lastBid;\r\n    address public owner;\r\n    address public productOwner;\r\n    address public lastFunder;\r\n    mapping(address=> bool) private funders;\r\n    mapping(uint => address) private lutFunders;\r\n    struct Product {\r\n    string name;\r\n    uint startingPriceWei;\r\n    string generalDescription;\r\n    }\r\n    mapping (address => Product) public products;\r\n\r\n\r\n\r\n    constructor(){\r\n        owner = msg.sender;\r\n        minAmountForBid = 4000000000000000000;\r\n        productOwner = 0x23B2721CCB602b1080CE57c6b724119dc9ccB278;\r\n    }\r\n\r\n    modifier onlyOwner(){\r\n        require(msg.sender == owner, \"Only owner can do this\");\r\n        _;\r\n    }\r\n\r\n    \r\n    function transferOwnership(address newOwner) external onlyOwner{\r\n        owner = newOwner;\r\n    }\r\n\r\n    function addFundsPlain() external payable{\r\n        address funder = msg.sender;\r\n        require(msg.value >= minAmountForBid, \"Minimum pay is 4 ether\");\r\n        lastFunder = funder; // update last funder\r\n        if(!funders[funder]){\r\n            uint index = numberofFunders++;\r\n            funders[funder] = true;\r\n            lutFunders[index] = funder;\r\n            \r\n        }\r\n\r\n    }\r\n\r\nfunction addFunds() external payable {\r\n    address funder = msg.sender;\r\n    uint newFund = msg.value;\r\n    // uint balance = address(this).balance;\r\n    require(newFund >= minAmountForBid, \"Minimum pay is 4 ether\");\r\n    // require(newFund > address(this).balance, \"New fund should be more than the current balance in the contract\");\r\n    // if (balance >= newFund) {\r\n    // revert(\"New fund should be more than the current balance innnnnn the contract\");\r\n    // }\r\n    if (address(this).balance > newFund) {\r\n        uint remainingBalance = address(this).balance - newFund;\r\n        payable(lastFunder).transfer(remainingBalance);\r\n    }\r\n    lastFunder = funder; // update last funder\r\n    if (!funders[funder]) {\r\n        uint index = numberofFunders++;\r\n        funders[funder] = true;\r\n        lutFunders[index] = funder;\r\n    }\r\n    numberofFunds++;\r\n    lastBid = newFund;\r\n    if (numberofFunds == 3){\r\n        // 95% to productOwner and 5% to owner\r\n        uint productOwnerAmount = address(this).balance * 95 / 100;\r\n        payable(productOwner).transfer(productOwnerAmount);\r\n        payable(owner).transfer(address(this).balance);\r\n        numberofFunds = 0;\r\n    }\r\n\r\n}\r\n\r\n\r\n\r\n  \r\n\r\n    function getAllFunders() external view returns(address[] memory) {\r\n        address[] memory _funders = new address[](numberofFunders);\r\n        for(uint i=0; i<numberofFunders; i++){\r\n            _funders[i] = lutFunders[i];\r\n        }\r\n        return _funders;\r\n    }\r\n    function withdraw(uint withdrawAmount) external {\r\n        require(withdrawAmount < 1000000000000000000 || msg.sender == owner, \"You can't wits\");\r\n        payable (msg.sender).transfer(withdrawAmount);\r\n    }\r\n\r\n    function getLastFunder() external view returns (address) {\r\n        return lastFunder;\r\n    }\r\n\r\n    function getMinAmount() external view returns (uint) {\r\n        return minAmountForBid;\r\n    }\r\n\r\n    function getNumberofFunds() external view returns (uint){\r\n        return numberofFunds;\r\n    }\r\n    \r\n    function withdrawTo(address payable recipient, uint amount) external onlyOwner {\r\n    require(address(this).balance >= amount, \"Insufficient balance in the contract\");\r\n    recipient.transfer(amount);\r\n    }\r\n\r\n    function addNewProduct(string memory _name, uint _startingPriceWei, string memory _generalDescription) public {\r\n    Product memory newProduct = Product(_name, _startingPriceWei, _generalDescription);\r\n    products[msg.sender] = newProduct;\r\n        }\r\n\r\n\r\n    function getAllProducts() external view returns (Product[] memory) {\r\n        uint productCount = 0;\r\n        for (uint i = 0; i < numberofFunders; i++) {\r\n            address productOwnerr = lutFunders[i];\r\n            if (bytes(products[productOwnerr].name).length != 0) {\r\n                productCount++;\r\n            }\r\n        }\r\n        Product[] memory allProducts = new Product[](productCount);\r\n        uint productIndex = 0;\r\n        for (uint i = 0; i < numberofFunders; i++) {\r\n        address productOwner = lutFunders[i];\r\n        if (bytes(products[productOwner].name).length != 0) {\r\n        allProducts[productIndex] = products[productOwner];\r\n        productIndex++;\r\n    }\r\n    }\r\n\r\n        return allProducts;\r\n        }\r\n\r\n        function getBalance() public view returns (uint256) {\r\n        return address(this).balance;\r\n    }\r\n\r\n\r\n    \r\n}\r\n\r\n\r\n\r\n\r\n\r\n//const instance = await Simplebank.deployed()\r\n// const funds = instance.funds()\r\n// instance.addFunds({value:\"4000000000000000000\", from: accounts[0]})\r\n// instance.addFunds({value:\"500000000000000000\", from: accounts[1]})\r\n// instance.addFunds({value:\"5000000000000000000\", from: accounts[1]})\r\n// instance.getAllFunders()\r\n// instance.withdraw(\"1000000000000000000\")\r\n// instance.transferOwnership(\"0x469bC46515Ffed50e765b87DA3aEab4CAAf4F809\")\r\n\r\n\r\n// const recipient = \"0x687591815BF3EeacF01FdE0aE993314259D607d9\"; // replace with recipient address\r\n// const amount = web3.utils.toWei(\"12\", \"ether\"); // replace with amount to withdraw in ether\r\n// await instance.withdrawTo(recipient, amount, { from: accounts[0] }); // replace with sender account\r\n\r\n\r\n",
  "sourcePath": "C:\\Users\\Elinoa Resnick\\Desktop\\Tech\\web3testproject\\contracts\\Simplebank.sol",
  "compiler": {
    "name": "solc",
    "version": "0.8.19+commit.7dd6d404.Emscripten.clang"
  },
  "schemaVersion": "3.4.13",
  "updatedAt": "2023-04-02T13:37:06.423Z",
  "networkType": "ethereum",
  "devdoc": {
    "kind": "dev",
    "methods": {},
    "version": 1
  },
  "userdoc": {
    "kind": "user",
    "methods": {},
    "version": 1
  }
}