{
  "contractName": "Simplebank",
  "abi": [
    {
      "inputs": [],
      "stateMutability": "nonpayable",
      "type": "constructor"
    },
    {
      "inputs": [],
      "name": "lastBid",
      "outputs": [
        {
          "internalType": "uint256",
          "name": "",
          "type": "uint256"
        }
      ],
      "stateMutability": "view",
      "type": "function",
      "constant": true
    },
    {
      "inputs": [],
      "name": "lastFunder",
      "outputs": [
        {
          "internalType": "address",
          "name": "",
          "type": "address"
        }
      ],
      "stateMutability": "view",
      "type": "function",
      "constant": true
    },
    {
      "inputs": [],
      "name": "lowestProductIDForSale",
      "outputs": [
        {
          "internalType": "uint256",
          "name": "",
          "type": "uint256"
        }
      ],
      "stateMutability": "view",
      "type": "function",
      "constant": true
    },
    {
      "inputs": [],
      "name": "minAmountForBid",
      "outputs": [
        {
          "internalType": "uint256",
          "name": "",
          "type": "uint256"
        }
      ],
      "stateMutability": "view",
      "type": "function",
      "constant": true
    },
    {
      "inputs": [],
      "name": "numberofFunders",
      "outputs": [
        {
          "internalType": "uint256",
          "name": "",
          "type": "uint256"
        }
      ],
      "stateMutability": "view",
      "type": "function",
      "constant": true
    },
    {
      "inputs": [],
      "name": "numberofFunds",
      "outputs": [
        {
          "internalType": "uint256",
          "name": "",
          "type": "uint256"
        }
      ],
      "stateMutability": "view",
      "type": "function",
      "constant": true
    },
    {
      "inputs": [],
      "name": "owner",
      "outputs": [
        {
          "internalType": "address",
          "name": "",
          "type": "address"
        }
      ],
      "stateMutability": "view",
      "type": "function",
      "constant": true
    },
    {
      "inputs": [],
      "name": "payForUploadProduct",
      "outputs": [
        {
          "internalType": "uint256",
          "name": "",
          "type": "uint256"
        }
      ],
      "stateMutability": "view",
      "type": "function",
      "constant": true
    },
    {
      "inputs": [],
      "name": "productOwner",
      "outputs": [
        {
          "internalType": "address",
          "name": "",
          "type": "address"
        }
      ],
      "stateMutability": "view",
      "type": "function",
      "constant": true
    },
    {
      "inputs": [
        {
          "internalType": "address",
          "name": "",
          "type": "address"
        }
      ],
      "name": "products",
      "outputs": [
        {
          "internalType": "uint256",
          "name": "id",
          "type": "uint256"
        },
        {
          "internalType": "string",
          "name": "name",
          "type": "string"
        },
        {
          "internalType": "uint256",
          "name": "startingPriceWei",
          "type": "uint256"
        },
        {
          "internalType": "string",
          "name": "generalDescription",
          "type": "string"
        },
        {
          "internalType": "address",
          "name": "funder",
          "type": "address"
        },
        {
          "internalType": "string",
          "name": "isSold",
          "type": "string"
        }
      ],
      "stateMutability": "view",
      "type": "function",
      "constant": true
    },
    {
      "inputs": [
        {
          "internalType": "address",
          "name": "newOwner",
          "type": "address"
        }
      ],
      "name": "transferOwnership",
      "outputs": [],
      "stateMutability": "nonpayable",
      "type": "function"
    },
    {
      "inputs": [],
      "name": "addFundsPlain",
      "outputs": [],
      "stateMutability": "payable",
      "type": "function",
      "payable": true
    },
    {
      "inputs": [],
      "name": "addFunds",
      "outputs": [],
      "stateMutability": "payable",
      "type": "function",
      "payable": true
    },
    {
      "inputs": [],
      "name": "payForUpload",
      "outputs": [],
      "stateMutability": "payable",
      "type": "function",
      "payable": true
    },
    {
      "inputs": [],
      "name": "getAllFunders",
      "outputs": [
        {
          "internalType": "address[]",
          "name": "",
          "type": "address[]"
        }
      ],
      "stateMutability": "view",
      "type": "function",
      "constant": true
    },
    {
      "inputs": [
        {
          "internalType": "uint256",
          "name": "withdrawAmount",
          "type": "uint256"
        }
      ],
      "name": "withdraw",
      "outputs": [],
      "stateMutability": "nonpayable",
      "type": "function"
    },
    {
      "inputs": [],
      "name": "getLastFunder",
      "outputs": [
        {
          "internalType": "address",
          "name": "",
          "type": "address"
        }
      ],
      "stateMutability": "view",
      "type": "function",
      "constant": true
    },
    {
      "inputs": [],
      "name": "getProductOwner",
      "outputs": [
        {
          "internalType": "address",
          "name": "",
          "type": "address"
        }
      ],
      "stateMutability": "view",
      "type": "function",
      "constant": true
    },
    {
      "inputs": [],
      "name": "getMinAmount",
      "outputs": [
        {
          "internalType": "uint256",
          "name": "",
          "type": "uint256"
        }
      ],
      "stateMutability": "view",
      "type": "function",
      "constant": true
    },
    {
      "inputs": [],
      "name": "getNumberofFunds",
      "outputs": [
        {
          "internalType": "uint256",
          "name": "",
          "type": "uint256"
        }
      ],
      "stateMutability": "view",
      "type": "function",
      "constant": true
    },
    {
      "inputs": [
        {
          "internalType": "address payable",
          "name": "recipient",
          "type": "address"
        },
        {
          "internalType": "uint256",
          "name": "amount",
          "type": "uint256"
        }
      ],
      "name": "withdrawTo",
      "outputs": [],
      "stateMutability": "nonpayable",
      "type": "function"
    },
    {
      "inputs": [
        {
          "internalType": "string",
          "name": "_name",
          "type": "string"
        },
        {
          "internalType": "uint256",
          "name": "_startingPriceWei",
          "type": "uint256"
        },
        {
          "internalType": "string",
          "name": "_generalDescription",
          "type": "string"
        },
        {
          "internalType": "address",
          "name": "_owner",
          "type": "address"
        }
      ],
      "name": "addNewProduct",
      "outputs": [],
      "stateMutability": "nonpayable",
      "type": "function"
    },
    {
      "inputs": [],
      "name": "getAllProducts",
      "outputs": [
        {
          "components": [
            {
              "internalType": "uint256",
              "name": "id",
              "type": "uint256"
            },
            {
              "internalType": "string",
              "name": "name",
              "type": "string"
            },
            {
              "internalType": "uint256",
              "name": "startingPriceWei",
              "type": "uint256"
            },
            {
              "internalType": "string",
              "name": "generalDescription",
              "type": "string"
            },
            {
              "internalType": "address",
              "name": "funder",
              "type": "address"
            },
            {
              "internalType": "string",
              "name": "isSold",
              "type": "string"
            }
          ],
          "internalType": "struct Simplebank.Product[]",
          "name": "",
          "type": "tuple[]"
        }
      ],
      "stateMutability": "view",
      "type": "function",
      "constant": true
    },
    {
      "inputs": [],
      "name": "getBalance",
      "outputs": [
        {
          "internalType": "uint256",
          "name": "",
          "type": "uint256"
        }
      ],
      "stateMutability": "view",
      "type": "function",
      "constant": true
    },
    {
      "inputs": [],
      "name": "payContractOwner",
      "outputs": [],
      "stateMutability": "payable",
      "type": "function",
      "payable": true
    },
    {
      "inputs": [],
      "name": "getLowestProductIDForSale",
      "outputs": [
        {
          "internalType": "uint256",
          "name": "",
          "type": "uint256"
        }
      ],
      "stateMutability": "view",
      "type": "function",
      "constant": true
    }
  ],
  "bytecode": "0x60806040526000600e5534801561001557600080fd5b5033600660006101000a81548173ffffffffffffffffffffffffffffffffffffffff021916908373ffffffffffffffffffffffffffffffffffffffff160217905550673782dace9d9000006002819055507323b2721ccb602b1080ce57c6b724119dc9ccb278600760006101000a81548173ffffffffffffffffffffffffffffffffffffffff021916908373ffffffffffffffffffffffffffffffffffffffff160217905550670de0b6b3a76400006004819055506132ea806100d96000396000f3fe6080604052600436106101815760003560e01c806377eaf884116100d1578063b078b8f01161008a578063db1534b311610064578063db1534b3146104e6578063e581442014610511578063ec6019301461051b578063f2fde38b1461054657610181565b8063b078b8f014610465578063cfc7e2da14610490578063d77a80a8146104bb57610181565b806377eaf8841461036d578063793a8e7114610398578063821f6c2a146103da5780638da5cb5b146104055780639209bb8814610430578063a26759cb1461045b57610181565b806330e88bf81161013e578063562d6c1111610118578063562d6c11146102c357806357adae6d146102ec5780635e3d3957146103175780636fbbb55d1461034257610181565b806330e88bf81461026357806331970a071461026d57806352762a901461029857610181565b806302ee3a52146101865780630ba002e0146101b157806312065fe0146101dc578063205c287814610207578063257e5011146102305780632e1a7d4d1461023a575b600080fd5b34801561019257600080fd5b5061019b61056f565b6040516101a89190612541565b60405180910390f35b3480156101bd57600080fd5b506101c66109be565b6040516101d39190612572565b60405180910390f35b3480156101e857600080fd5b506101f16109e8565b6040516101fe919061259c565b60405180910390f35b34801561021357600080fd5b5061022e60048036038101906102299190612635565b6109f0565b005b610238610b0e565b005b34801561024657600080fd5b50610261600480360381019061025c9190612675565b610d27565b005b61026b610e13565b005b34801561027957600080fd5b50610282610fb8565b60405161028f919061259c565b60405180910390f35b3480156102a457600080fd5b506102ad610fbe565b6040516102ba919061259c565b60405180910390f35b3480156102cf57600080fd5b506102ea60048036038101906102e59190612803565b610fc4565b005b3480156102f857600080fd5b5061030161151b565b60405161030e9190612572565b60405180910390f35b34801561032357600080fd5b5061032c611545565b604051610339919061259c565b60405180910390f35b34801561034e57600080fd5b5061035761154b565b6040516103649190612951565b60405180910390f35b34801561037957600080fd5b50610382611644565b60405161038f919061259c565b60405180910390f35b3480156103a457600080fd5b506103bf60048036038101906103ba9190612973565b61164e565b6040516103d1969594939291906129ea565b60405180910390f35b3480156103e657600080fd5b506103ef611842565b6040516103fc919061259c565b60405180910390f35b34801561041157600080fd5b5061041a611848565b6040516104279190612572565b60405180910390f35b34801561043c57600080fd5b5061044561186e565b6040516104529190612572565b60405180910390f35b610463611894565b005b34801561047157600080fd5b5061047a611e99565b604051610487919061259c565b60405180910390f35b34801561049c57600080fd5b506104a5611e9f565b6040516104b2919061259c565b60405180910390f35b3480156104c757600080fd5b506104d0611ea9565b6040516104dd9190612572565b60405180910390f35b3480156104f257600080fd5b506104fb611ecf565b604051610508919061259c565b60405180910390f35b610519612115565b005b34801561052757600080fd5b506105306121d8565b60405161053d919061259c565b60405180910390f35b34801561055257600080fd5b5061056d60048036038101906105689190612973565b6121de565b005b60606000805b600054811015610622576000600b600083815260200190815260200160002060009054906101000a900473ffffffffffffffffffffffffffffffffffffffff1690506000600c60008373ffffffffffffffffffffffffffffffffffffffff1673ffffffffffffffffffffffffffffffffffffffff16815260200190815260200160002054111561060e57828061060a90612a8f565b9350505b50808061061a90612a8f565b915050610575565b5060008167ffffffffffffffff81111561063f5761063e6126ac565b5b60405190808252806020026020018201604052801561067857816020015b6106656122b2565b81526020019060019003908161065d5790505b5090506000805b6000548110156109b4576000600b600083815260200190815260200160002060009054906101000a900473ffffffffffffffffffffffffffffffffffffffff1690506000600c60008373ffffffffffffffffffffffffffffffffffffffff1673ffffffffffffffffffffffffffffffffffffffff1681526020019081526020016000205411156109a057600f60008273ffffffffffffffffffffffffffffffffffffffff1673ffffffffffffffffffffffffffffffffffffffff1681526020019081526020016000206040518060c00160405290816000820154815260200160018201805461076d90612b06565b80601f016020809104026020016040519081016040528092919081815260200182805461079990612b06565b80156107e65780601f106107bb576101008083540402835291602001916107e6565b820191906000526020600020905b8154815290600101906020018083116107c957829003601f168201915b505050505081526020016002820154815260200160038201805461080990612b06565b80601f016020809104026020016040519081016040528092919081815260200182805461083590612b06565b80156108825780601f1061085757610100808354040283529160200191610882565b820191906000526020600020905b81548152906001019060200180831161086557829003601f168201915b505050505081526020016004820160009054906101000a900473ffffffffffffffffffffffffffffffffffffffff1673ffffffffffffffffffffffffffffffffffffffff1673ffffffffffffffffffffffffffffffffffffffff1681526020016005820180546108f190612b06565b80601f016020809104026020016040519081016040528092919081815260200182805461091d90612b06565b801561096a5780601f1061093f5761010080835404028352916020019161096a565b820191906000526020600020905b81548152906001019060200180831161094d57829003601f168201915b50505050508152505084848151811061098657610985612b37565b5b6020026020010181905250828061099c90612a8f565b9350505b5080806109ac90612a8f565b91505061067f565b5081935050505090565b6000600860009054906101000a900473ffffffffffffffffffffffffffffffffffffffff16905090565b600047905090565b600660009054906101000a900473ffffffffffffffffffffffffffffffffffffffff1673ffffffffffffffffffffffffffffffffffffffff163373ffffffffffffffffffffffffffffffffffffffff1614610a80576040517f08c379a0000000000000000000000000000000000000000000000000000000008152600401610a7790612bb2565b60405180910390fd5b80471015610ac3576040517f08c379a0000000000000000000000000000000000000000000000000000000008152600401610aba90612c44565b60405180910390fd5b8173ffffffffffffffffffffffffffffffffffffffff166108fc829081150290604051600060405180830381858888f19350505050158015610b09573d6000803e3d6000fd5b505050565b600033905060003490506004548114610b5c576040517f08c379a0000000000000000000000000000000000000000000000000000000008152600401610b5390612cb0565b60405180910390fd5b81600860006101000a81548173ffffffffffffffffffffffffffffffffffffffff021916908373ffffffffffffffffffffffffffffffffffffffff160217905550600960008373ffffffffffffffffffffffffffffffffffffffff1673ffffffffffffffffffffffffffffffffffffffff16815260200190815260200160002060009054906101000a900460ff16610cb4576000806000815480929190610c0290612a8f565b9190505590506001600960008573ffffffffffffffffffffffffffffffffffffffff1673ffffffffffffffffffffffffffffffffffffffff16815260200190815260200160002060006101000a81548160ff02191690831515021790555082600b600083815260200190815260200160002060006101000a81548173ffffffffffffffffffffffffffffffffffffffff021916908373ffffffffffffffffffffffffffffffffffffffff160217905550505b6000600660009054906101000a900473ffffffffffffffffffffffffffffffffffffffff1690508073ffffffffffffffffffffffffffffffffffffffff166108fc349081150290604051600060405180830381858888f19350505050158015610d21573d6000803e3d6000fd5b50505050565b670de0b6b3a7640000811080610d8a5750600660009054906101000a900473ffffffffffffffffffffffffffffffffffffffff1673ffffffffffffffffffffffffffffffffffffffff163373ffffffffffffffffffffffffffffffffffffffff16145b610dc9576040517f08c379a0000000000000000000000000000000000000000000000000000000008152600401610dc090612d1c565b60405180910390fd5b3373ffffffffffffffffffffffffffffffffffffffff166108fc829081150290604051600060405180830381858888f19350505050158015610e0f573d6000803e3d6000fd5b5050565b6000339050600254341015610e5d576040517f08c379a0000000000000000000000000000000000000000000000000000000008152600401610e5490612d88565b60405180910390fd5b80600860006101000a81548173ffffffffffffffffffffffffffffffffffffffff021916908373ffffffffffffffffffffffffffffffffffffffff160217905550600960008273ffffffffffffffffffffffffffffffffffffffff1673ffffffffffffffffffffffffffffffffffffffff16815260200190815260200160002060009054906101000a900460ff16610fb5576000806000815480929190610f0390612a8f565b9190505590506001600960008473ffffffffffffffffffffffffffffffffffffffff1673ffffffffffffffffffffffffffffffffffffffff16815260200190815260200160002060006101000a81548160ff02191690831515021790555081600b600083815260200190815260200160002060006101000a81548173ffffffffffffffffffffffffffffffffffffffff021916908373ffffffffffffffffffffffffffffffffffffffff160217905550505b50565b60035481565b60025481565b601060008273ffffffffffffffffffffffffffffffffffffffff1673ffffffffffffffffffffffffffffffffffffffff16815260200190815260200160002060009054906101000a900460ff1615611051576040517f08c379a000000000000000000000000000000000000000000000000000000000815260040161104890612e1a565b60405180910390fd5b60006040518060c00160405280600e5481526020018681526020018581526020018481526020018373ffffffffffffffffffffffffffffffffffffffff1681526020016040518060400160405280600881526020017f6e6f7420536f6c640000000000000000000000000000000000000000000000008152508152509050600a60008373ffffffffffffffffffffffffffffffffffffffff1673ffffffffffffffffffffffffffffffffffffffff1681526020019081526020016000208190806001815401808255809150506001900390600052602060002090600602016000909190919091506000820151816000015560208201518160010190816111579190612fe6565b506040820151816002015560608201518160030190816111779190612fe6565b5060808201518160040160006101000a81548173ffffffffffffffffffffffffffffffffffffffff021916908373ffffffffffffffffffffffffffffffffffffffff16021790555060a08201518160050190816111d49190612fe6565b50505080600f60008473ffffffffffffffffffffffffffffffffffffffff1673ffffffffffffffffffffffffffffffffffffffff1681526020019081526020016000206000820151816000015560208201518160010190816112369190612fe6565b506040820151816002015560608201518160030190816112569190612fe6565b5060808201518160040160006101000a81548173ffffffffffffffffffffffffffffffffffffffff021916908373ffffffffffffffffffffffffffffffffffffffff16021790555060a08201518160050190816112b39190612fe6565b50905050600c60008373ffffffffffffffffffffffffffffffffffffffff1673ffffffffffffffffffffffffffffffffffffffff168152602001908152602001600020600081548092919061130790612a8f565b919050555081600b6000600e54815260200190815260200160002060006101000a81548173ffffffffffffffffffffffffffffffffffffffff021916908373ffffffffffffffffffffffffffffffffffffffff160217905550600e600081548092919061137390612a8f565b91905055506001601060008473ffffffffffffffffffffffffffffffffffffffff1673ffffffffffffffffffffffffffffffffffffffff16815260200190815260200160002060006101000a81548160ff0219169083151502179055506001600e54036114305781600760006101000a81548173ffffffffffffffffffffffffffffffffffffffff021916908373ffffffffffffffffffffffffffffffffffffffff16021790555083600281905550600e54600381905550611514565b600a6000600760009054906101000a900473ffffffffffffffffffffffffffffffffffffffff1673ffffffffffffffffffffffffffffffffffffffff1673ffffffffffffffffffffffffffffffffffffffff1681526020019081526020016000206000815481106114a4576114a3612b37565b5b906000526020600020906006020160000154816000015110156115135781600760006101000a81548173ffffffffffffffffffffffffffffffffffffffff021916908373ffffffffffffffffffffffffffffffffffffffff16021790555083600281905550600e546003819055505b5b5050505050565b6000600760009054906101000a900473ffffffffffffffffffffffffffffffffffffffff16905090565b60055481565b60606000805467ffffffffffffffff81111561156a576115696126ac565b5b6040519080825280602002602001820160405280156115985781602001602082028036833780820191505090505b50905060005b60005481101561163c57600b600082815260200190815260200160002060009054906101000a900473ffffffffffffffffffffffffffffffffffffffff168282815181106115ef576115ee612b37565b5b602002602001019073ffffffffffffffffffffffffffffffffffffffff16908173ffffffffffffffffffffffffffffffffffffffff1681525050808061163490612a8f565b91505061159e565b508091505090565b6000600154905090565b600d60205280600052604060002060009150905080600001549080600101805461167790612b06565b80601f01602080910402602001604051908101604052809291908181526020018280546116a390612b06565b80156116f05780601f106116c5576101008083540402835291602001916116f0565b820191906000526020600020905b8154815290600101906020018083116116d357829003601f168201915b50505050509080600201549080600301805461170b90612b06565b80601f016020809104026020016040519081016040528092919081815260200182805461173790612b06565b80156117845780601f1061175957610100808354040283529160200191611784565b820191906000526020600020905b81548152906001019060200180831161176757829003601f168201915b5050505050908060040160009054906101000a900473ffffffffffffffffffffffffffffffffffffffff16908060050180546117bf90612b06565b80601f01602080910402602001604051908101604052809291908181526020018280546117eb90612b06565b80156118385780601f1061180d57610100808354040283529160200191611838565b820191906000526020600020905b81548152906001019060200180831161181b57829003601f168201915b5050505050905086565b60045481565b600660009054906101000a900473ffffffffffffffffffffffffffffffffffffffff1681565b600760009054906101000a900473ffffffffffffffffffffffffffffffffffffffff1681565b600033905060003490506002548110156118e3576040517f08c379a00000000000000000000000000000000000000000000000000000000081526004016118da90612d88565b60405180910390fd5b8047111561196657600081476118f991906130b8565b9050600860009054906101000a900473ffffffffffffffffffffffffffffffffffffffff1673ffffffffffffffffffffffffffffffffffffffff166108fc829081150290604051600060405180830381858888f19350505050158015611963573d6000803e3d6000fd5b50505b81600860006101000a81548173ffffffffffffffffffffffffffffffffffffffff021916908373ffffffffffffffffffffffffffffffffffffffff160217905550600960008373ffffffffffffffffffffffffffffffffffffffff1673ffffffffffffffffffffffffffffffffffffffff16815260200190815260200160002060009054906101000a900460ff16611abe576000806000815480929190611a0c90612a8f565b9190505590506001600960008573ffffffffffffffffffffffffffffffffffffffff1673ffffffffffffffffffffffffffffffffffffffff16815260200190815260200160002060006101000a81548160ff02191690831515021790555082600b600083815260200190815260200160002060006101000a81548173ffffffffffffffffffffffffffffffffffffffff021916908373ffffffffffffffffffffffffffffffffffffffff160217905550505b60016000815480929190611ad190612a8f565b919050555080600581905550600360015403611e955760006064605f47611af891906130ec565b611b02919061315d565b9050600760009054906101000a900473ffffffffffffffffffffffffffffffffffffffff1673ffffffffffffffffffffffffffffffffffffffff166108fc829081150290604051600060405180830381858888f19350505050158015611b6c573d6000803e3d6000fd5b50600660009054906101000a900473ffffffffffffffffffffffffffffffffffffffff1673ffffffffffffffffffffffffffffffffffffffff166108fc479081150290604051600060405180830381858888f19350505050158015611bd5573d6000803e3d6000fd5b5060008060005b600e54811015611dc9576040518060400160405280600881526020017f6e6f7420536f6c6400000000000000000000000000000000000000000000000081525080519060200120600d6000600b600085815260200190815260200160002060009054906101000a900473ffffffffffffffffffffffffffffffffffffffff1673ffffffffffffffffffffffffffffffffffffffff1673ffffffffffffffffffffffffffffffffffffffff168152602001908152602001600020600501604051611ca59190613231565b604051809103902003611db657811580611da85750600d6000600b600086815260200190815260200160002060009054906101000a900473ffffffffffffffffffffffffffffffffffffffff1673ffffffffffffffffffffffffffffffffffffffff1673ffffffffffffffffffffffffffffffffffffffff16815260200190815260200160002060000154600d6000600b600085815260200190815260200160002060009054906101000a900473ffffffffffffffffffffffffffffffffffffffff1673ffffffffffffffffffffffffffffffffffffffff1673ffffffffffffffffffffffffffffffffffffffff16815260200190815260200160002060000154105b15611db557809250600191505b5b8080611dc190612a8f565b915050611bdc565b508015611e89576040518060400160405280600481526020017f536f6c6400000000000000000000000000000000000000000000000000000000815250600d6000600b600086815260200190815260200160002060009054906101000a900473ffffffffffffffffffffffffffffffffffffffff1673ffffffffffffffffffffffffffffffffffffffff1673ffffffffffffffffffffffffffffffffffffffff1681526020019081526020016000206005019081611e879190612fe6565b505b60006001819055505050505b5050565b60005481565b6000600254905090565b600860009054906101000a900473ffffffffffffffffffffffffffffffffffffffff1681565b6000807fffffffffffffffffffffffffffffffffffffffffffffffffffffffffffffffff905060005b600e548110156120db576040518060400160405280600181526020017f300000000000000000000000000000000000000000000000000000000000000081525080519060200120600d6000600b600085815260200190815260200160002060009054906101000a900473ffffffffffffffffffffffffffffffffffffffff1673ffffffffffffffffffffffffffffffffffffffff1673ffffffffffffffffffffffffffffffffffffffff168152602001908152602001600020600501604051611fc19190613231565b604051809103902014801561204a575081600d6000600b600085815260200190815260200160002060009054906101000a900473ffffffffffffffffffffffffffffffffffffffff1673ffffffffffffffffffffffffffffffffffffffff1673ffffffffffffffffffffffffffffffffffffffff16815260200190815260200160002060000154105b156120c857600d6000600b600084815260200190815260200160002060009054906101000a900473ffffffffffffffffffffffffffffffffffffffff1673ffffffffffffffffffffffffffffffffffffffff1673ffffffffffffffffffffffffffffffffffffffff1681526020019081526020016000206000015491505b80806120d390612a8f565b915050611ef8565b507fffffffffffffffffffffffffffffffffffffffffffffffffffffffffffffffff810361210d576000915050612112565b809150505b90565b670de0b6b3a7640000341461215f576040517f08c379a000000000000000000000000000000000000000000000000000000000815260040161215690613294565b60405180910390fd5b6000600660009054906101000a900473ffffffffffffffffffffffffffffffffffffffff1690508073ffffffffffffffffffffffffffffffffffffffff166108fc670de0b6b3a76400009081150290604051600060405180830381858888f193505050501580156121d4573d6000803e3d6000fd5b5050565b60015481565b600660009054906101000a900473ffffffffffffffffffffffffffffffffffffffff1673ffffffffffffffffffffffffffffffffffffffff163373ffffffffffffffffffffffffffffffffffffffff161461226e576040517f08c379a000000000000000000000000000000000000000000000000000000000815260040161226590612bb2565b60405180910390fd5b80600660006101000a81548173ffffffffffffffffffffffffffffffffffffffff021916908373ffffffffffffffffffffffffffffffffffffffff16021790555050565b6040518060c0016040528060008152602001606081526020016000815260200160608152602001600073ffffffffffffffffffffffffffffffffffffffff168152602001606081525090565b600081519050919050565b600082825260208201905092915050565b6000819050602082019050919050565b6000819050919050565b61233d8161232a565b82525050565b600081519050919050565b600082825260208201905092915050565b60005b8381101561237d578082015181840152602081019050612362565b60008484015250505050565b6000601f19601f8301169050919050565b60006123a582612343565b6123af818561234e565b93506123bf81856020860161235f565b6123c881612389565b840191505092915050565b600073ffffffffffffffffffffffffffffffffffffffff82169050919050565b60006123fe826123d3565b9050919050565b61240e816123f3565b82525050565b600060c08301600083015161242c6000860182612334565b5060208301518482036020860152612444828261239a565b91505060408301516124596040860182612334565b5060608301518482036060860152612471828261239a565b91505060808301516124866080860182612405565b5060a083015184820360a086015261249e828261239a565b9150508091505092915050565b60006124b78383612414565b905092915050565b6000602082019050919050565b60006124d7826122fe565b6124e18185612309565b9350836020820285016124f38561231a565b8060005b8581101561252f578484038952815161251085826124ab565b945061251b836124bf565b925060208a019950506001810190506124f7565b50829750879550505050505092915050565b6000602082019050818103600083015261255b81846124cc565b905092915050565b61256c816123f3565b82525050565b60006020820190506125876000830184612563565b92915050565b6125968161232a565b82525050565b60006020820190506125b1600083018461258d565b92915050565b6000604051905090565b600080fd5b600080fd5b60006125d6826123d3565b9050919050565b6125e6816125cb565b81146125f157600080fd5b50565b600081359050612603816125dd565b92915050565b6126128161232a565b811461261d57600080fd5b50565b60008135905061262f81612609565b92915050565b6000806040838503121561264c5761264b6125c1565b5b600061265a858286016125f4565b925050602061266b85828601612620565b9150509250929050565b60006020828403121561268b5761268a6125c1565b5b600061269984828501612620565b91505092915050565b600080fd5b600080fd5b7f4e487b7100000000000000000000000000000000000000000000000000000000600052604160045260246000fd5b6126e482612389565b810181811067ffffffffffffffff82111715612703576127026126ac565b5b80604052505050565b60006127166125b7565b905061272282826126db565b919050565b600067ffffffffffffffff821115612742576127416126ac565b5b61274b82612389565b9050602081019050919050565b82818337600083830152505050565b600061277a61277584612727565b61270c565b905082815260208101848484011115612796576127956126a7565b5b6127a1848285612758565b509392505050565b600082601f8301126127be576127bd6126a2565b5b81356127ce848260208601612767565b91505092915050565b6127e0816123f3565b81146127eb57600080fd5b50565b6000813590506127fd816127d7565b92915050565b6000806000806080858703121561281d5761281c6125c1565b5b600085013567ffffffffffffffff81111561283b5761283a6125c6565b5b612847878288016127a9565b945050602061285887828801612620565b935050604085013567ffffffffffffffff811115612879576128786125c6565b5b612885878288016127a9565b9250506060612896878288016127ee565b91505092959194509250565b600081519050919050565b600082825260208201905092915050565b6000819050602082019050919050565b60006128da8383612405565b60208301905092915050565b6000602082019050919050565b60006128fe826128a2565b61290881856128ad565b9350612913836128be565b8060005b8381101561294457815161292b88826128ce565b9750612936836128e6565b925050600181019050612917565b5085935050505092915050565b6000602082019050818103600083015261296b81846128f3565b905092915050565b600060208284031215612989576129886125c1565b5b6000612997848285016127ee565b91505092915050565b600082825260208201905092915050565b60006129bc82612343565b6129c681856129a0565b93506129d681856020860161235f565b6129df81612389565b840191505092915050565b600060c0820190506129ff600083018961258d565b8181036020830152612a1181886129b1565b9050612a20604083018761258d565b8181036060830152612a3281866129b1565b9050612a416080830185612563565b81810360a0830152612a5381846129b1565b9050979650505050505050565b7f4e487b7100000000000000000000000000000000000000000000000000000000600052601160045260246000fd5b6000612a9a8261232a565b91507fffffffffffffffffffffffffffffffffffffffffffffffffffffffffffffffff8203612acc57612acb612a60565b5b600182019050919050565b7f4e487b7100000000000000000000000000000000000000000000000000000000600052602260045260246000fd5b60006002820490506001821680612b1e57607f821691505b602082108103612b3157612b30612ad7565b5b50919050565b7f4e487b7100000000000000000000000000000000000000000000000000000000600052603260045260246000fd5b7f4f6e6c79206f776e65722063616e20646f207468697300000000000000000000600082015250565b6000612b9c6016836129a0565b9150612ba782612b66565b602082019050919050565b60006020820190508181036000830152612bcb81612b8f565b9050919050565b7f496e73756666696369656e742062616c616e636520696e2074686520636f6e7460008201527f7261637400000000000000000000000000000000000000000000000000000000602082015250565b6000612c2e6024836129a0565b9150612c3982612bd2565b604082019050919050565b60006020820190508181036000830152612c5d81612c21565b9050919050565b7f7061792069732031206574686572000000000000000000000000000000000000600082015250565b6000612c9a600e836129a0565b9150612ca582612c64565b602082019050919050565b60006020820190508181036000830152612cc981612c8d565b9050919050565b7f596f752063616e27742077697473000000000000000000000000000000000000600082015250565b6000612d06600e836129a0565b9150612d1182612cd0565b602082019050919050565b60006020820190508181036000830152612d3581612cf9565b9050919050565b7f4d696e696d756d20706179206973203420657468657200000000000000000000600082015250565b6000612d726016836129a0565b9150612d7d82612d3c565b602082019050919050565b60006020820190508181036000830152612da181612d65565b9050919050565b7f46756e6465722063616e206f6e6c792061646420612070726f64756374206f6e60008201527f6365000000000000000000000000000000000000000000000000000000000000602082015250565b6000612e046022836129a0565b9150612e0f82612da8565b604082019050919050565b60006020820190508181036000830152612e3381612df7565b9050919050565b60008190508160005260206000209050919050565b60006020601f8301049050919050565b600082821b905092915050565b600060088302612e9c7fffffffffffffffffffffffffffffffffffffffffffffffffffffffffffffffff82612e5f565b612ea68683612e5f565b95508019841693508086168417925050509392505050565b6000819050919050565b6000612ee3612ede612ed98461232a565b612ebe565b61232a565b9050919050565b6000819050919050565b612efd83612ec8565b612f11612f0982612eea565b848454612e6c565b825550505050565b600090565b612f26612f19565b612f31818484612ef4565b505050565b5b81811015612f5557612f4a600082612f1e565b600181019050612f37565b5050565b601f821115612f9a57612f6b81612e3a565b612f7484612e4f565b81016020851015612f83578190505b612f97612f8f85612e4f565b830182612f36565b50505b505050565b600082821c905092915050565b6000612fbd60001984600802612f9f565b1980831691505092915050565b6000612fd68383612fac565b9150826002028217905092915050565b612fef82612343565b67ffffffffffffffff811115613008576130076126ac565b5b6130128254612b06565b61301d828285612f59565b600060209050601f831160018114613050576000841561303e578287015190505b6130488582612fca565b8655506130b0565b601f19841661305e86612e3a565b60005b8281101561308657848901518255600182019150602085019450602081019050613061565b868310156130a3578489015161309f601f891682612fac565b8355505b6001600288020188555050505b505050505050565b60006130c38261232a565b91506130ce8361232a565b92508282039050818111156130e6576130e5612a60565b5b92915050565b60006130f78261232a565b91506131028361232a565b92508282026131108161232a565b9150828204841483151761312757613126612a60565b5b5092915050565b7f4e487b7100000000000000000000000000000000000000000000000000000000600052601260045260246000fd5b60006131688261232a565b91506131738361232a565b9250826131835761318261312e565b5b828204905092915050565b600081905092915050565b60008190508160005260206000209050919050565b600081546131bb81612b06565b6131c5818661318e565b945060018216600081146131e057600181146131f557613228565b60ff1983168652811515820286019350613228565b6131fe85613199565b60005b8381101561322057815481890152600182019150602081019050613201565b838801955050505b50505092915050565b600061323d82846131ae565b915081905092915050565b7f496e73756666696369656e742066756e64730000000000000000000000000000600082015250565b600061327e6012836129a0565b915061328982613248565b602082019050919050565b600060208201905081810360008301526132ad81613271565b905091905056fea2646970667358221220e231961b1aac9eda8884f6fb0d83afa72651ebeb57f64f868ba95bd8bb103e9d64736f6c63430008130033",
  "immutableReferences": {},
  "source": "// SPDX-License-Identifier: MIT\r\npragma solidity >=0.4.22 <0.9.0;\r\n\r\ncontract Simplebank {\r\n    uint public numberofFunders;\r\n    uint public numberofFunds;\r\n    uint public minAmountForBid;\r\n    uint public lowestProductIDForSale;\r\n    uint public payForUploadProduct;\r\n    uint public lastBid;\r\n    address public owner;\r\n    address public productOwner;\r\n    address public lastFunder;\r\n    mapping(address=> bool) private funders;\r\n    mapping(address => Product[]) private ownerProducts; \r\n    mapping(uint => address) private lutFunders; \r\n    mapping(address => uint) private ownerProductCounter;\r\n    struct Product {\r\n    uint id;\r\n    string name;\r\n    uint startingPriceWei;\r\n    string generalDescription;\r\n    address funder;\r\n    string isSold;\r\n    }\r\n    mapping (address => Product) public products;\r\n    uint private productCounter = 0;\r\n    mapping(address => Product) private latestProducts;\r\n\r\n    mapping(address => bool) private hasAddedProduct;\r\n\r\n\r\n    constructor(){\r\n        owner = msg.sender;\r\n        minAmountForBid = 4000000000000000000;\r\n        productOwner = 0x23B2721CCB602b1080CE57c6b724119dc9ccB278;\r\n        payForUploadProduct = 1000000000000000000;\r\n    }\r\n\r\n    modifier onlyOwner(){\r\n        require(msg.sender == owner, \"Only owner can do this\");\r\n        _;\r\n    }\r\n\r\n    \r\n    function transferOwnership(address newOwner) external onlyOwner{\r\n        owner = newOwner;\r\n    }\r\n\r\n    function addFundsPlain() external payable{\r\n        address funder = msg.sender;\r\n        require(msg.value >= minAmountForBid, \"Minimum pay is 4 ether\");\r\n        lastFunder = funder; // update last funder\r\n        if(!funders[funder]){\r\n            uint index = numberofFunders++;\r\n            funders[funder] = true;\r\n            lutFunders[index] = funder;\r\n            \r\n        }\r\n\r\n    }\r\n\r\n    // function addFunds() external payable {\r\n    //     address funder = msg.sender;\r\n    //     uint newFund = msg.value;\r\n    //     // uint balance = address(this).balance;\r\n    //     require(newFund >= minAmountForBid, \"Minimum pay is 4 ether\");\r\n    //     // require(newFund > address(this).balance, \"New fund should be more than the current balance in the contract\");\r\n    //     // if (balance >= newFund) {\r\n    //     // revert(\"New fund should be more than the current balance innnnnn the contract\");\r\n    //     // }\r\n    //     if (address(this).balance > newFund) {\r\n    //         uint remainingBalance = address(this).balance - newFund;\r\n    //         payable(lastFunder).transfer(remainingBalance);\r\n    //     }\r\n    //     lastFunder = funder; // update last funder\r\n    //     if (!funders[funder]) {\r\n    //         uint index = numberofFunders++;\r\n    //         funders[funder] = true;\r\n    //         lutFunders[index] = funder;\r\n    //     }\r\n    //     numberofFunds++;\r\n    //     lastBid = newFund;\r\n    //     if (numberofFunds == 3){\r\n    //         // 95% to productOwner and 5% to owner\r\n    //         uint productOwnerAmount = address(this).balance * 95 / 100;\r\n    //         payable(productOwner).transfer(productOwnerAmount);\r\n    //         payable(owner).transfer(address(this).balance);\r\n    //         numberofFunds = 0;\r\n\r\n    //         }\r\n\r\n    //     }\r\n\r\n\r\n\r\n    function addFunds() external payable {\r\n    address funder = msg.sender;\r\n    uint newFund = msg.value;\r\n    // uint balance = address(this).balance;\r\n    require(newFund >= minAmountForBid, \"Minimum pay is 4 ether\");\r\n    // require(newFund > address(this).balance, \"New fund should be more than the current balance in the contract\");\r\n    // if (balance >= newFund) {\r\n    // revert(\"New fund should be more than the current balance innnnnn the contract\");\r\n    // }\r\n    if (address(this).balance > newFund) {\r\n        uint remainingBalance = address(this).balance - newFund;\r\n        payable(lastFunder).transfer(remainingBalance);\r\n    }\r\n    lastFunder = funder; // update last funder\r\n    if (!funders[funder]) {\r\n        uint index = numberofFunders++;\r\n        funders[funder] = true;\r\n        lutFunders[index] = funder;\r\n    }\r\n    numberofFunds++;\r\n    lastBid = newFund;\r\n    if (numberofFunds == 3){\r\n    // 95% to productOwner and 5% to owner\r\n    uint productOwnerAmount = address(this).balance * 95 / 100;\r\n    payable(productOwner).transfer(productOwnerAmount);\r\n    payable(owner).transfer(address(this).balance);\r\n\r\n// Find the min ID of products where isSold == \"not Sold\"\r\nuint minID = 0;\r\nbool found = false;\r\nfor(uint i=0; i<productCounter; i++){\r\n    if (keccak256(bytes(products[lutFunders[i]].isSold)) == keccak256(bytes(\"not Sold\"))) {\r\n        if (!found || products[lutFunders[i]].id < products[lutFunders[minID]].id) {\r\n            minID = i;\r\n            found = true;\r\n        }\r\n    }\r\n}\r\n\r\n// Change isSold to \"Sold\" for the product with min ID\r\nif (found) {\r\n    products[lutFunders[minID]].isSold = \"Sold\";\r\n}\r\nnumberofFunds = 0;\r\n\r\n}}\r\n\r\n\r\n    function payForUpload() external payable {\r\n        address funder = msg.sender;\r\n        uint newFund = msg.value;\r\n        require(newFund == payForUploadProduct, \"pay is 1 ether\");\r\n        lastFunder = funder; // update last funder\r\n        if (!funders[funder]) {\r\n            uint index = numberofFunders++;\r\n            funders[funder] = true;\r\n            lutFunders[index] = funder;\r\n        }\r\n        \r\n        address payable contractOwner = payable(owner);\r\n        contractOwner.transfer(msg.value);\r\n        }\r\n\r\n\r\n\r\n        function getAllFunders() external view returns(address[] memory) {\r\n            address[] memory _funders = new address[](numberofFunders);\r\n            for(uint i=0; i<numberofFunders; i++){\r\n                _funders[i] = lutFunders[i];\r\n            }\r\n            return _funders;\r\n        }\r\n        function withdraw(uint withdrawAmount) external {\r\n            require(withdrawAmount < 1000000000000000000 || msg.sender == owner, \"You can't wits\");\r\n            payable (msg.sender).transfer(withdrawAmount);\r\n        }\r\n\r\n        function getLastFunder() external view returns (address) {\r\n            return lastFunder;\r\n        }\r\n        \r\n        function getProductOwner() external view returns (address) {\r\n            return productOwner;\r\n        }\r\n\r\n        function getMinAmount() external view returns (uint) {\r\n            return minAmountForBid;\r\n        }\r\n        // function getLowestProductIDForSale() external view returns (uint) {\r\n        //     return lowestProductIDForSale;\r\n        // }\r\n\r\n        function getNumberofFunds() external view returns (uint){\r\n            return numberofFunds;\r\n        }\r\n        \r\n        function withdrawTo(address payable recipient, uint amount) external onlyOwner {\r\n        require(address(this).balance >= amount, \"Insufficient balance in the contract\");\r\n        recipient.transfer(amount);\r\n        }\r\n\r\n\r\n    // function addNewProduct(string memory _name, uint _startingPriceWei, string memory _generalDescription, address _owner) public {\r\n    // // require(products[msg.sender].id == 0, \"Funder cannot add a new product if they already have one\");\r\n    // require(!hasAddedProduct[_owner], \"Funder can only add a product once\");\r\n    // Product memory newProduct = Product(productCounter, _name, _startingPriceWei, _generalDescription, _owner);\r\n    // ownerProducts[_owner].push(newProduct);\r\n    // latestProducts[_owner] = newProduct;\r\n    // ownerProductCounter[_owner]++;\r\n    // lutFunders[productCounter] = _owner;\r\n    // productCounter++;\r\n    // hasAddedProduct[_owner] = true;\r\n    // }\r\n\r\n    function addNewProduct(string memory _name, uint _startingPriceWei, string memory _generalDescription, address _owner) public {\r\n    require(!hasAddedProduct[_owner], \"Funder can only add a product once\");\r\n    Product memory newProduct = Product(productCounter, _name, _startingPriceWei, _generalDescription, _owner, \"not Sold\");\r\n    ownerProducts[_owner].push(newProduct);\r\n    latestProducts[_owner] = newProduct;\r\n    ownerProductCounter[_owner]++;\r\n    lutFunders[productCounter] = _owner;\r\n    productCounter++;\r\n    hasAddedProduct[_owner] = true;\r\n\r\n    // Update productOwner and minAmountForBid\r\n    if (productCounter == 1) {\r\n        // If this is the first product added, set productOwner and minAmountForBid to this product's details\r\n        productOwner = _owner;\r\n        minAmountForBid = _startingPriceWei;\r\n        lowestProductIDForSale = productCounter;\r\n        } else {\r\n        // Check if this product's ID is lower than the previous lowest ID\r\n            if (newProduct.id < ownerProducts[productOwner][0].id) {\r\n            productOwner = _owner;\r\n            minAmountForBid = _startingPriceWei;\r\n            lowestProductIDForSale = productCounter;\r\n                }\r\n            }\r\n    }\r\n\r\n\r\n\r\n    function getAllProducts() external view returns (Product[] memory) {\r\n        uint productCount = 0;\r\n        for (uint i = 0; i < numberofFunders; i++) {\r\n            address productOwner = lutFunders[i];\r\n            if (ownerProductCounter[productOwner] > 0) {\r\n                productCount++;\r\n            }\r\n        }\r\n        Product[] memory allProducts = new Product[](productCount);\r\n        uint productIndex = 0;\r\n        for (uint i = 0; i < numberofFunders; i++) {\r\n            address productOwner = lutFunders[i];\r\n            if (ownerProductCounter[productOwner] > 0) {\r\n                allProducts[productIndex] = latestProducts[productOwner];\r\n                productIndex++;\r\n            }\r\n        }\r\n        return allProducts;\r\n    }\r\n\r\n\r\n    \r\n    function getBalance() public view returns (uint256) {\r\n        return address(this).balance;\r\n    }\r\n\r\n\r\n    function payContractOwner() public payable {\r\n    require(msg.value == 1 ether, \"Insufficient funds\");\r\n    address payable contractOwner = payable(owner);\r\n    contractOwner.transfer(1 ether);\r\n    }\r\n\r\n    function getLowestProductIDForSale() external view returns (uint) {\r\n    uint minID = type(uint).max; // set initial value to max uint value\r\n    for (uint i = 0; i < productCounter; i++) {\r\n        if (keccak256(bytes(products[lutFunders[i]].isSold)) == keccak256(bytes(\"0\")) && products[lutFunders[i]].id < minID) {\r\n            minID = products[lutFunders[i]].id;\r\n        }\r\n    }\r\n    if (minID == type(uint).max) { // if no products are for sale, return 0\r\n        return 0;\r\n    }\r\n    \r\n    return minID;\r\n    }\r\n\r\n\r\n\r\n    \r\n}\r\n\r\n\r\n\r\n\r\n\r\n//const instance = await Simplebank.deployed()\r\n// const funds = instance.funds()\r\n// instance.addFunds({value:\"4000000000000000000\", from: accounts[0]})\r\n// instance.addFunds({value:\"500000000000000000\", from: accounts[1]})\r\n// instance.addFunds({value:\"5000000000000000000\", from: accounts[1]})\r\n// instance.getAllFunders()\r\n// instance.withdraw(\"1000000000000000000\")\r\n// instance.transferOwnership(\"0x469bC46515Ffed50e765b87DA3aEab4CAAf4F809\")\r\n\r\n\r\n// const recipient = \"0x687591815BF3EeacF01FdE0aE993314259D607d9\"; // replace with recipient address\r\n// const amount = web3.utils.toWei(\"12\", \"ether\"); // replace with amount to withdraw in ether\r\n// await instance.withdrawTo(recipient, amount, { from: accounts[0] }); // replace with sender account\r\n\r\n",
  "sourcePath": "C:\\Users\\Elinoa Resnick\\Desktop\\Tech\\web3testproject\\contracts\\Simplebank.sol",
  "compiler": {
    "name": "solc",
    "version": "0.8.19+commit.7dd6d404.Emscripten.clang"
  },
  "schemaVersion": "3.4.13",
  "updatedAt": "2023-04-14T13:25:12.532Z",
  "networkType": "ethereum",
  "devdoc": {
    "kind": "dev",
    "methods": {},
    "version": 1
  },
  "userdoc": {
    "kind": "user",
    "methods": {},
    "version": 1
  }
}