{
  "contractName": "Simplebank",
  "abi": [
    {
      "inputs": [],
      "stateMutability": "nonpayable",
      "type": "constructor"
    },
    {
      "inputs": [],
      "name": "lastBid",
      "outputs": [
        {
          "internalType": "uint256",
          "name": "",
          "type": "uint256"
        }
      ],
      "stateMutability": "view",
      "type": "function",
      "constant": true
    },
    {
      "inputs": [],
      "name": "lastFunder",
      "outputs": [
        {
          "internalType": "address",
          "name": "",
          "type": "address"
        }
      ],
      "stateMutability": "view",
      "type": "function",
      "constant": true
    },
    {
      "inputs": [],
      "name": "minAmountForBid",
      "outputs": [
        {
          "internalType": "uint256",
          "name": "",
          "type": "uint256"
        }
      ],
      "stateMutability": "view",
      "type": "function",
      "constant": true
    },
    {
      "inputs": [],
      "name": "numberofFunders",
      "outputs": [
        {
          "internalType": "uint256",
          "name": "",
          "type": "uint256"
        }
      ],
      "stateMutability": "view",
      "type": "function",
      "constant": true
    },
    {
      "inputs": [],
      "name": "numberofFunds",
      "outputs": [
        {
          "internalType": "uint256",
          "name": "",
          "type": "uint256"
        }
      ],
      "stateMutability": "view",
      "type": "function",
      "constant": true
    },
    {
      "inputs": [],
      "name": "owner",
      "outputs": [
        {
          "internalType": "address",
          "name": "",
          "type": "address"
        }
      ],
      "stateMutability": "view",
      "type": "function",
      "constant": true
    },
    {
      "inputs": [],
      "name": "productOwner",
      "outputs": [
        {
          "internalType": "address",
          "name": "",
          "type": "address"
        }
      ],
      "stateMutability": "view",
      "type": "function",
      "constant": true
    },
    {
      "inputs": [
        {
          "internalType": "address",
          "name": "",
          "type": "address"
        }
      ],
      "name": "products",
      "outputs": [
        {
          "internalType": "uint256",
          "name": "id",
          "type": "uint256"
        },
        {
          "internalType": "string",
          "name": "name",
          "type": "string"
        },
        {
          "internalType": "uint256",
          "name": "startingPriceWei",
          "type": "uint256"
        },
        {
          "internalType": "string",
          "name": "generalDescription",
          "type": "string"
        }
      ],
      "stateMutability": "view",
      "type": "function",
      "constant": true
    },
    {
      "inputs": [
        {
          "internalType": "address",
          "name": "newOwner",
          "type": "address"
        }
      ],
      "name": "transferOwnership",
      "outputs": [],
      "stateMutability": "nonpayable",
      "type": "function"
    },
    {
      "inputs": [],
      "name": "addFundsPlain",
      "outputs": [],
      "stateMutability": "payable",
      "type": "function",
      "payable": true
    },
    {
      "inputs": [],
      "name": "addFunds",
      "outputs": [],
      "stateMutability": "payable",
      "type": "function",
      "payable": true
    },
    {
      "inputs": [],
      "name": "getAllFunders",
      "outputs": [
        {
          "internalType": "address[]",
          "name": "",
          "type": "address[]"
        }
      ],
      "stateMutability": "view",
      "type": "function",
      "constant": true
    },
    {
      "inputs": [
        {
          "internalType": "uint256",
          "name": "withdrawAmount",
          "type": "uint256"
        }
      ],
      "name": "withdraw",
      "outputs": [],
      "stateMutability": "nonpayable",
      "type": "function"
    },
    {
      "inputs": [],
      "name": "getLastFunder",
      "outputs": [
        {
          "internalType": "address",
          "name": "",
          "type": "address"
        }
      ],
      "stateMutability": "view",
      "type": "function",
      "constant": true
    },
    {
      "inputs": [],
      "name": "getMinAmount",
      "outputs": [
        {
          "internalType": "uint256",
          "name": "",
          "type": "uint256"
        }
      ],
      "stateMutability": "view",
      "type": "function",
      "constant": true
    },
    {
      "inputs": [],
      "name": "getNumberofFunds",
      "outputs": [
        {
          "internalType": "uint256",
          "name": "",
          "type": "uint256"
        }
      ],
      "stateMutability": "view",
      "type": "function",
      "constant": true
    },
    {
      "inputs": [
        {
          "internalType": "address payable",
          "name": "recipient",
          "type": "address"
        },
        {
          "internalType": "uint256",
          "name": "amount",
          "type": "uint256"
        }
      ],
      "name": "withdrawTo",
      "outputs": [],
      "stateMutability": "nonpayable",
      "type": "function"
    },
    {
      "inputs": [
        {
          "internalType": "string",
          "name": "_name",
          "type": "string"
        },
        {
          "internalType": "uint256",
          "name": "_startingPriceWei",
          "type": "uint256"
        },
        {
          "internalType": "string",
          "name": "_generalDescription",
          "type": "string"
        },
        {
          "internalType": "address",
          "name": "_owner",
          "type": "address"
        }
      ],
      "name": "addNewProduct",
      "outputs": [],
      "stateMutability": "nonpayable",
      "type": "function"
    },
    {
      "inputs": [],
      "name": "getAllProducts",
      "outputs": [
        {
          "components": [
            {
              "internalType": "uint256",
              "name": "id",
              "type": "uint256"
            },
            {
              "internalType": "string",
              "name": "name",
              "type": "string"
            },
            {
              "internalType": "uint256",
              "name": "startingPriceWei",
              "type": "uint256"
            },
            {
              "internalType": "string",
              "name": "generalDescription",
              "type": "string"
            }
          ],
          "internalType": "struct Simplebank.Product[]",
          "name": "",
          "type": "tuple[]"
        }
      ],
      "stateMutability": "view",
      "type": "function",
      "constant": true
    },
    {
      "inputs": [],
      "name": "getBalance",
      "outputs": [
        {
          "internalType": "uint256",
          "name": "",
          "type": "uint256"
        }
      ],
      "stateMutability": "view",
      "type": "function",
      "constant": true
    }
  ],
  "bytecode": "0x60806040526000600c5534801561001557600080fd5b5033600460006101000a81548173ffffffffffffffffffffffffffffffffffffffff021916908373ffffffffffffffffffffffffffffffffffffffff160217905550673782dace9d9000006002819055507323b2721ccb602b1080ce57c6b724119dc9ccb278600560006101000a81548173ffffffffffffffffffffffffffffffffffffffff021916908373ffffffffffffffffffffffffffffffffffffffff16021790555061224b806100ca6000396000f3fe60806040526004361061011f5760003560e01c806377eaf884116100a0578063b078b8f011610064578063b078b8f014610376578063cfc7e2da146103a1578063d77a80a8146103cc578063ec601930146103f7578063f2fde38b146104225761011f565b806377eaf884146102ab578063793a8e71146102d65780638da5cb5b146103165780639209bb8814610341578063a26759cb1461036c5761011f565b806330e88bf8116100e757806330e88bf8146101f757806352762a9014610201578063562d6c111461022c5780635e3d3957146102555780636fbbb55d146102805761011f565b806302ee3a52146101245780630ba002e01461014f57806312065fe01461017a578063205c2878146101a55780632e1a7d4d146101ce575b600080fd5b34801561013057600080fd5b5061013961044b565b60405161014691906116a8565b60405180910390f35b34801561015b57600080fd5b506101646107b2565b604051610171919061170b565b60405180910390f35b34801561018657600080fd5b5061018f6107dc565b60405161019c9190611735565b60405180910390f35b3480156101b157600080fd5b506101cc60048036038101906101c791906117ce565b6107e4565b005b3480156101da57600080fd5b506101f560048036038101906101f0919061180e565b610902565b005b6101ff6109ee565b005b34801561020d57600080fd5b50610216610b93565b6040516102239190611735565b60405180910390f35b34801561023857600080fd5b50610253600480360381019061024e919061199c565b610b99565b005b34801561026157600080fd5b5061026a610db6565b6040516102779190611735565b60405180910390f35b34801561028c57600080fd5b50610295610dbc565b6040516102a29190611af9565b60405180910390f35b3480156102b757600080fd5b506102c0610eb5565b6040516102cd9190611735565b60405180910390f35b3480156102e257600080fd5b506102fd60048036038101906102f89190611b1b565b610ebf565b60405161030d9493929190611b92565b60405180910390f35b34801561032257600080fd5b5061032b610fff565b604051610338919061170b565b60405180910390f35b34801561034d57600080fd5b50610356611025565b604051610363919061170b565b60405180910390f35b61037461104b565b005b34801561038257600080fd5b5061038b61139b565b6040516103989190611735565b60405180910390f35b3480156103ad57600080fd5b506103b66113a1565b6040516103c39190611735565b60405180910390f35b3480156103d857600080fd5b506103e16113ab565b6040516103ee919061170b565b60405180910390f35b34801561040357600080fd5b5061040c6113d1565b6040516104199190611735565b60405180910390f35b34801561042e57600080fd5b5061044960048036038101906104449190611b1b565b6113d7565b005b60606000805b6000548110156104fe5760006009600083815260200190815260200160002060009054906101000a900473ffffffffffffffffffffffffffffffffffffffff1690506000600a60008373ffffffffffffffffffffffffffffffffffffffff1673ffffffffffffffffffffffffffffffffffffffff1681526020019081526020016000205411156104ea5782806104e690611c14565b9350505b5080806104f690611c14565b915050610451565b5060008167ffffffffffffffff81111561051b5761051a611845565b5b60405190808252806020026020018201604052801561055457816020015b6105416114ab565b8152602001906001900390816105395790505b5090506000805b6000548110156107a85760006009600083815260200190815260200160002060009054906101000a900473ffffffffffffffffffffffffffffffffffffffff1690506000600a60008373ffffffffffffffffffffffffffffffffffffffff1673ffffffffffffffffffffffffffffffffffffffff16815260200190815260200160002054111561079457600d60008273ffffffffffffffffffffffffffffffffffffffff1673ffffffffffffffffffffffffffffffffffffffff1681526020019081526020016000206040518060800160405290816000820154815260200160018201805461064990611c8b565b80601f016020809104026020016040519081016040528092919081815260200182805461067590611c8b565b80156106c25780601f10610697576101008083540402835291602001916106c2565b820191906000526020600020905b8154815290600101906020018083116106a557829003601f168201915b50505050508152602001600282015481526020016003820180546106e590611c8b565b80601f016020809104026020016040519081016040528092919081815260200182805461071190611c8b565b801561075e5780601f106107335761010080835404028352916020019161075e565b820191906000526020600020905b81548152906001019060200180831161074157829003601f168201915b50505050508152505084848151811061077a57610779611cbc565b5b6020026020010181905250828061079090611c14565b9350505b5080806107a090611c14565b91505061055b565b5081935050505090565b6000600660009054906101000a900473ffffffffffffffffffffffffffffffffffffffff16905090565b600047905090565b600460009054906101000a900473ffffffffffffffffffffffffffffffffffffffff1673ffffffffffffffffffffffffffffffffffffffff163373ffffffffffffffffffffffffffffffffffffffff1614610874576040517f08c379a000000000000000000000000000000000000000000000000000000000815260040161086b90611d37565b60405180910390fd5b804710156108b7576040517f08c379a00000000000000000000000000000000000000000000000000000000081526004016108ae90611dc9565b60405180910390fd5b8173ffffffffffffffffffffffffffffffffffffffff166108fc829081150290604051600060405180830381858888f193505050501580156108fd573d6000803e3d6000fd5b505050565b670de0b6b3a76400008110806109655750600460009054906101000a900473ffffffffffffffffffffffffffffffffffffffff1673ffffffffffffffffffffffffffffffffffffffff163373ffffffffffffffffffffffffffffffffffffffff16145b6109a4576040517f08c379a000000000000000000000000000000000000000000000000000000000815260040161099b90611e35565b60405180910390fd5b3373ffffffffffffffffffffffffffffffffffffffff166108fc829081150290604051600060405180830381858888f193505050501580156109ea573d6000803e3d6000fd5b5050565b6000339050600254341015610a38576040517f08c379a0000000000000000000000000000000000000000000000000000000008152600401610a2f90611ea1565b60405180910390fd5b80600660006101000a81548173ffffffffffffffffffffffffffffffffffffffff021916908373ffffffffffffffffffffffffffffffffffffffff160217905550600760008273ffffffffffffffffffffffffffffffffffffffff1673ffffffffffffffffffffffffffffffffffffffff16815260200190815260200160002060009054906101000a900460ff16610b90576000806000815480929190610ade90611c14565b9190505590506001600760008473ffffffffffffffffffffffffffffffffffffffff1673ffffffffffffffffffffffffffffffffffffffff16815260200190815260200160002060006101000a81548160ff021916908315150217905550816009600083815260200190815260200160002060006101000a81548173ffffffffffffffffffffffffffffffffffffffff021916908373ffffffffffffffffffffffffffffffffffffffff160217905550505b50565b60025481565b60006040518060800160405280600c548152602001868152602001858152602001848152509050600860008373ffffffffffffffffffffffffffffffffffffffff1673ffffffffffffffffffffffffffffffffffffffff168152602001908152602001600020819080600181540180825580915050600190039060005260206000209060040201600090919091909150600082015181600001556020820151816001019081610c48919061206d565b50604082015181600201556060820151816003019081610c68919061206d565b50505080600d60008473ffffffffffffffffffffffffffffffffffffffff1673ffffffffffffffffffffffffffffffffffffffff168152602001908152602001600020600082015181600001556020820151816001019081610cca919061206d565b50604082015181600201556060820151816003019081610cea919061206d565b50905050600a60008373ffffffffffffffffffffffffffffffffffffffff1673ffffffffffffffffffffffffffffffffffffffff1681526020019081526020016000206000815480929190610d3e90611c14565b91905055508160096000600c54815260200190815260200160002060006101000a81548173ffffffffffffffffffffffffffffffffffffffff021916908373ffffffffffffffffffffffffffffffffffffffff160217905550600c6000815480929190610daa90611c14565b91905055505050505050565b60035481565b60606000805467ffffffffffffffff811115610ddb57610dda611845565b5b604051908082528060200260200182016040528015610e095781602001602082028036833780820191505090505b50905060005b600054811015610ead576009600082815260200190815260200160002060009054906101000a900473ffffffffffffffffffffffffffffffffffffffff16828281518110610e6057610e5f611cbc565b5b602002602001019073ffffffffffffffffffffffffffffffffffffffff16908173ffffffffffffffffffffffffffffffffffffffff16815250508080610ea590611c14565b915050610e0f565b508091505090565b6000600154905090565b600b602052806000526040600020600091509050806000015490806001018054610ee890611c8b565b80601f0160208091040260200160405190810160405280929190818152602001828054610f1490611c8b565b8015610f615780601f10610f3657610100808354040283529160200191610f61565b820191906000526020600020905b815481529060010190602001808311610f4457829003601f168201915b505050505090806002015490806003018054610f7c90611c8b565b80601f0160208091040260200160405190810160405280929190818152602001828054610fa890611c8b565b8015610ff55780601f10610fca57610100808354040283529160200191610ff5565b820191906000526020600020905b815481529060010190602001808311610fd857829003601f168201915b5050505050905084565b600460009054906101000a900473ffffffffffffffffffffffffffffffffffffffff1681565b600560009054906101000a900473ffffffffffffffffffffffffffffffffffffffff1681565b6000339050600034905060025481101561109a576040517f08c379a000000000000000000000000000000000000000000000000000000000815260040161109190611ea1565b60405180910390fd5b8047111561111d57600081476110b0919061213f565b9050600660009054906101000a900473ffffffffffffffffffffffffffffffffffffffff1673ffffffffffffffffffffffffffffffffffffffff166108fc829081150290604051600060405180830381858888f1935050505015801561111a573d6000803e3d6000fd5b50505b81600660006101000a81548173ffffffffffffffffffffffffffffffffffffffff021916908373ffffffffffffffffffffffffffffffffffffffff160217905550600760008373ffffffffffffffffffffffffffffffffffffffff1673ffffffffffffffffffffffffffffffffffffffff16815260200190815260200160002060009054906101000a900460ff166112755760008060008154809291906111c390611c14565b9190505590506001600760008573ffffffffffffffffffffffffffffffffffffffff1673ffffffffffffffffffffffffffffffffffffffff16815260200190815260200160002060006101000a81548160ff021916908315150217905550826009600083815260200190815260200160002060006101000a81548173ffffffffffffffffffffffffffffffffffffffff021916908373ffffffffffffffffffffffffffffffffffffffff160217905550505b6001600081548092919061128890611c14565b9190505550806003819055506003600154036113975760006064605f476112af9190612173565b6112b991906121e4565b9050600560009054906101000a900473ffffffffffffffffffffffffffffffffffffffff1673ffffffffffffffffffffffffffffffffffffffff166108fc829081150290604051600060405180830381858888f19350505050158015611323573d6000803e3d6000fd5b50600460009054906101000a900473ffffffffffffffffffffffffffffffffffffffff1673ffffffffffffffffffffffffffffffffffffffff166108fc479081150290604051600060405180830381858888f1935050505015801561138c573d6000803e3d6000fd5b506000600181905550505b5050565b60005481565b6000600254905090565b600660009054906101000a900473ffffffffffffffffffffffffffffffffffffffff1681565b60015481565b600460009054906101000a900473ffffffffffffffffffffffffffffffffffffffff1673ffffffffffffffffffffffffffffffffffffffff163373ffffffffffffffffffffffffffffffffffffffff1614611467576040517f08c379a000000000000000000000000000000000000000000000000000000000815260040161145e90611d37565b60405180910390fd5b80600460006101000a81548173ffffffffffffffffffffffffffffffffffffffff021916908373ffffffffffffffffffffffffffffffffffffffff16021790555050565b6040518060800160405280600081526020016060815260200160008152602001606081525090565b600081519050919050565b600082825260208201905092915050565b6000819050602082019050919050565b6000819050919050565b611512816114ff565b82525050565b600081519050919050565b600082825260208201905092915050565b60005b83811015611552578082015181840152602081019050611537565b60008484015250505050565b6000601f19601f8301169050919050565b600061157a82611518565b6115848185611523565b9350611594818560208601611534565b61159d8161155e565b840191505092915050565b60006080830160008301516115c06000860182611509565b50602083015184820360208601526115d8828261156f565b91505060408301516115ed6040860182611509565b5060608301518482036060860152611605828261156f565b9150508091505092915050565b600061161e83836115a8565b905092915050565b6000602082019050919050565b600061163e826114d3565b61164881856114de565b93508360208202850161165a856114ef565b8060005b8581101561169657848403895281516116778582611612565b945061168283611626565b925060208a0199505060018101905061165e565b50829750879550505050505092915050565b600060208201905081810360008301526116c28184611633565b905092915050565b600073ffffffffffffffffffffffffffffffffffffffff82169050919050565b60006116f5826116ca565b9050919050565b611705816116ea565b82525050565b600060208201905061172060008301846116fc565b92915050565b61172f816114ff565b82525050565b600060208201905061174a6000830184611726565b92915050565b6000604051905090565b600080fd5b600080fd5b600061176f826116ca565b9050919050565b61177f81611764565b811461178a57600080fd5b50565b60008135905061179c81611776565b92915050565b6117ab816114ff565b81146117b657600080fd5b50565b6000813590506117c8816117a2565b92915050565b600080604083850312156117e5576117e461175a565b5b60006117f38582860161178d565b9250506020611804858286016117b9565b9150509250929050565b6000602082840312156118245761182361175a565b5b6000611832848285016117b9565b91505092915050565b600080fd5b600080fd5b7f4e487b7100000000000000000000000000000000000000000000000000000000600052604160045260246000fd5b61187d8261155e565b810181811067ffffffffffffffff8211171561189c5761189b611845565b5b80604052505050565b60006118af611750565b90506118bb8282611874565b919050565b600067ffffffffffffffff8211156118db576118da611845565b5b6118e48261155e565b9050602081019050919050565b82818337600083830152505050565b600061191361190e846118c0565b6118a5565b90508281526020810184848401111561192f5761192e611840565b5b61193a8482856118f1565b509392505050565b600082601f8301126119575761195661183b565b5b8135611967848260208601611900565b91505092915050565b611979816116ea565b811461198457600080fd5b50565b60008135905061199681611970565b92915050565b600080600080608085870312156119b6576119b561175a565b5b600085013567ffffffffffffffff8111156119d4576119d361175f565b5b6119e087828801611942565b94505060206119f1878288016117b9565b935050604085013567ffffffffffffffff811115611a1257611a1161175f565b5b611a1e87828801611942565b9250506060611a2f87828801611987565b91505092959194509250565b600081519050919050565b600082825260208201905092915050565b6000819050602082019050919050565b611a70816116ea565b82525050565b6000611a828383611a67565b60208301905092915050565b6000602082019050919050565b6000611aa682611a3b565b611ab08185611a46565b9350611abb83611a57565b8060005b83811015611aec578151611ad38882611a76565b9750611ade83611a8e565b925050600181019050611abf565b5085935050505092915050565b60006020820190508181036000830152611b138184611a9b565b905092915050565b600060208284031215611b3157611b3061175a565b5b6000611b3f84828501611987565b91505092915050565b600082825260208201905092915050565b6000611b6482611518565b611b6e8185611b48565b9350611b7e818560208601611534565b611b878161155e565b840191505092915050565b6000608082019050611ba76000830187611726565b8181036020830152611bb98186611b59565b9050611bc86040830185611726565b8181036060830152611bda8184611b59565b905095945050505050565b7f4e487b7100000000000000000000000000000000000000000000000000000000600052601160045260246000fd5b6000611c1f826114ff565b91507fffffffffffffffffffffffffffffffffffffffffffffffffffffffffffffffff8203611c5157611c50611be5565b5b600182019050919050565b7f4e487b7100000000000000000000000000000000000000000000000000000000600052602260045260246000fd5b60006002820490506001821680611ca357607f821691505b602082108103611cb657611cb5611c5c565b5b50919050565b7f4e487b7100000000000000000000000000000000000000000000000000000000600052603260045260246000fd5b7f4f6e6c79206f776e65722063616e20646f207468697300000000000000000000600082015250565b6000611d21601683611b48565b9150611d2c82611ceb565b602082019050919050565b60006020820190508181036000830152611d5081611d14565b9050919050565b7f496e73756666696369656e742062616c616e636520696e2074686520636f6e7460008201527f7261637400000000000000000000000000000000000000000000000000000000602082015250565b6000611db3602483611b48565b9150611dbe82611d57565b604082019050919050565b60006020820190508181036000830152611de281611da6565b9050919050565b7f596f752063616e27742077697473000000000000000000000000000000000000600082015250565b6000611e1f600e83611b48565b9150611e2a82611de9565b602082019050919050565b60006020820190508181036000830152611e4e81611e12565b9050919050565b7f4d696e696d756d20706179206973203420657468657200000000000000000000600082015250565b6000611e8b601683611b48565b9150611e9682611e55565b602082019050919050565b60006020820190508181036000830152611eba81611e7e565b9050919050565b60008190508160005260206000209050919050565b60006020601f8301049050919050565b600082821b905092915050565b600060088302611f237fffffffffffffffffffffffffffffffffffffffffffffffffffffffffffffffff82611ee6565b611f2d8683611ee6565b95508019841693508086168417925050509392505050565b6000819050919050565b6000611f6a611f65611f60846114ff565b611f45565b6114ff565b9050919050565b6000819050919050565b611f8483611f4f565b611f98611f9082611f71565b848454611ef3565b825550505050565b600090565b611fad611fa0565b611fb8818484611f7b565b505050565b5b81811015611fdc57611fd1600082611fa5565b600181019050611fbe565b5050565b601f82111561202157611ff281611ec1565b611ffb84611ed6565b8101602085101561200a578190505b61201e61201685611ed6565b830182611fbd565b50505b505050565b600082821c905092915050565b600061204460001984600802612026565b1980831691505092915050565b600061205d8383612033565b9150826002028217905092915050565b61207682611518565b67ffffffffffffffff81111561208f5761208e611845565b5b6120998254611c8b565b6120a4828285611fe0565b600060209050601f8311600181146120d757600084156120c5578287015190505b6120cf8582612051565b865550612137565b601f1984166120e586611ec1565b60005b8281101561210d578489015182556001820191506020850194506020810190506120e8565b8683101561212a5784890151612126601f891682612033565b8355505b6001600288020188555050505b505050505050565b600061214a826114ff565b9150612155836114ff565b925082820390508181111561216d5761216c611be5565b5b92915050565b600061217e826114ff565b9150612189836114ff565b9250828202612197816114ff565b915082820484148315176121ae576121ad611be5565b5b5092915050565b7f4e487b7100000000000000000000000000000000000000000000000000000000600052601260045260246000fd5b60006121ef826114ff565b91506121fa836114ff565b92508261220a576122096121b5565b5b82820490509291505056fea26469706673582212207520f933fa711702a91cee633c8a9a6e7417d736e729b4d2f853632b5bd9de6a64736f6c63430008130033",
  "immutableReferences": {},
  "source": "// SPDX-License-Identifier: MIT\r\npragma solidity >=0.4.22 <0.9.0;\r\n\r\ncontract Simplebank {\r\n    uint public numberofFunders;\r\n    uint public numberofFunds;\r\n    uint public minAmountForBid;\r\n    uint public lastBid;\r\n    address public owner;\r\n    address public productOwner;\r\n    address public lastFunder;\r\n    mapping(address=> bool) private funders;\r\n    mapping(address => Product[]) private ownerProducts; \r\n    mapping(uint => address) private lutFunders; \r\n    mapping(address => uint) private ownerProductCounter;\r\n    struct Product {\r\n    uint id;\r\n    string name;\r\n    uint startingPriceWei;\r\n    string generalDescription;\r\n    }\r\n    mapping (address => Product) public products;\r\n    uint private productCounter = 0;\r\n    mapping(address => Product) private latestProducts;\r\n\r\n\r\n\r\n\r\n    constructor(){\r\n        owner = msg.sender;\r\n        minAmountForBid = 4000000000000000000;\r\n        productOwner = 0x23B2721CCB602b1080CE57c6b724119dc9ccB278;\r\n    }\r\n\r\n    modifier onlyOwner(){\r\n        require(msg.sender == owner, \"Only owner can do this\");\r\n        _;\r\n    }\r\n\r\n    \r\n    function transferOwnership(address newOwner) external onlyOwner{\r\n        owner = newOwner;\r\n    }\r\n\r\n    function addFundsPlain() external payable{\r\n        address funder = msg.sender;\r\n        require(msg.value >= minAmountForBid, \"Minimum pay is 4 ether\");\r\n        lastFunder = funder; // update last funder\r\n        if(!funders[funder]){\r\n            uint index = numberofFunders++;\r\n            funders[funder] = true;\r\n            lutFunders[index] = funder;\r\n            \r\n        }\r\n\r\n    }\r\n\r\nfunction addFunds() external payable {\r\n    address funder = msg.sender;\r\n    uint newFund = msg.value;\r\n    // uint balance = address(this).balance;\r\n    require(newFund >= minAmountForBid, \"Minimum pay is 4 ether\");\r\n    // require(newFund > address(this).balance, \"New fund should be more than the current balance in the contract\");\r\n    // if (balance >= newFund) {\r\n    // revert(\"New fund should be more than the current balance innnnnn the contract\");\r\n    // }\r\n    if (address(this).balance > newFund) {\r\n        uint remainingBalance = address(this).balance - newFund;\r\n        payable(lastFunder).transfer(remainingBalance);\r\n    }\r\n    lastFunder = funder; // update last funder\r\n    if (!funders[funder]) {\r\n        uint index = numberofFunders++;\r\n        funders[funder] = true;\r\n        lutFunders[index] = funder;\r\n    }\r\n    numberofFunds++;\r\n    lastBid = newFund;\r\n    if (numberofFunds == 3){\r\n        // 95% to productOwner and 5% to owner\r\n        uint productOwnerAmount = address(this).balance * 95 / 100;\r\n        payable(productOwner).transfer(productOwnerAmount);\r\n        payable(owner).transfer(address(this).balance);\r\n        numberofFunds = 0;\r\n    }\r\n\r\n}\r\n\r\n\r\n    function getAllFunders() external view returns(address[] memory) {\r\n        address[] memory _funders = new address[](numberofFunders);\r\n        for(uint i=0; i<numberofFunders; i++){\r\n            _funders[i] = lutFunders[i];\r\n        }\r\n        return _funders;\r\n    }\r\n    function withdraw(uint withdrawAmount) external {\r\n        require(withdrawAmount < 1000000000000000000 || msg.sender == owner, \"You can't wits\");\r\n        payable (msg.sender).transfer(withdrawAmount);\r\n    }\r\n\r\n    function getLastFunder() external view returns (address) {\r\n        return lastFunder;\r\n    }\r\n\r\n    function getMinAmount() external view returns (uint) {\r\n        return minAmountForBid;\r\n    }\r\n\r\n    function getNumberofFunds() external view returns (uint){\r\n        return numberofFunds;\r\n    }\r\n    \r\n    function withdrawTo(address payable recipient, uint amount) external onlyOwner {\r\n    require(address(this).balance >= amount, \"Insufficient balance in the contract\");\r\n    recipient.transfer(amount);\r\n    }\r\n\r\n\r\n    // function addNewProduct(string memory _name, uint _startingPriceWei, string memory _generalDescription, address _owner) public {\r\n    // Product memory newProduct = Product(productCounter, _name, _startingPriceWei, _generalDescription);\r\n    // products[_owner] = newProduct;\r\n    // lutFunders[productCounter] = _owner;\r\n    // productCounter++;\r\n    // }\r\n   \r\n    // function getAllProducts() external view returns (Product[] memory) {\r\n    // uint productCount = 0;\r\n    // for (uint i = 0; i < productCounter; i++) {\r\n    //     address productOwnerr = lutFunders[i];\r\n    //     if (bytes(products[productOwnerr].name).length != 0) {\r\n    //         productCount++;\r\n    //     }\r\n    // }\r\n    // Product[] memory allProducts = new Product[](productCount);\r\n    // uint productIndex = 0;\r\n    // for (uint i = 0; i < productCounter; i++) {\r\n    //     address productOwner = lutFunders[i];\r\n    //     if (bytes(products[productOwner].name).length != 0) {\r\n    //         allProducts[productIndex] = products[productOwner];\r\n    //         productIndex++;\r\n    //     }\r\n    // }\r\n    // return allProducts;\r\n    // }\r\n\r\n    function addNewProduct(string memory _name, uint _startingPriceWei, string memory _generalDescription, address _owner) public {\r\n    Product memory newProduct = Product(productCounter, _name, _startingPriceWei, _generalDescription);\r\n    ownerProducts[_owner].push(newProduct);\r\n    latestProducts[_owner] = newProduct;\r\n    ownerProductCounter[_owner]++;\r\n    lutFunders[productCounter] = _owner;\r\n    productCounter++;\r\n}\r\n\r\nfunction getAllProducts() external view returns (Product[] memory) {\r\n    uint productCount = 0;\r\n    for (uint i = 0; i < numberofFunders; i++) {\r\n        address productOwner = lutFunders[i];\r\n        if (ownerProductCounter[productOwner] > 0) {\r\n            productCount++;\r\n        }\r\n    }\r\n    Product[] memory allProducts = new Product[](productCount);\r\n    uint productIndex = 0;\r\n    for (uint i = 0; i < numberofFunders; i++) {\r\n        address productOwner = lutFunders[i];\r\n        if (ownerProductCounter[productOwner] > 0) {\r\n            allProducts[productIndex] = latestProducts[productOwner];\r\n            productIndex++;\r\n        }\r\n    }\r\n    return allProducts;\r\n}\r\n\r\n\r\n    \r\n    function getBalance() public view returns (uint256) {\r\n        return address(this).balance;\r\n    }\r\n\r\n\r\n    \r\n}\r\n\r\n\r\n\r\n\r\n\r\n//const instance = await Simplebank.deployed()\r\n// const funds = instance.funds()\r\n// instance.addFunds({value:\"4000000000000000000\", from: accounts[0]})\r\n// instance.addFunds({value:\"500000000000000000\", from: accounts[1]})\r\n// instance.addFunds({value:\"5000000000000000000\", from: accounts[1]})\r\n// instance.getAllFunders()\r\n// instance.withdraw(\"1000000000000000000\")\r\n// instance.transferOwnership(\"0x469bC46515Ffed50e765b87DA3aEab4CAAf4F809\")\r\n\r\n\r\n// const recipient = \"0x687591815BF3EeacF01FdE0aE993314259D607d9\"; // replace with recipient address\r\n// const amount = web3.utils.toWei(\"12\", \"ether\"); // replace with amount to withdraw in ether\r\n// await instance.withdrawTo(recipient, amount, { from: accounts[0] }); // replace with sender account\r\n\r\n",
  "sourcePath": "C:\\Users\\Elinoa Resnick\\Desktop\\Tech\\web3testproject\\contracts\\Simplebank.sol",
  "compiler": {
    "name": "solc",
    "version": "0.8.19+commit.7dd6d404.Emscripten.clang"
  },
  "schemaVersion": "3.4.13",
  "updatedAt": "2023-04-05T10:05:28.934Z",
  "networkType": "ethereum",
  "devdoc": {
    "kind": "dev",
    "methods": {},
    "version": 1
  },
  "userdoc": {
    "kind": "user",
    "methods": {},
    "version": 1
  }
}